{
  "abi": [
    {
      "inputs": [
        {
          "internalType": "bytes32[]",
          "name": "merkleProof",
          "type": "bytes32[]"
        },
        {
          "internalType": "bytes32",
          "name": "merkleRoot",
          "type": "bytes32"
        },
        {
          "internalType": "address",
          "name": "sender",
          "type": "address"
        }
      ],
      "name": "verify",
      "outputs": [],
      "stateMutability": "pure",
      "type": "function"
    }
  ],
  "bytecode": {
    "object": "0x60808060405234610016576101c7908161001c8239f35b600080fdfe608060048036101561001057600080fd5b6000803560e01c63879c84e91461002657600080fd5b3461018e57606036600319011261018e5781359167ffffffffffffffff80841161018a573660238501121561018a5783820135948186116101865760059486861b602497888284010190368211610182576044356001600160a01b038116939084900361017e57603f01601f191685019586118587101761016c57604095865284526020928901838086015b83831061015c57505050509185925b81518410156101155783881b8201830151908181101561010857875282528386205b9260001981146100f657600101926100c1565b634e487b7160e01b8752601186528887fd5b90875282528386206100e3565b858984878a94833503610126578480f35b5162461bcd60e51b8152928301526014908201527334b73b30b634b21036b2b935b63290383937b7b360611b6044820152606490fd5b82358152918101918591016100b2565b634e487b7160e01b8852604187528988fd5b8880fd5b8780fd5b8380fd5b8280fd5b80fdfea2646970667358221220b9447f3542d40917b8935c245c37a6c01df8f17d62ba4dd5ecdf785a02e6762064736f6c63430008110033",
    "linkReferences": {}
  },
  "methodIdentifiers": {
    "verify(bytes32[],bytes32,address)": "879c84e9"
  },
  "id": 1
}