{
  "abi": [
    {
      "inputs": [
        {
          "internalType": "contract IFrensStorage",
          "name": "_frensStorage",
          "type": "address"
        }
      ],
      "stateMutability": "nonpayable",
      "type": "constructor"
    },
    {
      "inputs": [
        {
          "internalType": "address",
          "name": "poolAddress",
          "type": "address"
        }
      ],
      "name": "checkValidatorState",
      "outputs": [],
      "stateMutability": "nonpayable",
      "type": "function"
    },
    {
      "inputs": [
        {
          "internalType": "bytes",
          "name": "",
          "type": "bytes"
        }
      ],
      "name": "isExiting",
      "outputs": [
        {
          "internalType": "bool",
          "name": "",
          "type": "bool"
        }
      ],
      "stateMutability": "view",
      "type": "function"
    },
    {
      "inputs": [
        {
          "internalType": "bytes",
          "name": "pubKey",
          "type": "bytes"
        },
        {
          "internalType": "bool",
          "name": "_isExiting",
          "type": "bool"
        }
      ],
      "name": "setExiting",
      "outputs": [],
      "stateMutability": "nonpayable",
      "type": "function"
    },
    {
      "inputs": [],
      "name": "version",
      "outputs": [
        {
          "internalType": "uint8",
          "name": "",
          "type": "uint8"
        }
      ],
      "stateMutability": "view",
      "type": "function"
    }
  ],
  "bytecode": {
    "object": "0x60803461008257601f61058f38819003918201601f19168301916001600160401b038311848410176100875780849260209460405283398101031261008257516001600160a01b038116810361008257600080546001600160a81b03191660089290921b610100600160a81b03169190911790556040516104f1908161009e8239f35b600080fd5b634e487b7160e01b600052604160045260246000fdfe608060408181526004918236101561001657600080fd5b600090813560e01c90816354fd4d50146103db57508063809bef6214610201578063d3b150e6146100b35763d6e65cb91461005057600080fd5b346100b05760203660031901126100b05782359067ffffffffffffffff82116100b0575061009b6020610089819560ff9436910161044c565b81855193828580945193849201610498565b81016001815203019020541690519015158152f35b80fd5b5091346101fd57816003193601126101fd57803567ffffffffffffffff81116101f9576100e3903690830161044c565b602435928315158094036101f557845481516353adc3e960e11b8152602094916001600160a01b039190869082908590829060081c86165afa9081156101eb5788916101b1575b501633036101645750908261014a93925193828580945193849201610498565b810160018152030190209060ff8019835416911617905580f35b83608492519162461bcd60e51b8352820152602360248201527f4163636f756e74206973206e6f7420612074656d706f7261727920677561726460448201526234b0b760e91b6064820152fd5b90508581813d83116101e4575b6101c881836103f8565b810103126101e0575181811681036101e0573861012a565b8780fd5b503d6101be565b84513d8a823e3d90fd5b8480fd5b8380fd5b8280fd5b5090346103d757602092836003193601126101fd576001600160a01b0393813590858216908183036103d357845181810193657075624b657960d01b85526bffffffffffffffffffffffff199060601b166026820152601a815285810167ffffffffffffffff94828210868311176103c057816024818b9c8c94828d528751902090855460081c1690630180634360e71b835260448801525afa9182156103b6578892610333575b5050816102c49160ff93885193828580945193849201610498565b8101600181520301902054166102d8578480f35b803b156101f557849083855180978193630a645e5560e21b83525af1801561032957610305575b84938480f35b8311610316575052388080806102ff565b634e487b7160e01b845260419052602483fd5b83513d87823e3d90fd5b9091503d8089843e61034581846103f8565b81019183828985019403126103b25751908582116103b257019181605f840112156101e057868301519161037883610430565b90610385895192836103f8565b838252606084860101116103b2576103a96102c49360ff9560608585019101610498565b918193506102a9565b8880fd5b87513d8a823e3d90fd5b634e487b7160e01b895260418752602489fd5b8580fd5b5080fd5b9050346103d757816003193601126103d75760ff60209254168152f35b90601f8019910116810190811067ffffffffffffffff82111761041a57604052565b634e487b7160e01b600052604160045260246000fd5b67ffffffffffffffff811161041a57601f01601f191660200190565b81601f820112156104935780359061046382610430565b9261047160405194856103f8565b8284526020838301011161049357816000926020809301838601378301015290565b600080fd5b60005b8381106104ab5750506000910152565b818101518382015260200161049b56fea264697066735822122041ebbe585fc30f7ffd50ed98c9c046074696a968577ed2988e5a27d4fb2c718364736f6c63430008110033",
    "linkReferences": {}
  },
  "methodIdentifiers": {
    "checkValidatorState(address)": "809bef62",
    "isExiting(bytes)": "d6e65cb9",
    "setExiting(bytes,bool)": "d3b150e6",
    "version()": "54fd4d50"
  },
  "id": 7
}