{
  "abi": [
    {
      "inputs": [
        {
          "internalType": "contract IFrensStorage",
          "name": "_frensStorage",
          "type": "address"
        }
      ],
      "stateMutability": "nonpayable",
      "type": "constructor"
    },
    {
      "inputs": [
        {
          "internalType": "uint256",
          "name": "id",
          "type": "uint256"
        }
      ],
      "name": "tokenURI",
      "outputs": [
        {
          "internalType": "string",
          "name": "",
          "type": "string"
        }
      ],
      "stateMutability": "view",
      "type": "function"
    },
    {
      "inputs": [],
      "name": "version",
      "outputs": [
        {
          "internalType": "uint8",
          "name": "",
          "type": "uint8"
        }
      ],
      "stateMutability": "view",
      "type": "function"
    }
  ],
  "bytecode": {
    "object": "0x60806040818152346101885781610b47803803809161001e828561018d565b833960209384918101031261018857516001600160a01b0380821682036101885760008054610100600160a81b0319811660089490941b610100600160a81b031693841780835585516f636f6e74726163742e6164647265737360801b8189019081526d4672656e73506f6f6c536861726560901b6030830152601e82529097939594929391888801916001600160401b0383118a84101761017457828952895190206321f8a72160e01b835260448a015282908290602490829060081c87165afa91821561016a578692610126575b5050600180546001600160a01b031916929091169190911790556001600160a81b031916176002179055516109809150816101c78239f35b809250979092973d8311610163575b61013f818561018d565b8101031261015f575194808616860361015f5793948594906002386100ee565b8380fd5b503d610135565b87513d88823e3d90fd5b634e487b7160e01b88526041600452602488fd5b600080fd5b601f909101601f19168101906001600160401b038211908210176101b057604052565b634e487b7160e01b600052604160045260246000fdfe6080604081815260048036101561001557600080fd5b600092833560e01c90816354fd4d5014610698575063c87b56dd1461003957600080fd5b34610694576020928360031936011261069157600180548451634f558e7960e01b815284358186018190526001600160a01b03949360249390929089908290869082908a165afa90811561068757859161064d575b5015610617578651948886016a1c1bdbdb0b999bdc8b9a5960aa1b815282602b880152602b8752606087019667ffffffffffffffff9781811089821117610605578a5251902081906100df906107bc565b169061012d89518b8101906f636f6e74726163742e6164647265737360801b82526e233932b739a6b2ba30a432b63832b960891b6030820152601f8152610125816106dc565b5190206107bc565b16918851631865c57d60e01b815286818a81865afa801561049c576105eb575b50885163ef21184f60e01b81528881018290529286848781845afa93841561049c5787946105cf575b5089516333c7180560e11b8152898101839052928b848881845afa9384156105965788946105a0575b508a51936376e8a45160e11b85528a85015287848881855afa938415610596578894610572575b50808b5196606088018881108c821117610560578e8e918252602a8a5236908a013787511561054e5760308e890153875181101561054e57607860218901536029905b8082116104e65750506104a6578790878b8d5194859384926328243e6d60e21b84528301525afa801561049c57918a918c936103ad575b50610289603161035a9796946068969461025c61029995610870565b90519382706672656e20706f6f6c207368617265202360781b8694850152825192839186860191016106b9565b810103601181018352019061070e565b89519384927f74686973206672656e206861732061206465706f736974206f662000000000008d8501526102d78d8251928391603b880191016106b9565b83016c01022ba341034b7103837b7b61609d1b603b8201526103038d83519384916048850191016106b9565b017f2c207769746820636c61696d61626c652062616c616e6365206f662000000000604882015261033e8c83519384916064850191016106b9565b01630408ae8d60e31b606482015203604881018352019061070e565b8451938685019384118585101761039c575050818452825261038e83519485938185525192838092860152858501906106b9565b601f01601f19168101030190f35b634e487b7160e01b83526041905281fd5b915091503d8088833e6103c0818361070e565b8101908a8183031261049857805189811161045e57810182601f8201121561045e5780518a8111610486578d80828f9360051b9351906104028386018361070e565b8152019183010191848311610482578e01905b828210610462575050508b8101519089821161045e5760318d8d61025c61035a9a999761044d60689a9861029998610289980161074c565b509550509496509496975050610240565b8880fd5b815163ffffffff8116810361047e578152908e01908e01610415565b8b80fd5b8a80fd5b634e487b7160e01b8a5260418c52888afd5b8780fd5b8a513d89823e3d90fd5b60648a8d89818f519362461bcd60e51b85528401528201527f537472696e67733a20686578206c656e67746820696e73756666696369656e746044820152fd5b9091600f8116601081101561053b576f181899199a1a9b1b9c1cb0b131b232b360811b901a610515848b610849565b538c1c918015610529576000190190610209565b634e487b7160e01b8b5260118d52898bfd5b50634e487b7160e01b8b5260328d52898bfd5b634e487b7160e01b8a5260328c52888afd5b634e487b7160e01b8b5260418d52898bfd5b61058f9194503d808a833e610587818361070e565b810190610796565b92386101c6565b8b513d8a823e3d90fd5b9093508b81813d83116105c8575b6105b8818361070e565b810103126104985751923861019f565b503d6105ae565b6105e49194503d8089833e610587818361070e565b9238610176565b6105fe903d8089833e610587818361070e565b503861014d565b634e487b7160e01b885260418a528688fd5b865162461bcd60e51b8152808701899052601181850152701a5908191bd95cc81b9bdd08195e1a5cdd607a1b6044820152606490fd5b90508881813d8311610680575b610664818361070e565b8101031261067c5751801515810361067c573861008e565b8480fd5b503d61065a565b88513d87823e3d90fd5b80fd5b8280fd5b8490346106b557816003193601126106b55760ff60209254168152f35b5080fd5b60005b8381106106cc5750506000910152565b81810151838201526020016106bc565b6040810190811067ffffffffffffffff8211176106f857604052565b634e487b7160e01b600052604160045260246000fd5b90601f8019910116810190811067ffffffffffffffff8211176106f857604052565b67ffffffffffffffff81116106f857601f01601f191660200190565b81601f8201121561079157805161076281610730565b92610770604051948561070e565b818452602082840101116107915761078e91602080850191016106b9565b90565b600080fd5b9060208282031261079157815167ffffffffffffffff81116107915761078e920161074c565b60018060a01b036000602082825460081c16936024604051809681936321f8a72160e01b835260048301525afa92831561083c5781936107fd575b50505090565b909192506020813d8211610834575b816108196020938361070e565b810103126106b55751918216820361069157503880806107f7565b3d915061080c565b50604051903d90823e3d90fd5b90815181101561085a570160200190565b634e487b7160e01b600052603260045260246000fd5b801561092c5780816000925b610912575061088a82610730565b91610898604051938461070e565b80835281601f196108a883610730565b013660208601375b6108b957505090565b60001981019081116108fc578091600a91603083830681018091116108fc5760f81b6001600160f81b03191660001a906108f39086610849565b530490816108b0565b634e487b7160e01b600052601160045260246000fd5b909160001981146108fc576001019190600a90048061087c565b50604051610939816106dc565b60018152600360fc1b60208201529056fea26469706673582212209ef4b0cfb893237c727ad8b77190d322c07b6a4e1e478349ee7b93627d5b97c064736f6c63430008110033",
    "linkReferences": {}
  },
  "methodIdentifiers": {
    "tokenURI(uint256)": "c87b56dd",
    "version()": "54fd4d50"
  },
  "id": 8
}