{
  "abi": [
    {
      "inputs": [
        {
          "internalType": "contract IFrensStorage",
          "name": "frensStorage_",
          "type": "address"
        }
      ],
      "stateMutability": "nonpayable",
      "type": "constructor"
    },
    {
      "inputs": [
        {
          "internalType": "uint256",
          "name": "id",
          "type": "uint256"
        }
      ],
      "name": "tokenURI",
      "outputs": [
        {
          "internalType": "string",
          "name": "",
          "type": "string"
        }
      ],
      "stateMutability": "view",
      "type": "function"
    }
  ],
  "bytecode": {
    "object": "0x6080604090808252346101535780610fb2803803809161001f8285610158565b833960209283918101031261015357516001600160a01b0380821692909183900361015357600180546001600160a01b0319908116851790915584516f636f6e74726163742e6164647265737360801b8382019081526d4672656e73506f6f6c536861726560901b6030830152601e825291949092838701929091906001600160401b0384118585101761013d5760248484938193828c52885190206321f8a72160e01b835260448901525afa928315610132576000936100f5575b5050501690600054161760005551610e36908161017c8239f35b813d831161012b575b6101088185610158565b81010312610127575190828216820361012457503880806100db565b80fd5b5080fd5b503d6100fe565b86513d6000823e3d90fd5b634e487b7160e01b600052604160045260246000fd5b600080fd5b601f909101601f19168101906001600160401b0382119082101761013d5760405256fe6080604052600436101561001257600080fd5b60003560e01c63c87b56dd1461002757600080fd5b34610569576020366003190112610569576000546103a29061039d9061005d906001600160a01b03165b6001600160a01b031690565b634f558e7960e01b6080908152600435608452602090602481845afa801561055c575b60009061052a575b6100919061064e565b60015461012a906020906100ad906001600160a01b0316610051565b604051610103816100f56100da8683016010906f636f6e74726163742e6164647265737360801b81520190565b6e233932b739a6b2ba30a432b63832b960891b8152600f0190565b03601f198101835282610604565b8281519101209060405180809581946321f8a72160e01b8352600483019190602083019252565b03915afa90811561051d575b6000916104fe575b50604051630178b36760e31b8152600480359082015291602090839060249082905afa9182156104f1575b6000926104c8575b50604051631865c57d60e01b8152610349916102f7916000816004816001600160a01b0389165afa80156104bb575b6104a0575b5060405163ef21184f60e01b81526004803590820152906001600160a01b0316600082602481845afa918215610493575b600092610468575b506040516333c7180560e11b815260048035908201526102af916103399161024691600091906020826024816001600160a01b038e165afa91821561045b575b839261042a575b5060405180809581946376e8a45160e11b8352600483019190602083019252565b03915afa90811561041d575b6000916103fa575b506102a96103106102736001600160a01b038a16610bea565b6102bd6102af6102846004356109b6565b604051706672656e20706f6f6c207368617265202360781b6020820152918291603183015b90610749565b0390601f1982018152610604565b6102a96040519889986102a960208b01601b907f74686973206672656e206861732061206465706f736974206f6620000000000081520190565b6c01022ba341034b7103837b7b61609d1b8152600d0190565b7f2c207769746820636c61696d61626c652062616c616e6365206f6620000000008152601c0190565b630408ae8d60e31b815260040190565b604051638da5cb5b60e01b815261038b906020816004816001600160a01b0387165afa9081156103ed575b6000916103be575b506001600160a01b0316610bea565b506001600160a01b03166004356107d5565b610d17565b506103ba6103ae610792565b60405191829182610591565b0390f35b6103e0915060203d6020116103e6575b6103d88183610604565b81019061068e565b3861037c565b503d6103ce565b6103f5610641565b610374565b61041791503d806000833e61040f8183610604565b8101906106d8565b3861025a565b610425610641565b610252565b61044d91925060203d602011610454575b6104458183610604565b81019061073a565b9038610225565b503d61043b565b610463610641565b61021e565b6102af9192506102466000610489610339933d8084833e61040f8183610604565b94935050506101de565b61049b610641565b6101d6565b6104b4903d806000833e61040f8183610604565b50386101a5565b6104c3610641565b6101a0565b6103499192506104e96102f79160203d6020116103e6576103d88183610604565b929150610171565b6104f9610641565b610169565b610517915060203d6020116103e6576103d88183610604565b3861013e565b610525610641565b610136565b5060203d602011610555575b61054e81610546610091936105d4565b608001610626565b9050610088565b503d610536565b610564610641565b610080565b600080fd5b60005b8381106105815750506000910152565b8181015183820152602001610571565b604091602082526105b1815180928160208601526020868601910161056e565b601f01601f1916010190565b50634e487b7160e01b600052604160045260246000fd5b601f80199101166080016080811067ffffffffffffffff8211176105f757604052565b6105ff6105bd565b604052565b90601f8019910116810190811067ffffffffffffffff8211176105f757604052565b602090607f1901126105695760805180151581036105695790565b506040513d6000823e3d90fd5b1561065557565b60405162461bcd60e51b81526020600482015260116024820152701a5908191bd95cc81b9bdd08195e1a5cdd607a1b6044820152606490fd5b9081602091031261056957516001600160a01b03811681036105695790565b60209067ffffffffffffffff81116106cb575b601f01601f19160190565b6106d36105bd565b6106c0565b6020818303126105695780519067ffffffffffffffff8211610569570181601f8201121561056957805161070b816106ad565b926107196040519485610604565b8184526020828401011161056957610737916020808501910161056e565b90565b90816020910312610569575190565b9061075c6020928281519485920161056e565b0190565b604051906020820182811067ffffffffffffffff821117610785575b60405260008252565b61078d6105bd565b61077c565b604051906040820182811067ffffffffffffffff8211176107c8575b60405260088252670626466686a6c6e760c31b6020830152565b6107d06105bd565b6107ae565b6108e49160006108336107379360405190638ae578fd60e01b825260208260048160018060a01b038099165afa91821561093c575b849261091c575b5060405194858094819363516b636d60e11b8352600483019190602083019252565b0392165afa90811561090f575b6000916108f6575b506100f56040519384926102a960208501606c907f3c7376672077696474683d2234303022206865696768743d223430302220786d81527f6c6e733d22687474703a2f2f7777772e77332e6f72672f323030302f7376672260208201527f20786d6c6e733a786c696e6b3d22687474703a2f2f7777772e77332e6f72672f60408201526b189c9c9c97bc3634b735911f60a11b60608201520190565b651e17b9bb339f60d11b815260060190565b610909913d8091833e61040f8183610604565b38610848565b610917610641565b610840565b61093591925060203d81116103e6576103d88183610604565b9038610811565b610944610641565b61080a565b604051906060820182811067ffffffffffffffff821117610977575b604052602a8252604082602036910137565b61097f6105bd565b610965565b9061098e826106ad565b61099b6040519182610604565b82815280926109ac601f19916106ad565b0190602036910137565b806000917a184f03e93ff9f4daa797ed6e38ed64bf6a1f01000000000000000080821015610aeb575b506d04ee2d6d415b85acef810000000080831015610adc575b50662386f26fc1000080831015610acd575b506305f5e10080831015610abe575b5061271080831015610aaf575b506064821015610a9f575b600a80921015610a95575b600190816021610a4d828701610984565b95860101905b610a5f575b5050505090565b600019019083906f181899199a1a9b1b9c1cb0b131b232b360811b8282061a835304918215610a9057919082610a53565b610a58565b9160010191610a3c565b9190606460029104910191610a31565b60049193920491019138610a26565b60089193920491019138610a19565b60109193920491019138610a0a565b602091939204910191386109f8565b6040935081049150386109df565b50634e487b7160e01b600052601160045260246000fd5b600281901b91906001600160fe1b03811603610b2857565b610b30610af9565b565b9060028201809211610b2857565b9060208201809211610b2857565b50634e487b7160e01b600052603260045260246000fd5b906020918051821015610b7757010190565b610b7f610b4e565b010190565b8015610b92575b6000190190565b610b9a610af9565b610b8b565b15610ba657565b606460405162461bcd60e51b815260206004820152602060248201527f537472696e67733a20686578206c656e67746820696e73756666696369656e746044820152fd5b610bf2610949565b90815115610c8c575b603060208301538151600190811015610c7f575b90607860218401536029915b808311610c2e5750610737915015610b9f565b9080600f610c6b92166010811015610c72575b6f181899199a1a9b1b9c1cb0b131b232b360811b901a610c618587610b65565b5360041c92610b84565b9190610c1b565b610c7a610b4e565b610c41565b610c87610b4e565b610c0f565b610c94610b4e565b610bfb565b604051906060820182811067ffffffffffffffff821117610d0a575b604052604082527f6768696a6b6c6d6e6f707172737475767778797a303132333435363738392b2f6040837f4142434445464748494a4b4c4d4e4f505152535455565758595a61626364656660208201520152565b610d126105bd565b610cb5565b805115610df757610d26610c99565b610d42610d3d610d368451610b32565b6003900490565b610b10565b91610d54610d4f84610b40565b610984565b92835280815182019060208501935b828210610da557505050600390510680600114610d9457600214610d85575090565b603d60f81b6000199091015290565b50613d3d60f01b6001199091015290565b9091936004906003809401938451600190603f9082828260121c16880101518553828282600c1c16880101518386015382828260061c1688010151600286015316850101519082015301939190610d63565b5061073761076056fea26469706673582212206e49f67262f9b36351de85ee50232986449c717ab5d0bd17a2e9c1cd27ce684d64736f6c63430008110033",
    "linkReferences": {}
  },
  "methodIdentifiers": {
    "tokenURI(uint256)": "c87b56dd"
  },
  "id": 4
}