{
  "abi": [
    {
      "inputs": [
        {
          "internalType": "contract IFrensStorage",
          "name": "_frensStorage",
          "type": "address"
        }
      ],
      "stateMutability": "nonpayable",
      "type": "constructor"
    },
    {
      "inputs": [
        {
          "internalType": "uint256",
          "name": "id",
          "type": "uint256"
        }
      ],
      "name": "tokenURI",
      "outputs": [
        {
          "internalType": "string",
          "name": "",
          "type": "string"
        }
      ],
      "stateMutability": "view",
      "type": "function"
    },
    {
      "inputs": [],
      "name": "version",
      "outputs": [
        {
          "internalType": "uint8",
          "name": "",
          "type": "uint8"
        }
      ],
      "stateMutability": "view",
      "type": "function"
    }
  ],
  "bytecode": {
    "object": "0x60806040908082523462000192578062001515803803809162000023828562000197565b83396020928391810103126200019257516001600160a01b0391908281168103620001925760008054610100600160a81b0319811660089390931b610100600160a81b031692831780835586516f636f6e74726163742e6164647265737360801b8187019081526d4672656e73506f6f6c536861726560901b6030830152601e82529396949592949390928389019290916001600160401b038411858510176200017e576024848785948294838f52895190206321f8a72160e01b845260448a015260081c165afa9283156200017457879362000131575b5050600180546001600160a01b03191693909216929092179055506001600160a81b031916179055516113439081620001d28239f35b90809293503d83116200016c575b6200014b818562000197565b8101031262000168575181811681036200016857388080620000fb565b8480fd5b503d6200013f565b88513d89823e3d90fd5b634e487b7160e01b89526041600452602489fd5b600080fd5b601f909101601f19168101906001600160401b03821190821017620001bb57604052565b634e487b7160e01b600052604160045260246000fdfe6040608081526004908136101561001557600080fd5b6000803560e01c806354fd4d50146109545763c87b56dd1461003657600080fd5b34610951576020928360031936011261094d5760015484908235906100aa9061006f906001600160a01b03165b6001600160a01b031690565b8387518092634f558e7960e01b82528180610091888b83019190602083019252565b03915afa908115610940575b8691610913575b50610a6a565b848051946102626100f6858801886100da8783602b916a1c1bdbdb0b999bdc8b9a5960aa1b8252600b8201520190565b03986100ee601f199a8b8101835282610a1e565b519020610ccb565b8760018060a01b03888584610161610063858316968d6100ee8d51918201928261015561013a866010906f636f6e74726163742e6164647265737360801b81520190565b6e233932b739a6b2ba30a432b63832b960891b8152600f0190565b03908101835282610a1e565b94895194631865c57d60e01b865283868681855afa958615610906575b84966108e8575b50610218959616908c8b519563ef21184f60e01b87528d8d8789806101b1858783019190602083019252565b0381895afa9889156108db575b88996108b1575b50516333c7180560e11b8152808301918252879392918390829081906020015b0381885afa9283156108a4575b8493610875575b50508d5198899283926376e8a45160e11b845283019190602083019252565b0381855afa958615610868575b8496610840575b50610236906110f7565b8a516328243e6d60e21b81526001600160a01b039093169d83019d8e529c919788928391829160200190565b03915afa8015610833575b8695879161080b575b5061028089610fad565b9a8851809c8c82016102aa90601190706672656e20706f6f6c207368617265202360781b81520190565b6102b391610bff565b038d81018d526102c3908d610a1e565b8851958d878d81016102f990601b907f74686973206672656e206861732061206465706f736974206f6620000000000081520190565b6103039087610bff565b6c01022ba341034b7103837b7b61609d1b8152600d016103239085610bff565b7f2c207769746820636c61696d61626c652062616c616e6365206f6620000000008152601c016103539088610bff565b630408ae8d60e31b81526004010390810188526103709088610a1e565b61037a908b610d59565b61038390611224565b9961038d90610fad565b87516107f35761039b610ca8565b965b88516107db576103ab610ca8565b985b80516107c3576103bb610ca8565b9a5b50805161079357506103cd610ca8565b9a5b51683d913730b6b2911d1160b91b9d81019d8e529d8e9d6009016103f291610bff565b71111610113232b9b1b934b83a34b7b7111d1160711b815260120161041691610bff565b7f222c202265787465726e616c5f75726c223a2268747470733a2f2f6672656e7381526a2e66756e2f746f6b656e2f60a81b6020820152602b0161045991610bff565b7f222c202261747472696275746573223a205b7b2274726169745f74797065223a81527110113837b7b6111610113b30b63ab2911d1160711b60208201526032016104a391610bff565b7f227d2c7b2274726169745f74797065223a202276616c696461746f72207075628152733634b19035b2bc911610113b30b63ab2911d101160611b60208201526034016104ef91610bff565b7f227d2c7b2274726169745f74797065223a20226465706f736974222c20227661815266363ab2911d101160c91b602082015260270161052e91610bff565b630408ae8d60e31b81526004017f227d2c7b2274726169745f74797065223a2022636c61696d61626c65222c20228152683b30b63ab2911d101160b91b602082015260290161057c91610bff565b630408ae8d60e31b81526004017f227d2c7b2274726169745f74797065223a2022706f6f6c207374617465222c20815269113b30b63ab2911d101160b11b6020820152602a016105cb91610bff565b7f227d2c7b2274726169745f74797065223a20226f70657261746f7231222c20228152683b30b63ab2911d101160b91b602082015260290161060c91610bff565b7f227d2c7b2274726169745f74797065223a20226f70657261746f7232222c20228152683b30b63ab2911d101160b91b602082015260290161064d91610bff565b7f227d2c7b2274726169745f74797065223a20226f70657261746f7233222c20228152683b30b63ab2911d101160b91b602082015260290161068e91610bff565b7f227d2c7b2274726169745f74797065223a20226f70657261746f7234222c20228152683b30b63ab2911d101160b91b60208201526029016106cf91610bff565b6e113eae96101134b6b0b3b2911d101160891b8152600f017f646174613a696d6167652f7376672b786d6c3b6261736536342c0000000000008152601a0161071691610bff565b61227d60f01b81526002010382810182526107319082610a1e565b61073a90611224565b82517f646174613a6170706c69636174696f6e2f6a736f6e3b6261736536342c00000094810194855293849190601d0161077391610bff565b0390810183526107839083610a1e565b5161078f819282610996565b0390f35b6107b86107af6107a56107bd93610c65565b5163ffffffff1690565b63ffffffff1690565b610fad565b9a6103cf565b6107d56107b86107af6107a584610c54565b9a6103bd565b6107ed6107b86107af6107a58c610c43565b986103ad565b6108056107b86107af6107a58b610c2d565b9661039d565b905061082a9195503d8088833e6108228183610a1e565b810190610b4f565b94909438610276565b61083b610a5d565b61026d565b610236919650610861903d8087833e6108598183610a1e565b810190610b1a565b959061022c565b610870610a5d565b610225565b610895929350803d1061089d575b61088d8183610a1e565b810190610b40565b908f806101f9565b503d610883565b6108ac610a5d565b6101f2565b6101e5919950938093926108cf8a963d8089833e6108598183610a1e565b9a9250929394506101c5565b6108e3610a5d565b6101be565b6102189650610900903d8087833e6108598183610a1e565b95610185565b61090e610a5d565b61017e565b6109339150843d8611610939575b61092b8183610a1e565b810190610a40565b386100a4565b503d610921565b610948610a5d565b61009d565b5080fd5b80fd5b503461095157806003193601126109515760ff90541660805260206080f35b60005b8381106109865750506000910152565b8181015183820152602001610976565b604091602082526109b68151809281602086015260208686019101610973565b601f01601f1916010190565b50634e487b7160e01b600052604160045260246000fd5b6040810190811067ffffffffffffffff8211176109f557604052565b6109fd6109c2565b604052565b6060810190811067ffffffffffffffff8211176109f557604052565b90601f8019910116810190811067ffffffffffffffff8211176109f557604052565b90816020910312610a5857518015158103610a585790565b600080fd5b506040513d6000823e3d90fd5b15610a7157565b60405162461bcd60e51b81526020600482015260116024820152701a5908191bd95cc81b9bdd08195e1a5cdd607a1b6044820152606490fd5b60209067ffffffffffffffff8111610ac8575b601f01601f19160190565b610ad06109c2565b610abd565b81601f82011215610a58578051610aeb81610aaa565b92610af96040519485610a1e565b81845260208284010111610a5857610b179160208085019101610973565b90565b90602082820312610a5857815167ffffffffffffffff8111610a5857610b179201610ad5565b90816020910312610a58575190565b919091604081840312610a585780519267ffffffffffffffff93848111610a585782019381601f86011215610a5857845194818611610bf2575b8560051b9060405191602097610ba189830185610a1e565b8352878084019183010191858311610a58578801905b828210610bd65750505094830151908111610a5857610b179201610ad5565b815163ffffffff81168103610a58578152908801908801610bb7565b610bfa6109c2565b610b89565b90610c1260209282815194859201610973565b0190565b50634e487b7160e01b600052603260045260246000fd5b602090805115610c3b570190565b610c12610c16565b604090805160011015610c3b570190565b606090805160021015610c3b570190565b608090805160031015610c3b570190565b604051906020820182811067ffffffffffffffff821117610c9b575b60405260008252565b610ca36109c2565b610c92565b60405190610cb5826109d9565b6007825266139bdd0814d95d60ca1b6020830152565b60018060a01b036000602082825460081c16936024604051809681936321f8a72160e01b835260048301525afa928315610d4c575b8193610d0d575b50505090565b909192506020813d8211610d44575b81610d2960209383610a1e565b8101031261094d575191821682036109515750388080610d07565b3d9150610d1c565b610d54610a5d565b610d00565b610ee191610b17916000610e5b610dcd6040519485610db9602082019283602d917f706f6f6c2e73706563696669632e6172742e616464726573730000000000000082526bffffffffffffffffffffffff199060601b1660198201520190565b03956100ee601f1997888101835282610a1e565b6001600160a01b039390841680158414610f195750610e3861006360405160208101906100ee81610e2c610e18856010906f636f6e74726163742e6164647265737360801b81520190565b67119c995b9cd05c9d60c21b815260080190565b038a8101835282610a1e565b905b60405194858094819363516b636d60e11b8352600483019190602083019252565b0392165afa908115610f0c575b600091610ef3575b50610155604051948592610edb602085016041907f3c7376672077696474683d2234303022206865696768743d223430302220786d81527f6c6e733d22687474703a2f2f7777772e77332e6f72672f323030302f737667226020820152601f60f91b60408201520190565b90610bff565b651e17b9bb339f60d11b815260060190565b610f06913d8091833e6108598183610a1e565b38610e70565b610f14610a5d565b610e68565b90610e3a565b50634e487b7160e01b600052601160045260246000fd5b90610f4082610aaa565b610f4d6040519182610a1e565b8281528092610f5e601f1991610aaa565b0190602036910137565b9060028201809211610f7657565b610f7e610f1f565b565b9060208201809211610f7657565b906020918051821015610fa057010190565b610fa8610c16565b010190565b801561105b576000818181805b6110315750610fc881610f36565b935b610fd45750505090565b6000198101908111611024575b8091600a9161100e60308484068101809111611017575b60f81b6001600160f81b031916861a9187610f8e565b53049081610fca565b61101f610f1f565b610ff8565b61102c610f1f565b610fe1565b91506001600a91600019811461104e575b01910480849291610fba565b611056610f1f565b611042565b50604051611068816109d9565b60018152600360fc1b602082015290565b600281901b91906001600160fe1b03811603610f7657565b801561109f575b6000190190565b6110a7610f1f565b611098565b156110b357565b606460405162461bcd60e51b815260206004820152602060248201527f537472696e67733a20686578206c656e67746820696e73756666696369656e746044820152fd5b6040519061110482610a02565b602a82526040366020840137603061111b83610c2d565b538151600190811015611199575b90607860218401536029915b8083116111485750610b179150156110ac565b9080600f6111859216601081101561118c575b6f181899199a1a9b1b9c1cb0b131b232b360811b901a61117b8587610f8e565b5360041c92611091565b9190611135565b611194610c16565b61115b565b6111a1610c16565b611129565b604051906060820182811067ffffffffffffffff821117611217575b604052604082527f6768696a6b6c6d6e6f707172737475767778797a303132333435363738392b2f6040837f4142434445464748494a4b4c4d4e4f505152535455565758595a61626364656660208201520152565b61121f6109c2565b6111c2565b805115611304576112336111a6565b61124f61124a6112438451610f68565b6003900490565b611079565b9161126161125c84610f80565b610f36565b92835280815182019060208501935b8282106112b2575050506003905106806001146112a157600214611292575090565b603d60f81b6000199091015290565b50613d3d60f01b6001199091015290565b9091936004906003809401938451600190603f9082828260121c16880101518553828282600c1c16880101518386015382828260061c1688010151600286015316850101519082015301939190611270565b50610b17610c7656fea26469706673582212206d91e084c02cb19b93aa40dbb57871e3a6cd57b518bf551d13a228c140549d0164736f6c63430008110033",
    "linkReferences": {}
  },
  "methodIdentifiers": {
    "tokenURI(uint256)": "c87b56dd",
    "version()": "54fd4d50"
  },
  "id": 9
}