{
  "abi": [
    {
      "inputs": [],
      "name": "getWaves",
      "outputs": [
        {
          "internalType": "bytes",
          "name": "",
          "type": "bytes"
        }
      ],
      "stateMutability": "pure",
      "type": "function"
    }
  ],
  "bytecode": {
    "object": "0x60808060405234610016576153c1908161001c8239f35b600080fdfe6080600436101561000f57600080fd5b6000803560e01c63a9d42f7e1461002557600080fd5b346153885780600319360112615388576020917f3c696d61676520207472616e73666f726d3d226d6174726978282e34302c302c838201527f302c2e34302c302c3029222020786c696e6b3a687265663d22646174613a696d60408201527f6167652f706e673b6261736536342c6956424f5277304b47676f414141414e5360608201527f55684555674141412b6b414141507041514d4141414254382f3438414141414360808201527f58424957584d41414173534141414c456748533358373841414141426c424d5660a08201527f45567266586448634577566668554641414141416e5253546c4d79414a766a6d60c08201527f556b41414341415355524256486a61374a7739387551364663566c584a51434160e08201527f6b664558674a4c4d4a7567434e6b4a396854426847384a5138677578713959416101008201527f4f77415477515265416f4b2f41714e6a6536584c4866337132705433584a792f6101208201527f7346373839583961306e33584e326a4b3766627276775a4850444141773838386101408201527f4d4144447a7a7777414d505050444141773838384d4144447a7a7777414d5050806101608301527f50444141773838384d4144447a7a7777414d505050444141773838384d41444490816101808401527f7a7a7777414d505050444141773838384d4144447a7a7777414d505050444141806101a08501527f773838384d4144447a7a7777414d505050444141773838384d4144447a7a7777806101c08601527f414d505050444141773838384d4144447a7a7777414d5050504441417738383891826101e087015283610200870152846102208701526102408601526102608501526102808401526102a08301526102c08201527f7a7a7777414d505050444141773838384d4144447a7a7777414d50764f472f756102e08201527f78622f345672383046364c3939666933635834396c713876785a66585974332f6103008201527f625834396b4c38364335632f4d457437734c466a3670334679352b784938584c6103208201527f6e374578396c764c7353767a7456586c687452656c6669702b74696a2f444c646103408201527f6246482b50577932507542642f764c4e7232766a4a2b75796e76664d33362b4b6103608201527f76512f4d44343431313142587975703943344b2f614434345a72516e78552f586103808201527f5250365579556d6137346d394d644b544e5a7954656937694238367a6e73585a6103a08201527f503256385132482f67584b433479764f505176554e374d654a72333651726c546103c08201527f594a7636594e635550434d677663552b68666742316572787773584b492f4b446103e08201527f504e344679677644726b316a336542386d4b7536786e66554269303558586e786104008201527f474c576c796950616979326d49342b69692b764f353873356c496554305747576104208201527f637851587669454e5975354668662b536d4954692b6e70733179674f375759466104408201527f66326e4b3432766b73576b4f4f784b3636354f46724f4c7632744c34373134766104608201527f4a56696343366464306833583952694e7557465433584739326f78362b4c435a6104808201527f393156616a45724b6a744c34337631654652736c4d34377846774576306f47366104a08201527f45764c666b345773793264643669346e52512f787441764c4879532f524478486104c08201527f7a665a375173584846526563614739535a3164575068787663586a74577a32536104e08201527f7066364d646f58787466796d3142552b4353323365504673433872664a7076396105008201527f5868615a786431476a5458367648716a6665376f73496e3254764238356276796105208201527f7a714e4b505856384233766430574648324578363373315752514a525a31476e6105408201527f4f7246484736744d71784c5a7030756572794f38564a704668562b484f356b446105608201527f6a63752f6b6735304a584d4f747843476c796367376a34704c7943654a7070786105808201527f77343366704159637a50627a574a354a38595a6d3675424a36466935525555666105a08201527f687874634f4a7761665a377963467451646b76366e41447835357a4a595566526105c08201527f7a7172773930476d59612b594d45525a542b5a773532635a507943776f2b446a6105e08201527f667664396b30744a693938516166426b712b6c6a30654c7a777466624d656e726106008201527f454e544c683750616359764a767a41736d2b306a30654853314a2b744d5779446106208201527f683270726d59785855507a555177665635724f4e454b796d4c7a7778595166736106408201527f38354d7647517861396d42432b486a4e4e4f42456e6d38543574636e324468316106608201527f38577944736d65504e37764a505a367272367155724c7671596e4370576250736106808201527f64654a3845764b507658786150645a75414c6f7938692b576f556f66547a4b416106a08201527f59474c6a3636673748655078314e42323042625476623937764547396a7864496106c08201527f61656873682b5378355047526c74492b42504a76736f3833737a4362776f356a6106e08201527f626a474930656656342b33384d4c37517349583251637a57513366585a6c35466107008201527f79794564374c7037423650644642472b437237335754786f58626743716772676107208201527f69665a63395a33457a6653654f46704932694c5a4231706f4e493253355665796107408201527f3266714c4878664a4f764d737678717376776d433139472b444872544c7a38626107608201527f4c496d783265614a48792f6c4643657944366f792b456d626d4468313057457a6107808201527f3856476e667034596a4670346173694633676b363877694f4b6d7a3962436c686107a08201527f50446a45476e647836794e5345485169687261516c6c6e7a4e714974523630646107c08201527f515877556d78304e475a7249354c46394a494a6651485a4c797a3752712b4b306107e08201527f703637634e35707076647675564a73734f362b4e342f584c5a7942665945646e6108008201527f7a304779623558697a6b374f6455544e526154765630565863526939766168796108208201527f73692b737175697131684d4576373639767444346a4534794f5a3055625932346108408201527f622f397a6d79537657654c2b5646696a79704e4558355452506245476253504e6108608201527f2f4843652f74555a5753766263516d74356a76463737496e6d4a7374543565556108808201527f49757045666c6d32636368557462524e6d4a55576c434c57554c34664b444a756108a08201527f2f3263376d714b7864784b434a384c326e7265323469315763792b67504431616108c08201527f45464d5a6156334e61586d37676f4950306a5747546e517a654e4e64726230646108e08201527f7545766b6e5547587531473732724f63726155717042337974364b6a5741657a6109008201527f36764635412f305a75467a4e65392b793535435056366c77713833713044664b6109208201527f6e73744e6962326c414e37764853324a5058334f33566e785961452b3643746e6109408201527f457a343364746c762f444966576f6a6a694c386959582f4575574648394d64466109608201527f527479744f4f316a566a7232564a6e4a656772464e592f3170305647367332306109808201527f6b624833584f6e546533755255396f7a64316a33566d7873616a46704e6e66466109a08201527f6a74557073683469664b6d3976463261385847724261545a722f4c68503869356109c08201527f59332b783258667939464f656869795856583463754c304375574e39655074746109e08201527f7456394c6265595068502b693554332b4c6e2b586661307958354c466e4f5151610a008201527f305535625778664976442b73653555396a546d72386c69697642353633764a51610a208201527f396d5036775a4e4e374d653764684e56585934366a5436312b7835447a64754f610a408201527f6346715a5037336d367079744446793375473934425637532f3334447a505a70610a608201527f7a5a694b34664b54644364384f364633353076714b7448552b496c36766c6b62610a808201527f372b70326f6a776d31562f65626555703850686b583770335263754e6c6a3279610aa08201527f2b37785668353272622b3857375a774776396f45464a57754531506450656271610ac08201527f687752556e44775237694c6d66722f4350336d50764a73552b304776616e3653610ae08201527f574a50684f2f556264347432336a572b337a6d67647a46413539684244335248610b008201527f62574c71584a62566667506e676b2f4c595a50504a4337794c4f436975664775610b208201527f70685365706e77752f746e777339376e32613746784333716e6c5459396d6e4c610b408201527f7162456e644f436f77313365652f304e68535663762b74426b454f6352727865610b608201527f4e332b4e4b4949516f38596d76767649786a50626b4f68337534484d63765154610b808201527f505a4c646c4f56346b366468722f2f50674a33647532583673474c3541445069610ba08201527f673137474c4c68464a554a6e3750777a6179646a507a5a505a67797553476a78610bc08201527f6362787069726e4168452b5633372b526a442b4c4c36586f2b72625155785762610be08201527f4e54324e4b4b7a5a2b4f5338473948652f353757656a36325849545174773247610c008201527f6133593242317575326c4172436236347a6552794b57797331364b5839596642610c208201527f39466f4f62564a674c66707071703164547539535a6250323377363875543746610c408201527f4e7a685865786d6e4665504851356454456f474b6e7836566943662f65483846610c608201527f345077626a3865336b587642524b4936386b6c5763784e44724e74782b655573610c808201527f552f33347334624839377435384f694f62585331437a556b795874596e613245610ca08201527f636a5a5972334a42633564727651752f626e493137746f50682b453578504555610cc08201527f584c636c4c71596a51712f30357662504e38574e765136657139547763653146610ce08201527f41306942642b6748436531667358527558637856666956704479616b352f7467610d008201527f34384c755a7953486c65536a4e536f2b5a665457586162476a6c35484962496c610d208201527f51712f556548334d75524f316370764e5a395a2f6e39754843357a6568646165610d408201527f596d785775366f38416d2b58525874642b46544f644c71502f2f4e7476334e36610d608201527f51794f5a2f4266704e67492f4f4c503851392b3735772b3946684c316d6e5772610d808201527f49765a72546f6a49767847706a7a39384350365a394c757142575476507a6e76610da08201527f354c2f633370723548365333417a564c6d617a4335397151612f7a5a6a383038610dc08201527f465053483375706d4136446b445674357a334b47542f4c487574317835666466610de08201527f6a322b626a76585842346b65556f4932593973625354376f4a6344762b6c5630610e008201527f536f54766967762f2b44566476624c4b54696c746a6544614b56764d61614261610e208201527f687652795a6d5754596b384572386358726564636c36726c693348325266786b610e408201527f2f6c6239474c6f4632736a39706e77745577347a5032354c32514b6151367a51610e608201527f58682b54773476336432794e6d496d2f436d4e64332f64647172656b624c4662610e808201527f62654430464b336b79584f3234695a38435830393358724a5976565a2f435646610ea08201527f57787a466e674773677453575274784633357271476c58335461663276534346610ec08201527f485874375343303142563548397549536667554e533774456a726e30366c794b610ee08201527f357444473737665339313052345938336d66353431333450705661612b542f4a610f008201527f4f315833536c3874396f6e7a77597863497a587131344e744a75716b39316249610f208201527f654858325a652b2f66302f36663363755671723365764658305a36722b2f4339610f408201527f785343586f77306a7964484b72554976337051562f4d642b762b654f396a5a42610f608201527f2f487676365351714463744e675a72493761794f2b7539705557697072357a78610f808201527f6e37372b6a53646c5455394d6c6e65696f33386155513939464468392b467571610fa08201527f726e796e5a3565657462512f6463573674366d4537334e74783550684e2b7474610fc08201527f3357392f4d4834624c55584f4b754775363874484f533942564e6c337a676a5a610fe08201527f7775746e4873314e32572b466672447337472f384f7075376b617371395931596110008201527f71527261794e36715974312f51642b547553342b464b775079323932577370636110208201527f317a38526171364a48755875706a7a667147435a754447316b6a5a76543664656110408201527f47625a554b616245474b504e31744a3161536271763257456a45487842614f386110608201527f3762776235656e302b37453239725271386a532b307a3259653969686e54517a6110808201527f61657242356468507550357134536a6c4c4c682b4334797074484b36663178516110a08201527f4a2f64564f3330476c3832623676554373383357515a4a6e7073377a443537506110c08201527f4e6c747173506a674a563550476b71384e584e62505a6e3253366676395768796110e08201527f5a4e6e7263336e33756e6638646e39336b6263394b59715755785733754b79326111008201527f4e646464336836376156636c73396435585050357247665a4c65586d367179736111208201527f4a72783555746f5a4e6b735a3668564f64486b6b505874355632364c494434796111408201527f454747576d73624d656a446b4a56354c7a594962682b2b6c6f6b6e576a7a696b6111608201527f7a743536552b7a414f713278627845625464566e5270364b7a6a304f3144697a6111808201527f792f73553750466650356b6364626b6d62324c2f4e4c2b4b6f5a35597a64564a6111a08201527f375839566f447a5965687348752f50566d7166614f394a755a7973306d6572656111c08201527f446b613155656d4e694c76623372594a6464704975336744395176505676712f6111e08201527f6b4d574f466c4d392b767444323650583830363661617148766d592b517236376112008201527f3234745a687a4f6e3537432f7a576f6237683546346d47566f754e4d624f595a6112208201527f505162645272695436596269386d52387645702f4238334f546a7162393546656112408201527f6e6164466875706a54684c41392b7238643773613839754c4762386a4d2f6c6e6112608201527f51396172586333372b493337565458396a6a6744326f78613273746a2b6c41326112808201527f64315a7a4735394c75745736704f623437765178356c4e396e6b62555172514a6112a08201527f507a4a2f6d567537796c44683665436237567133572f4859774939622b4e61736112c08201527f383761694b4d3038453334346b2f433458573849737454306774637a4b6c53776112e08201527f6e45516b6d6a622f7a463239556958323061514c415949484442556945546c776113008201527f496d50774532642b515a3744495634506f47644b4866735245637766514d46696113208201527f7077737170785947514e586d624b34704c2b48365a3742442f6e344e743650496113408201527f45414d4d44336430772b6150614d52703955436636327773534d5157743464486113608201527f7164584b424332504d5542593551306f733843663675774d53446d4d315549626113808201527f7830367a4e616e6650716a44665338325a366677517876526f514545393344586113a08201527f74776834664676756c484a6752704935637a5a354665466d4b6d67627a5169306113c08201527f76384f316d4e706e4b39644154476e4e2f306e6f32627277324551397a4f65456113e08201527f69545a534149564d377a707065596867542f6a7866396a312b34444c515276586114008201527f7a6865715a7a2f4666664f4952417a7958504d38496273596770386855652f666114208201527f767539587066397539366a674f6d484f754e2f2f634f335833683345324c75586114408201527f57463477384d6f42663753774b4f5637534e7631685977695a614d48435158366114608201527f55327036764f6a6546784f3456466b53764c65384147546143486d4b423935326114808201527f437244473178454b6644334768344a6c2f54787a4b39763168597769623742796114a08201527f52365670597a48732b774d67642f416f35324e55372f636a2f365663326d414b6114c08201527f6f76486375726b454450794e456f664a63567139656d6c6257783534395135726114e08201527f467a643848676464676154536b424d5463456b38475031346a4f6235754c39316115008201527f6c38493078756753754a4154683258435758584d764272386f6735386a5466426115208201527f2f34796b61705971683038793732425a474e557735747737416f7830337674586115408201527f6246744344452f2f75722b3249756567622b566b39684235754455536556444d6115608201527f7a573177456561507855514d3868373377382f67365953476e476f4a36484a786115808201527f7153474e2b3677676f2f6f356559636e4749743072363878316d5055544c4e516115a08201527f524c4e65684a537a30597936676b785a77333846486b7870384357446d2f6f746115c08201527f6a645170757937565636346e595451394c4a41394e734a687670464c376432396115e08201527f70633763456233587038756d5272535963484f484947596375716b756e3051466116008201527f744d665775704d663478623872502b6e65784f2f386277753961465153506d6b6116208201527f7869427073594651674643544b33346948345768646a4157376558564864355a6116408201527f33686d6d7141524d596d5a454c4d54507347684855623436593073422f5279776116608201527f41632f484438783430474f2f455a7449596730596352543069542b335246694a6116808201527f7072386f5349526c4c45733843506b4446574b506f4e327661387454437951386116a08201527f536b2f4848386b6f774135386b4d71533870695771315439484956784c51632b6116c08201527f593361677364315671454d43352f756f4462707765716a456a784a30565952676116e08201527f4d346170393549395a6870486a574e6d43416d6b6f3267666a757a594c7752726117008201527f5447627362385a6b3859632b63764e36462f457830674b5a4e55335042672b496117208201527f4b794b5a6b6a486663665a466d752f79434e765659742f4672577633317361636117408201527f6444776b6670446e7a564449674646783069356269374c6b652b3276704d51486117608201527f6f2b575276515537494530476a4957633656757159505362536d2b57594b397a6117808201527f316538436678393246563650355130496b53703070626b4d722b644751754c6e6117a08201527f726859735a6a3941514c776d525064444c2f314f7a356872476e4577634a486b6117c08201527f71757862496145626f6c79765a6854754a76344d5931334748767244707a646b6117e08201527f4f764659673342596b70423257644b31554e5a544d7231396d7a7941727254366118008201527f747a687977433052733168766f5a513477565a356d6b72445738512b4754676f6118208201527f723231304d70706234516269414e64544b42634c325a725349674a4f665371686118408201527f6a63394534354852694f6d472b4d62452b796c6652487570474a7964303948516118608201527f534d714c54764a48672f303277474e694d42506837494b3754357839493059376118808201527f77356a70366879364c766f4e4c3832566a61495a4572474d634f6245436c59376118a08201527f4275686e574b382f76625558365354574d3552764f722b71466a4d6c665673536118c08201527f455533717931673177776e444279512b63335763787338764672536d7841544e6118e08201527f642b397042484a5970375169436936752f312b2b4745485664424f596f4762476119008201527f70704174747a775a6c4d5773365552747977667645665879426e32426966545a6119208201527f30417578576d7461455441493939417a41574569372b462b4c754656554d6a456119408201527f6d4b476d61647253534e4f30585a4e726455634469704c587633373964436e4a6119608201527f347a6e4771434b79704c634c526d4e6d41642b71664d44577472422f6238612f6119808201527f68646257333947492f596f582b4a6d48516f6163575467562b684d336761716f6119a08201527f75335675624d496548624b527a55306f6c3773615a3242385859544d305535596119c08201527f4371745a6b654f596c786544522b66747a6e6169326f796b727245515767736c6119e08201527f796c565555316d344a666f624a575867614a736552563573355272652b4f6a69611a008201527f72565047774a4a33626952526b774a634262344578574b686732645745382f46611a208201527f386d2f784a6436706e59316a64675a7842774d3069694e4b414245474b596c51611a408201527f326362377173487a4c44476c2f6a5338746851306f6872426a465a7956476c36611a608201527f704948766c51474f50305a72384a36374d7668423876694a3331783355414f6c611a808201527f42587257506a5a446f3955443448766b435438586b6c4d635349547959393769611aa08201527f532f33444d4d6356684f57783368345367484d4734306f4c2b325a67694a442f611ac08201527f51794553526f6d72644677652b544f314d764e426e46526d6c39343676543833611ae08201527f59784961766642774f38726c4b453059727a7877704c53314554386971643849611b008201527f2f6f6e6c6b69736b474e2b4f306a314e7551684a515656305441766835396d36611b208201527f544a6f36544373423235457432584e6b4548535877622b564948446f61426858611b408201527f69362b6a77783845655255613969525042647869394b49733241504358786667611b608201527f554f68784e797443357a6f7a79454265553469566c52736c6c67735a4445584f611b808201527f51775a2b4d4c4172536330347230485868702b324a564c715a57715778373254611ba08201527f6f626663425673716c3675684c4a4b4934726d34325674775730714158455677611bc08201527f422b4c7048496d69336c417a7350416279436d306f6a7071373343324e4a3549611be08201527f656234616366456367326a33717a4a31306962496650416e3275686246416135611c008201527f766d4b782b5848337947336851536b4b326e45586b6b6a71754f734754495939611c208201527f6d6b67356d413059704a36585737395055694c622f717573794c6a444f616f55611c408201527f6c55634c6c5370366738376a46646437675a697068766c4d764133756b557467611c608201527f6e42396762415072644251494c55626a57694254346935355a4d487965366665611c808201527f58782f725654623266746772555835426f4b786a3541326664594d36537a3939611ca08201527f3263514d7972456447762f55716b476a4b664b336a566a4d614d3251506a6362611cc08201527f326657346734684a6f5771764445656b6a6d485a414839556972477746643136611ce08201527f567a673549426b49325a2b4f3145714a325467694d35326c643373706d377831611d008201527f794233316d5746376b7542616f6154592b753373307264614b38683576377a64611d208201527f786e45684f2f6f3963457a7036734d5a56756c596f2f6a6e392f2f335842795a611d408201527f4a5948466c4f4b64744f712b4f51456e5555636a4649516e61377271566e6778611d608201527f2b59707135527852777931357a54695a6f462f436a4539494f594c6a43333346611d808201527f5652684a3070566d726e4a38565630493436576856314254474666727a453235611da08201527f62616f764c6330496e7747344c647a4c446e45424c744a69486d6d564b58554b611dc08201527f317a4f6670414f583157716a673058756c4f6b6f53796d4d77674269426b7649611de08201527f4f6130764d54594d32306c5243393351694e323442504761454a5a4b65765357611e008201527f7045514d3552723736443047312b41334d694f4a796c44314731384759304948611e208201527f47692f6d3846372b4170694a6a6d70474d3850313457646c4b39537672425741611e408201527f4c38542b516b2f6b4c4b592f6a446869454c4d34616a676b647a466158396370611e608201527f33706971434b38527755784d7871525547426f6c61715845464d67534f6f5944611e808201527f4a6462333065726d3556365630424d6b5167677052324e5268797a7743384a77611ea08201527f41647a5a4163615a673276556a3167504e43494a6351384d6d46654a4d444f61611ec08201527f635452614d5147596f373744635a57755730365130753936306f613052626f75611ee08201527f515679694b6d56377077412f4751303467614d34692b332f6d41664e70783149611f008201527f34496a6c2f42372f732b4b52675445664367342f5246356d74774c777a584733611f208201527f674f53515741385833516a626b6f6a576e4430674a675a6a5668447a42394c69611f408201527f436b59785a326e57716762615846484570624a43737338477543334d366a666a611f608201527f756b4842474b75446353556d33693878746a72434338684d4c534f54386e5863611f808201527f4f62367543316a4d594d56643653527236555268635830317868374751373131611fa08201527f4f6a7a6273512b53432b6b4b46435a624b775a697a6c5a396a32643049674438611fc08201527f734548366c2f392b5a6e4843705853644763306f6c4e456b624f597568335279611fe08201527f466654694f4c5641497a536e322f37414b434b62503263526878783673534d786120008201527f637936426c4359714a736856336876506935502f646b6d4952697670684764396120208201527f682f4a48756b4534793234696259754b307a6b30487851467250482b702b664f6120408201527f55395a463778302f456b3334735265544b5344765743387265675959534e66316120608201527f51794a484a6d4a33486d796763414878727567456456765a78434d7833365a306120808201527f4c464c457032444f5a4d6d6e6769766b723148797358564e4c507052687956736120a08201527f78706c2f52307748727546486c71594b476a4530566a4d56386e656a465371556120c08201527f34775843693532306e514d666a736a4d46343070616f564a6b6f616351554f656120e08201527f3548734c594c44354e7a706d32374541554231562b634c76397176686d514e6f6121008201527f707642536a33356b534e5077454c2f5053397265616a424e6c50373676536e776121208201527f336f787857396e576852674435536f7a7759783561357a52385a69546a68322f6121408201527f3357656244686f34546235446b4e47497a716a4554745a2f342f7a5656684d576121608201527f4533522f7342456e702f79426f3067705a31306f762f6a664f384e52325342626121808201527f444c54456576516b495a66464634376259624d6f4e3869454e4e54656c67702f6121a08201527f6169357563697a345a69617133302f5a7665583772644842544644716e4f41786121c08201527f62533334715a74525a356b4d655532763968373849736c786a756e455a33596e6121e08201527f41317165424d56597162494f75306a7a43446d783755514c6b71717131366f4a6122008201527f79325661496245745444717a33597348544e4e4669624b352b383578457944546122208201527f42654a37733772544d44434363535553334756724651745852324e574d3449776122408201527f4a55306a4849562f694c52335333775479486d5a445a626b797056305a71746e6122608201527f654750316e464749655a322f724e4357364453664d49614e6b4256442f6430376122808201527f435a7253526a65644b5a55784b37704b6e6a6645324b53694b694848773859656122a08201527f534264446730587568694e364d5541673459334d79476d3146705057457848486122c08201527f45683676743533777745595267754a533655717a5032795a6b6a7267703634616122e08201527f3179353968346f32414d526e4b566171375937705674784f355062617249785a6123008201527f4d3251693071555058644e56304c4d695455416f76636d31524b63764a697a776123208201527f6e456d7435324a3865786e4f78774d4b64694e4b4f65307a2f46315234684a776123408201527f35623279427452334e464f3869756c4b737a39536b7458564c6c6c313851636e6123608201527f543273475a496c322f373077446335334c5338554b704b3248767075703842506123808201527f434652746c334446312b516371416569364a2f4f337a48646a644b3146756c716123a08201527f694e5876634c6b5454446542437357487a4e394d36596f7064554a5572762b4b6123c08201527f746c6a532b56686e655374557055306f6f763273783359455451394644316f706123e08201527f3471684f577547784b6c7a6b757a745755766c52496e3638616777486d6c45486124008201527f3248794a6a53695977704b4679414d2b68745978594153444974566245396d376124208201527f307747433658716f6d5449583774382f2b4a6e4f7a786f7841456d524d504b586124408201527f624e6351457948656e585447636957536a6b617045424753754233663375554e6124608201527f4749516c37754a494176776738727855504f503459436169745836706a4e775a6124808201527f6330776d704e537256543132677a5a69636b625152594d7144707a646d7961496124a08201527f574663674753765956523261366c303167785a30346857396b33626a4454696c6124c08201527f4e6b6637505347615a736853644736644d51336b5464613352584e6b436330346124e08201527f725459722f57774733453034493371796e594f4d556c514c2f314a7175564d2f6125008201527f412b63664652726a2f346a75675a544b7572514534564e6577347867394c7a7a6125208201527f387a6e4a4e58717265624f5a73694b526f5451653046544671576967785664576125408201527f4a69494463514530776d48716e447938616e424d4b5871567370745a324938616125608201527f637236303450555043346362554d2b6835673464634a5a36442b7332383261496125808201527f544f4537512f74764d4f76395a6a685456693134496243685032687a345379616125a08201527f4e302f367765505a69635472526c7972626a51555a72786b6c75345355576e546125c08201527f53456d3270416269446e4b56787551697675546a7a2b61486f334e6b446f4c636125e08201527f4b462b3137445044472b3868474b33573245436b6e37357949757132464e6c616126008201527f546b5a666c4f4267514d684e4a705555796e463666393858543275786b5956486126208201527f574e464c6968636f5a54546731694461624f4131466b434f38446541787649446126408201527f6d6a6f6355634a50554b34544f6c496b54434a343048506338363564333565556126608201527f6b574a394e37372f506e4f334850507a373274374d324e4f4c50547a484b57586126808201527f466266325931426f657837366b7959514454485074664d3363344d436650356d6126a08201527f6b7a6f7a595352585454697850543233662f776e3737363357726f374c46545a6126c08201527f3673616a762f695434516d3676466d79412f747a61397341484c79674a6c63346126e08201527f4d31494d2b5268354850355941664d4c462f31526f3266646e3432765a317a4c6127008201527f776f5537792f4b58686750633042326d6d306336576b4a42577565414d7956456127208201527f79723571646c62594e305041616f3659443475706570365765486666614873796127408201527f564d485137756935704e53657968523779705636634b344b786f5261615054376127608201527f636e6e70705843514c384a692b554d6b5550464134374f356b4d732b645165796127808201527f74574d753538744c55327745316c4d5a464932695765506c4556336b455339616127a08201527f34614553494e545a36316d6e466d4d6f534366585375545733526d6a6166327a6127c08201527f384f306e4472596e686c7967455446722b3134722f794a7336553847323159546127e08201527f4c4a64303856686661706c6d4c69326c674f57724b4f466d474f366250446f566128008201527f7a4f4f324e6679467637567370677a496a466e685772386f2b7930787553596b6128208201527f6966307a5a417a79723559327a476e4848326b776e394b63486745327837356b6128408201527f6469522b36474b3573774e3472497a6b4c7072686f7a592f77307a5a445161456128608201527f6674614b4f58797a343175726d4169344c5649316f595538544842476a4e56366128808201527f3142546c5032666c476e4877427355666f5a48653831696a6c4c364d62476a536128a08201527f4e62656d42744a70616f675a6977674a68554f314157535274532b6c6b6c4b316128c08201527f514a697a6c4c3662517a5447616f32653068576d726e524c59427144727a4a486128e08201527f32444972546956716a4576415a633370644359587036476f6453785474594f2b6129008201527f42424f7165717a516645437666776b56794a745265434e466a564a59786f63786129208201527f4a5362693237447035462f762b2f365943776d7a4a426a5163564349453059526129408201527f6a66697861457933707133522f6d5635736f6a4e77626a416351362f2b5a32736129608201527f546b6c69326b7a365177784f64446e326f347a48305a61314f5356716c392f586129808201527f6269355472764e3637427054696c57735a674b62766d5345484f67317a7843716129a08201527f694933346d504433703553646156354a70376d6b592f4e364539557765677a566129c08201527f55756c4b725743666a506b6b6a52557a7361474568774f3646523244505137416129e08201527f57704d536f363548385879674137456a4e4c57424f334e694c6a464c53766d61612a008201527f4a577137347234336649526c6c5a5a524a71496a724339566171754a38766556612a208201527f6a4e4f6f432f5858314b7163724b45384c7a514758717a46652b796d434e7a47612a408201527f51596554442b4453487470434c79307164475951716b6148773730703839472f612a608201527f6f664f6e5a75347548694746326d5450454c3633675865544a5979334d463452612a808201527f3259784830734761527535774d4c76733567727037375469624c336d6172794b612aa08201527f2b3231787451516e476a4530467377494e566442714656706d7057716b374f68612ac08201527f32467578415750356259343073322f65436e6252536b43666f71377a4d677551612ae08201527f66434a75777443425447786979754851316a677a573243786176536d4b354a67612b008201527f556778572f655849706f666f51436e575130524c4c6c306c4b714c7151646370612b208201527f7572384342374c523769566d6170306334466e6e51745441496c4f6e6a734746612b408201527f6b4c705271535531797456737a36556a34355039676c5670756f474642504b49612b608201527f2f64794e4b3831484c636c395868485a7a71704873684b707474645151414145612b808201527f736c4a5245465531622b5a64706b4b644e623044384b474f686c783675785662612ba08201527f70386d454476703666567866376d4a566f656b737038454d556d696f50414e6e612bc08201527f5833312b304c704e396a4d63717776323178414f386e3578626a51372f51684e612be08201527f6d484a564374564479594f54523043554c656957704b50422f74332b2f56516f612c008201527f314f61414c4151577a556c46362f57536c5563425665657350615671744f6a65612c208201527f6658485436364d4f776a4a5a6c6a5a325175476a6567486b2f5a6d4b50426d6f612c408201527f504f6b713153643655616b6355716a786330383870536c374a38705652465850612c608201527f6a756c6174494f387350307a5574376d37377471507969316d7836615938616a612c808201527f72466a686f515041494c5951716b3675634a506f554d6a726b596a72727a4d6a612ca08201527f536867506f4a6a4d58755a716f79716a3756536c594e593670754870704e4b77612cc08201527f576d674a31766a3868547045436149613553716c7758314c36666c37536a774a612ce08201527f6a70393836644b566377666b783039755265654b525746664b484e564e337a43612d008201527f7a5138716a4e6e687152534766726d4775504e3645613157383664446a2b3639612d208201527f4d656452466c587152705a3972754c6449337038595766576379687052484230612d408201527f493571347150372b304a6853714c6b7351713857616d67333271494355394d46612d608201527f6f534647754d46755248422b4a5250794d69757732542b667639445569677633612d808201527f59694c5745784f4c6759536361555a556a53695a2b66786a525266447a346143612da08201527f55454569547038505749783045544459735a344b2b4f6c325959346c574e7565612dc08201527f32613545626e41622f63663752485261534a6373612b47727a576a7541557862612de08201527f357461635a4e48666d754b554e4f46626b536561565753305561336e62526635612e008201527f4b4e69386633496a5a685457544b4e4f5076437037345a442b36665269504375612e208201527f722b5348592f316534584c6a6f5a53423154354a4f52474849467773346e6845612e408201527f73525944776c6c5039445a74303770522f634b6863534e754153647a4d354e59612e608201527f326147704c663034474277516d52317668706334657646616d6c45466658614f612e808201527f433932664c504549634755716c38774b5842326273535a434a656d6751566438612ea08201527f4e584a323047507249466f36686b59386e753955774a537235384150596a4259612ec08201527f4c77646a626934777239626f65776f4e324b45414c35703947396a35396b4e70612ee08201527f746f4d53616e6f6943477563794d5768562b6249614d3051537377537074655a612f008201527f396f45534542416e4258342b6c614339796f7a70456b4251394a30356179652f612f208201527f535646343478625965724d693365644f3165644455724969515476416d494f76612f408201527f764362723230536a556a725234664d4f5a45416149755935764c7044346c6d79612f608201527f4868444a764339334968463456646d794b56774979376f434e594f5679434953612f808201527f626c746c6379616c64624c5655444d51327843764457747630496e3142525375612fa08201527f365568633441796343707377736c506d3879367365796a433778786858395645612fc08201527f484d784a53524f6e645574636674442b49735879723674336936356262503859612fe08201527f3872624e7975494f627643427750336f7765346f424678367152625666396f716130008201527f7845636e5575575a764474755032487a3739495a652f5764726a6343333630376130208201527f344b704c426c71656e774d52496545423552753359635379754c633064344d666130408201527f50777632656a6e34503733624457494f5a70677a5669364832786645397949756130608201527f59306374666e762f533332305541556a5a656e455933456843707959712f704d6130808201527f3156335331697a312f6f6e6436676b6e546f5464323665372f47436e2f36596f6130a08201527f2f50324e4b4a622f70484c5a2b5a67646766434c51527277326478704463702f6130c08201527f706b514d3874394f594a414a504f466f47546a6f2f37394830657a35754631526130e08201527f725151796c3546776c6f2f6a6e53696944314438426e7a6a4b505542707738646131008201527f3662506c4b72484237694434395532517a724232746f65364a754c414e7779556131208201527f494e615a432f5637356f743959417154766531674a697a5041744957467461646131408201527f4d61386e567a583638314a3430656e586779644e5673612b6b725669475944346131608201527f30306858436459693832382b454932427a5133694c5a396358326c696c48446b6131808201527f5a46697131524e4d714d53343631735170683031555456484a62594d655342626131a08201527f547376587032305a7a3537656c636f5659656b58744e49314f414c2f327956716131c08201527f7352343435566e70383230504c714f5a4c6f77386838616163326478625459516131e08201527f656b32513235572b466572564930577354396c5a6551425564767a485a2f2b706132008201527f736e6f6e62766e546a41736d6f33443059684d72464468503631536c587348356132208201527f7379336b696d5a2f65784b32526835763370587158717137495878466f4150466132408201527f5835716c616f4a45484d473259327231493158466961443546382f316a5169316132608201527f336245573776594674734d4365412b30634e713737356f78416d5371556373576132808201527f537877324756495a472f4953493149344546664648677a6169657270784748696132a08201527f6b5a454e374335774e54424d35516a394a53446647554647536d6c4e63732b7a6132c08201527f7a4c4a62534a46577a535a2f6e436a45534e4f48644b3835514d4b4d437a53386132e08201527f4c57554e4f494a684b757933785234733953462f37696f6d6b3156445676482b6133008201527f7a56555175594e656c63586e34646b316938714d36544b4869424c47787352366133208201527f536b5071344f594979486d6742454c396b78573835654e7230666572756b736c6133408201527f5954736c30596f42466b6f5278622b2b775255314143346335616634395268556133608201527f48496a59693855386771382b556164473255534b7a5034434445764f52527a356133808201527f62575a717044776e67675872624f757477445658536677356a66596d7a466d316133a08201527f35776c6a7768695775486e2f2f3538416a466e61762b376b38654d6b2b6772366133c08201527f394f4969305231466e697a50484a425433654c38535a4a37534a653236664c596133e08201527f74376d6b5439615332556d523966624a4955474d535659773254673745504d426134008201527f515052713963534143574d47427a464c6f3249434c355855506b2f5a617071556134208201527f6466517a315339644a6d2f7439585a742b34456e7667676d35354771516f2b4c6134408201527f4539476a556155594332677a3936615446564c683575616a67434d77385a51456134608201527f776265374c56536463544c38566a697a4959784677722f36475771356a3579596134808201527f4a4f3639566e4d336579536f625a55546e682f64374c77693553712b5149494c6134a08201527f50794f557455576d3551733572634632335179483351696c564d48773837342f6134c08201527f3566747a6269676f6b4868397a4a564457494f4b4a3742694254396133527a736134e08201527f33712f4a4a42494642386d4776473254684d613857497a704c4d617569436e796135008201527f656c414365617767537369384b61684564464755307672566a4f3677696336326135208201527f30737a35474b7045687075654a3731436b79694c674a767a6a4b314232582f616135408201527f73594f6c366b61624344474f464b652b3367374c5a656b4957676e63695835336135608201527f436b43627a615432774b494a457053335770473759494f4967702b37676265756135808201527f4a576657354547465779544f63795152725a386b306f7a7279584f35506d58646135a08201527f5a7263422f7a787a372f2b36414a764c725046684e34326d70336844514d4a496135c08201527f667955762f353574666e4c77616c33394572564b452f553231564d48535066796135e08201527f634f6136313650636d78314b4c5746747261707231535676674a75524f73305a6136008201527f33443550596835364579354b57617068335949622f676b38495a4b31577755586136208201527f302b667157704c344f656e5a345a6345526a4348726d434f5850536f75504e416136408201527f6d2f57726c4c314b424a6e5a6f61544c627332703556484b674e76654a2b63376136608201527f5261715155435668642f4e564558677a657834764a78582f7a687252476331346136808201527f386939413439597a4b322b7a446332325a4667595770754257666d395572566c6136a08201527f774a685a6b4e6e4e654e6370394c6732662b613859757a5745776b32483271566136c08201527f48583649436c56795a437442384b575968313463316c4f304b6239612b6279486136e08201527f7356695870685a2f6c4b6d36755a574d383767415442557a754f4e71577a69566137008201527f363768595a6f4f563837706545363279547850624a2f2b326734586f453833346137208201527f764e4f615961483931305256585037774a7459374e364c52614c4a48575266496137408201527f4931594b565558562f5a6e755a727831464235626a6e434b5a55594169795a786137608201527f33677a7259614a5374576a5934594d6973596f6c61726a4b6348615645424d746137808201527f7a666a4d6649647447414a676c576147515a6572526e7973624c506c39754a716137a08201527f64567761366738756b6d743442472b474471735378597a56634777693445462f6137c08201527f2b776e433779685570552b776d4365714f414a774b73497646477669664372556137e08201527f6f4a386b43614c5a6d7562335978694e686d33654c7764477450565279744b716138008201527f66716a333574786d72752b6571317646777937486f57747a6247594338514c486138208201527f61567157494954524b46482b6532336c5274527657614e4d7a5a6e686a7970566138408201527f4c314b466a4d6b726c726e38774847512b4854794464336c4b72354d4a5958736138608201527f7a375358444273684e772b6d614d3036797447623241516a3565486a537838336138808201527f505a62502f414776576271482b67717a41456a39784c6a7a62786174545656536138a08201527f745751686450615158353062744e6b79596d707534584b77483036577a6369796138c08201527f6b6478596759784a3166344b545136345655304975582f54302b7047676e75706138e08201527f565239716a76354c755556706c53565759584c41304c54536132796e587a53796139008201527f6b7745393574736255634a3030387a4c70564b56566634653630544e6a6369726139208201527f523864787545327067382b6d366b4b76466d354e3250697453576c61704a6a676139408201527f636d4f64366936364d4853644870714f4154446f683252725731726c4e6275326139608201527f6a4b6c4b726a5079376955726349516b7955484c455575697646456e467963706139808201527f6c53394f706d716968417769416c7242414263306357767a6f3249472b5570496139a08201527f476277636a676f793653703273753947514354735657717876385864763636656139c08201527f745241465065796956776773532b413543656770324a624243326935555751646139e08201527f764d4553456a304b5869486c4a6733344247574c673253615a41564752752b39613a008201527f63795a385a2f76706f715552446633356c75763538773538787666726d625553613a208201527f64554c457650787a2f6343376c4d596e61493065463479545941336e59316f65613a408201527f4452695966472b512b4a2b6776395a6f49715830684742784f59396f54515135613a608201527f59307a344d33524d3156504c76566c42667064512f375754434e6564592f7854613a808201527f4c7958656e3735344575512b66466c767569414e37415266797038487462594e613aa08201527f3237797a392b304e6d4c31615441754f665a66354f444c30396d384765586171613ac08201527f6b6e564e7767564148675435753855334763624b647777426879417a33667a45613ae08201527f44766c34326c313561504f337a6d70616769764d476e61305451587658586353613b008201527f41497a414e3673746566394a4b6d717269327945573142495557776c6a78644f613b208201527f5345536b35703261624c4e4b584b5764483347564d5731705a4b717774755a4e613b408201527f6d775456584c307165317862487975444c7768537430795436724b7459576b36613b608201527f7336624158594676426c5a4d564c48306f447a4f646e6b6c5547706d795a5631613b808201527f625731714e574d6e74635a31494e2f6a594e38566a457079347741364e544d32613ba08201527f705a6659716f6553456974574e7578694932346b616a72354a4536396e375338613bc08201527f72647159732b576c3569714762423042743445596470665a4144616e6e554569613be08201527f626b574932674f382b7072764e4d7872376969476e566a306e705266414a4b71613c008201527f695a5a7a526a494144536c472b516a76795677514a3235695652486b7473454e613c208201527f38472b7746546c6f6f346c5a734a4f317171677a683548536b6d2f6b2f304578613c408201527f724963545534593341755a526a774747354849496275576d49324e3244465641613c608201527f354a2b425a646c395a4a6f79323756497262492f506b78686c6d4c327075426f613c808201527f44644c7a4a50377362554d6954324f314b6d56506e573951545070654745594d613ca08201527f6746506959427661795053444c2b686959787a744245644c314b55432f4e5146613cc08201527f75567844637a625a46525574445454694b375265456e6d4f3672454445786734613ce08201527f74722f72495a743037705939437631506e64644174727a4d4754477758637751613d008201527f42584a5143486d7138537358796649686a59456a477352457a444e52665a3070613d208201527f6137474d536872425243676d6171764a55566670444e716c597535634c676358613d408201527f6250495730732b69493149356e78742f595852526f5447772b784b35486f4a47613d608201527f672f416d34306c5a68416230664c5639355370756b556937766f704236315773613d808201527f5248556a346d4e7144716a42557a56444b596d72576163534d785675424a6a74613da08201527f6959706a5564696f5578747841316b456c4734472f382b6b7172586e4b6d3658613dc08201527f37576a6d2b655939577279636e2b75757864713739717062556d736343332f72613de08201527f7943706d6b59626b594b796a744a4a733947642b6e44514e474950764e6b3448613e008201527f47615a4473464d56625952443279736d544e56366345326b77566f55576b3857613e208201527f6341774d6c55504c2f4d4c66785075683231456c56514e552b424e6b6332482b613e408201527f78415658545153782f544147394c4a4f6a33774f322b4733494f4f71484d6762613e608201527f41446530426466323545304354516d526e505930653578694556696739386256613e808201527f72684f4476346538504d4f544656367051743235462f6f494e5a342f4e377848613ea08201527f664347355a515565346377566263304a46566a5a794f537846797a5a4a416248613ec08201527f525942303345363871682f6949535331696b584d395a766967392b5a794e7169613ee08201527f656d616a6166344b785a476b614377596a754e43433855734775346d4d6e4939613f008201527f6e6376657a4e534b7a45466541507353444d74536870766f796f6552394f3379613f208201527f7a385546755743776a5563334b6532366a344f5135597335752f567453355747613f408201527f58586b596b5a6554473978655a387939585a66747a514d65534b7057714a4f71613f608201527f6e37343566735a38495a433750314f6d307444344a7871766633313753483946613f808201527f362b6558787147764642704850466a536455646d34373770624652492f433267613fa08201527f5a78434f686c3051334978613869546b716f75503075714d76446d4f486e5063613fc08201527f782f767141346b7976687242727a5a704e687a6b53566d4e437778584a6e747a613fe08201527f63677171637132776868753666434830786c354a335244646a487253345550506140008201527f6e5658746c6c536c544d666162784e4c61614a57634a4e4351453765685467376140208201527f6577715031427a6d4c3036592b434e43784b6f6e46596b446672536a4d4162496140408201527f7742436f79546d79556e5665764b7557564a564d62517574655461364a7a77496140608201527f67544159363654672b53495477784465766150373554317249353052614544766140808201527f5641745872334c6d7642505356574d7451324f773455556454595968705438776140a08201527f4833794a6c5830305949544862334d58364f494a72766e346d727169553447466140c08201527f385732544657433664623874656d483761524735694331547170366b5a6842646140e08201527f68346c4d37684e7444646a6f57536345346d3579634866327a6e4377424a7a6c6141008201527f52487367786b377548624a3667506d6653337444304743453079634f796442456141208201527f704d59565854775854744843482b61795946516f63746764444a543961496e536141408201527f6c366669573345436d79713453686871754c6765316250394f4f2f68356530596141608201527f515337312b434a4a65594b6c6e4d2f444f6c6849395a68337630476562644d316141808201527f526f716f4278713761646d475362626f2b4269383969424f42525456545a44716141a08201527f6747612b6a676576714b556a52714739484c6a42795256705856686d324849796141c08201527f6152775a496c4a584a446350353176785561382f346168446e5339476935704b6141e08201527f6b594e76506c4f4d796c6c58664f415778616d716d6573787159445a652f704f6142008201527f36474177316c42336c315364615579355958566a454643515574336e534458426142208201527f4c4551754637365132586f4b3931776a5770787852476c715a6a6e71786b395a6142408201527f71436e43344d6a74397744713756784d2b536d396d62596f425a5837466c752f6142608201527f444b6452697959664c4254516b4448564a304f512b36386d76487875587565786142808201527f5179516d4c5770364166676a554b442b4765627645367957795370756f2f526e6142a08201527f76713675516e714a35756f5353516d775777364671325670476f3545516163536142c08201527f63796d6139635051317256386a664f4d4e4b566b3672694a6e54416d353238676142e08201527f746b5774315a69586d67713538364e343637766657762b2f3874586a7a2f2f736143008201527f3075714d69326c4559657254484f74576679575557496175705a6b765756546b6143208201527f4b464638696732666e78382f374b614d636a4254783355644664517943524c346143408201527f6d6353557a57565054387962644a367062664f66653736704f704b712b4d31386143608201527f4d59574e65306d6b4961423530744d3159666245595461632b6d504d415059746143808201527f41524275704c795532364356514c756748354551396d6c34614f4852316a624c6143a08201527f2b5061446d49505553323865426d476c45725430457a554b7033694834704b716143c08201527f6c4c33363468506d4b6f5a302f3267396f54322b53566730336f71704374644f6143e08201527f464545516e326133724b4c65482b7753706d485a307a56436d4c4c6f38334c7a6144008201527f2b3952703553745555685875584259494d77364a316b61636e36324d4d677a436144208201527f68786a62544335535366586565504873662f7366676a706e36654a4549344b706144408201527f376b3653344c735047634c6779374f5766644a3158392b6653644a3158432f376144608201527f6a396e69556c666e576469714e43316b31646135426a6f6448754248716c384b6144808201527f616c61337a7066567450742f412f713144794630516145544141414141424a526144a08201526d2a9aa2b935a533b3b39e9e91179f60911b6144c08201526144ae81526144e081019167ffffffffffffffff831182841017615374578260405283835281519081614500840152805b82811061535f57508282016145200152601f01601f19168101036040019150f35b8086918501614520838201519101520161533e565b634e487b7160e01b81526041600452602490fd5b80fdfea2646970667358221220849d70fa42423cbc56fed8aec7a38f4f95114acc6799adcbef42fdbeda23a9fb64736f6c63430008110033",
    "linkReferences": {}
  },
  "methodIdentifiers": {
    "getWaves()": "a9d42f7e"
  },
  "id": 15
}