{
  "abi": [
    {
      "inputs": [
        {
          "internalType": "contract IFrensStorage",
          "name": "_frensStorage",
          "type": "address"
        }
      ],
      "stateMutability": "nonpayable",
      "type": "constructor"
    },
    {
      "inputs": [
        {
          "internalType": "uint256",
          "name": "id",
          "type": "uint256"
        },
        {
          "internalType": "uint256",
          "name": "amount",
          "type": "uint256"
        }
      ],
      "name": "addToDeposit",
      "outputs": [
        {
          "internalType": "bool",
          "name": "",
          "type": "bool"
        }
      ],
      "stateMutability": "nonpayable",
      "type": "function"
    },
    {
      "inputs": [
        {
          "internalType": "address",
          "name": "stakingPool",
          "type": "address"
        },
        {
          "internalType": "bool",
          "name": "validatorLocked",
          "type": "bool"
        }
      ],
      "name": "create",
      "outputs": [
        {
          "internalType": "bool",
          "name": "",
          "type": "bool"
        }
      ],
      "stateMutability": "nonpayable",
      "type": "function"
    },
    {
      "inputs": [
        {
          "internalType": "uint256",
          "name": "depositAmount",
          "type": "uint256"
        }
      ],
      "name": "depositToPool",
      "outputs": [
        {
          "internalType": "bool",
          "name": "",
          "type": "bool"
        }
      ],
      "stateMutability": "nonpayable",
      "type": "function"
    },
    {
      "inputs": [
        {
          "internalType": "address",
          "name": "tokenOwner",
          "type": "address"
        },
        {
          "internalType": "uint256",
          "name": "share",
          "type": "uint256"
        }
      ],
      "name": "distribute",
      "outputs": [
        {
          "internalType": "bool",
          "name": "",
          "type": "bool"
        }
      ],
      "stateMutability": "nonpayable",
      "type": "function"
    },
    {
      "inputs": [],
      "name": "num",
      "outputs": [
        {
          "internalType": "uint256",
          "name": "",
          "type": "uint256"
        }
      ],
      "stateMutability": "view",
      "type": "function"
    },
    {
      "inputs": [
        {
          "internalType": "uint256",
          "name": "id",
          "type": "uint256"
        },
        {
          "internalType": "uint256",
          "name": "price",
          "type": "uint256"
        }
      ],
      "name": "rageQuit",
      "outputs": [
        {
          "internalType": "bool",
          "name": "",
          "type": "bool"
        }
      ],
      "stateMutability": "nonpayable",
      "type": "function"
    },
    {
      "inputs": [],
      "name": "sender",
      "outputs": [
        {
          "internalType": "address",
          "name": "",
          "type": "address"
        }
      ],
      "stateMutability": "view",
      "type": "function"
    },
    {
      "inputs": [
        {
          "internalType": "address",
          "name": "newArtContract",
          "type": "address"
        }
      ],
      "name": "setArt",
      "outputs": [
        {
          "internalType": "bool",
          "name": "",
          "type": "bool"
        }
      ],
      "stateMutability": "nonpayable",
      "type": "function"
    },
    {
      "inputs": [
        {
          "internalType": "bytes",
          "name": "pubKey",
          "type": "bytes"
        },
        {
          "internalType": "bytes",
          "name": "withdrawal_credentials",
          "type": "bytes"
        },
        {
          "internalType": "bytes",
          "name": "signature",
          "type": "bytes"
        },
        {
          "internalType": "bytes32",
          "name": "deposit_data_root",
          "type": "bytes32"
        }
      ],
      "name": "setPubKey",
      "outputs": [
        {
          "internalType": "bool",
          "name": "",
          "type": "bool"
        }
      ],
      "stateMutability": "nonpayable",
      "type": "function"
    },
    {
      "inputs": [
        {
          "internalType": "uint256",
          "name": "id",
          "type": "uint256"
        }
      ],
      "name": "unlockTransfer",
      "outputs": [
        {
          "internalType": "bool",
          "name": "",
          "type": "bool"
        }
      ],
      "stateMutability": "nonpayable",
      "type": "function"
    },
    {
      "inputs": [],
      "name": "value",
      "outputs": [
        {
          "internalType": "uint256",
          "name": "",
          "type": "uint256"
        }
      ],
      "stateMutability": "view",
      "type": "function"
    },
    {
      "inputs": [],
      "name": "version",
      "outputs": [
        {
          "internalType": "uint8",
          "name": "",
          "type": "uint8"
        }
      ],
      "stateMutability": "view",
      "type": "function"
    },
    {
      "inputs": [
        {
          "internalType": "uint256",
          "name": "_id",
          "type": "uint256"
        },
        {
          "internalType": "uint256",
          "name": "_amount",
          "type": "uint256"
        }
      ],
      "name": "withdraw",
      "outputs": [
        {
          "internalType": "bool",
          "name": "",
          "type": "bool"
        }
      ],
      "stateMutability": "nonpayable",
      "type": "function"
    }
  ],
  "bytecode": {
    "object": "0x60803461008257601f6111da38819003918201601f19168301916001600160401b038311848410176100875780849260209460405283398101031261008257516001600160a01b038116810361008257600080546001600160a81b03191660089290921b610100600160a81b031691909117905560405161113c908161009e8239f35b600080fd5b634e487b7160e01b600052604160045260246000fdfe608060408181526004918236101561001657600080fd5b600092833560e01c918263084bad7814610bbb57508163319e9090146109ab5781633fa4f2451461098c578163441a3e70146109125781634e70b1dc146108f357816354fd4d50146108d357816367e404ce146108aa57816368b0e070146105cd578163bed62f3514610503578163e6b1a3ae14610481578163e920eec01461023b57508063f038afe31461016f5763fb932108146100b457600080fd5b3461016b578060031936011261016b576020906101646100d2610c47565b6101076101028451868101906100fa816100ec3385610d32565b03601f198101835282610ced565b519020610e95565b610e2c565b336001600160601b0360a01b6002541617600255825190848201906f18db185a5b58589b194b985b5bdd5b9d60821b82526001600160601b03199060601b1660308301526024825261015882610cb5565b60243591519020610fbd565b5160018152f35b5080fd5b503461016b5760209061016461018436610c2c565b9061019f6101028551878101906100fa816100ec3385610d32565b6101d68451868101906c726167652e7175697474696e6760981b825283602d820152602d81526101ce81610cb5565b519020610d79565b61020b84518681019068726167652e74696d6560b81b82528360298201526029815261020181610cb5565b5190204290610f70565b83518581019169726167652e707269636560b01b8352602a820152602a815261023381610cb5565b519020610f70565b9050346104755760803660031901126104755767ffffffffffffffff90803582811161047d5761026e9036908301610c5d565b949092602435818111610475576102889036908501610c5d565b91604435908111610479576102a09036908601610c5d565b9290918751986020998a81019080336102b99084610d32565b03601f19810182526102cb9082610ced565b5190206102d790610e95565b6102e090610e2c565b8851978a8901657075624b657960d01b81523360601b998a6026820152601a815261030a81610cd1565b5190209136906103199261100a565b61032291611041565b875189810190757769746864726177616c5f63726564656e7469616c7360501b8252886036820152602a815261035781610cb5565b5190209136906103669261100a565b61036f91611041565b855187810190687369676e617475726560b81b8252866029820152601d815261039781610cd1565b5190209136906103a69261100a565b6103af91611041565b8351858101907019195c1bdcda5d17d9185d1857dc9bdbdd607a1b8252846031820152602581526103df81610cb5565b519020815460081c6001600160a01b031692833b1561047557906044839283885196879485936309d23b6160e31b855284015260643560248401525af190811561046a575090610164929161045b575b508251848101916c1d985b1a59185d1bdc8b9cd95d609a1b8352602d820152602181526101ce81610cb5565b61046490610c8b565b3861042f565b8451903d90823e3d90fd5b8280fd5b8380fd5b8480fd5b50503461016b57602036600319011261016b576020906101646104a2610c47565b6104bc6101028451868101906100fa816100ec3385610d32565b8251848101907f706f6f6c2e73706563696669632e6172742e616464726573730000000000000082523360601b6039820152602d81526104fb81610cb5565b519020610f1f565b90503461047557602036600319011261047557610531610102835160208101906100fa816100ec3385610d32565b82825160208101906e1d1c985b9cd9995c8b9b1bd8dad959608a1b82528335602f820152602f815261056281610cb5565b519020815460081c6001600160a01b031692833b1561047557604490838651958694859363abfdcced60e01b85528401528160248401525af180156105c157602093506105b2575b505160018152f35b6105bb90610c8b565b386105aa565b505051903d90823e3d90fd5b8284346108a7576020928360031936011261016b57803590835192610610610102878601866105fc3383610d32565b03966100fa601f1998898101835282610ced565b845192868401671d1bdad95b8b9a5960c21b948582526008815261063381610cd1565b51902082546001600160a01b03959160089190911c861690813b1561047d578491604483928b519485938492632b6cd4f760e21b84528b840152600160248401525af1801561089d5761088e575b5086518881019182526008815261069781610cd1565b519020948785845460081c1696602489518099819363bd02d0f560e01b8352898301525afa958615610884578396610853575b5090610729916107018289518b8101906d19195c1bdcda5d0b985b5bdd5b9d60921b82528a602e820152602e815261023381610cb5565b87516107218a820192826107153386610e67565b03908101835282610ced565b519020610fbd565b8451928684016a1a591ccb9a5b8b9c1bdbdb60aa1b81523360601b9485602b820152601f815261075881610cd1565b51902090825460081c1692833b15610475579060448392838951968794859363785f002b60e11b85528401528960248401525af1908115610848575091610803916101649493610839575b506107da85518781016a1c1bdbdb0b999bdc8b9a5960aa1b815285602b830152602b82526107d082610cb5565b3391519020610f1f565b8451868101916b199c995b9ccb9b1bd8dad95960a21b8352602c8201528681526100fa81610cd1565b908351858101916e1d1c985b9cd9995c8b9b1bd8dad959608a1b8352602f820152602f815261083181610cb5565b519020610ddd565b61084290610c8b565b866107a3565b8551903d90823e3d90fd5b9095508781813d831161087d575b61086b8183610ced565b810103126104755751946107296106ca565b503d610861565b87513d85823e3d90fd5b61089790610c8b565b88610681565b88513d86823e3d90fd5b80fd5b50503461016b578160031936011261016b5760025490516001600160a01b039091168152602090f35b50503461016b578160031936011261016b5760ff60209254169051908152f35b50503461016b578160031936011261016b576020906001549051908152f35b50503461016b5760209061016461092836610c2c565b9061097882855192610944610102898601866105fc3383610d32565b8651888101916d19195c1bdcda5d0b985b5bdd5b9d60921b8352602e820152602e815261097081610cb5565b5190206110b9565b835161097086820192826107153386610e67565b50503461016b578160031936011261016b576020906003549051908152f35b9050346104755781600319360112610475576109c5610c47565b60243591821515830361047d57835194602095868101906c636f6e74726163742e6e616d6560981b82523360601b602d82015260218152610a0581610cb5565b51902081548651634c373c8d60e11b81528481019290925282908290602490829060081c6001600160a01b03165afa918215610bb0578092610b36575b50508451610a6c878281610a5f8183019687815193849201610d0f565b8101038084520182610ced565b519020845186810190715374616b696e67506f6f6c466163746f727960701b825260128152610a9a81610cd1565b51902003610afb57509061016491610abf8451868101906101ce816100ec8685610d32565b8351858101916f1d985b1a59185d1bdc8b9b1bd8dad95960821b83526001600160601b03199060601b1660308201526024815261083181610cb5565b835162461bcd60e51b815290810185905260156024820152741bdb9b1e48199858dd1bdc9e4818d85b8818d85b1b605a1b6044820152606490fd5b9091503d8082843e610b488184610ced565b820191878184031261016b5780519067ffffffffffffffff8211610475570182601f8201121561016b57805191610b7e83610d5d565b93610b8b89519586610ced565b8385528984840101116108a7575090610ba991888085019101610d0f565b3880610a42565b8651903d90823e3d90fd5b8385346108a75750610164610c18602093610bd536610c2c565b809391610bec610102898601866105fc3383610d32565b8651888101916d19195c1bdcda5d0b985b5bdd5b9d60921b8352602e820152602e815261072181610cb5565b835161072186820192826107153386610e67565b6040906003190112610c42576004359060243590565b600080fd5b600435906001600160a01b0382168203610c4257565b9181601f84011215610c425782359167ffffffffffffffff8311610c425760208381860195010111610c4257565b67ffffffffffffffff8111610c9f57604052565b634e487b7160e01b600052604160045260246000fd5b6060810190811067ffffffffffffffff821117610c9f57604052565b6040810190811067ffffffffffffffff821117610c9f57604052565b90601f8019910116810190811067ffffffffffffffff821117610c9f57604052565b60005b838110610d225750506000910152565b8181015183820152602001610d12565b601f916a706f6f6c2e65786973747360a81b82526001600160601b03199060601b16600b8201520190565b67ffffffffffffffff8111610c9f57601f01601f191660200190565b60009060018060a01b03825460081c1690813b1561047557829160448392604051958693849263abfdcced60e01b84526004840152600160248401525af1908115610dd15750610dc65750565b610dcf90610c8b565b565b604051903d90823e3d90fd5b6000805460081c6001600160a01b0316929091833b1561047557906044839283604051968794859363abfdcced60e01b85526004850152151560248401525af1908115610dd15750610dc65750565b15610e3357565b60405162461bcd60e51b815260206004820152600c60248201526b125b9d985b1a5908141bdbdb60a21b6044820152606490fd5b6022916d746f74616c2e6465706f7369747360901b82526001600160601b03199060601b16600e8201520190565b60008054604051633d70e7e560e11b815260048101939093526020908390602490829060081c6001600160a01b03165afa918215610f12578192610ed857505090565b9091506020813d8211610f0a575b81610ef360209383610ced565b8101031261016b57519081151582036108a7575090565b3d9150610ee6565b50604051903d90823e3d90fd5b600080546001600160a01b039391929060081c8416803b156104795783929183604492604051978895869463ca446dd960e01b865260048601521660248401525af1908115610dd15750610dc65750565b6000805460081c6001600160a01b0316929091833b15610475579060448392836040519687948593637152429d60e11b8552600485015260248401525af1908115610dd15750610dc65750565b6000805460081c6001600160a01b0316929091833b15610475579060448392836040519687948593632b6cd4f760e21b8552600485015260248401525af1908115610dd15750610dc65750565b92919261101682610d5d565b916110246040519384610ced565b829481845281830111610c42578281602093846000960137010152565b91909160009060018060a01b03825460081c1690813b15610475579382916064949583604051968780958194630b8a342160e21b835260048301526040602483015261109c8151809281604486015260208686019101610d0f565b601f01601f191681010301925af1908115610dd15750610dc65750565b6000805460081c6001600160a01b0316929091833b1561047557906044839283604051968794859363ebb9d8c960e01b8552600485015260248401525af1908115610dd15750610dc6575056fea26469706673582212204800cd87a7d78f6e340fe85660bd82fc39944323526be8e6de4a639ffe2f85c964736f6c63430008110033",
    "linkReferences": {}
  },
  "methodIdentifiers": {
    "addToDeposit(uint256,uint256)": "084bad78",
    "create(address,bool)": "319e9090",
    "depositToPool(uint256)": "68b0e070",
    "distribute(address,uint256)": "fb932108",
    "num()": "4e70b1dc",
    "rageQuit(uint256,uint256)": "f038afe3",
    "sender()": "67e404ce",
    "setArt(address)": "e6b1a3ae",
    "setPubKey(bytes,bytes,bytes,bytes32)": "e920eec0",
    "unlockTransfer(uint256)": "bed62f35",
    "value()": "3fa4f245",
    "version()": "54fd4d50",
    "withdraw(uint256,uint256)": "441a3e70"
  },
  "id": 8
}