{
  "abi": [
    {
      "inputs": [
        {
          "internalType": "contract IFrensStorage",
          "name": "_frensStorage",
          "type": "address"
        }
      ],
      "stateMutability": "nonpayable",
      "type": "constructor"
    },
    {
      "inputs": [
        {
          "internalType": "uint256",
          "name": "id",
          "type": "uint256"
        },
        {
          "internalType": "uint256",
          "name": "amount",
          "type": "uint256"
        }
      ],
      "name": "addToDeposit",
      "outputs": [
        {
          "internalType": "bool",
          "name": "",
          "type": "bool"
        }
      ],
      "stateMutability": "nonpayable",
      "type": "function"
    },
    {
      "inputs": [
        {
          "internalType": "address",
          "name": "stakingPool",
          "type": "address"
        },
        {
          "internalType": "bool",
          "name": "validatorLocked",
          "type": "bool"
        },
        {
          "internalType": "bool",
          "name": "frensLocked",
          "type": "bool"
        },
        {
          "internalType": "uint256",
          "name": "poolMin",
          "type": "uint256"
        },
        {
          "internalType": "uint256",
          "name": "poolMax",
          "type": "uint256"
        }
      ],
      "name": "create",
      "outputs": [
        {
          "internalType": "bool",
          "name": "",
          "type": "bool"
        }
      ],
      "stateMutability": "nonpayable",
      "type": "function"
    },
    {
      "inputs": [
        {
          "internalType": "uint256",
          "name": "depositAmount",
          "type": "uint256"
        }
      ],
      "name": "depositToPool",
      "outputs": [
        {
          "internalType": "bool",
          "name": "",
          "type": "bool"
        }
      ],
      "stateMutability": "nonpayable",
      "type": "function"
    },
    {
      "inputs": [
        {
          "internalType": "address",
          "name": "tokenOwner",
          "type": "address"
        },
        {
          "internalType": "uint256",
          "name": "share",
          "type": "uint256"
        }
      ],
      "name": "distribute",
      "outputs": [
        {
          "internalType": "bool",
          "name": "",
          "type": "bool"
        }
      ],
      "stateMutability": "nonpayable",
      "type": "function"
    },
    {
      "inputs": [
        {
          "internalType": "address",
          "name": "newArtContract",
          "type": "address"
        }
      ],
      "name": "setArt",
      "outputs": [
        {
          "internalType": "bool",
          "name": "",
          "type": "bool"
        }
      ],
      "stateMutability": "nonpayable",
      "type": "function"
    },
    {
      "inputs": [
        {
          "internalType": "bytes",
          "name": "pubKey",
          "type": "bytes"
        },
        {
          "internalType": "bytes",
          "name": "withdrawal_credentials",
          "type": "bytes"
        },
        {
          "internalType": "bytes",
          "name": "signature",
          "type": "bytes"
        },
        {
          "internalType": "bytes32",
          "name": "deposit_data_root",
          "type": "bytes32"
        }
      ],
      "name": "setPubKey",
      "outputs": [
        {
          "internalType": "bool",
          "name": "",
          "type": "bool"
        }
      ],
      "stateMutability": "nonpayable",
      "type": "function"
    },
    {
      "inputs": [],
      "name": "version",
      "outputs": [
        {
          "internalType": "uint8",
          "name": "",
          "type": "uint8"
        }
      ],
      "stateMutability": "view",
      "type": "function"
    },
    {
      "inputs": [
        {
          "internalType": "uint256",
          "name": "_id",
          "type": "uint256"
        },
        {
          "internalType": "uint256",
          "name": "_amount",
          "type": "uint256"
        }
      ],
      "name": "withdraw",
      "outputs": [
        {
          "internalType": "bool",
          "name": "",
          "type": "bool"
        }
      ],
      "stateMutability": "nonpayable",
      "type": "function"
    }
  ],
  "bytecode": {
    "object": "0x60803461008557601f610fe838819003918201601f19168301916001600160401b0383118484101761008a5780849260209460405283398101031261008557516001600160a01b038116810361008557600080546001600160a81b03191660089290921b610100600160a81b0316919091176002179055604051610f4790816100a18239f35b600080fd5b634e487b7160e01b600052604160045260246000fdfe608060408181526004918236101561001657600080fd5b600092833560e01c918263084bad78146109c657508163441a3e701461094c57816354fd4d501461092c57816368b0e070146106bd578163e403e1ae146103f4578163e6b1a3ae14610372578163e920eec014610124575063fb9321081461007d57600080fd5b3461012057806003193601126101205760209061011961009b610a52565b6100d06100cb8451868101906100c3816100b53385610b3d565b03601f198101835282610af8565b519020610ced565b610c84565b825190848201906f18db185a5b58589b194b985b5bdd5b9d60821b82526001600160601b03199060601b1660308301526024825261010d82610ac0565b60243591519020610dc8565b5160018152f35b5080fd5b9050346103665760803660031901126103665767ffffffffffffffff90803582811161036e576101579036908301610a68565b949092602435818111610366576101719036908501610a68565b9160443590811161036a576101899036908601610a68565b9290918751986020998a81019080336101a29084610b3d565b03601f19810182526101b49082610af8565b5190206101c090610ced565b6101c990610c84565b8851978a8901657075624b657960d01b81523360601b998a6026820152601a81526101f381610adc565b51902091369061020292610e15565b61020b91610e4c565b875189810190757769746864726177616c5f63726564656e7469616c7360501b8252886036820152602a815261024081610ac0565b51902091369061024f92610e15565b61025891610e4c565b855187810190687369676e617475726560b81b8252866029820152601d815261028081610adc565b51902091369061028f92610e15565b61029891610e4c565b8351858101907019195c1bdcda5d17d9185d1857dc9bdbdd607a1b8252846031820152602581526102c881610ac0565b519020815460081c6001600160a01b031692833b1561036657906044839283885196879485936309d23b6160e31b855284015260643560248401525af190811561035b575090610119929161034c575b508251848101916c1d985b1a59185d1bdc8b9cd95d609a1b8352602d8201526021815261034481610ac0565b519020610be8565b61035590610a96565b38610318565b8451903d90823e3d90fd5b8280fd5b8380fd5b8480fd5b50503461012057602036600319011261012057602090610119610393610a52565b6103ad6100cb8451868101906100c3816100b53385610b3d565b8251848101907f706f6f6c2e73706563696669632e6172742e616464726573730000000000000082523360601b6039820152602d81526103ec81610ac0565b519020610d77565b9050346103665760a03660031901126103665761040f610a52565b90602435801515810361036e576044359182151583036106b957845195602096878101906c636f6e74726163742e6e616d6560981b82523360601b602d8201526021815261045c81610ac0565b51902081548751634c373c8d60e11b81528481019290925282908290602490829060081c6001600160a01b03165afa9182156106ae578092610631575b505085516104c38882816104b68183019687815193849201610b1a565b8101038084520182610af8565b519020855187810190715374616b696e67506f6f6c466163746f727960701b8252601281526104f181610adc565b519020036105f65750610119929161056461058e9261051d875189810190610344816100b58a85610b3d565b865194888601906f1d985b1a59185d1bdc8b9b1bd8dad95960821b82526001600160601b03199060601b16958660308201526024815261055c81610ac0565b519020610c35565b8451868101906b199c995b9ccb9b1bd8dad95960a21b825284602c82015287815261055c81610adc565b6105c38351858101673837b7b61736b4b760c11b8152836028830152601c82526105b782610adc565b60643591519020610b84565b82519084820190670e0deded85cdac2f60c31b82526028830152601c82526105ea82610adc565b60843591519020610b84565b845162461bcd60e51b815290810186905260156024820152741bdb9b1e48199858dd1bdc9e4818d85b8818d85b1b605a1b6044820152606490fd5b9091503d8082843e6106438184610af8565b82019188818403126101205780519067ffffffffffffffff8211610366570182601f820112156101205780519161067983610b68565b936106868a519586610af8565b8385528a84840101116106ab5750906106a491898085019101610b1a565b3880610499565b80fd5b8751903d90823e3d90fd5b8580fd5b8284346106ab57602092836003193601126101205782519181356106ff6100cb878601866106eb3383610b3d565b03966100c3601f1998898101835282610af8565b845190868201671d1bdad95b8b9a5960c21b928382526008815261072281610adc565b51902083546001600160a01b03939160089190911c841690813b156106b9578591604483928b519485938492632b6cd4f760e21b84528c840152600160248401525af1801561092257610913575b5086518881019182526008815261078681610adc565b519020948783855460081c1696602489518099819363bd02d0f560e01b83528a8301525afa9586156109095784966108d8575b5090610820916107f88289518b8101906d19195c1bdcda5d0b985b5bdd5b9d60921b82528a602e820152602e81526107f081610ac0565b519020610b84565b87516108188a8201928261080c3386610cbf565b03908101835282610af8565b519020610dc8565b8451868101906a1a591ccb9a5b8b9c1bdbdb60aa1b82523360601b602b820152601f815261084d81610adc565b51902090825460081c1692833b15610366579060448392838851968794859363785f002b60e11b85528401528860248401525af190811561035b57509061011992916108c9575b50825190848201906a1c1bdbdb0b999bdc8b9a5960aa1b8252602b830152602b82526108bf82610ac0565b3391519020610d77565b6108d290610a96565b84610894565b9095508781813d8311610902575b6108f08183610af8565b8101031261036a5751946108206107b9565b503d6108e6565b87513d86823e3d90fd5b61091c90610a96565b88610770565b88513d87823e3d90fd5b50503461012057816003193601126101205760ff60209254169051908152f35b5050346101205760209061011961096236610a37565b906109b28285519261097e6100cb898601866106eb3383610b3d565b8651888101916d19195c1bdcda5d0b985b5bdd5b9d60921b8352602e820152602e81526109aa81610ac0565b519020610ec4565b83516109aa868201928261080c3386610cbf565b8385346106ab5750610119610a236020936109e036610a37565b8093916109f76100cb898601866106eb3383610b3d565b8651888101916d19195c1bdcda5d0b985b5bdd5b9d60921b8352602e820152602e815261081881610ac0565b8351610818868201928261080c3386610cbf565b6040906003190112610a4d576004359060243590565b600080fd5b600435906001600160a01b0382168203610a4d57565b9181601f84011215610a4d5782359167ffffffffffffffff8311610a4d5760208381860195010111610a4d57565b67ffffffffffffffff8111610aaa57604052565b634e487b7160e01b600052604160045260246000fd5b6060810190811067ffffffffffffffff821117610aaa57604052565b6040810190811067ffffffffffffffff821117610aaa57604052565b90601f8019910116810190811067ffffffffffffffff821117610aaa57604052565b60005b838110610b2d5750506000910152565b8181015183820152602001610b1d565b601f916a706f6f6c2e65786973747360a81b82526001600160601b03199060601b16600b8201520190565b67ffffffffffffffff8111610aaa57601f01601f191660200190565b6000805460081c6001600160a01b0316929091833b15610366579060448392836040519687948593637152429d60e11b8552600485015260248401525af1908115610bdc5750610bd15750565b610bda90610a96565b565b604051903d90823e3d90fd5b60009060018060a01b03825460081c1690813b1561036657829160448392604051958693849263abfdcced60e01b84526004840152600160248401525af1908115610bdc5750610bd15750565b6000805460081c6001600160a01b0316929091833b1561036657906044839283604051968794859363abfdcced60e01b85526004850152151560248401525af1908115610bdc5750610bd15750565b15610c8b57565b60405162461bcd60e51b815260206004820152600c60248201526b125b9d985b1a5908141bdbdb60a21b6044820152606490fd5b6022916d746f74616c2e6465706f7369747360901b82526001600160601b03199060601b16600e8201520190565b60008054604051633d70e7e560e11b815260048101939093526020908390602490829060081c6001600160a01b03165afa918215610d6a578192610d3057505090565b9091506020813d8211610d62575b81610d4b60209383610af8565b8101031261012057519081151582036106ab575090565b3d9150610d3e565b50604051903d90823e3d90fd5b600080546001600160a01b039391929060081c8416803b1561036a5783929183604492604051978895869463ca446dd960e01b865260048601521660248401525af1908115610bdc5750610bd15750565b6000805460081c6001600160a01b0316929091833b15610366579060448392836040519687948593632b6cd4f760e21b8552600485015260248401525af1908115610bdc5750610bd15750565b929192610e2182610b68565b91610e2f6040519384610af8565b829481845281830111610a4d578281602093846000960137010152565b91909160009060018060a01b03825460081c1690813b15610366579382916064949583604051968780958194630b8a342160e21b8352600483015260406024830152610ea78151809281604486015260208686019101610b1a565b601f01601f191681010301925af1908115610bdc5750610bd15750565b6000805460081c6001600160a01b0316929091833b1561036657906044839283604051968794859363ebb9d8c960e01b8552600485015260248401525af1908115610bdc5750610bd1575056fea264697066735822122043a67cc5323e9678bc16434e339153c9f8b905cf7f0c78a00d6fa5127a37dfd864736f6c63430008110033",
    "linkReferences": {}
  },
  "methodIdentifiers": {
    "addToDeposit(uint256,uint256)": "084bad78",
    "create(address,bool,bool,uint256,uint256)": "e403e1ae",
    "depositToPool(uint256)": "68b0e070",
    "distribute(address,uint256)": "fb932108",
    "setArt(address)": "e6b1a3ae",
    "setPubKey(bytes,bytes,bytes,bytes32)": "e920eec0",
    "version()": "54fd4d50",
    "withdraw(uint256,uint256)": "441a3e70"
  },
  "id": 7
}