{
  "abi": [
    {
      "inputs": [
        {
          "internalType": "contract IFrensStorage",
          "name": "_frensStorage",
          "type": "address"
        }
      ],
      "stateMutability": "nonpayable",
      "type": "constructor"
    },
    {
      "inputs": [
        {
          "internalType": "uint256",
          "name": "id",
          "type": "uint256"
        },
        {
          "internalType": "uint256",
          "name": "amount",
          "type": "uint256"
        }
      ],
      "name": "addToDeposit",
      "outputs": [
        {
          "internalType": "bool",
          "name": "",
          "type": "bool"
        }
      ],
      "stateMutability": "nonpayable",
      "type": "function"
    },
    {
      "inputs": [
        {
          "internalType": "address",
          "name": "stakingPool",
          "type": "address"
        },
        {
          "internalType": "bool",
          "name": "validatorLocked",
          "type": "bool"
        },
        {
          "internalType": "bool",
          "name": "frensLocked",
          "type": "bool"
        },
        {
          "internalType": "uint256",
          "name": "poolMin",
          "type": "uint256"
        },
        {
          "internalType": "uint256",
          "name": "poolMax",
          "type": "uint256"
        }
      ],
      "name": "create",
      "outputs": [
        {
          "internalType": "bool",
          "name": "",
          "type": "bool"
        }
      ],
      "stateMutability": "nonpayable",
      "type": "function"
    },
    {
      "inputs": [
        {
          "internalType": "uint256",
          "name": "depositAmount",
          "type": "uint256"
        }
      ],
      "name": "depositToPool",
      "outputs": [
        {
          "internalType": "bool",
          "name": "",
          "type": "bool"
        }
      ],
      "stateMutability": "nonpayable",
      "type": "function"
    },
    {
      "inputs": [
        {
          "internalType": "address",
          "name": "tokenOwner",
          "type": "address"
        },
        {
          "internalType": "uint256",
          "name": "share",
          "type": "uint256"
        }
      ],
      "name": "distribute",
      "outputs": [
        {
          "internalType": "bool",
          "name": "",
          "type": "bool"
        }
      ],
      "stateMutability": "nonpayable",
      "type": "function"
    },
    {
      "inputs": [
        {
          "internalType": "address",
          "name": "newArtContract",
          "type": "address"
        }
      ],
      "name": "setArt",
      "outputs": [
        {
          "internalType": "bool",
          "name": "",
          "type": "bool"
        }
      ],
      "stateMutability": "nonpayable",
      "type": "function"
    },
    {
      "inputs": [
        {
          "internalType": "bytes",
          "name": "pubKey",
          "type": "bytes"
        },
        {
          "internalType": "bytes",
          "name": "withdrawal_credentials",
          "type": "bytes"
        },
        {
          "internalType": "bytes",
          "name": "signature",
          "type": "bytes"
        },
        {
          "internalType": "bytes32",
          "name": "deposit_data_root",
          "type": "bytes32"
        }
      ],
      "name": "setPubKey",
      "outputs": [
        {
          "internalType": "bool",
          "name": "",
          "type": "bool"
        }
      ],
      "stateMutability": "nonpayable",
      "type": "function"
    },
    {
      "inputs": [
        {
          "internalType": "uint256",
          "name": "id",
          "type": "uint256"
        }
      ],
      "name": "unlockTransfer",
      "outputs": [
        {
          "internalType": "bool",
          "name": "",
          "type": "bool"
        }
      ],
      "stateMutability": "nonpayable",
      "type": "function"
    },
    {
      "inputs": [],
      "name": "version",
      "outputs": [
        {
          "internalType": "uint8",
          "name": "",
          "type": "uint8"
        }
      ],
      "stateMutability": "view",
      "type": "function"
    },
    {
      "inputs": [
        {
          "internalType": "uint256",
          "name": "_id",
          "type": "uint256"
        },
        {
          "internalType": "uint256",
          "name": "_amount",
          "type": "uint256"
        }
      ],
      "name": "withdraw",
      "outputs": [
        {
          "internalType": "bool",
          "name": "",
          "type": "bool"
        }
      ],
      "stateMutability": "nonpayable",
      "type": "function"
    }
  ],
  "bytecode": {
    "object": "0x60803461008557601f61117b38819003918201601f19168301916001600160401b0383118484101761008a5780849260209460405283398101031261008557516001600160a01b038116810361008557600080546001600160a81b03191660089290921b610100600160a81b03169190911760021790556040516110da90816100a18239f35b600080fd5b634e487b7160e01b600052604160045260246000fdfe608060408181526004918236101561001657600080fd5b600092833560e01c918263084bad7814610b5957508163441a3e7014610acb57816354fd4d5014610aab57816368b0e070146107bf578163bed62f35146106f5578163e403e1ae146103ff578163e6b1a3ae1461037d578163e920eec01461012f575063fb9321081461008857600080fd5b3461012b578060031936011261012b576020906101246100a6610be5565b6100db6100d68451868101906100ce816100c03385610cd0565b03601f198101835282610c8b565b519020610e80565b610e17565b825190848201906f18db185a5b58589b194b985b5bdd5b9d60821b82526001600160601b03199060601b1660308301526024825261011882610c53565b60243591519020610f5b565b5160018152f35b5080fd5b9050346103715760803660031901126103715767ffffffffffffffff908035828111610379576101629036908301610bfb565b9490926024358181116103715761017c9036908501610bfb565b91604435908111610375576101949036908601610bfb565b9290918751986020998a81019080336101ad9084610cd0565b03601f19810182526101bf9082610c8b565b5190206101cb90610e80565b6101d490610e17565b8851978a8901657075624b657960d01b81523360601b998a6026820152601a81526101fe81610c6f565b51902091369061020d92610fa8565b61021691610fdf565b875189810190757769746864726177616c5f63726564656e7469616c7360501b8252886036820152602a815261024b81610c53565b51902091369061025a92610fa8565b61026391610fdf565b855187810190687369676e617475726560b81b8252866029820152601d815261028b81610c6f565b51902091369061029a92610fa8565b6102a391610fdf565b8351858101907019195c1bdcda5d17d9185d1857dc9bdbdd607a1b8252846031820152602581526102d381610c53565b519020815460081c6001600160a01b031692833b1561037157906044839283885196879485936309d23b6160e31b855284015260643560248401525af19081156103665750906101249291610357575b508251848101916c1d985b1a59185d1bdc8b9cd95d609a1b8352602d8201526021815261034f81610c53565b519020610d7b565b61036090610c29565b38610323565b8451903d90823e3d90fd5b8280fd5b8380fd5b8480fd5b50503461012b57602036600319011261012b5760209061012461039e610be5565b6103b86100d68451868101906100ce816100c03385610cd0565b8251848101907f706f6f6c2e73706563696669632e6172742e616464726573730000000000000082523360601b6039820152602d81526103f781610c53565b519020610f0a565b9050346103715760a03660031901126103715761041a610be5565b90602435918215158303610379576044359182151583036106f157845195602096878101906c636f6e74726163742e6e616d6560981b82523360601b602d8201526021815261046881610c53565b51902081548751634c373c8d60e11b81528481019290925282908290602490829060081c6001600160a01b03165afa9182156106e6578092610669575b505085516104cf8882816104c28183019687815193849201610cad565b8101038084520182610c8b565b519020855187810190715374616b696e67506f6f6c466163746f727960701b8252601281526104fd81610c6f565b5190200361062e575061012492916105c6918551610536888201826105228583610cd0565b039261034f601f1994858101835282610c8b565b61057f8751958987016f1d985b1a59185d1bdc8b9b1bd8dad95960821b81526001600160601b03198560601b16978860308201526024815261057781610c53565b519020610dc8565b610577875191826105ba8b820195866020916b199c995b9ccb9b1bd8dad95960a21b82526001600160601b03199060601b16600c8201520190565b03908101835282610c8b565b6105fb8351858101673837b7b61736b4b760c11b8152836028830152601c82526105ef82610c6f565b60643591519020610d17565b82519084820190670e0deded85cdac2f60c31b82526028830152601c825261062282610c6f565b60843591519020610d17565b845162461bcd60e51b815290810186905260156024820152741bdb9b1e48199858dd1bdc9e4818d85b8818d85b1b605a1b6044820152606490fd5b9091503d8082843e61067b8184610c8b565b820191888184031261012b5780519067ffffffffffffffff8211610371570182601f8201121561012b578051916106b183610cfb565b936106be8a519586610c8b565b8385528a84840101116106e35750906106dc91898085019101610cad565b38806104a5565b80fd5b8751903d90823e3d90fd5b8580fd5b905034610371576020366003190112610371576107236100d6835160208101906100ce816100c03385610cd0565b82825160208101906e1d1c985b9cd9995c8b9b1bd8dad959608a1b82528335602f820152602f815261075481610c53565b519020815460081c6001600160a01b031692833b1561037157604490838651958694859363abfdcced60e01b85528401528160248401525af180156107b357602093506107a4575b505160018152f35b6107ad90610c29565b3861079c565b505051903d90823e3d90fd5b90503461037157602092836003193601126106e3578135918351916108026100d6878501856107ee3383610cd0565b03956100ce601f1997888101835282610c8b565b8451868101671d1bdad95b8b9a5960c21b918282526008815261082481610c6f565b51902082546001600160a01b03929160089190911c831690813b15610379578491604483928b519485938492632b6cd4f760e21b84528b840152600160248401525af18015610aa157610a92575b5086518881019182526008815261088881610c6f565b519020948782845460081c1696602489518099819363bd02d0f560e01b8352898301525afa958615610a88578396610a57575b50806108f96109219289518b8101906d19195c1bdcda5d0b985b5bdd5b9d60921b82528a602e820152602e81526108f181610c53565b519020610d17565b8751898101906109198161090d3385610e52565b03898101835282610c8b565b519020610f5b565b8551878101906a1a591ccb9a5b8b9c1bdbdb60aa1b82523360601b602b820152601f815261094e81610c6f565b51902090825460081c1692833b15610371579060448392838951968794859363785f002b60e11b85528401528960248401525af1908115610a4c575091610a0f916101249493610a3d575b506109d085518781016a1c1bdbdb0b999bdc8b9a5960aa1b815285602b830152602b82526109c682610c53565b3391519020610f0a565b84516b199c995b9ccb9b1bd8dad95960a21b8782019081523360601b6bffffffffffffffffffffffff1916600c820152916100ce9082602085016105ba565b908351858101916e1d1c985b9cd9995c8b9b1bd8dad959608a1b8352602f820152602f815261057781610c53565b610a4690610c29565b38610999565b8551903d90823e3d90fd5b9095508781813d8311610a81575b610a6f8183610c8b565b810103126103715751946109216108bb565b503d610a65565b87513d85823e3d90fd5b610a9b90610c29565b38610872565b88513d86823e3d90fd5b50503461012b578160031936011261012b5760ff60209254169051908152f35b50503461012b57602090610124610ae136610bca565b90610b4582855192610b116100d689860186610afd3383610cd0565b03966100ce601f1998898101835282610c8b565b8651888101916d19195c1bdcda5d0b985b5bdd5b9d60921b8352602e820152602e8152610b3d81610c53565b519020611057565b8351610b3d86820192826105ba3386610e52565b8385346106e35750610124610bb6602093610b7336610bca565b809391610b8a6100d689860186610afd3383610cd0565b8651888101916d19195c1bdcda5d0b985b5bdd5b9d60921b8352602e820152602e815261091981610c53565b835161091986820192826105ba3386610e52565b6040906003190112610be0576004359060243590565b600080fd5b600435906001600160a01b0382168203610be057565b9181601f84011215610be05782359167ffffffffffffffff8311610be05760208381860195010111610be057565b67ffffffffffffffff8111610c3d57604052565b634e487b7160e01b600052604160045260246000fd5b6060810190811067ffffffffffffffff821117610c3d57604052565b6040810190811067ffffffffffffffff821117610c3d57604052565b90601f8019910116810190811067ffffffffffffffff821117610c3d57604052565b60005b838110610cc05750506000910152565b8181015183820152602001610cb0565b601f916a706f6f6c2e65786973747360a81b82526001600160601b03199060601b16600b8201520190565b67ffffffffffffffff8111610c3d57601f01601f191660200190565b6000805460081c6001600160a01b0316929091833b15610371579060448392836040519687948593637152429d60e11b8552600485015260248401525af1908115610d6f5750610d645750565b610d6d90610c29565b565b604051903d90823e3d90fd5b60009060018060a01b03825460081c1690813b1561037157829160448392604051958693849263abfdcced60e01b84526004840152600160248401525af1908115610d6f5750610d645750565b6000805460081c6001600160a01b0316929091833b1561037157906044839283604051968794859363abfdcced60e01b85526004850152151560248401525af1908115610d6f5750610d645750565b15610e1e57565b60405162461bcd60e51b815260206004820152600c60248201526b125b9d985b1a5908141bdbdb60a21b6044820152606490fd5b6022916d746f74616c2e6465706f7369747360901b82526001600160601b03199060601b16600e8201520190565b60008054604051633d70e7e560e11b815260048101939093526020908390602490829060081c6001600160a01b03165afa918215610efd578192610ec357505090565b9091506020813d8211610ef5575b81610ede60209383610c8b565b8101031261012b57519081151582036106e3575090565b3d9150610ed1565b50604051903d90823e3d90fd5b600080546001600160a01b039391929060081c8416803b156103755783929183604492604051978895869463ca446dd960e01b865260048601521660248401525af1908115610d6f5750610d645750565b6000805460081c6001600160a01b0316929091833b15610371579060448392836040519687948593632b6cd4f760e21b8552600485015260248401525af1908115610d6f5750610d645750565b929192610fb482610cfb565b91610fc26040519384610c8b565b829481845281830111610be0578281602093846000960137010152565b91909160009060018060a01b03825460081c1690813b15610371579382916064949583604051968780958194630b8a342160e21b835260048301526040602483015261103a8151809281604486015260208686019101610cad565b601f01601f191681010301925af1908115610d6f5750610d645750565b6000805460081c6001600160a01b0316929091833b1561037157906044839283604051968794859363ebb9d8c960e01b8552600485015260248401525af1908115610d6f5750610d64575056fea2646970667358221220ab35cdf9ab54481fe0ca4d740dbe73bea9a094586b5d8ca006fd8d2b5a4e7aca64736f6c63430008110033",
    "linkReferences": {}
  },
  "methodIdentifiers": {
    "addToDeposit(uint256,uint256)": "084bad78",
    "create(address,bool,bool,uint256,uint256)": "e403e1ae",
    "depositToPool(uint256)": "68b0e070",
    "distribute(address,uint256)": "fb932108",
    "setArt(address)": "e6b1a3ae",
    "setPubKey(bytes,bytes,bytes,bytes32)": "e920eec0",
    "unlockTransfer(uint256)": "bed62f35",
    "version()": "54fd4d50",
    "withdraw(uint256,uint256)": "441a3e70"
  },
  "id": 7
}