{
  "abi": [
    {
      "inputs": [
        {
          "internalType": "contract IFrensStorage",
          "name": "_frensStorage",
          "type": "address"
        }
      ],
      "stateMutability": "nonpayable",
      "type": "constructor"
    },
    {
      "inputs": [
        {
          "internalType": "address",
          "name": "_contractAddress",
          "type": "address"
        }
      ],
      "name": "allowExternalContract",
      "outputs": [],
      "stateMutability": "nonpayable",
      "type": "function"
    },
    {
      "inputs": [
        {
          "internalType": "address",
          "name": "_contractAddress",
          "type": "address"
        },
        {
          "internalType": "string",
          "name": "_contractName",
          "type": "string"
        }
      ],
      "name": "deleteContract",
      "outputs": [],
      "stateMutability": "nonpayable",
      "type": "function"
    },
    {
      "inputs": [
        {
          "internalType": "address",
          "name": "_contractAddress",
          "type": "address"
        }
      ],
      "name": "disAllowExternalContract",
      "outputs": [],
      "stateMutability": "nonpayable",
      "type": "function"
    },
    {
      "inputs": [
        {
          "internalType": "address",
          "name": "_addr",
          "type": "address"
        }
      ],
      "name": "requireNotExist",
      "outputs": [],
      "stateMutability": "view",
      "type": "function"
    },
    {
      "inputs": [
        {
          "internalType": "address",
          "name": "_contractAddress",
          "type": "address"
        },
        {
          "internalType": "string",
          "name": "_contractName",
          "type": "string"
        }
      ],
      "name": "setContract",
      "outputs": [],
      "stateMutability": "nonpayable",
      "type": "function"
    },
    {
      "inputs": [
        {
          "internalType": "address",
          "name": "_contractAddress",
          "type": "address"
        },
        {
          "internalType": "string",
          "name": "_contractName",
          "type": "string"
        }
      ],
      "name": "setExternalContract",
      "outputs": [],
      "stateMutability": "nonpayable",
      "type": "function"
    },
    {
      "inputs": [],
      "name": "version",
      "outputs": [
        {
          "internalType": "uint8",
          "name": "",
          "type": "uint8"
        }
      ],
      "stateMutability": "view",
      "type": "function"
    }
  ],
  "bytecode": {
    "object": "0x60803461008357601f610c3d38819003918201601f19168301916001600160401b038311848410176100885780849260209460405283398101031261008357516001600160a01b03811681036100835760008054610100600160a81b03191660089290921b610100600160a81b0316919091179055604051610b9e908161009f8239f35b600080fd5b634e487b7160e01b600052604160045260246000fdfe60406080815260048036101561001457600080fd5b600091823560e01c80631b1c2c7f146106065780635498c063146105e157806354fd4d50146105c15780636b1c239e146105165780636b742b931461030a578063a3a8ceb0146101b25763fe9a364f1461006d57600080fd5b346101ae5760203660031901126101ae57610086610785565b835482516353adc3e960e11b81526001600160a01b0394929160209082908590829060081c89165afa9081156101a4576100cc9186918891610176575b5016331461088c565b82516f185b1b1bddd9590b98dbdb9d1c9858dd60821b6020820190815260609290921b6001600160601b031916603082015261011581604481015b03601f1981018352826107c5565b5190209260005460081c1692833b15610171576044600092838551968794859363abfdcced60e01b8552840152600160248401525af1908115610167575061015b575080f35b6101649061079b565b80f35b513d6000823e3d90fd5b600080fd5b610197915060203d811161019d575b61018f81836107c5565b81019061086d565b386100c3565b503d610185565b84513d88823e3d90fd5b8280fd5b50829034610306576101c3366107e7565b835483516353adc3e960e11b8152919360209290916001600160a01b039190849082908a90829060081c86165afa9081156102fc579061020d929188916102df575016331461088c565b61026a838251848101907f65787465726e616c2e636f6e74726163742e616464726573730000000000000082526102626039828a51610252818d8c86860191016108e4565b81010360198101845201826107c5565b519020610907565b8051918201927565787465726e616c2e636f6e74726163742e6e616d6560501b84526001600160601b03199060601b166036830152602a8252606082019082821067ffffffffffffffff8311176102ca576101649596505251902061096f565b604187634e487b7160e01b6000525260246000fd5b6102f69150853d871161019d5761018f81836107c5565b896100c3565b83513d89823e3d90fd5b5080fd5b50346101ae57610319366107e7565b909160018060a01b038581815460081c168351946353adc3e960e11b865260209586818a81865afa90811561050c5761035d91869186916104f5575016331461088c565b61036687610a33565b84516103aa603082898101946f636f6e74726163742e6164647265737360801b865261039a815180928d86860191016108e4565b81010360108101845201826107c5565b51902090803b156101ae57602483928651948593849263070a51bb60e11b84528c8401525af180156102fc576104e2575b5085908251958487018761041788836021916c636f6e74726163742e6e616d6560981b82526001600160601b03199060601b16600d8201520190565b039761042b601f19998a81018352826107c5565b51902091835460081c1691823b156104de57602484928387519586948593633daecf3160e21b85528401525af180156104d4576104bc575b5050610164936104a8926104b49251938491820195866023916e636f6e74726163742e65786973747360881b82526001600160601b03199060601b16600f8201520190565b039081018352826107c5565b5190206109e7565b6104c59061079b565b6104d0578438610463565b8480fd5b83513d84823e3d90fd5b8380fd5b6104ee9096919661079b565b94386103db565b6101979150893d8b1161019d5761018f81836107c5565b86513d86823e3d90fd5b5090346101ae5760203660031901126101ae57610531610785565b835483516353adc3e960e11b815291926001600160a01b0392916020918391829060081c86165afa9081156105b757916105799161016495938791610176575016331461088c565b516f185b1b1bddd9590b98dbdb9d1c9858dd60821b6020820190815260609290921b6001600160601b03191660308201526104b48160448101610107565b84513d87823e3d90fd5b83823461030657816003193601126103065760ff60209254169051908152f35b8334610603576020366003190112610603576101646105fe610785565b610a33565b80fd5b5090346101ae57610616366107e7565b845484516353adc3e960e11b8152919360209290916001600160a01b039160089190911c82169084818581855afa92831561077b578793610660928b91610764575016331461088c565b8387519360248286016f636f6e74726163742e6164647265737360801b9687825261069a603082878a519a019961039a818484018d6108e4565b519020918a5194859384926321f8a72160e01b84528301525afa90888215610759576107349461039a61026260308b6101079a986106e86101649f996106ff998f999161073c575b50610a33565b88519485928b8401978852518092858501906108e4565b51928391820194856021916c636f6e74726163742e6e616d6560981b82526001600160601b03199060601b16600d8201520190565b51902061096f565b61075391508c8d3d1061019d5761018f81836107c5565b386106e2565b8851903d90823e3d90fd5b6101979150873d891161019d5761018f81836107c5565b88513d8b823e3d90fd5b600435906001600160a01b038216820361017157565b67ffffffffffffffff81116107af57604052565b634e487b7160e01b600052604160045260246000fd5b90601f8019910116810190811067ffffffffffffffff8211176107af57604052565b906040600319830112610171576004356001600160a01b0381168103610171579167ffffffffffffffff60243581811161017157826023820112156101715780600401359182116107af576040519261084a601f8401601f1916602001856107c5565b828452602483830101116101715781600092602460209301838601378301015290565b9081602091031261017157516001600160a01b03811681036101715790565b1561089357565b60405162461bcd60e51b815260206004820152602360248201527f4163636f756e74206973206e6f7420612074656d706f7261727920677561726460448201526234b0b760e91b6064820152608490fd5b60005b8381106108f75750506000910152565b81810151838201526020016108e7565b600080546001600160a01b039391929060081c8416803b156104de5783929183604492604051978895869463ca446dd960e01b865260048601521660248401525af190811561096357506109585750565b6109619061079b565b565b604051903d90823e3d90fd5b91909160009060018060a01b03825460081c1690813b156101ae5793829160649495836040519687809581946306e8995560e41b83526004830152604060248301526109ca81518092816044860152602086860191016108e4565b601f01601f191681010301925af190811561096357506109585750565b60009060018060a01b03825460081c1690813b156101ae57829160448392604051958693849263abfdcced60e01b845260048401528160248401525af190811561096357506109585750565b6040516e636f6e74726163742e65786973747360881b602080830191825260609390931b6001600160601b031916602f83015290610a748160438101610107565b51902060008054604051633d70e7e560e11b8152600481019390935283908390602490829060081c6001600160a01b03165afa918215610b5b578192610b21575b5050610abe5750565b6084906040519062461bcd60e51b82526004820152603660248201527f6d6574686f64206e6f7420616c6c6f77656420666f7220636f6e747261637473604482015275207468617420777269746520746f2073746f7261676560501b6064820152fd5b9091508281813d8311610b54575b610b3981836107c5565b81010312610306575190811515820361060357503880610ab5565b503d610b2f565b50604051903d90823e3d90fdfea26469706673582212207a43ea7eeaaba785fabd580327627a514fcc22d31f77511078c3acf0dd9bec4464736f6c63430008110033",
    "linkReferences": {}
  },
  "methodIdentifiers": {
    "allowExternalContract(address)": "fe9a364f",
    "deleteContract(address,string)": "6b742b93",
    "disAllowExternalContract(address)": "6b1c239e",
    "requireNotExist(address)": "5498c063",
    "setContract(address,string)": "1b1c2c7f",
    "setExternalContract(address,string)": "a3a8ceb0",
    "version()": "54fd4d50"
  },
  "id": 5
}