{
  "abi": [
    {
      "inputs": [
        {
          "internalType": "address",
          "name": "owner_",
          "type": "address"
        },
        {
          "internalType": "bool",
          "name": "validatorLocked_",
          "type": "bool"
        },
        {
          "internalType": "bool",
          "name": "frensLocked_",
          "type": "bool"
        },
        {
          "internalType": "uint256",
          "name": "poolMin_",
          "type": "uint256"
        },
        {
          "internalType": "uint256",
          "name": "poolMax_",
          "type": "uint256"
        },
        {
          "internalType": "bytes32",
          "name": "merkleRoot_",
          "type": "bytes32"
        },
        {
          "internalType": "contract IFrensStorage",
          "name": "frensStorage_",
          "type": "address"
        }
      ],
      "stateMutability": "nonpayable",
      "type": "constructor"
    },
    {
      "anonymous": false,
      "inputs": [
        {
          "indexed": false,
          "internalType": "uint256",
          "name": "amount",
          "type": "uint256"
        },
        {
          "indexed": false,
          "internalType": "address",
          "name": "depositer",
          "type": "address"
        },
        {
          "indexed": false,
          "internalType": "uint256",
          "name": "id",
          "type": "uint256"
        }
      ],
      "name": "DepositToPool",
      "type": "event"
    },
    {
      "anonymous": false,
      "inputs": [
        {
          "indexed": true,
          "internalType": "address",
          "name": "previousOwner",
          "type": "address"
        },
        {
          "indexed": true,
          "internalType": "address",
          "name": "newOwner",
          "type": "address"
        }
      ],
      "name": "OwnershipTransferred",
      "type": "event"
    },
    {
      "anonymous": false,
      "inputs": [
        {
          "indexed": false,
          "internalType": "address",
          "name": "depositContractAddress",
          "type": "address"
        },
        {
          "indexed": false,
          "internalType": "address",
          "name": "caller",
          "type": "address"
        }
      ],
      "name": "Stake",
      "type": "event"
    },
    {
      "stateMutability": "payable",
      "type": "fallback"
    },
    {
      "inputs": [
        {
          "internalType": "uint256",
          "name": "_id",
          "type": "uint256"
        }
      ],
      "name": "addToDeposit",
      "outputs": [],
      "stateMutability": "payable",
      "type": "function"
    },
    {
      "inputs": [],
      "name": "artForPool",
      "outputs": [
        {
          "internalType": "contract IFrensArt",
          "name": "",
          "type": "address"
        }
      ],
      "stateMutability": "view",
      "type": "function"
    },
    {
      "inputs": [
        {
          "internalType": "uint256",
          "name": "rageQuitId",
          "type": "uint256"
        },
        {
          "internalType": "uint256",
          "name": "buyersTokenId",
          "type": "uint256"
        }
      ],
      "name": "buyOut",
      "outputs": [],
      "stateMutability": "payable",
      "type": "function"
    },
    {
      "inputs": [
        {
          "internalType": "uint256",
          "name": "_id",
          "type": "uint256"
        }
      ],
      "name": "claim",
      "outputs": [],
      "stateMutability": "nonpayable",
      "type": "function"
    },
    {
      "inputs": [
        {
          "internalType": "uint256",
          "name": "",
          "type": "uint256"
        }
      ],
      "name": "depositForId",
      "outputs": [
        {
          "internalType": "uint256",
          "name": "",
          "type": "uint256"
        }
      ],
      "stateMutability": "view",
      "type": "function"
    },
    {
      "inputs": [
        {
          "internalType": "bytes32[]",
          "name": "merkleProof",
          "type": "bytes32[]"
        }
      ],
      "name": "depositToPool",
      "outputs": [],
      "stateMutability": "payable",
      "type": "function"
    },
    {
      "inputs": [],
      "name": "deposit_data_root",
      "outputs": [
        {
          "internalType": "bytes32",
          "name": "",
          "type": "bytes32"
        }
      ],
      "stateMutability": "view",
      "type": "function"
    },
    {
      "inputs": [],
      "name": "exitPool",
      "outputs": [],
      "stateMutability": "nonpayable",
      "type": "function"
    },
    {
      "inputs": [
        {
          "internalType": "uint256",
          "name": "",
          "type": "uint256"
        }
      ],
      "name": "frenPastClaim",
      "outputs": [
        {
          "internalType": "uint256",
          "name": "",
          "type": "uint256"
        }
      ],
      "stateMutability": "view",
      "type": "function"
    },
    {
      "inputs": [],
      "name": "frensPoolShare",
      "outputs": [
        {
          "internalType": "contract IFrensPoolShare",
          "name": "",
          "type": "address"
        }
      ],
      "stateMutability": "view",
      "type": "function"
    },
    {
      "inputs": [],
      "name": "frensStorage",
      "outputs": [
        {
          "internalType": "contract IFrensStorage",
          "name": "",
          "type": "address"
        }
      ],
      "stateMutability": "view",
      "type": "function"
    },
    {
      "inputs": [
        {
          "internalType": "uint256",
          "name": "_id",
          "type": "uint256"
        }
      ],
      "name": "getDistributableShare",
      "outputs": [
        {
          "internalType": "uint256",
          "name": "",
          "type": "uint256"
        }
      ],
      "stateMutability": "view",
      "type": "function"
    },
    {
      "inputs": [],
      "name": "getIdsInThisPool",
      "outputs": [
        {
          "internalType": "uint256[]",
          "name": "",
          "type": "uint256[]"
        }
      ],
      "stateMutability": "view",
      "type": "function"
    },
    {
      "inputs": [
        {
          "internalType": "uint256",
          "name": "_id",
          "type": "uint256"
        }
      ],
      "name": "getShare",
      "outputs": [
        {
          "internalType": "uint256",
          "name": "",
          "type": "uint256"
        }
      ],
      "stateMutability": "view",
      "type": "function"
    },
    {
      "inputs": [],
      "name": "getState",
      "outputs": [
        {
          "internalType": "string",
          "name": "",
          "type": "string"
        }
      ],
      "stateMutability": "view",
      "type": "function"
    },
    {
      "inputs": [
        {
          "internalType": "address",
          "name": "",
          "type": "address"
        }
      ],
      "name": "hasClaimed",
      "outputs": [
        {
          "internalType": "bool",
          "name": "",
          "type": "bool"
        }
      ],
      "stateMutability": "view",
      "type": "function"
    },
    {
      "inputs": [
        {
          "internalType": "uint256",
          "name": "",
          "type": "uint256"
        }
      ],
      "name": "idsInPool",
      "outputs": [
        {
          "internalType": "uint256",
          "name": "",
          "type": "uint256"
        }
      ],
      "stateMutability": "view",
      "type": "function"
    },
    {
      "inputs": [
        {
          "internalType": "uint256",
          "name": "",
          "type": "uint256"
        }
      ],
      "name": "locked",
      "outputs": [
        {
          "internalType": "bool",
          "name": "",
          "type": "bool"
        }
      ],
      "stateMutability": "view",
      "type": "function"
    },
    {
      "inputs": [],
      "name": "merkleRoot",
      "outputs": [
        {
          "internalType": "bytes32",
          "name": "",
          "type": "bytes32"
        }
      ],
      "stateMutability": "view",
      "type": "function"
    },
    {
      "inputs": [],
      "name": "owner",
      "outputs": [
        {
          "internalType": "address",
          "name": "",
          "type": "address"
        }
      ],
      "stateMutability": "view",
      "type": "function"
    },
    {
      "inputs": [],
      "name": "poolMax",
      "outputs": [
        {
          "internalType": "uint256",
          "name": "",
          "type": "uint256"
        }
      ],
      "stateMutability": "view",
      "type": "function"
    },
    {
      "inputs": [],
      "name": "poolMin",
      "outputs": [
        {
          "internalType": "uint256",
          "name": "",
          "type": "uint256"
        }
      ],
      "stateMutability": "view",
      "type": "function"
    },
    {
      "inputs": [],
      "name": "privatePool",
      "outputs": [
        {
          "internalType": "bool",
          "name": "",
          "type": "bool"
        }
      ],
      "stateMutability": "view",
      "type": "function"
    },
    {
      "inputs": [],
      "name": "pubKey",
      "outputs": [
        {
          "internalType": "bytes",
          "name": "",
          "type": "bytes"
        }
      ],
      "stateMutability": "view",
      "type": "function"
    },
    {
      "inputs": [
        {
          "internalType": "uint256",
          "name": "_id",
          "type": "uint256"
        },
        {
          "internalType": "uint256",
          "name": "_price",
          "type": "uint256"
        }
      ],
      "name": "rageQuit",
      "outputs": [],
      "stateMutability": "nonpayable",
      "type": "function"
    },
    {
      "inputs": [
        {
          "internalType": "uint256",
          "name": "",
          "type": "uint256"
        }
      ],
      "name": "rageQuitInfo",
      "outputs": [
        {
          "internalType": "uint256",
          "name": "price",
          "type": "uint256"
        },
        {
          "internalType": "uint256",
          "name": "time",
          "type": "uint256"
        },
        {
          "internalType": "bool",
          "name": "rageQuitting",
          "type": "bool"
        }
      ],
      "stateMutability": "view",
      "type": "function"
    },
    {
      "inputs": [],
      "name": "renounceOwnership",
      "outputs": [],
      "stateMutability": "nonpayable",
      "type": "function"
    },
    {
      "inputs": [
        {
          "internalType": "contract IFrensArt",
          "name": "newArtContract",
          "type": "address"
        }
      ],
      "name": "setArt",
      "outputs": [],
      "stateMutability": "nonpayable",
      "type": "function"
    },
    {
      "inputs": [
        {
          "internalType": "bytes",
          "name": "_pubKey",
          "type": "bytes"
        },
        {
          "internalType": "bytes",
          "name": "_withdrawal_credentials",
          "type": "bytes"
        },
        {
          "internalType": "bytes",
          "name": "_signature",
          "type": "bytes"
        },
        {
          "internalType": "bytes32",
          "name": "_deposit_data_root",
          "type": "bytes32"
        }
      ],
      "name": "setPubKey",
      "outputs": [],
      "stateMutability": "nonpayable",
      "type": "function"
    },
    {
      "inputs": [],
      "name": "signature",
      "outputs": [
        {
          "internalType": "bytes",
          "name": "",
          "type": "bytes"
        }
      ],
      "stateMutability": "view",
      "type": "function"
    },
    {
      "inputs": [],
      "name": "stake",
      "outputs": [],
      "stateMutability": "nonpayable",
      "type": "function"
    },
    {
      "inputs": [
        {
          "internalType": "bytes",
          "name": "_pubKey",
          "type": "bytes"
        },
        {
          "internalType": "bytes",
          "name": "_withdrawal_credentials",
          "type": "bytes"
        },
        {
          "internalType": "bytes",
          "name": "_signature",
          "type": "bytes"
        },
        {
          "internalType": "bytes32",
          "name": "_deposit_data_root",
          "type": "bytes32"
        }
      ],
      "name": "stake",
      "outputs": [],
      "stateMutability": "nonpayable",
      "type": "function"
    },
    {
      "inputs": [],
      "name": "totalClaims",
      "outputs": [
        {
          "internalType": "uint256",
          "name": "",
          "type": "uint256"
        }
      ],
      "stateMutability": "view",
      "type": "function"
    },
    {
      "inputs": [],
      "name": "totalDeposits",
      "outputs": [
        {
          "internalType": "uint256",
          "name": "",
          "type": "uint256"
        }
      ],
      "stateMutability": "view",
      "type": "function"
    },
    {
      "inputs": [],
      "name": "transferLocked",
      "outputs": [
        {
          "internalType": "bool",
          "name": "",
          "type": "bool"
        }
      ],
      "stateMutability": "view",
      "type": "function"
    },
    {
      "inputs": [
        {
          "internalType": "address",
          "name": "newOwner",
          "type": "address"
        }
      ],
      "name": "transferOwnership",
      "outputs": [],
      "stateMutability": "nonpayable",
      "type": "function"
    },
    {
      "inputs": [
        {
          "internalType": "uint256",
          "name": "_id",
          "type": "uint256"
        }
      ],
      "name": "unlockTransfer",
      "outputs": [],
      "stateMutability": "nonpayable",
      "type": "function"
    },
    {
      "inputs": [],
      "name": "validatorLocked",
      "outputs": [
        {
          "internalType": "bool",
          "name": "",
          "type": "bool"
        }
      ],
      "stateMutability": "view",
      "type": "function"
    },
    {
      "inputs": [],
      "name": "validatorSet",
      "outputs": [
        {
          "internalType": "bool",
          "name": "",
          "type": "bool"
        }
      ],
      "stateMutability": "view",
      "type": "function"
    },
    {
      "inputs": [
        {
          "internalType": "uint256",
          "name": "_id",
          "type": "uint256"
        },
        {
          "internalType": "uint256",
          "name": "_amount",
          "type": "uint256"
        }
      ],
      "name": "withdraw",
      "outputs": [],
      "stateMutability": "nonpayable",
      "type": "function"
    },
    {
      "inputs": [
        {
          "internalType": "uint256",
          "name": "_id",
          "type": "uint256"
        }
      ],
      "name": "withdrawAll",
      "outputs": [],
      "stateMutability": "nonpayable",
      "type": "function"
    },
    {
      "inputs": [],
      "name": "withdrawal_credentials",
      "outputs": [
        {
          "internalType": "bytes",
          "name": "",
          "type": "bytes"
        }
      ],
      "stateMutability": "view",
      "type": "function"
    },
    {
      "stateMutability": "payable",
      "type": "receive"
    }
  ],
  "bytecode": {
    "object": "0x6080604081815234620002d35760e0826200362e80380380916200002482856200030a565b833981010312620002d3576200003a826200032e565b6020926200004a84820162000343565b6200005784830162000343565b9060608301519160808401519660c060a08601519501519060018060a01b0390818316809303620002d3576200008d3362000351565b60018060a01b0319928084601354161760135589518281016f636f6e74726163742e6164647265737360801b9182825267119c995b9cd05c9d60c21b603082015260188152620000dd81620002d8565b519020908b516321f8a72160e01b9283825260048201528481602481875afa908115620002c8578593929187916000916200027f575b509060249291168860125416176012558d518481019182526d4672656e73506f6f6c536861726560901b6030820152601e81526200015181620002d8565b519020918d519485938492835260048301525afa91821562000274576000926200021c575b50509161ff00959391620001d8999a95931690601154161760115560ff600b5492151516948591151560081b169161ffff19161717600b5560095560085560001462000203576000805460ff60a01b191690555b80620001e6575b5062000351565b516132959081620003998239f35b601055630100000063ff00000019600b541617600b5538620001d1565b6000805460ff60a01b1916600160a01b179055620001ca565b81819392933d83116200026c575b6200023681836200030a565b810103126200026957509161ff0095939162000259620001d89a9b96946200032e565b9193959a99819395975062000176565b80fd5b503d6200022a565b8a513d6000823e3d90fd5b85819495969293503d8311620002c0575b6200029c81836200030a565b8101031262000269575084929186620002b76024936200032e565b90919262000113565b503d62000290565b8d513d6000823e3d90fd5b600080fd5b604081019081106001600160401b03821117620002f457604052565b634e487b7160e01b600052604160045260246000fd5b601f909101601f19168101906001600160401b03821190821017620002f457604052565b51906001600160a01b0382168203620002d357565b51908115158203620002d357565b600080546001600160a01b039283166001600160a01b03198216811783559216907f8be0079c531659141344cd1fd0a4f28419497f9722a3daafe3b4186f6b6457e09080a356fe6080604081815260048036101561001e575b505050361561001c57005b005b600092833560e01c90816312686aae14612086575080631865c57d146120555780632991795414611f475780632cf2cd4814611f205780632daad61d14611ef95780632eb4a7ab14611eda57806330dbf88714611eb1578063379607f514611a095780633a4b66f1146119f057806341c61383146119d1578063441a3e701461183f57806345b58fe41461178c5780634b2b4e361461164157806351ff4847146115a9578063591167c71461158057806359b5e75e14611559578063678e300a14611539578063715018a6146114df57806373b2e80e146114a15780637d882097146114825780638620891c14611303578063888e9cf8146112b65780638ae578fd1461128d5780638da5cb5b146112655780639426e2261461123e578063958e2d3114611129578063ac2a5dfd14611068578063b45a3c0e1461103c578063b4bc91bc14610b62578063be85879814610899578063bed62f35146107e5578063cd8df8a6146107c6578063cfb5a5f814610735578063e2d9ae3e14610716578063e3f05d83146106f2578063e4a502761461061a578063e6b1a3ae146104da578063e920eec0146104ae578063f038afe314610332578063f2fde38b1461025e578063f8f306e11461023b5763fc03bad203610011573461023757602036600319011261023757606092818392358252602052209081549160ff60026001830154920154169082519384526020840152151590820152f35b8280fd5b50503461025a578160031936011261025a576020906009549051908152f35b5080fd5b509034610237576020366003190112610237576001600160a01b0382358181169391929084900361032e576102916131a7565b83156102dc575050600054826bffffffffffffffffffffffff60a01b821617600055167f8be0079c531659141344cd1fd0a4f28419497f9722a3daafe3b4186f6b6457e0600080a380f35b906020608492519162461bcd60e51b8352820152602660248201527f4f776e61626c653a206e6577206f776e657220697320746865207a65726f206160448201526564647265737360d01b6064820152fd5b8480fd5b5091903461025a57610343366120f2565b60115483516331a9108f60e11b81528087018490526020969293916001600160a01b0391908216908881602481855afa9081156104a45791610395848b93602496958c91610487575b501633146123d7565b875193848092631dc82a7560e01b825287898301525afa91821561047d57906103c99291889261044e575b50163014612373565b808552600186528385205483116103ff579484956002955252818420554260018285200155822001600160ff1982541617905580f35b835162461bcd60e51b81528083018790526024808201527f63616e6e6f742073657420707269636520686967686572207468616e206465706044820152631bdcda5d60e21b6064820152608490fd5b61046f919250893d8b11610476575b6104678183612220565b810190612354565b90386103c0565b503d61045d565b86513d89823e3d90fd5b61049e9150853d8711610476576104678183612220565b3861038c565b87513d8a823e3d90fd5b83346104d7576104d46104c036612136565b956104cf9591959492946131a7565b612a10565b80f35b80fd5b5034610237576020806003193601126106165781356001600160a01b038116939084900361032e5761050a6131a7565b805163516b636d60e11b81526001848201528581602481885afa90811561060c57869161058f575b505115610557575050506bffffffffffffffffffffffff60a01b601254161760125580f35b5162461bcd60e51b81529182015260146024820152731a5b9d985b1a5908185c9d0818dbdb9d1c9858dd60621b604482015260649150fd5b90503d8087833e6105a08183612220565b81019083818303126106085780519067ffffffffffffffff8211610604570181601f820112156106085780516105d5816124e7565b926105e285519485612220565b818452858284010111610604576105fe918580850191016120aa565b38610532565b8780fd5b8680fd5b82513d88823e3d90fd5b8380fd5b8284346104d757806003193601126104d757508051600091600d5461063e816121a0565b808452906001908181169081156106ca575060011461067f575b50506106698261067b940383612220565b519182916020835260208301906120cd565b0390f35b600d600090815294506000805160206132408339815191525b8286106106b2575050509181016020019161066982610658565b80546020878701810191909152909501948101610698565b61067b965085925060209150926106699360ff191682840152151560051b8201019450610658565b50503461025a578160031936011261025a5760209060ff600b541690519015158152f35b50503461025a578160031936011261025a57602090600f549051908152f35b5034610237576020366003190112610237576011548251631dc82a7560e01b81528235928101839052906001600160a01b03906020908390602490829085165afa9182156107bc57916107989161079d9493602097926107a45750163014612373565b612f04565b9051908152f35b61046f919250873d8111610476576104678183612220565b84513d87823e3d90fd5b50503461025a578160031936011261025a576020906008549051908152f35b509034610237576020366003190112610237578135808452826020526001828520015462093a8081018091116108865742106108435790600291845260036020528084209260ff199384815416905560205283200190815416905580f35b815162461bcd60e51b8152602081850152601c60248201527f616c6c6f77206f6e65207765656b206265666f726520756e6c6f636b000000006044820152606490fd5b634e487b7160e01b855260118452602485fd5b506108a3366120f2565b60115484516331a9108f60e11b8082528186018490526001600160a01b039694959360209360249390891692919085818681875afa908115610b41576108f4918b918d91610b4b57501633146123d7565b8651631dc82a7560e01b918282528782015285818681875afa908115610b41579061092a918c91610b24575b508a163014612373565b8651908152878682015284818581865afa908115610b1a5790610958918b91610afd575b5089163014612373565b86895284845260ff6002878b2001541615610ac457868952848452858920543410610a8357908383928a9488518094819382528b8a8301525afa908115610a79579088918491610a5c575b501682803415610a53575b81808092853491f115610a4957868352600384528583209760ff19988981541690556011541691823b1561061657606484928389519586948593632142170760e11b85528b85015233908401528b60448401525af18015610a4957610a31575b509360029452600381528286206001868254161790555283200190815416905580f35b610a3a906121da565b610a45578538610a0e565b8580fd5b85513d84823e3d90fd5b506108fc6109ae565b610a739150853d8711610476576104678183612220565b386109a3565b86513d85823e3d90fd5b5050601791606494519362461bcd60e51b85528401528201527f6d7573742073656e6420636f72726563742076616c75650000000000000000006044820152fd5b5050601591606494519362461bcd60e51b8552840152820152746d7573742062652072616765207175697474696e6760581b6044820152fd5b610b149150863d8811610476576104678183612220565b3861094e565b87513d8c823e3d90fd5b610b3b9150873d8911610476576104678183612220565b38610920565b88513d8d823e3d90fd5b61049e9150883d8a11610476576104678183612220565b5082906020806003193601126102375767ffffffffffffffff93823585811161032e573660238201121561032e5780840135868111610a45578060051b602492368483830101116106045734156110055760ff885460a01c1687811015610ff3576001610bcf9114612242565b610bef6801bc16d674ec800000610be860065434612287565b11156122aa565b6009543410610fb157610c06600854341115612308565b60ff600b5460181c16610dd5575b5050509091928094955060018060a01b038481601154168551978880926318160ddd60e01b82525afa958615610dcb578796610d97575b50858752600185523484882055610c6434600654612287565b600655600a5468010000000000000000811015610d85576001810180600a55811015610d7157908688949392600a6000527fc65a7bb8d6351c1cf70c95a316cc6a92839c986682d98bc35f958f4883f9d2a801558684526002865260018585205560ff600b5460081c16600387528585209060ff80198354169115151617905560115416803b156106165783928392865194859384926335313c2160e11b845233908401525af18015610d6757610d4f575b507fd91527a40417d48f76ba016aaa9157e2ddaca6cb5b660432901659cb075058fc60608486858051923484523390840152820152a180f35b610d5b909392936121da565b61061657908385610d16565b83513d84823e3d90fd5b83603284634e487b7160e01b600052526000fd5b634e487b7160e01b8852604183528388fd5b9095508481813d8311610dc4575b610daf8183612220565b81010312610dbf57519487610c4b565b600080fd5b503d610da5565b84513d89823e3d90fd5b3388526005865260ff8589205416610f645760135485516f636f6e74726163742e6164647265737360801b88820190815270233932b739a6b2b935b632a83937bb32b960791b6030830152602182526001600160a01b039283169b606083019190821183831017610f5257988188818e9f849e9f9a9b9c9d828f52875190206321f8a72160e01b835260648801525afa918215610f48578692610f15575b5050169060105492823b1561032e57875163879c84e960e01b815260608b82015260648101879052956001600160fb1b031061032e5760848682819688948b849701858501378a83015233604483015281010301925af18015610f0b57610ef8575b5033855260058352818520805460ff191660011790558493929190868080610c14565b610f04909591956121da565b9385610ed5565b83513d88823e3d90fd5b610f3992506060908b903d8d11610f40575b610f318285612220565b010190612354565b8b80610e73565b3d9150610f27565b89513d88823e3d90fd5b634e487b7160e01b8c5260418b52878cfd5b845162461bcd60e51b81528088018790526022818601527f796f75206861766520616c7265616479206d61646520796f7572206465706f736044820152611a5d60f21b6064820152608490fd5b845162461bcd60e51b8152808801879052601e818601527f62656c6f77206d696e696d756d206465706f73697420666f7220706f6f6c00006044820152606490fd5b634e487b7160e01b8952602188528489fd5b845162461bcd60e51b81528088018790526012818601527136bab9ba103232b837b9b4ba1032ba3432b960711b6044820152606490fd5b5034610237576020366003190112610237578160209360ff923581526003855220541690519015158152f35b50503461025a578160031936011261025a5780519082600c5461108a816121a0565b8085529160019180831690811561110157506001146110b6575b5050506106698261067b940383612220565b9450600c85526000805160206132008339815191525b8286106110e95750505061066982602061067b95820101946110a4565b805460208787018101919091529095019481016110cc565b61067b97508693506020925061066994915060ff191682840152151560051b820101946110a4565b5034610237576020806003193601126106165781359160ff855460a01c168181101561122b57600161115b9114612242565b6011548451631dc82a7560e01b81528083018590526001600160a01b039291831691908481602481865afa80156104a45785926111a760249289948c9161120e575b5087163014612373565b885194859384926331a9108f60e11b84528301525afa908115611204576001926104d49694926111e09289916111ed57501633146123d7565b8386525283205490612420565b61049e9150843d8611610476576104678183612220565b85513d88823e3d90fd5b6112259150863d8811610476576104678183612220565b3861119d565b634e487b7160e01b865260218252602486fd5b50503461025a578160031936011261025a5760209060ff600b5460101c1690519015158152f35b50503461025a578160031936011261025a57905490516001600160a01b039091168152602090f35b50503461025a578160031936011261025a5760125490516001600160a01b039091168152602090f35b50346102375760203660031901126102375735600a5481101561023757600a602093527fc65a7bb8d6351c1cf70c95a316cc6a92839c986682d98bc35f958f4883f9d2a801549051908152f35b50602090816003193601126106165780359060ff855460a01c168181101561122b5760016113319114612242565b61134a6801bc16d674ec800000610be860065434612287565b6011548451631dc82a7560e01b8152828101849052906001600160a01b039081168583602481845afa9283156104a4576024938793611392928b9261146a5750163014612373565b865192838092634f558e7960e01b825287878301525afa90811561120457869161143d575b50156114065750908160019285528282526113e26113d83486882054612287565b6008541015612308565b84525281206113f2348254612287565b905561140034600654612287565b60065580f35b835162461bcd60e51b815290810183905260116024820152701a5908191bd95cc81b9bdd08195e1a5cdd607a1b6044820152606490fd5b61145d9150843d8611611463575b6114558183612220565b8101906123bf565b386113b7565b503d61144b565b61046f919250853d8711610476576104678183612220565b50503461025a578160031936011261025a576020906006549051908152f35b503461023757602036600319011261023757356001600160a01b0381169081900361023757818360ff92602095526005855220541690519015158152f35b83346104d757806003193601126104d7576114f86131a7565b80546001600160a01b03198116825581906001600160a01b03167f8be0079c531659141344cd1fd0a4f28419497f9722a3daafe3b4186f6b6457e08280a380f35b5091346104d75760203660031901126104d7575061079d60209235612f77565b50503461025a578160031936011261025a5760209060ff600b5460181c1690519015158152f35b50503461025a578160031936011261025a5760115490516001600160a01b039091168152602090f35b50503461025a578160031936011261025a5780519082600e546115cb816121a0565b8085529160019180831690811561110157506001146115f6575050506106698261067b940383612220565b9450600e85526000805160206132208339815191525b8286106116295750505061066982602061067b95820101946110a4565b8054602087870181019190915290950194810161160c565b50346102375761165036612136565b9361165f9896989391936131a7565b600b5460101c60ff1615611777575050505050926116809192933691612503565b90815160208093012081518590600c54918161169b846121a0565b9182825287820194600190898282169182600014611759575050600114611711575b506116ca92500382612220565b519020036116de575050505b6104d4612574565b5162461bcd60e51b815291820152600f60248201526e0e0eac496caf240dad2e6dac2e8c6d608b1b604482015260649150fd5b600c8b528891508a906000805160206132008339815191525b8583106117415750506116ca9350820101386116bd565b80548388018501528694508a9390920191810161172a565b60ff191688526116ca95151560051b85010192503891506116bd9050565b9295509295509261178796612a10565b6116d6565b8284346104d757806003193601126104d757908051918290600a549182855260208095018093600a84527fc65a7bb8d6351c1cf70c95a316cc6a92839c986682d98bc35f958f4883f9d2a890845b81811061182b57505050816117f0910382612220565b83519485948186019282875251809352850193925b82811061181457505050500390f35b835185528695509381019392810192600101611805565b8254845292880192600192830192016117da565b5082903461025a57611850366120f2565b9160ff845460a01c16818110156119be57600161186d9114612242565b6011548551631dc82a7560e01b81528281018490526020916001600160a01b0391908216908381602481855afa9081156119b457916118bb85926024948b91611997575b5085163014612373565b8951928380926331a9108f60e11b825289898301525afa90811561198d57906118ee9291889161197057501633146123d7565b828552600181528585205461190585600954612287565b1161191557846104d48585612420565b855162461bcd60e51b815291820152603060248201527f696e76616c696420616d6f756e742c207769746864726177206c657373206f7260448201526f081d5cd9481dda5d1a191c985dd05b1b60821b606482015260849150fd5b6119879150843d8611610476576104678183612220565b8961038c565b88513d89823e3d90fd5b6119ae9150843d8611610476576104678183612220565b8c6118b1565b89513d8a823e3d90fd5b634e487b7160e01b855260218252602485fd5b50503461025a578160031936011261025a576020906007549051908152f35b83346104d757806003193601126104d7576116d66131a7565b5091903461025a576020806003193601126102375783359360018060a01b0391808360115416855191828092631dc82a7560e01b82528a8783015260249485915afa90811561047d5790611a67918891611e94575085163014612373565b60ff865460a01c1683811015611e825760018114611e40576064471115611df057600314611de8578360135416828651818101906f636f6e74726163742e6164647265737360801b82526a4672656e734f7261636c6560a81b6030820152601b8152611ad281612204565b519020838851809481936321f8a72160e01b8352898301525afa90811561047d578583899386938591611dcb575b50895163404df7b160e11b815230898201529485938492165af190811561047d578791611dae575b50905b611b3488612f04565b9188885260028452868820611b4a848254612287565b9055611b5883600754612287565b600755856013541690875185810190731c1c9bdd1bd8dbdb0b9999594b9c195c98d95b9d60621b825260148152611b8e81612204565b5190209088519163bd02d0f560e01b83528783015285828581865afa918215611da4578a92611d71575b508115159081611d68575b50611c55575b505086978391866011999899541695895196879384926331a9108f60e11b84528301525afa8015611c4b578594859485948593611c2c575b505083918315611c22575b1690f115611c18575080f35b51903d90823e3d90fd5b6108fc9250611c0c565b611c43929350803d10610476576104678183612220565b903880611c01565b86513d87823e3d90fd5b8488949293945181810190751c1c9bdd1bd8dbdb0b9999594b9c9958da5c1a595b9d60521b825260168152611c8981612204565b519020858a51809681936321f8a72160e01b83528b8301525afa928315611d5e578993611d36575b50611cbe82606492612ef1565b049160018311611ce7575b5097611cda8492899a999899612413565b9291819950979697611bc9565b6000198301999190838b11611d245798808080809d819c9d8c83918315611d1a575b1690f11561198d5790989796611cc9565b6108fc9250611d09565b634e487b7160e01b8a5260118752848afd5b606491935082611d55611cbe92883d8a11610476576104678183612220565b94925050611cb1565b88513d8b823e3d90fd5b90501538611bc3565b9091508581813d8311611d9d575b611d898183612220565b81010312611d9957519038611bb8565b8980fd5b503d611d7f565b89513d8c823e3d90fd5b611dc59150833d8511611463576114558183612220565b38611b28565b611de29150843d8611610476576104678183612220565b38611b00565b600190611b2b565b855162461bcd60e51b81528085018490526025818401527f6d7573742062652067726561746572207468616e203130302077656920746f20604482015264636c61696d60d81b6064820152608490fd5b855162461bcd60e51b8152808501849052601c818401527f757365207769746864726177207768656e206e6f74207374616b6564000000006044820152606490fd5b50634e487b7160e01b86526021835285fd5b611eab9150843d8611610476576104678183612220565b386118b1565b50503461025a578160031936011261025a5760135490516001600160a01b039091168152602090f35b50503461025a578160031936011261025a576020906010549051908152f35b50346102375760203660031901126102375760209282913581526001845220549051908152f35b50346102375760203660031901126102375760209282913581526002845220549051908152f35b50903461023757826003193601126102375760018060a01b03806013541660208351818101906f636f6e74726163742e6164647265737360801b82526a4672656e734f7261636c6560a81b6030820152601b8152611fa481612204565b51902060248551809481936321f8a72160e01b8352898301525afa90811561204b57859161202d575b50163303611fea57825460ff60a01b1916600360a01b1783558280f35b906020606492519162461bcd60e51b8352820152601860248201527f6d7573742062652063616c6c6564206279206f7261636c6500000000000000006044820152fd5b612045915060203d8111610476576104678183612220565b38611fcd565b83513d87823e3d90fd5b50503461025a578160031936011261025a5761067b9061207361308b565b90519182916020835260208301906120cd565b84903461025a578160031936011261025a5760209060ff600b5460081c1615158152f35b60005b8381106120bd5750506000910152565b81810151838201526020016120ad565b906020916120e6815180928185528580860191016120aa565b601f01601f1916010190565b6040906003190112610dbf576004359060243590565b9181601f84011215610dbf5782359167ffffffffffffffff8311610dbf5760208381860195010111610dbf57565b906080600319830112610dbf5767ffffffffffffffff600435818111610dbf578361216391600401612108565b93909392602435838111610dbf578261217e91600401612108565b93909392604435918211610dbf5761219891600401612108565b909160643590565b90600182811c921680156121d0575b60208310146121ba57565b634e487b7160e01b600052602260045260246000fd5b91607f16916121af565b67ffffffffffffffff81116121ee57604052565b634e487b7160e01b600052604160045260246000fd5b6040810190811067ffffffffffffffff8211176121ee57604052565b90601f8019910116810190811067ffffffffffffffff8211176121ee57604052565b1561224957565b60405162461bcd60e51b81526020600482015260166024820152756e6f7420616363657074696e67206465706f7369747360501b6044820152606490fd5b9190820180921161229457565b634e487b7160e01b600052601160045260246000fd5b156122b157565b60405162461bcd60e51b815260206004820152602960248201527f746f74616c206465706f736974732063616e6e6f74206265206d6f72652074686044820152680c2dc406664408ae8d60bb1b6064820152608490fd5b1561230f57565b60405162461bcd60e51b815260206004820152601e60248201527f61626f7665206d6178696d756d206465706f73697420666f7220706f6f6c00006044820152606490fd5b90816020910312610dbf57516001600160a01b0381168103610dbf5790565b1561237a57565b60405162461bcd60e51b815260206004820152601960248201527f77726f6e67207374616b696e6720706f6f6c20666f72206964000000000000006044820152606490fd5b90816020910312610dbf57518015158103610dbf5790565b156123de57565b60405162461bcd60e51b815260206004820152600d60248201526c3737ba103a34329037bbb732b960991b6044820152606490fd5b9190820391821161229457565b9060009180835260016020526040832061243b838254612413565b905561244982600654612413565b6006556011546040516331a9108f60e11b815260048101929092526001600160a01b03906020908390602490829085165afa9182156124dc57849384938493849384926124bc575b50839183156124b2575b1690f1156124a65750565b604051903d90823e3d90fd5b6108fc925061249b565b6124d591925060203d8111610476576104678183612220565b9038612491565b6040513d86823e3d90fd5b67ffffffffffffffff81116121ee57601f01601f191660200190565b92919261250f826124e7565b9161251d6040519384612220565b829481845281830111610dbf578281602093846000960137010152565b1561254157565b60405162461bcd60e51b815260206004820152600b60248201526a77726f6e6720737461746560a81b6044820152606490fd5b6801bc16d674ec800000908147106129da57816006540361299f57600080549260ff8460a01c16936004948581101561298c576125b4600180921461253a565b60ff600b5460101c16156129545760018060a01b039384601354166040958651602095868201937f65787465726e616c2e636f6e74726163742e616464726573730000000000000085526e11195c1bdcda5d10dbdb9d1c9858dd608a1b603984015260288352606083019067ffffffffffffffff958483108784111761294057828c52845190206321f8a72160e01b835260648501528890829060249082905afa928315612936578693612912575b505060ff60a01b1916600160a11b178455600f54911695863b156106165790839188519586926304512a2360e31b845260808d8501528491600c546126a7816121a0565b9081608488015282811690816000146128f457506001146128a9575b5060031985840381016024870152600d5487946126df826121a0565b918282528d858216918260001461288a575050600114612841575b50508584030160448601528592600e5491612714836121a0565b92838352878d8383169283600014612820575050506001146127d4575b5050508391829160648301520391895af180156127ca57612781575b5050507f72b356fd889b9abd3530accd2c9f4aecbce67d70757181f9f862ac91464ce19293945082519182523390820152a1565b82116127b757507f72b356fd889b9abd3530accd2c9f4aecbce67d70757181f9f862ac91464ce19294955083528493388061274d565b634e487b7160e01b815260418752602490fd5b86513d84823e3d90fd5b918b939450600e88526000805160206132208339815191529288935b82851061280557505050010190808480612731565b80548486018701528b99508c98508d959094019381016127f0565b60ff19168582015294151560051b9093019093019450839250819050612731565b8c929550600d89526000805160206132408339815191529189925b81841061286f57505001019238806126fa565b80548385018601528c9a508d99508e9490930192850161285c565b60ff19168382015292151560051b9091019091019450389050806126fa565b600c875290925085908a6000805160206132008339815191525b8284106128d957505050840160a40191386126c3565b80548c850160a401528a98508b97509201918b9085016128c3565b905060a492945060ff191682870152151560051b85010191386126c3565b61292e92935060609089903d8b11610f4057610f318285612220565b903880612663565b8a513d88823e3d90fd5b50634e487b7160e01b875260418d52602487fd5b60405162461bcd60e51b815260208188015260116024820152701d985b1a59185d1bdc881b9bdd081cd95d607a1b6044820152606490fd5b634e487b7160e01b845260218652602484fd5b60405162461bcd60e51b81526020600482015260136024820152726e6f7420656e6f756768206465706f7369747360681b6044820152606490fd5b60405162461bcd60e51b815260206004820152600e60248201526d0dcdee840cadcdeeaced040cae8d60931b6044820152606490fd5b929094939194600160f81b30019081301161229457604051602092838201908152838252612a3d82612204565b612a4836868b612503565b8481519101209151902003612eac57600b5460ff8116612e44575b5060009260ff845460a01c16976004891015612e3057612a866001809a1461253a565b67ffffffffffffffff92838111612e1c5780612aa3600c546121a0565b98601f998a8111612dc1575b5087908a8311600114612d4b578892612d40575b5050600019600383901b1c1916908a1b17600c555b828211612d2c578190612aec600d546121a0565b888111612cd1575b508590888311600114612c64578692612c59575b5050600019600383901b1c191690881b17600d555b8511612c4557612b2e600e546121a0565b848111612bf5575b5081938511600114612b83575091839491849394612b78575b50501b916000199060031b1c191617600e555b600f556201000062ff000019600b541617600b55565b013592503880612b4f565b600e825260008051602061322083398151915293918591601f19831691905b88838310612bdb5750505010612bc1575b505050811b01600e55612b62565b0135600019600384901b60f8161c19169055388080612bb3565b868601358855909601959384019387935090810190612ba2565b600e83526000805160206132208339815191528580880160051c820192848910612c3c575b0160051c019087905b828110612c31575050612b36565b848155018790612c23565b92508192612c1a565b634e487b7160e01b82526041600452602482fd5b013590503880612b08565b600d87528a935060008051602061324083398151915291601f198416885b88828210612cbb5750508411612ca1575b505050811b01600d55612b1d565b0135600019600384901b60f8161c19169055388080612c93565b8385013586558e97909501949283019201612c82565b909150600d86526000805160206132408339815191528880850160051c820192878610612d23575b918c91869594930160051c01915b828110612d15575050612af4565b8881558594508c9101612d07565b92508192612cf9565b634e487b7160e01b85526041600452602485fd5b013590503880612ac3565b600c89528c935060008051602061320083398151915291601f1984168a5b8a828210612da25750508411612d88575b505050811b01600c55612ad8565b0135600019600384901b60f8161c19169055388080612d7a565b91929596849587849396013581550195019201908e9594939291612d69565b909150600c88526000805160206132008339815191528a80850160051c820192898610612e13575b918e91869594930160051c01915b828110612e05575050612aaf565b8a81558594508e9101612df7565b92508192612de9565b634e487b7160e01b86526041600452602486fd5b634e487b7160e01b85526021600452602485fd5b60009081549060ff8260a01c166004811015612e985790612e6760ff921561253a565b60101c16612e845760ff60a01b1916600160a01b17905538612a63565b634e487b7160e01b82526001600452602482fd5b634e487b7160e01b84526021600452602484fd5b60405162461bcd60e51b815260048101839052601e60248201527f7769746864726177616c2063726564656e7469616c206d69736d6174636800006044820152606490fd5b8181029291811591840414171561229457565b4715612f71576000908152600160205260408120546002602052612f3a604083205491612f344760075490612287565b90612ef1565b600654908115612f5d57048015612f5857612f559250612413565b90565b505090565b634e487b7160e01b84526012600452602484fd5b50600090565b600060ff815460a01c169160048310156130775760018303612f995750905090565b612fa290612f04565b9160018060a01b0360135416602060405181810190731c1c9bdd1bd8dbdb0b9999594b9c195c98d95b9d60621b825260148152612fde81612204565b51902060246040518094819363bd02d0f560e01b835260048301525afa9283156124a6578093613041575b50508115159081613035575b5061301e575090565b90606461302e82612f5594612ef1565b0490612413565b60039150141538613015565b909192506020823d821161306f575b8161305d60209383612220565b810103126104d7575051903880613009565b3d9150613050565b634e487b7160e01b82526021600452602482fd5b60ff60005460a01c16600481101561319157801561315757600281146131345760018114613105576003146130e3576040516130c681612204565b600d81526c7374617465206661696c75726560981b602082015290565b6040516130ef81612204565b6006815265195e1a5d195960d21b602082015290565b5060405161311281612204565b6012815271616363657074696e67206465706f7369747360701b602082015290565b5060405161314181612204565b60068152651cdd185ad95960d21b602082015290565b5060405161316481612204565b601781527f6177616974696e672076616c696461746f7220696e666f000000000000000000602082015290565b634e487b7160e01b600052602160045260246000fd5b6000546001600160a01b031633036131bb57565b606460405162461bcd60e51b815260206004820152602060248201527f4f776e61626c653a2063616c6c6572206973206e6f7420746865206f776e65726044820152fdfedf6966c971051c3d54ec59162606531493a51404a002842f56009d7e5cf4a8c7bb7b4a454dc3493923482f07822329ed19e8244eff582cc204f8554c3620c3fdd7b6990105719101dabeb77144f2a3385c8033acd3af97e9423a695e81ad1eb5a2646970667358221220f2d5fc2f09e24fb8bb4e6bcf0642bfd3ea0b09abe24bab7c05cdf4a1085ba84d64736f6c63430008110033",
    "linkReferences": {}
  },
  "methodIdentifiers": {
    "addToDeposit(uint256)": "8620891c",
    "artForPool()": "8ae578fd",
    "buyOut(uint256,uint256)": "be858798",
    "claim(uint256)": "379607f5",
    "depositForId(uint256)": "2daad61d",
    "depositToPool(bytes32[])": "b4bc91bc",
    "deposit_data_root()": "e2d9ae3e",
    "exitPool()": "29917954",
    "frenPastClaim(uint256)": "2cf2cd48",
    "frensPoolShare()": "591167c7",
    "frensStorage()": "30dbf887",
    "getDistributableShare(uint256)": "678e300a",
    "getIdsInThisPool()": "45b58fe4",
    "getShare(uint256)": "cfb5a5f8",
    "getState()": "1865c57d",
    "hasClaimed(address)": "73b2e80e",
    "idsInPool(uint256)": "888e9cf8",
    "locked(uint256)": "b45a3c0e",
    "merkleRoot()": "2eb4a7ab",
    "owner()": "8da5cb5b",
    "poolMax()": "cd8df8a6",
    "poolMin()": "f8f306e1",
    "privatePool()": "59b5e75e",
    "pubKey()": "ac2a5dfd",
    "rageQuit(uint256,uint256)": "f038afe3",
    "rageQuitInfo(uint256)": "fc03bad2",
    "renounceOwnership()": "715018a6",
    "setArt(address)": "e6b1a3ae",
    "setPubKey(bytes,bytes,bytes,bytes32)": "e920eec0",
    "signature()": "51ff4847",
    "stake()": "3a4b66f1",
    "stake(bytes,bytes,bytes,bytes32)": "4b2b4e36",
    "totalClaims()": "41c61383",
    "totalDeposits()": "7d882097",
    "transferLocked()": "12686aae",
    "transferOwnership(address)": "f2fde38b",
    "unlockTransfer(uint256)": "bed62f35",
    "validatorLocked()": "e3f05d83",
    "validatorSet()": "9426e226",
    "withdraw(uint256,uint256)": "441a3e70",
    "withdrawAll(uint256)": "958e2d31",
    "withdrawal_credentials()": "e4a50276"
  },
  "id": 7
}