{
  "abi": [
    {
      "inputs": [
        {
          "internalType": "address",
          "name": "owner_",
          "type": "address"
        },
        {
          "internalType": "bool",
          "name": "validatorLocked_",
          "type": "bool"
        },
        {
          "internalType": "contract IFrensStorage",
          "name": "frensStorage_",
          "type": "address"
        }
      ],
      "stateMutability": "nonpayable",
      "type": "constructor"
    },
    {
      "anonymous": false,
      "inputs": [
        {
          "indexed": false,
          "internalType": "uint256",
          "name": "amount",
          "type": "uint256"
        },
        {
          "indexed": false,
          "internalType": "address",
          "name": "depositer",
          "type": "address"
        },
        {
          "indexed": false,
          "internalType": "uint256",
          "name": "id",
          "type": "uint256"
        }
      ],
      "name": "DepositToPool",
      "type": "event"
    },
    {
      "anonymous": false,
      "inputs": [
        {
          "indexed": true,
          "internalType": "address",
          "name": "previousOwner",
          "type": "address"
        },
        {
          "indexed": true,
          "internalType": "address",
          "name": "newOwner",
          "type": "address"
        }
      ],
      "name": "OwnershipTransferred",
      "type": "event"
    },
    {
      "anonymous": false,
      "inputs": [
        {
          "indexed": false,
          "internalType": "address",
          "name": "depositContractAddress",
          "type": "address"
        },
        {
          "indexed": false,
          "internalType": "address",
          "name": "caller",
          "type": "address"
        }
      ],
      "name": "Stake",
      "type": "event"
    },
    {
      "stateMutability": "payable",
      "type": "fallback"
    },
    {
      "inputs": [
        {
          "internalType": "uint256",
          "name": "_id",
          "type": "uint256"
        }
      ],
      "name": "addToDeposit",
      "outputs": [],
      "stateMutability": "payable",
      "type": "function"
    },
    {
      "inputs": [],
      "name": "artForPool",
      "outputs": [
        {
          "internalType": "contract IFrensArt",
          "name": "",
          "type": "address"
        }
      ],
      "stateMutability": "view",
      "type": "function"
    },
    {
      "inputs": [
        {
          "internalType": "uint256",
          "name": "_id",
          "type": "uint256"
        }
      ],
      "name": "claim",
      "outputs": [],
      "stateMutability": "nonpayable",
      "type": "function"
    },
    {
      "inputs": [
        {
          "internalType": "uint256",
          "name": "",
          "type": "uint256"
        }
      ],
      "name": "depositForId",
      "outputs": [
        {
          "internalType": "uint256",
          "name": "",
          "type": "uint256"
        }
      ],
      "stateMutability": "view",
      "type": "function"
    },
    {
      "inputs": [],
      "name": "depositToPool",
      "outputs": [],
      "stateMutability": "payable",
      "type": "function"
    },
    {
      "inputs": [],
      "name": "deposit_data_root",
      "outputs": [
        {
          "internalType": "bytes32",
          "name": "",
          "type": "bytes32"
        }
      ],
      "stateMutability": "view",
      "type": "function"
    },
    {
      "inputs": [
        {
          "internalType": "uint256",
          "name": "",
          "type": "uint256"
        }
      ],
      "name": "frenPastClaim",
      "outputs": [
        {
          "internalType": "uint256",
          "name": "",
          "type": "uint256"
        }
      ],
      "stateMutability": "view",
      "type": "function"
    },
    {
      "inputs": [],
      "name": "frensPoolShare",
      "outputs": [
        {
          "internalType": "contract IFrensPoolShare",
          "name": "",
          "type": "address"
        }
      ],
      "stateMutability": "view",
      "type": "function"
    },
    {
      "inputs": [],
      "name": "frensStorage",
      "outputs": [
        {
          "internalType": "contract IFrensStorage",
          "name": "",
          "type": "address"
        }
      ],
      "stateMutability": "view",
      "type": "function"
    },
    {
      "inputs": [
        {
          "internalType": "uint256",
          "name": "_id",
          "type": "uint256"
        }
      ],
      "name": "getDistributableShare",
      "outputs": [
        {
          "internalType": "uint256",
          "name": "",
          "type": "uint256"
        }
      ],
      "stateMutability": "view",
      "type": "function"
    },
    {
      "inputs": [],
      "name": "getIdsInThisPool",
      "outputs": [
        {
          "internalType": "uint256[]",
          "name": "",
          "type": "uint256[]"
        }
      ],
      "stateMutability": "view",
      "type": "function"
    },
    {
      "inputs": [
        {
          "internalType": "uint256",
          "name": "_id",
          "type": "uint256"
        }
      ],
      "name": "getShare",
      "outputs": [
        {
          "internalType": "uint256",
          "name": "",
          "type": "uint256"
        }
      ],
      "stateMutability": "view",
      "type": "function"
    },
    {
      "inputs": [],
      "name": "getState",
      "outputs": [
        {
          "internalType": "string",
          "name": "",
          "type": "string"
        }
      ],
      "stateMutability": "view",
      "type": "function"
    },
    {
      "inputs": [
        {
          "internalType": "uint256",
          "name": "",
          "type": "uint256"
        }
      ],
      "name": "idsInPool",
      "outputs": [
        {
          "internalType": "uint256",
          "name": "",
          "type": "uint256"
        }
      ],
      "stateMutability": "view",
      "type": "function"
    },
    {
      "inputs": [
        {
          "internalType": "uint256",
          "name": "",
          "type": "uint256"
        }
      ],
      "name": "locked",
      "outputs": [
        {
          "internalType": "bool",
          "name": "",
          "type": "bool"
        }
      ],
      "stateMutability": "view",
      "type": "function"
    },
    {
      "inputs": [],
      "name": "owner",
      "outputs": [
        {
          "internalType": "address",
          "name": "",
          "type": "address"
        }
      ],
      "stateMutability": "view",
      "type": "function"
    },
    {
      "inputs": [],
      "name": "pubKey",
      "outputs": [
        {
          "internalType": "bytes",
          "name": "",
          "type": "bytes"
        }
      ],
      "stateMutability": "view",
      "type": "function"
    },
    {
      "inputs": [
        {
          "internalType": "uint256",
          "name": "",
          "type": "uint256"
        }
      ],
      "name": "rageQuitInfo",
      "outputs": [
        {
          "internalType": "uint256",
          "name": "price",
          "type": "uint256"
        },
        {
          "internalType": "uint256",
          "name": "time",
          "type": "uint256"
        },
        {
          "internalType": "bool",
          "name": "rageQuitting",
          "type": "bool"
        }
      ],
      "stateMutability": "view",
      "type": "function"
    },
    {
      "inputs": [],
      "name": "renounceOwnership",
      "outputs": [],
      "stateMutability": "nonpayable",
      "type": "function"
    },
    {
      "inputs": [
        {
          "internalType": "contract IFrensArt",
          "name": "newArtContract",
          "type": "address"
        }
      ],
      "name": "setArt",
      "outputs": [],
      "stateMutability": "nonpayable",
      "type": "function"
    },
    {
      "inputs": [
        {
          "internalType": "bytes",
          "name": "_pubKey",
          "type": "bytes"
        },
        {
          "internalType": "bytes",
          "name": "_withdrawal_credentials",
          "type": "bytes"
        },
        {
          "internalType": "bytes",
          "name": "_signature",
          "type": "bytes"
        },
        {
          "internalType": "bytes32",
          "name": "_deposit_data_root",
          "type": "bytes32"
        }
      ],
      "name": "setPubKey",
      "outputs": [],
      "stateMutability": "nonpayable",
      "type": "function"
    },
    {
      "inputs": [],
      "name": "signature",
      "outputs": [
        {
          "internalType": "bytes",
          "name": "",
          "type": "bytes"
        }
      ],
      "stateMutability": "view",
      "type": "function"
    },
    {
      "inputs": [],
      "name": "stake",
      "outputs": [],
      "stateMutability": "nonpayable",
      "type": "function"
    },
    {
      "inputs": [
        {
          "internalType": "bytes",
          "name": "_pubKey",
          "type": "bytes"
        },
        {
          "internalType": "bytes",
          "name": "_withdrawal_credentials",
          "type": "bytes"
        },
        {
          "internalType": "bytes",
          "name": "_signature",
          "type": "bytes"
        },
        {
          "internalType": "bytes32",
          "name": "_deposit_data_root",
          "type": "bytes32"
        }
      ],
      "name": "stake",
      "outputs": [],
      "stateMutability": "nonpayable",
      "type": "function"
    },
    {
      "inputs": [],
      "name": "totalClaims",
      "outputs": [
        {
          "internalType": "uint256",
          "name": "",
          "type": "uint256"
        }
      ],
      "stateMutability": "view",
      "type": "function"
    },
    {
      "inputs": [],
      "name": "totalDeposits",
      "outputs": [
        {
          "internalType": "uint256",
          "name": "",
          "type": "uint256"
        }
      ],
      "stateMutability": "view",
      "type": "function"
    },
    {
      "inputs": [],
      "name": "transferLocked",
      "outputs": [
        {
          "internalType": "bool",
          "name": "",
          "type": "bool"
        }
      ],
      "stateMutability": "view",
      "type": "function"
    },
    {
      "inputs": [
        {
          "internalType": "address",
          "name": "newOwner",
          "type": "address"
        }
      ],
      "name": "transferOwnership",
      "outputs": [],
      "stateMutability": "nonpayable",
      "type": "function"
    },
    {
      "inputs": [],
      "name": "validatorLocked",
      "outputs": [
        {
          "internalType": "bool",
          "name": "",
          "type": "bool"
        }
      ],
      "stateMutability": "view",
      "type": "function"
    },
    {
      "inputs": [],
      "name": "validatorSet",
      "outputs": [
        {
          "internalType": "bool",
          "name": "",
          "type": "bool"
        }
      ],
      "stateMutability": "view",
      "type": "function"
    },
    {
      "inputs": [
        {
          "internalType": "uint256",
          "name": "_id",
          "type": "uint256"
        },
        {
          "internalType": "uint256",
          "name": "_amount",
          "type": "uint256"
        }
      ],
      "name": "withdraw",
      "outputs": [],
      "stateMutability": "nonpayable",
      "type": "function"
    },
    {
      "inputs": [],
      "name": "withdrawal_credentials",
      "outputs": [
        {
          "internalType": "bytes",
          "name": "",
          "type": "bytes"
        }
      ],
      "stateMutability": "view",
      "type": "function"
    },
    {
      "stateMutability": "payable",
      "type": "receive"
    }
  ],
  "bytecode": {
    "object": "0x6080604081815234620002605760608262002984803803809162000024828562000297565b83398101031262000260576200003a82620002bb565b602092838101519081151580920362000260578301516001600160a01b03808216959186900362000260576200007033620002d0565b60018060a01b0319918683600f541617600f5585518181016f636f6e74726163742e6164647265737360801b9182825267119c995b9cd05c9d60c21b603082015260188152620000c08162000265565b5190209087516321f8a72160e01b92838252600482015283816024818d5afa90811562000255578493929186916000916200020c575b5090602492911687600e541617600e5589518481019182526d4672656e73506f6f6c536861726560901b6030820152601e8152620001348162000265565b5190209189519a8b938492835260048301525afa9081156200020157600091620001bd575b50620001969596501690600d541617600d5560ff8019600854169116809117600855600014620001a4576000805460ff60a01b19169055620002d0565b5161266c9081620003188239f35b6000805460ff60a01b1916600160a01b179055620002d0565b87813d8311620001f9575b620001d4818362000297565b81010312620001f65750620001ee620001969596620002bb565b869562000159565b80fd5b503d620001c8565b86513d6000823e3d90fd5b85819495969293503d83116200024d575b62000229818362000297565b81010312620001f657508392918562000244602493620002bb565b909192620000f6565b503d6200021d565b89513d6000823e3d90fd5b600080fd5b604081019081106001600160401b038211176200028157604052565b634e487b7160e01b600052604160045260246000fd5b601f909101601f19168101906001600160401b038211908210176200028157604052565b51906001600160a01b03821682036200026057565b600080546001600160a01b039283166001600160a01b03198216811783559216907f8be0079c531659141344cd1fd0a4f28419497f9722a3daafe3b4186f6b6457e09080a356fe6080604081815260048036101561001e575b505050361561001c57005b005b600092833560e01c90816312686aae1461157f575080631865c57d1461154e5780632cf2cd48146115275780632daad61d1461150057806330dbf887146114d7578063379607f5146110225780633a4b66f11461100957806341c6138314610fea578063441a3e7014610e2457806345b58fe414610d715780634b2b4e3614610cb457806351ff484714610c1c578063591167c714610bf3578063678e300a14610bd3578063715018a614610b795780637d88209714610b5a5780638620891c146109d4578063888e9cf8146109875780638ae578fd1461095e5780638da5cb5b146109365780639426e2261461090f578063ac2a5dfd14610877578063b45a3c0e1461084b578063cfb5a5f8146107a2578063e2d9ae3e14610783578063e3f05d831461075f578063e4a5027614610684578063e6b1a3ae14610544578063e920eec014610518578063f2fde38b1461044e578063f9faa104146101cd5763fc03bad20361001157346101c95760203660031901126101c957606092818392358252602052209081549160ff60026001830154920154169082519384526020840152151590820152f35b8280fd5b50826003193601126101c95734156104175760ff835460a01c16818110156104045760016101fb91146117a8565b61021b6801bc16d674ec800000610214600554346117ed565b1115611810565b600d5482516318160ddd60e01b8152602093909290916001600160a01b0390859085908490829085165afa9384156103a15786946103d1575b5083865260018552348387205561026d346005546117ed565b600555600754680100000000000000008110156103be5760018101806007558110156103ab5790848793927fa66cc928b5edb82af9bd49922954155ab7b0942694bea4ce44661d9a8736c68801558483526002865260018484205560ff60085460081c16600387528484209060ff801983541691151516179055600d5416803b156101c957829060248551809581936335313c2160e11b835233878401525af180156103a157610351575b857fd91527a40417d48f76ba016aaa9157e2ddaca6cb5b660432901659cb075058fc60608787878051923484523390840152820152a180f35b67ffffffffffffffff829693961161038e5750845292817fd91527a40417d48f76ba016aaa9157e2ddaca6cb5b660432901659cb075058fc610318565b634e487b7160e01b835260419052602482fd5b83513d88823e3d90fd5b634e487b7160e01b875260328352602487fd5b634e487b7160e01b875260418352602487fd5b9093508481813d83116103fd575b6103e98183611786565b810103126103f957519238610254565b8580fd5b503d6103df565b634e487b7160e01b845260218252602484fd5b6020606492519162461bcd60e51b8352820152601260248201527136bab9ba103232b837b9b4ba1032ba3432b960711b6044820152fd5b5090346101c95760203660031901126101c9576001600160a01b038235818116939192908490036105145761048161257e565b83156104c257505082546001600160a01b0319811683178455167f8be0079c531659141344cd1fd0a4f28419497f9722a3daafe3b4186f6b6457e08380a380f35b906020608492519162461bcd60e51b8352820152602660248201527f4f776e61626c653a206e6577206f776e657220697320746865207a65726f206160448201526564647265737360d01b6064820152fd5b8480fd5b83346105415761053e61052a3661161e565b9561053995919594929461257e565b611dc2565b80f35b80fd5b50346101c9576020806003193601126106805781356001600160a01b03811693908490036105145761057461257e565b805163516b636d60e11b81526001848201528581602481885afa9081156106765786916105f9575b5051156105c1575050506bffffffffffffffffffffffff60a01b600e541617600e5580f35b5162461bcd60e51b81529182015260146024820152731a5b9d985b1a5908185c9d0818dbdb9d1c9858dd60621b604482015260649150fd5b90503d8087833e61060a8183611786565b81019083818303126106725780519067ffffffffffffffff821161066e570181601f8201121561067257805161063f816118f1565b9261064c85519485611786565b81845285828401011161066e57610668918580850191016115a3565b3861059c565b8780fd5b8680fd5b82513d88823e3d90fd5b8380fd5b50503461075b578160031936011261075b5780519082600a546106a681611688565b8085529160019180831690811561073357506001146106e8575b5050506106d2826106e4940383611786565b519182916020835260208301906115c6565b0390f35b9450600a85526000805160206125d78339815191525b82861061071b575050506106d28260206106e495820101946106c0565b805460208787018101919091529095019481016106fe565b6106e49750869350602092506106d294915060ff191682840152151560051b820101946106c0565b5080fd5b50503461075b578160031936011261075b5760209060ff6008541690519015158152f35b50503461075b578160031936011261075b57602090600c549051908152f35b50346101c95760203660031901126101c957600d548251631dc82a7560e01b81528235928101839052906001600160a01b03906020908390602490829085165afa91821561084157916108069161080b949360209792610812575b5016301461188d565b6122e5565b9051908152f35b610833919250873d811161083a575b61082b8183611786565b81019061186e565b90386107fd565b503d610821565b84513d87823e3d90fd5b50346101c95760203660031901126101c9578160209360ff923581526003855220541690519015158152f35b50503461075b578160031936011261075b578051908260095461089981611688565b8085529160019180831690811561073357506001146108c4575050506106d2826106e4940383611786565b9450600985526000805160206125f78339815191525b8286106108f7575050506106d28260206106e495820101946106c0565b805460208787018101919091529095019481016108da565b50503461075b578160031936011261075b5760209060ff60085460101c1690519015158152f35b50503461075b578160031936011261075b57905490516001600160a01b039091168152602090f35b50503461075b578160031936011261075b57600e5490516001600160a01b039091168152602090f35b50346101c95760203660031901126101c957356007548110156101c9576007602093527fa66cc928b5edb82af9bd49922954155ab7b0942694bea4ce44661d9a8736c68801549051908152f35b50602090816003193601126106805780359060ff855460a01c1681811015610b47576001610a0291146117a8565b610a1b6801bc16d674ec800000610214600554346117ed565b600d548451631dc82a7560e01b8152828101849052906001600160a01b039081168583602481845afa928315610b3d576024938793610a63928b92610b25575016301461188d565b865192838092634f558e7960e01b825287878301525afa908115610b1b578691610aee575b5015610ab75750906001918452528120610aa33482546117ed565b9055610ab1346005546117ed565b60055580f35b835162461bcd60e51b815290810183905260116024820152701a5908191bd95cc81b9bdd08195e1a5cdd607a1b6044820152606490fd5b610b0e9150843d8611610b14575b610b068183611786565b8101906118d9565b38610a88565b503d610afc565b85513d88823e3d90fd5b610833919250853d871161083a5761082b8183611786565b87513d8a823e3d90fd5b634e487b7160e01b865260218252602486fd5b50503461075b578160031936011261075b576020906005549051908152f35b8334610541578060031936011261054157610b9261257e565b80546001600160a01b03198116825581906001600160a01b03167f8be0079c531659141344cd1fd0a4f28419497f9722a3daafe3b4186f6b6457e08280a380f35b509134610541576020366003190112610541575061080b60209235612358565b50503461075b578160031936011261075b57600d5490516001600160a01b039091168152602090f35b50503461075b578160031936011261075b5780519082600b54610c3e81611688565b808552916001918083169081156107335750600114610c69575050506106d2826106e4940383611786565b9450600b85526000805160206126178339815191525b828610610c9c575050506106d28260206106e495820101946106c0565b80546020878701810191909152909501948101610c7f565b50346101c957610cc33661161e565b93610cd298969893919361257e565b60085460101c60ff1615610d5c57505050505092610cf3919293369161190d565b602081519101208151610d1081610d09816116c2565b0382611786565b6020815191012003610d275750505b61053e61197e565b906020606492519162461bcd60e51b8352820152600f60248201526e0e0eac496caf240dad2e6dac2e8c6d608b1b6044820152fd5b92955092955092610d6c96611dc2565b610d1f565b8284346105415780600319360112610541579080519182906007549182855260208095018093600784527fa66cc928b5edb82af9bd49922954155ab7b0942694bea4ce44661d9a8736c68890845b818110610e105750505081610dd5910382611786565b83519485948186019282875251809352850193925b828110610df957505050500390f35b835185528695509381019392810192600101610dea565b825484529288019260019283019201610dbf565b5090346101c957806003193601126101c9578135602480359360ff865460a01c1681811015610fd8576001610e5991146117a8565b600d5484516331a9108f60e11b8082528382018690526020949290916001600160a01b0391869082908690829086165afa908115610fce579082918b91610fb1575b50163303610f7f578589526001855287878a205410610f4657918493918695938a9897895260018552878920610ed28b8254612295565b9055610ee08a600554612295565b600555600d54168751968794859384528301525afa928315610f3d575061053e948493849384938492610f20575b50505af1610f1a6122a2565b50611da5565b610f369250803d1061083a5761082b8183611786565b3880610f0e565b513d85823e3d90fd5b865162461bcd60e51b8152808501869052601481850152731b9bdd08195b9bdd59da0819195c1bdcda5d195960621b6044820152606490fd5b865162461bcd60e51b8152808501869052600d818501526c3737ba103a34329037bbb732b960991b6044820152606490fd5b610fc89150873d891161083a5761082b8183611786565b38610e9b565b88513d8c823e3d90fd5b50634e487b7160e01b86526021905284fd5b50503461075b578160031936011261075b576020906006549051908152f35b8334610541578060031936011261054157610d1f61257e565b509134610541576020918260031936011261075b578335938360018060a01b039586600d5416845196878092631dc82a7560e01b825284878301526024998a915afa908115610b1b57906110819187916114ba575b508816301461188d565b60ff855460a01c16838110156114a857600181146114665760644711156114165760031461140a5786600f541696828551818101906f636f6e74726163742e6164647265737360801b82526a4672656e734f7261636c6560a81b6030820152601b81526110ed81611754565b519020888751809b81936321f8a72160e01b8352898301525afa978815610b1b57818888999a86938a916113ed575b50885163404df7b160e11b81523089820152998a938492165af19586156113e35787966113c4575b508580611399575b611383575b61115a826122e5565b95828852600284528588206111708882546117ed565b905561117e876006546117ed565b60065581600f541690865185810190731c1c9bdd1bd8dbdb0b9999594b9c195c98d95b9d60621b8252601481526111b481611754565b5190209087519163bd02d0f560e01b83528783015285828c81865afa918215610fce578a92611350575b508115159081611347575b50611238575b50509086978392600d989798541694865195869384926331a9108f60e11b84528301525afa928315610f3d575061053e948493849384938492610f205750505af1610f1a6122a2565b8487989293985181810190751c1c9bdd1bd8dbdb0b9999594b9c9958da5c1a595b9d60521b82526016815261126c81611754565b5190208b8951809681936321f8a72160e01b83528b8301525afa92831561133d578993611315575b506112a1826064926122d2565b0491600183116112ca575b50976112be849392899a999899612295565b969791928199506111ef565b6000198301908382116113035792899a926112f58b8080809d9e6112be978c9b9a5af1610f1a6122a2565b929a509293509796976112ac565b634e487b7160e01b8a52601187528a8afd5b6064919350826113346112a192883d8a1161083a5761082b8183611786565b94925050611294565b87513d8b823e3d90fd5b905015386111e9565b9091508581813d831161137c575b6113688183611786565b81010312611378575190386111de565b8980fd5b503d61135e565b865460ff60a01b1916600360a01b178755611151565b5060ff875460a01c16848110156113b25760021461114c565b634e487b7160e01b8852602185528888fd5b6113dc919650833d8511610b1457610b068183611786565b9438611144565b85513d89823e3d90fd5b6114049150843d861161083a5761082b8183611786565b3861111c565b60019694959694611151565b845162461bcd60e51b81528085018490526025818901527f6d7573742062652067726561746572207468616e203130302077656920746f20604482015264636c61696d60d81b6064820152608490fd5b845162461bcd60e51b8152808501849052601c818901527f757365207769746864726177207768656e206e6f74207374616b6564000000006044820152606490fd5b634e487b7160e01b8652602184528686fd5b6114d19150843d861161083a5761082b8183611786565b38611077565b50503461075b578160031936011261075b57600f5490516001600160a01b039091168152602090f35b50346101c95760203660031901126101c95760209282913581526001845220549051908152f35b50346101c95760203660031901126101c95760209282913581526002845220549051908152f35b50503461075b578160031936011261075b576106e49061156c612478565b90519182916020835260208301906115c6565b84903461075b578160031936011261075b5760209060ff60085460081c1615158152f35b60005b8381106115b65750506000910152565b81810151838201526020016115a6565b906020916115df815180928185528580860191016115a3565b601f01601f1916010190565b9181601f840112156116195782359167ffffffffffffffff8311611619576020838186019501011161161957565b600080fd5b9060806003198301126116195767ffffffffffffffff600435818111611619578361164b916004016115eb565b939093926024358381116116195782611666916004016115eb565b9390939260443591821161161957611680916004016115eb565b909160643590565b90600182811c921680156116b8575b60208310146116a257565b634e487b7160e01b600052602260045260246000fd5b91607f1691611697565b600954600092916116d282611688565b8082529160019081811690811561173757506001146116f057505050565b9192935060096000526000805160206125f7833981519152916000925b84841061171f57505060209250010190565b8054602085850181019190915290930192810161170d565b915050602093945060ff929192191683830152151560051b010190565b6040810190811067ffffffffffffffff82111761177057604052565b634e487b7160e01b600052604160045260246000fd5b90601f8019910116810190811067ffffffffffffffff82111761177057604052565b156117af57565b60405162461bcd60e51b81526020600482015260166024820152756e6f7420616363657074696e67206465706f7369747360501b6044820152606490fd5b919082018092116117fa57565b634e487b7160e01b600052601160045260246000fd5b1561181757565b60405162461bcd60e51b815260206004820152602960248201527f746f74616c206465706f736974732063616e6e6f74206265206d6f72652074686044820152680c2dc406664408ae8d60bb1b6064820152608490fd5b9081602091031261161957516001600160a01b03811681036116195790565b1561189457565b60405162461bcd60e51b815260206004820152601960248201527f77726f6e67207374616b696e6720706f6f6c20666f72206964000000000000006044820152606490fd5b90816020910312611619575180151581036116195790565b67ffffffffffffffff811161177057601f01601f191660200190565b929192611919826118f1565b916119276040519384611786565b829481845281830111611619578281602093846000960137010152565b1561194b57565b60405162461bcd60e51b815260206004820152600b60248201526a77726f6e6720737461746560a81b6044820152606490fd5b6801bc16d674ec80000090814710611d6f578160055403611d3457600080549260ff8460a01c169360049485811015611d21576119be6001809214611944565b60ff60085460101c1615611ce95760018060a01b039384600f54166040958651602095868201937f65787465726e616c2e636f6e74726163742e616464726573730000000000000085526e11195c1bdcda5d10dbdb9d1c9858dd608a1b603984015260288352606083019067ffffffffffffffff9584831087841117611cd557828c52845190206321f8a72160e01b835260648501528890829060249082905afa928315611ccb578693611c96575b505060ff60a01b1916600160a11b178455600c54911695863b156106805787516304512a2360e31b815260808b82015294849286929190611ab0608485016116c2565b60031985820381016024870152600a54879492611acc82611688565b918282528d8582169182600014611c77575050600114611c2e575b50508584030160448601528592600b5491611b0183611688565b92838352878d8383169283600014611c0d57505050600114611bc1575b5050508391829160648301520391895af18015611bb757611b6e575b5050507f72b356fd889b9abd3530accd2c9f4aecbce67d70757181f9f862ac91464ce19293945082519182523390820152a1565b8211611ba457507f72b356fd889b9abd3530accd2c9f4aecbce67d70757181f9f862ac91464ce192949550835284933880611b3a565b634e487b7160e01b815260418752602490fd5b86513d84823e3d90fd5b918b939450600b88526000805160206126178339815191529288935b828510611bf257505050010190808480611b1e565b80548486018701528b99508c98508d95909401938101611bdd565b60ff19168582015294151560051b9093019093019450839250819050611b1e565b8c929550600a89526000805160206125d78339815191529189925b818410611c5c5750500101923880611ae7565b80548385018601528c9a508d99508e94909301928501611c49565b60ff19168382015292151560051b909101909101945038905080611ae7565b611cbb92935060609089903d8b11611cc3575b611cb38285611786565b01019061186e565b903880611a6d565b3d9150611ca9565b8a513d88823e3d90fd5b50634e487b7160e01b875260418d52602487fd5b60405162461bcd60e51b815260208188015260116024820152701d985b1a59185d1bdc881b9bdd081cd95d607a1b6044820152606490fd5b634e487b7160e01b845260218652602484fd5b60405162461bcd60e51b81526020600482015260136024820152726e6f7420656e6f756768206465706f7369747360681b6044820152606490fd5b60405162461bcd60e51b815260206004820152600e60248201526d0dcdee840cadcdeeaced040cae8d60931b6044820152606490fd5b15611dac57565b634e487b7160e01b600052600160045260246000fd5b929094939194600160f81b3001908130116117fa57604051602092838201908152838252611def82611754565b611dfa36868b61190d565b84815191012091519020036122505760085460ff81166121f6575b5060009260ff845460a01c169760048910156121e257611e386001809a14611944565b67ffffffffffffffff928381116121ce5780611e55600954611688565b98601f998a8111612173575b5087908a83116001146120fd5788926120f2575b5050600019600383901b1c1916908a1b176009555b8282116120de578190611e9e600a54611688565b888111612083575b50859088831160011461201657869261200b575b5050600019600383901b1c191690881b17600a555b8511611ff757611ee0600b54611688565b848111611fa7575b5081938511600114611f35575091839491849394611f2a575b50501b916000199060031b1c191617600b555b600c556201000062ff0000196008541617600855565b013592503880611f01565b600b825260008051602061261783398151915293918591601f19831691905b88838310611f8d5750505010611f73575b505050811b01600b55611f14565b0135600019600384901b60f8161c19169055388080611f65565b868601358855909601959384019387935090810190611f54565b600b83526000805160206126178339815191528580880160051c820192848910611fee575b0160051c019087905b828110611fe3575050611ee8565b848155018790611fd5565b92508192611fcc565b634e487b7160e01b82526041600452602482fd5b013590503880611eba565b600a87528a93506000805160206125d783398151915291601f198416885b8882821061206d5750508411612053575b505050811b01600a55611ecf565b0135600019600384901b60f8161c19169055388080612045565b8385013586558e97909501949283019201612034565b909150600a86526000805160206125d78339815191528880850160051c8201928786106120d5575b918c91869594930160051c01915b8281106120c7575050611ea6565b8881558594508c91016120b9565b925081926120ab565b634e487b7160e01b85526041600452602485fd5b013590503880611e75565b600989528c93506000805160206125f783398151915291601f1984168a5b8a828210612154575050841161213a575b505050811b01600955611e8a565b0135600019600384901b60f8161c1916905538808061212c565b91929596849587849396013581550195019201908e959493929161211b565b909150600988526000805160206125f78339815191528a80850160051c8201928986106121c5575b918e91869594930160051c01915b8281106121b7575050611e61565b8a81558594508e91016121a9565b9250819261219b565b634e487b7160e01b86526041600452602486fd5b634e487b7160e01b85526021600452602485fd5b6000549060ff8260a01c16600481101561223a576122249161221a60ff9215611944565b60101c1615611da5565b60ff60a01b1916600160a01b1760005538611e15565b634e487b7160e01b600052602160045260246000fd5b60405162461bcd60e51b815260048101839052601e60248201527f7769746864726177616c2063726564656e7469616c206d69736d6174636800006044820152606490fd5b919082039182116117fa57565b3d156122cd573d906122b3826118f1565b916122c16040519384611786565b82523d6000602084013e565b606090565b818102929181159184041417156117fa57565b471561235257600090815260016020526040812054600260205261231b60408320549161231547600654906117ed565b906122d2565b60055490811561233e57048015612339576123369250612295565b90565b505090565b634e487b7160e01b84526012600452602484fd5b50600090565b600060ff815460a01c16916004831015612464576001830361237a5750905090565b612383906122e5565b9160018060a01b03600f5416602060405181810190731c1c9bdd1bd8dbdb0b9999594b9c195c98d95b9d60621b8252601481526123bf81611754565b51902060246040518094819363bd02d0f560e01b835260048301525afa928315612458578093612422575b50508115159081612416575b506123ff575090565b90606461240f82612336946122d2565b0490612295565b600391501415386123f6565b909192506020823d8211612450575b8161243e60209383611786565b810103126105415750519038806123ea565b3d9150612431565b604051903d90823e3d90fd5b634e487b7160e01b82526021600452602482fd5b60ff60005460a01c16600481101561223a578015612544576002811461252157600181146124f2576003146124d0576040516124b381611754565b600d81526c7374617465206661696c75726560981b602082015290565b6040516124dc81611754565b6006815265195e1a5d195960d21b602082015290565b506040516124ff81611754565b6012815271616363657074696e67206465706f7369747360701b602082015290565b5060405161252e81611754565b60068152651cdd185ad95960d21b602082015290565b5060405161255181611754565b601781527f6177616974696e672076616c696461746f7220696e666f000000000000000000602082015290565b6000546001600160a01b0316330361259257565b606460405162461bcd60e51b815260206004820152602060248201527f4f776e61626c653a2063616c6c6572206973206e6f7420746865206f776e65726044820152fdfec65a7bb8d6351c1cf70c95a316cc6a92839c986682d98bc35f958f4883f9d2a86e1540171b6c0c960b71a7020d9f60077f6af931a8bbf590da0223dacf75c7af0175b7a638427703f0dbe7bb9bbf987a2551717b34e79f33b5b1008d1fa01db9a2646970667358221220d499584e50fceb8cecea0b56c1f87f4b0a29bae028d2930e16d9533a9eb8a8b464736f6c63430008110033",
    "linkReferences": {}
  },
  "methodIdentifiers": {
    "addToDeposit(uint256)": "8620891c",
    "artForPool()": "8ae578fd",
    "claim(uint256)": "379607f5",
    "depositForId(uint256)": "2daad61d",
    "depositToPool()": "f9faa104",
    "deposit_data_root()": "e2d9ae3e",
    "frenPastClaim(uint256)": "2cf2cd48",
    "frensPoolShare()": "591167c7",
    "frensStorage()": "30dbf887",
    "getDistributableShare(uint256)": "678e300a",
    "getIdsInThisPool()": "45b58fe4",
    "getShare(uint256)": "cfb5a5f8",
    "getState()": "1865c57d",
    "idsInPool(uint256)": "888e9cf8",
    "locked(uint256)": "b45a3c0e",
    "owner()": "8da5cb5b",
    "pubKey()": "ac2a5dfd",
    "rageQuitInfo(uint256)": "fc03bad2",
    "renounceOwnership()": "715018a6",
    "setArt(address)": "e6b1a3ae",
    "setPubKey(bytes,bytes,bytes,bytes32)": "e920eec0",
    "signature()": "51ff4847",
    "stake()": "3a4b66f1",
    "stake(bytes,bytes,bytes,bytes32)": "4b2b4e36",
    "totalClaims()": "41c61383",
    "totalDeposits()": "7d882097",
    "transferLocked()": "12686aae",
    "transferOwnership(address)": "f2fde38b",
    "validatorLocked()": "e3f05d83",
    "validatorSet()": "9426e226",
    "withdraw(uint256,uint256)": "441a3e70",
    "withdrawal_credentials()": "e4a50276"
  },
  "id": 6
}