{
  "abi": [
    {
      "inputs": [
        {
          "internalType": "address",
          "name": "owner_",
          "type": "address"
        },
        {
          "internalType": "bool",
          "name": "validatorLocked_",
          "type": "bool"
        },
        {
          "internalType": "contract IFrensStorage",
          "name": "frensStorage_",
          "type": "address"
        }
      ],
      "stateMutability": "nonpayable",
      "type": "constructor"
    },
    {
      "anonymous": false,
      "inputs": [
        {
          "indexed": false,
          "internalType": "uint256",
          "name": "amount",
          "type": "uint256"
        },
        {
          "indexed": false,
          "internalType": "address",
          "name": "depositer",
          "type": "address"
        },
        {
          "indexed": false,
          "internalType": "uint256",
          "name": "id",
          "type": "uint256"
        }
      ],
      "name": "DepositToPool",
      "type": "event"
    },
    {
      "anonymous": false,
      "inputs": [
        {
          "indexed": true,
          "internalType": "address",
          "name": "previousOwner",
          "type": "address"
        },
        {
          "indexed": true,
          "internalType": "address",
          "name": "newOwner",
          "type": "address"
        }
      ],
      "name": "OwnershipTransferred",
      "type": "event"
    },
    {
      "anonymous": false,
      "inputs": [
        {
          "indexed": false,
          "internalType": "address",
          "name": "depositContractAddress",
          "type": "address"
        },
        {
          "indexed": false,
          "internalType": "address",
          "name": "caller",
          "type": "address"
        }
      ],
      "name": "Stake",
      "type": "event"
    },
    {
      "stateMutability": "payable",
      "type": "fallback"
    },
    {
      "inputs": [
        {
          "internalType": "uint256",
          "name": "_id",
          "type": "uint256"
        }
      ],
      "name": "addToDeposit",
      "outputs": [],
      "stateMutability": "payable",
      "type": "function"
    },
    {
      "inputs": [],
      "name": "artForPool",
      "outputs": [
        {
          "internalType": "contract IFrensArt",
          "name": "",
          "type": "address"
        }
      ],
      "stateMutability": "view",
      "type": "function"
    },
    {
      "inputs": [
        {
          "internalType": "uint256",
          "name": "_id",
          "type": "uint256"
        }
      ],
      "name": "claim",
      "outputs": [],
      "stateMutability": "nonpayable",
      "type": "function"
    },
    {
      "inputs": [
        {
          "internalType": "uint256",
          "name": "",
          "type": "uint256"
        }
      ],
      "name": "depositForId",
      "outputs": [
        {
          "internalType": "uint256",
          "name": "",
          "type": "uint256"
        }
      ],
      "stateMutability": "view",
      "type": "function"
    },
    {
      "inputs": [],
      "name": "depositToPool",
      "outputs": [],
      "stateMutability": "payable",
      "type": "function"
    },
    {
      "inputs": [],
      "name": "deposit_data_root",
      "outputs": [
        {
          "internalType": "bytes32",
          "name": "",
          "type": "bytes32"
        }
      ],
      "stateMutability": "view",
      "type": "function"
    },
    {
      "inputs": [],
      "name": "exitPool",
      "outputs": [],
      "stateMutability": "nonpayable",
      "type": "function"
    },
    {
      "inputs": [
        {
          "internalType": "uint256",
          "name": "",
          "type": "uint256"
        }
      ],
      "name": "frenPastClaim",
      "outputs": [
        {
          "internalType": "uint256",
          "name": "",
          "type": "uint256"
        }
      ],
      "stateMutability": "view",
      "type": "function"
    },
    {
      "inputs": [],
      "name": "frensPoolShare",
      "outputs": [
        {
          "internalType": "contract IFrensPoolShare",
          "name": "",
          "type": "address"
        }
      ],
      "stateMutability": "view",
      "type": "function"
    },
    {
      "inputs": [],
      "name": "frensStorage",
      "outputs": [
        {
          "internalType": "contract IFrensStorage",
          "name": "",
          "type": "address"
        }
      ],
      "stateMutability": "view",
      "type": "function"
    },
    {
      "inputs": [
        {
          "internalType": "uint256",
          "name": "_id",
          "type": "uint256"
        }
      ],
      "name": "getDistributableShare",
      "outputs": [
        {
          "internalType": "uint256",
          "name": "",
          "type": "uint256"
        }
      ],
      "stateMutability": "view",
      "type": "function"
    },
    {
      "inputs": [
        {
          "internalType": "uint256",
          "name": "_id",
          "type": "uint256"
        }
      ],
      "name": "getShare",
      "outputs": [
        {
          "internalType": "uint256",
          "name": "",
          "type": "uint256"
        }
      ],
      "stateMutability": "view",
      "type": "function"
    },
    {
      "inputs": [],
      "name": "getState",
      "outputs": [
        {
          "internalType": "string",
          "name": "",
          "type": "string"
        }
      ],
      "stateMutability": "view",
      "type": "function"
    },
    {
      "inputs": [
        {
          "internalType": "uint256",
          "name": "",
          "type": "uint256"
        }
      ],
      "name": "idsInPool",
      "outputs": [
        {
          "internalType": "uint256",
          "name": "",
          "type": "uint256"
        }
      ],
      "stateMutability": "view",
      "type": "function"
    },
    {
      "inputs": [],
      "name": "owner",
      "outputs": [
        {
          "internalType": "address",
          "name": "",
          "type": "address"
        }
      ],
      "stateMutability": "view",
      "type": "function"
    },
    {
      "inputs": [],
      "name": "pubKey",
      "outputs": [
        {
          "internalType": "bytes",
          "name": "",
          "type": "bytes"
        }
      ],
      "stateMutability": "view",
      "type": "function"
    },
    {
      "inputs": [],
      "name": "renounceOwnership",
      "outputs": [],
      "stateMutability": "nonpayable",
      "type": "function"
    },
    {
      "inputs": [
        {
          "internalType": "contract IFrensArt",
          "name": "newArtContract",
          "type": "address"
        }
      ],
      "name": "setArt",
      "outputs": [],
      "stateMutability": "nonpayable",
      "type": "function"
    },
    {
      "inputs": [
        {
          "internalType": "bytes",
          "name": "_pubKey",
          "type": "bytes"
        },
        {
          "internalType": "bytes",
          "name": "_withdrawal_credentials",
          "type": "bytes"
        },
        {
          "internalType": "bytes",
          "name": "_signature",
          "type": "bytes"
        },
        {
          "internalType": "bytes32",
          "name": "_deposit_data_root",
          "type": "bytes32"
        }
      ],
      "name": "setPubKey",
      "outputs": [],
      "stateMutability": "nonpayable",
      "type": "function"
    },
    {
      "inputs": [],
      "name": "signature",
      "outputs": [
        {
          "internalType": "bytes",
          "name": "",
          "type": "bytes"
        }
      ],
      "stateMutability": "view",
      "type": "function"
    },
    {
      "inputs": [],
      "name": "stake",
      "outputs": [],
      "stateMutability": "nonpayable",
      "type": "function"
    },
    {
      "inputs": [
        {
          "internalType": "bytes",
          "name": "_pubKey",
          "type": "bytes"
        },
        {
          "internalType": "bytes",
          "name": "_withdrawal_credentials",
          "type": "bytes"
        },
        {
          "internalType": "bytes",
          "name": "_signature",
          "type": "bytes"
        },
        {
          "internalType": "bytes32",
          "name": "_deposit_data_root",
          "type": "bytes32"
        }
      ],
      "name": "stake",
      "outputs": [],
      "stateMutability": "nonpayable",
      "type": "function"
    },
    {
      "inputs": [],
      "name": "totalClaims",
      "outputs": [
        {
          "internalType": "uint256",
          "name": "",
          "type": "uint256"
        }
      ],
      "stateMutability": "view",
      "type": "function"
    },
    {
      "inputs": [],
      "name": "totalDeposits",
      "outputs": [
        {
          "internalType": "uint256",
          "name": "",
          "type": "uint256"
        }
      ],
      "stateMutability": "view",
      "type": "function"
    },
    {
      "inputs": [],
      "name": "transferLocked",
      "outputs": [
        {
          "internalType": "bool",
          "name": "",
          "type": "bool"
        }
      ],
      "stateMutability": "view",
      "type": "function"
    },
    {
      "inputs": [
        {
          "internalType": "address",
          "name": "newOwner",
          "type": "address"
        }
      ],
      "name": "transferOwnership",
      "outputs": [],
      "stateMutability": "nonpayable",
      "type": "function"
    },
    {
      "inputs": [],
      "name": "validatorLocked",
      "outputs": [
        {
          "internalType": "bool",
          "name": "",
          "type": "bool"
        }
      ],
      "stateMutability": "view",
      "type": "function"
    },
    {
      "inputs": [],
      "name": "validatorSet",
      "outputs": [
        {
          "internalType": "bool",
          "name": "",
          "type": "bool"
        }
      ],
      "stateMutability": "view",
      "type": "function"
    },
    {
      "inputs": [
        {
          "internalType": "uint256",
          "name": "_id",
          "type": "uint256"
        },
        {
          "internalType": "uint256",
          "name": "_amount",
          "type": "uint256"
        }
      ],
      "name": "withdraw",
      "outputs": [],
      "stateMutability": "nonpayable",
      "type": "function"
    },
    {
      "inputs": [],
      "name": "withdrawal_credentials",
      "outputs": [
        {
          "internalType": "bytes",
          "name": "",
          "type": "bytes"
        }
      ],
      "stateMutability": "view",
      "type": "function"
    },
    {
      "stateMutability": "payable",
      "type": "receive"
    }
  ],
  "bytecode": {
    "object": "0x60806040818152346200026057606082620028e7803803809162000024828562000297565b83398101031262000260576200003a82620002bb565b602092838101519081151580920362000260578301516001600160a01b03808216959186900362000260576200007033620002d0565b60018060a01b0319918683600d541617600d5585518181016f636f6e74726163742e6164647265737360801b9182825267119c995b9cd05c9d60c21b603082015260188152620000c08162000265565b5190209087516321f8a72160e01b92838252600482015283816024818d5afa90811562000255578493929186916000916200020c575b5090602492911687600c541617600c5589518481019182526d4672656e73506f6f6c536861726560901b6030820152601e8152620001348162000265565b5190209189519a8b938492835260048301525afa9081156200020157600091620001bd575b50620001969596501690600b541617600b5560ff8019600654169116809117600655600014620001a4576000805460ff60a01b19169055620002d0565b516125cf9081620003188239f35b6000805460ff60a01b1916600160a01b179055620002d0565b87813d8311620001f9575b620001d4818362000297565b81010312620001f65750620001ee620001969596620002bb565b869562000159565b80fd5b503d620001c8565b86513d6000823e3d90fd5b85819495969293503d83116200024d575b62000229818362000297565b81010312620001f657508392918562000244602493620002bb565b909192620000f6565b503d6200021d565b89513d6000823e3d90fd5b600080fd5b604081019081106001600160401b038211176200028157604052565b634e487b7160e01b600052604160045260246000fd5b601f909101601f19168101906001600160401b038211908210176200028157604052565b51906001600160a01b03821682036200026057565b600080546001600160a01b039283166001600160a01b03198216811783559216907f8be0079c531659141344cd1fd0a4f28419497f9722a3daafe3b4186f6b6457e09080a356fe6080604081815260048036101561001e575b505050361561001c57005b005b600092833560e01c90816312686aae14611517575080631865c57d146114e657806329917954146113d85780632cf2cd48146113b15780632daad61d1461138a57806330dbf88714611361578063379607f514610eb05780633a4b66f114610e8b57806341c6138314610e6e578063441a3e7014610cf35780634b2b4e3614610c2a57806351ff484714610b92578063591167c714610b69578063678e300a14610b49578063715018a614610aeb5780637d88209714610acc5780638620891c14610946578063888e9cf8146108f95780638ae578fd146108d05780638da5cb5b146108a85780639426e22614610881578063ac2a5dfd146107e9578063cfb5a5f814610740578063e2d9ae3e14610721578063e3f05d83146106fd578063e4a5027614610622578063e6b1a3ae146104db578063e920eec0146104a3578063f2fde38b146103d65763f9faa10403610011578260031936011261032f57341561039f576101a26801bc16d674ec80000061019b60035434611740565b1115611763565b60ff835460a01c168181101561038c5760016101be91146117c1565b600b5482516318160ddd60e01b8152602093909290916001600160a01b0390859085908490829085165afa938415610325578694610359575b5083865260018552348387205561021034600354611740565b600355600554680100000000000000008110156103465760018101806005558110156103335790848793927f036b6384b5eca791c62761152d0c79bb0604c104a5fb6f4eb0703f3154bb3db0015584835260028652600184842055600b5416803b1561032f57829060248551809581936335313c2160e11b835233878401525af18015610325576102d5575b857fd91527a40417d48f76ba016aaa9157e2ddaca6cb5b660432901659cb075058fc60608787878051923484523390840152820152a180f35b67ffffffffffffffff82969396116103125750845292817fd91527a40417d48f76ba016aaa9157e2ddaca6cb5b660432901659cb075058fc61029c565b634e487b7160e01b835260419052602482fd5b83513d88823e3d90fd5b8280fd5b634e487b7160e01b875260328352602487fd5b634e487b7160e01b875260418352602487fd5b9093508481813d8311610385575b610371818361171e565b81010312610381575192386101f7565b8580fd5b503d610367565b634e487b7160e01b845260218252602484fd5b6020606492519162461bcd60e51b8352820152601260248201527136bab9ba103232b837b9b4ba1032ba3432b960711b6044820152fd5b50903461032f57602036600319011261032f576001600160a01b038235818116939084900361049f57845491821692610410338514611889565b841561044d5750506001600160a01b031916821783557f8be0079c531659141344cd1fd0a4f28419497f9722a3daafe3b4186f6b6457e08380a380f35b906020608492519162461bcd60e51b8352820152602660248201527f4f776e61626c653a206e6577206f776e657220697320746865207a65726f206160448201526564647265737360d01b6064820152fd5b8480fd5b83346104d8576104d56104b5366115b6565b956104d060018060a09894989795971b038a54163314611889565b611d88565b80f35b80fd5b503461032f5760208060031936011261061e5781356001600160a01b03818116949185900361038157610512908654163314611889565b805163516b636d60e11b81526001848201528581602481885afa908115610614578691610597575b50511561055f575050506bffffffffffffffffffffffff60a01b600c541617600c5580f35b5162461bcd60e51b81529182015260146024820152731a5b9d985b1a5908185c9d0818dbdb9d1c9858dd60621b604482015260649150fd5b90503d8087833e6105a8818361171e565b81019083818303126106105780519067ffffffffffffffff821161060c570181601f820112156106105780516105dd816118d4565b926105ea8551948561171e565b81845285828401011161060c576106069185808501910161153b565b3861053a565b8780fd5b8680fd5b82513d88823e3d90fd5b8380fd5b5050346106f957816003193601126106f9578051908260085461064481611620565b808552916001918083169081156106d15750600114610686575b5050506106708261068294038361171e565b5191829160208352602083019061155e565b0390f35b94506008855260008051602061255a8339815191525b8286106106b957505050610670826020610682958201019461065e565b8054602087870181019190915290950194810161069c565b61068297508693506020925061067094915060ff191682840152151560051b8201019461065e565b5080fd5b5050346106f957816003193601126106f95760209060ff6006541690519015158152f35b5050346106f957816003193601126106f957602090600a549051908152f35b503461032f57602036600319011261032f57600b548251631dc82a7560e01b81528235928101839052906001600160a01b03906020908390602490829085165afa9182156107df57916107a4916107a99493602097926107b0575b50163014611825565b612289565b9051908152f35b6107d1919250873d81116107d8575b6107c9818361171e565b810190611806565b903861079b565b503d6107bf565b84513d87823e3d90fd5b5050346106f957816003193601126106f9578051908260075461080b81611620565b808552916001918083169081156106d15750600114610836575050506106708261068294038361171e565b94506007855260008051602061253a8339815191525b82861061086957505050610670826020610682958201019461065e565b8054602087870181019190915290950194810161084c565b5050346106f957816003193601126106f95760209060ff60065460101c1690519015158152f35b5050346106f957816003193601126106f957905490516001600160a01b039091168152602090f35b5050346106f957816003193601126106f957600c5490516001600160a01b039091168152602090f35b503461032f57602036600319011261032f573560055481101561032f576005602093527f036b6384b5eca791c62761152d0c79bb0604c104a5fb6f4eb0703f3154bb3db001549051908152f35b506020908160031936011261061e578035906109716801bc16d674ec80000061019b60035434611740565b60ff855460a01c1681811015610ab957600161098d91146117c1565b600b548451631dc82a7560e01b8152828101849052906001600160a01b039081168583602481845afa928315610aaf5760249387936109d5928b92610a975750163014611825565b865192838092634f558e7960e01b825287878301525afa908115610a8d578691610a60575b5015610a295750906001918452528120610a15348254611740565b9055610a2334600354611740565b60035580f35b835162461bcd60e51b815290810183905260116024820152701a5908191bd95cc81b9bdd08195e1a5cdd607a1b6044820152606490fd5b610a809150843d8611610a86575b610a78818361171e565b810190611871565b386109fa565b503d610a6e565b85513d88823e3d90fd5b6107d1919250853d87116107d8576107c9818361171e565b87513d8a823e3d90fd5b634e487b7160e01b865260218252602486fd5b5050346106f957816003193601126106f9576020906003549051908152f35b83346104d857806003193601126104d857805481906001600160a01b03811690610b16338314611889565b6001600160a01b03191682557f8be0079c531659141344cd1fd0a4f28419497f9722a3daafe3b4186f6b6457e08280a380f35b5091346104d85760203660031901126104d857506107a9602092356122fc565b5050346106f957816003193601126106f957600b5490516001600160a01b039091168152602090f35b5050346106f957816003193601126106f95780519082600954610bb481611620565b808552916001918083169081156106d15750600114610bdf575050506106708261068294038361171e565b94506009855260008051602061257a8339815191525b828610610c1257505050610670826020610682958201019461065e565b80546020878701810191909152909501948101610bf5565b503461032f57610c39366115b6565b93610c5460018060a09b999b9694961b038b54163314611889565b60065460101c60ff1615610cde57505050505092610c7591929336916118f0565b602081519101208151610c9281610c8b8161165a565b038261171e565b6020815191012003610ca95750505b6104d5611961565b906020606492519162461bcd60e51b8352820152600f60248201526e0e0eac496caf240dad2e6dac2e8c6d608b1b6044820152fd5b92955092955092610cee96611d88565b610ca1565b503461032f578160031936011261032f578035906024359160ff855460a01c1682811015610e5b576001610d2791146117c1565b600b5484516331a9108f60e11b8152808401839052602093916001600160a01b03919085908290602490829086165afa908115610aaf578891610e3e575b50163303610e0b5781865260018352838587205410610dd15750848093600182948394845252858220610d99828254612269565b9055610da781600354612269565b600355818115610dc8575b3390f115610dbe575080f35b51903d90823e3d90fd5b506108fc610db2565b845162461bcd60e51b815290810183905260146024820152731b9bdd08195b9bdd59da0819195c1bdcda5d195960621b6044820152606490fd5b845162461bcd60e51b8152908101839052600d60248201526c3737ba103a34329037bbb732b960991b6044820152606490fd5b610e559150853d87116107d8576107c9818361171e565b38610d65565b634e487b7160e01b865260218352602486fd5b503461032f578260031936011261032f5760209250549051908152f35b83346104d857806003193601126104d857610ca160018060a01b038254163314611889565b509190346106f95760208060031936011261032f5783359360018060a01b03918083600b5416855191828092631dc82a7560e01b82528a8783015260249485915afa9081156112715790610f0f918891611344575b5085163014611825565b60ff865460a01c168381101561133257600181146112f05760644711156112a0576003146112985783600d5416828651818101906f636f6e74726163742e6164647265737360801b82526a4672656e734f7261636c6560a81b6030820152601b8152610f7a816116ec565b519020838851809481936321f8a72160e01b8352898301525afa90811561127157858389938693859161127b575b50895163404df7b160e11b815230898201529485938492165af1908115611271578791611254575b50905b610fdc88612289565b9188885260028452868820610ff2848254611740565b9055610fff838654611740565b855585600d541690875185810190731c1c9bdd1bd8dbdb0b9999594b9c195c98d95b9d60621b825260148152611034816116ec565b5190209088519163bd02d0f560e01b83528783015285828581865afa91821561124a578a92611217575b50811515908161120e575b506110f1575b50508697839186600b999899541695895196879384926331a9108f60e11b84528301525afa80156110e75785948594859485936110c8575b5050839183156110be575b1690f115610dbe575080f35b6108fc92506110b2565b6110df929350803d106107d8576107c9818361171e565b9038806110a7565b86513d87823e3d90fd5b8488949293945181810190751c1c9bdd1bd8dbdb0b9999594b9c9958da5c1a595b9d60521b825260168152611125816116ec565b519020858a51809681936321f8a72160e01b83528b8301525afa9283156112045789936111dc575b5061115a82606492612276565b049160018311611183575b50976111768492899a999899612269565b929181995097969761106f565b6000198301999190838b116111ca5798808080809d819c9d8c839183156111c0575b1690f1156111b65790989796611165565b88513d89823e3d90fd5b6108fc92506111a5565b634e487b7160e01b8a5260118752848afd5b6064919350826111fb61115a92883d8a116107d8576107c9818361171e565b9492505061114d565b88513d8b823e3d90fd5b90501538611069565b9091508581813d8311611243575b61122f818361171e565b8101031261123f5751903861105e565b8980fd5b503d611225565b89513d8c823e3d90fd5b61126b9150833d8511610a8657610a78818361171e565b38610fd0565b86513d89823e3d90fd5b6112929150843d86116107d8576107c9818361171e565b38610fa8565b600190610fd3565b855162461bcd60e51b81528085018490526025818401527f6d7573742062652067726561746572207468616e203130302077656920746f20604482015264636c61696d60d81b6064820152608490fd5b855162461bcd60e51b8152808501849052601c818401527f757365207769746864726177207768656e206e6f74207374616b6564000000006044820152606490fd5b50634e487b7160e01b86526021835285fd5b61135b9150843d86116107d8576107c9818361171e565b38610f05565b5050346106f957816003193601126106f957600d5490516001600160a01b039091168152602090f35b503461032f57602036600319011261032f5760209282913581526001845220549051908152f35b503461032f57602036600319011261032f5760209282913581526002845220549051908152f35b50903461032f578260031936011261032f5760018060a01b0380600d541660208351818101906f636f6e74726163742e6164647265737360801b82526a4672656e734f7261636c6560a81b6030820152601b8152611435816116ec565b51902060248551809481936321f8a72160e01b8352898301525afa9081156114dc5785916114be575b5016330361147b57825460ff60a01b1916600360a01b1783558280f35b906020606492519162461bcd60e51b8352820152601860248201527f6d7573742062652063616c6c6564206279206f7261636c6500000000000000006044820152fd5b6114d6915060203d81116107d8576107c9818361171e565b3861145e565b83513d87823e3d90fd5b5050346106f957816003193601126106f9576106829061150461241d565b905191829160208352602083019061155e565b8490346106f957816003193601126106f95760209060ff60065460081c1615158152f35b60005b83811061154e5750506000910152565b818101518382015260200161153e565b906020916115778151809281855285808601910161153b565b601f01601f1916010190565b9181601f840112156115b15782359167ffffffffffffffff83116115b157602083818601950101116115b157565b600080fd5b9060806003198301126115b15767ffffffffffffffff6004358181116115b157836115e391600401611583565b939093926024358381116115b157826115fe91600401611583565b939093926044359182116115b15761161891600401611583565b909160643590565b90600182811c92168015611650575b602083101461163a57565b634e487b7160e01b600052602260045260246000fd5b91607f169161162f565b6007546000929161166a82611620565b808252916001908181169081156116cf575060011461168857505050565b91929350600760005260008051602061253a833981519152916000925b8484106116b757505060209250010190565b805460208585018101919091529093019281016116a5565b915050602093945060ff929192191683830152151560051b010190565b6040810190811067ffffffffffffffff82111761170857604052565b634e487b7160e01b600052604160045260246000fd5b90601f8019910116810190811067ffffffffffffffff82111761170857604052565b9190820180921161174d57565b634e487b7160e01b600052601160045260246000fd5b1561176a57565b60405162461bcd60e51b815260206004820152602960248201527f746f74616c206465706f736974732063616e6e6f74206265206d6f72652074686044820152680c2dc406664408ae8d60bb1b6064820152608490fd5b156117c857565b60405162461bcd60e51b81526020600482015260166024820152756e6f7420616363657074696e67206465706f7369747360501b6044820152606490fd5b908160209103126115b157516001600160a01b03811681036115b15790565b1561182c57565b60405162461bcd60e51b815260206004820152601960248201527f77726f6e67207374616b696e6720706f6f6c20666f72206964000000000000006044820152606490fd5b908160209103126115b1575180151581036115b15790565b1561189057565b606460405162461bcd60e51b815260206004820152602060248201527f4f776e61626c653a2063616c6c6572206973206e6f7420746865206f776e65726044820152fd5b67ffffffffffffffff811161170857601f01601f191660200190565b9291926118fc826118d4565b9161190a604051938461171e565b8294818452818301116115b1578281602093846000960137010152565b1561192e57565b60405162461bcd60e51b815260206004820152600b60248201526a77726f6e6720737461746560a81b6044820152606490fd5b6801bc16d674ec80000090814710611d52578160035403611d1757600080549260ff8460a01c169360049485811015611d04576119a16001809214611927565b60ff60065460101c1615611ccc5760018060a01b039384600d54166040958651602095868201937f65787465726e616c2e636f6e74726163742e616464726573730000000000000085526e11195c1bdcda5d10dbdb9d1c9858dd608a1b603984015260288352606083019067ffffffffffffffff9584831087841117611cb857828c52845190206321f8a72160e01b835260648501528890829060249082905afa928315611cae578693611c79575b505060ff60a01b1916600160a11b178455600a54911695863b1561061e5787516304512a2360e31b815260808b82015294849286929190611a936084850161165a565b60031985820381016024870152600854879492611aaf82611620565b918282528d8582169182600014611c5a575050600114611c11575b5050858403016044860152859260095491611ae483611620565b92838352878d8383169283600014611bf057505050600114611ba4575b5050508391829160648301520391895af18015611b9a57611b51575b5050507f72b356fd889b9abd3530accd2c9f4aecbce67d70757181f9f862ac91464ce19293945082519182523390820152a1565b8211611b8757507f72b356fd889b9abd3530accd2c9f4aecbce67d70757181f9f862ac91464ce192949550835284933880611b1d565b634e487b7160e01b815260418752602490fd5b86513d84823e3d90fd5b918b9394506009885260008051602061257a8339815191529288935b828510611bd557505050010190808480611b01565b80548486018701528b99508c98508d95909401938101611bc0565b60ff19168582015294151560051b9093019093019450839250819050611b01565b8c9295506008895260008051602061255a8339815191529189925b818410611c3f5750500101923880611aca565b80548385018601528c9a508d99508e94909301928501611c2c565b60ff19168382015292151560051b909101909101945038905080611aca565b611c9e92935060609089903d8b11611ca6575b611c96828561171e565b010190611806565b903880611a50565b3d9150611c8c565b8a513d88823e3d90fd5b50634e487b7160e01b875260418d52602487fd5b60405162461bcd60e51b815260208188015260116024820152701d985b1a59185d1bdc881b9bdd081cd95d607a1b6044820152606490fd5b634e487b7160e01b845260218652602484fd5b60405162461bcd60e51b81526020600482015260136024820152726e6f7420656e6f756768206465706f7369747360681b6044820152606490fd5b60405162461bcd60e51b815260206004820152600e60248201526d0dcdee840cadcdeeaced040cae8d60931b6044820152606490fd5b929094939194600160f81b30019081301161174d57604051602092838201908152838252611db5826116ec565b611dc036868b6118f0565b84815191012091519020036122245760065460ff81166121bc575b5060009260ff845460a01c169760048910156121a857611dfe6001809a14611927565b67ffffffffffffffff928381116121945780611e1b600754611620565b98601f998a8111612139575b5087908a83116001146120c35788926120b8575b5050600019600383901b1c1916908a1b176007555b8282116120a4578190611e64600854611620565b888111612049575b508590888311600114611fdc578692611fd1575b5050600019600383901b1c191690881b176008555b8511611fbd57611ea6600954611620565b848111611f6d575b5081938511600114611efb575091839491849394611ef0575b50501b916000199060031b1c1916176009555b600a556201000062ff0000196006541617600655565b013592503880611ec7565b6009825260008051602061257a83398151915293918591601f19831691905b88838310611f535750505010611f39575b505050811b01600955611eda565b0135600019600384901b60f8161c19169055388080611f2b565b868601358855909601959384019387935090810190611f1a565b6009835260008051602061257a8339815191528580880160051c820192848910611fb4575b0160051c019087905b828110611fa9575050611eae565b848155018790611f9b565b92508192611f92565b634e487b7160e01b82526041600452602482fd5b013590503880611e80565b600887528a935060008051602061255a83398151915291601f198416885b888282106120335750508411612019575b505050811b01600855611e95565b0135600019600384901b60f8161c1916905538808061200b565b8385013586558e97909501949283019201611ffa565b9091506008865260008051602061255a8339815191528880850160051c82019287861061209b575b918c91869594930160051c01915b82811061208d575050611e6c565b8881558594508c910161207f565b92508192612071565b634e487b7160e01b85526041600452602485fd5b013590503880611e3b565b600789528c935060008051602061253a83398151915291601f1984168a5b8a82821061211a5750508411612100575b505050811b01600755611e50565b0135600019600384901b60f8161c191690553880806120f2565b91929596849587849396013581550195019201908e95949392916120e1565b9091506007885260008051602061253a8339815191528a80850160051c82019289861061218b575b918e91869594930160051c01915b82811061217d575050611e27565b8a81558594508e910161216f565b92508192612161565b634e487b7160e01b86526041600452602486fd5b634e487b7160e01b85526021600452602485fd5b60009081549060ff8260a01c16600481101561221057906121df60ff9215611927565b60101c166121fc5760ff60a01b1916600160a01b17905538611ddb565b634e487b7160e01b82526001600452602482fd5b634e487b7160e01b84526021600452602484fd5b60405162461bcd60e51b815260048101839052601e60248201527f7769746864726177616c2063726564656e7469616c206d69736d6174636800006044820152606490fd5b9190820391821161174d57565b8181029291811591840414171561174d57565b47156122f65760009081526001602052604081205460026020526122bf6040832054916122b94760045490611740565b90612276565b6003549081156122e2570480156122dd576122da9250612269565b90565b505090565b634e487b7160e01b84526012600452602484fd5b50600090565b600060ff815460a01c16916004831015612409576001830361231e5750905090565b61232790612289565b9160018060a01b03600d5416602060405181810190731c1c9bdd1bd8dbdb0b9999594b9c195c98d95b9d60621b825260148152612363816116ec565b51902060246040518094819363bd02d0f560e01b835260048301525afa9283156123fd5780936123c7575b505081151590816123bb575b506123a3575090565b9060646123b46122da934790612276565b0490612269565b6003915014153861239a565b909192506020823d82116123f5575b816123e36020938361171e565b810103126104d857505190388061238e565b3d91506123d6565b604051903d90823e3d90fd5b634e487b7160e01b82526021600452602482fd5b60ff60005460a01c1660048110156125235780156124e957600281146124c657600181146124975760031461247557604051612458816116ec565b600d81526c7374617465206661696c75726560981b602082015290565b604051612481816116ec565b6006815265195e1a5d195960d21b602082015290565b506040516124a4816116ec565b6012815271616363657074696e67206465706f7369747360701b602082015290565b506040516124d3816116ec565b60068152651cdd185ad95960d21b602082015290565b506040516124f6816116ec565b601781527f6177616974696e672076616c696461746f7220696e666f000000000000000000602082015290565b634e487b7160e01b600052602160045260246000fdfea66cc928b5edb82af9bd49922954155ab7b0942694bea4ce44661d9a8736c688f3f7a9fe364faab93b216da50a3214154f22a0a2b415b23a84c8169e8b636ee36e1540171b6c0c960b71a7020d9f60077f6af931a8bbf590da0223dacf75c7afa26469706673582212202ba1cd3efe2d562465232ccddd384c2bda8a3249b4cc0909b429917b5a9a48a364736f6c63430008110033",
    "linkReferences": {}
  },
  "methodIdentifiers": {
    "addToDeposit(uint256)": "8620891c",
    "artForPool()": "8ae578fd",
    "claim(uint256)": "379607f5",
    "depositForId(uint256)": "2daad61d",
    "depositToPool()": "f9faa104",
    "deposit_data_root()": "e2d9ae3e",
    "exitPool()": "29917954",
    "frenPastClaim(uint256)": "2cf2cd48",
    "frensPoolShare()": "591167c7",
    "frensStorage()": "30dbf887",
    "getDistributableShare(uint256)": "678e300a",
    "getShare(uint256)": "cfb5a5f8",
    "getState()": "1865c57d",
    "idsInPool(uint256)": "888e9cf8",
    "owner()": "8da5cb5b",
    "pubKey()": "ac2a5dfd",
    "renounceOwnership()": "715018a6",
    "setArt(address)": "e6b1a3ae",
    "setPubKey(bytes,bytes,bytes,bytes32)": "e920eec0",
    "signature()": "51ff4847",
    "stake()": "3a4b66f1",
    "stake(bytes,bytes,bytes,bytes32)": "4b2b4e36",
    "totalClaims()": "41c61383",
    "totalDeposits()": "7d882097",
    "transferLocked()": "12686aae",
    "transferOwnership(address)": "f2fde38b",
    "validatorLocked()": "e3f05d83",
    "validatorSet()": "9426e226",
    "withdraw(uint256,uint256)": "441a3e70",
    "withdrawal_credentials()": "e4a50276"
  },
  "id": 6
}