{
  "abi": [
    {
      "inputs": [
        {
          "internalType": "address",
          "name": "owner_",
          "type": "address"
        },
        {
          "internalType": "bool",
          "name": "validatorLocked_",
          "type": "bool"
        },
        {
          "internalType": "contract IFrensStorage",
          "name": "frensStorage_",
          "type": "address"
        }
      ],
      "stateMutability": "nonpayable",
      "type": "constructor"
    },
    {
      "anonymous": false,
      "inputs": [
        {
          "indexed": false,
          "internalType": "uint256",
          "name": "amount",
          "type": "uint256"
        },
        {
          "indexed": false,
          "internalType": "address",
          "name": "depositer",
          "type": "address"
        },
        {
          "indexed": false,
          "internalType": "uint256",
          "name": "id",
          "type": "uint256"
        }
      ],
      "name": "DepositToPool",
      "type": "event"
    },
    {
      "anonymous": false,
      "inputs": [
        {
          "indexed": true,
          "internalType": "address",
          "name": "previousOwner",
          "type": "address"
        },
        {
          "indexed": true,
          "internalType": "address",
          "name": "newOwner",
          "type": "address"
        }
      ],
      "name": "OwnershipTransferred",
      "type": "event"
    },
    {
      "anonymous": false,
      "inputs": [
        {
          "indexed": false,
          "internalType": "address",
          "name": "depositContractAddress",
          "type": "address"
        },
        {
          "indexed": false,
          "internalType": "address",
          "name": "caller",
          "type": "address"
        }
      ],
      "name": "Stake",
      "type": "event"
    },
    {
      "stateMutability": "payable",
      "type": "fallback"
    },
    {
      "inputs": [
        {
          "internalType": "uint256",
          "name": "_id",
          "type": "uint256"
        }
      ],
      "name": "addToDeposit",
      "outputs": [],
      "stateMutability": "payable",
      "type": "function"
    },
    {
      "inputs": [],
      "name": "artForPool",
      "outputs": [
        {
          "internalType": "contract IFrensArt",
          "name": "",
          "type": "address"
        }
      ],
      "stateMutability": "view",
      "type": "function"
    },
    {
      "inputs": [
        {
          "internalType": "uint256",
          "name": "_id",
          "type": "uint256"
        }
      ],
      "name": "claim",
      "outputs": [],
      "stateMutability": "nonpayable",
      "type": "function"
    },
    {
      "inputs": [
        {
          "internalType": "uint256",
          "name": "",
          "type": "uint256"
        }
      ],
      "name": "depositForId",
      "outputs": [
        {
          "internalType": "uint256",
          "name": "",
          "type": "uint256"
        }
      ],
      "stateMutability": "view",
      "type": "function"
    },
    {
      "inputs": [],
      "name": "depositToPool",
      "outputs": [],
      "stateMutability": "payable",
      "type": "function"
    },
    {
      "inputs": [],
      "name": "deposit_data_root",
      "outputs": [
        {
          "internalType": "bytes32",
          "name": "",
          "type": "bytes32"
        }
      ],
      "stateMutability": "view",
      "type": "function"
    },
    {
      "inputs": [],
      "name": "exitPool",
      "outputs": [],
      "stateMutability": "nonpayable",
      "type": "function"
    },
    {
      "inputs": [
        {
          "internalType": "uint256",
          "name": "",
          "type": "uint256"
        }
      ],
      "name": "frenPastClaim",
      "outputs": [
        {
          "internalType": "uint256",
          "name": "",
          "type": "uint256"
        }
      ],
      "stateMutability": "view",
      "type": "function"
    },
    {
      "inputs": [],
      "name": "frensPoolShare",
      "outputs": [
        {
          "internalType": "contract IFrensPoolShare",
          "name": "",
          "type": "address"
        }
      ],
      "stateMutability": "view",
      "type": "function"
    },
    {
      "inputs": [],
      "name": "frensStorage",
      "outputs": [
        {
          "internalType": "contract IFrensStorage",
          "name": "",
          "type": "address"
        }
      ],
      "stateMutability": "view",
      "type": "function"
    },
    {
      "inputs": [
        {
          "internalType": "uint256",
          "name": "_id",
          "type": "uint256"
        }
      ],
      "name": "getDistributableShare",
      "outputs": [
        {
          "internalType": "uint256",
          "name": "",
          "type": "uint256"
        }
      ],
      "stateMutability": "view",
      "type": "function"
    },
    {
      "inputs": [],
      "name": "getIdsInThisPool",
      "outputs": [
        {
          "internalType": "uint256[]",
          "name": "",
          "type": "uint256[]"
        }
      ],
      "stateMutability": "view",
      "type": "function"
    },
    {
      "inputs": [
        {
          "internalType": "uint256",
          "name": "_id",
          "type": "uint256"
        }
      ],
      "name": "getShare",
      "outputs": [
        {
          "internalType": "uint256",
          "name": "",
          "type": "uint256"
        }
      ],
      "stateMutability": "view",
      "type": "function"
    },
    {
      "inputs": [],
      "name": "getState",
      "outputs": [
        {
          "internalType": "string",
          "name": "",
          "type": "string"
        }
      ],
      "stateMutability": "view",
      "type": "function"
    },
    {
      "inputs": [
        {
          "internalType": "uint256",
          "name": "",
          "type": "uint256"
        }
      ],
      "name": "idsInPool",
      "outputs": [
        {
          "internalType": "uint256",
          "name": "",
          "type": "uint256"
        }
      ],
      "stateMutability": "view",
      "type": "function"
    },
    {
      "inputs": [
        {
          "internalType": "uint256",
          "name": "",
          "type": "uint256"
        }
      ],
      "name": "locked",
      "outputs": [
        {
          "internalType": "bool",
          "name": "",
          "type": "bool"
        }
      ],
      "stateMutability": "view",
      "type": "function"
    },
    {
      "inputs": [],
      "name": "owner",
      "outputs": [
        {
          "internalType": "address",
          "name": "",
          "type": "address"
        }
      ],
      "stateMutability": "view",
      "type": "function"
    },
    {
      "inputs": [],
      "name": "pubKey",
      "outputs": [
        {
          "internalType": "bytes",
          "name": "",
          "type": "bytes"
        }
      ],
      "stateMutability": "view",
      "type": "function"
    },
    {
      "inputs": [],
      "name": "renounceOwnership",
      "outputs": [],
      "stateMutability": "nonpayable",
      "type": "function"
    },
    {
      "inputs": [
        {
          "internalType": "contract IFrensArt",
          "name": "newArtContract",
          "type": "address"
        }
      ],
      "name": "setArt",
      "outputs": [],
      "stateMutability": "nonpayable",
      "type": "function"
    },
    {
      "inputs": [
        {
          "internalType": "bytes",
          "name": "_pubKey",
          "type": "bytes"
        },
        {
          "internalType": "bytes",
          "name": "_withdrawal_credentials",
          "type": "bytes"
        },
        {
          "internalType": "bytes",
          "name": "_signature",
          "type": "bytes"
        },
        {
          "internalType": "bytes32",
          "name": "_deposit_data_root",
          "type": "bytes32"
        }
      ],
      "name": "setPubKey",
      "outputs": [],
      "stateMutability": "nonpayable",
      "type": "function"
    },
    {
      "inputs": [],
      "name": "signature",
      "outputs": [
        {
          "internalType": "bytes",
          "name": "",
          "type": "bytes"
        }
      ],
      "stateMutability": "view",
      "type": "function"
    },
    {
      "inputs": [],
      "name": "stake",
      "outputs": [],
      "stateMutability": "nonpayable",
      "type": "function"
    },
    {
      "inputs": [
        {
          "internalType": "bytes",
          "name": "_pubKey",
          "type": "bytes"
        },
        {
          "internalType": "bytes",
          "name": "_withdrawal_credentials",
          "type": "bytes"
        },
        {
          "internalType": "bytes",
          "name": "_signature",
          "type": "bytes"
        },
        {
          "internalType": "bytes32",
          "name": "_deposit_data_root",
          "type": "bytes32"
        }
      ],
      "name": "stake",
      "outputs": [],
      "stateMutability": "nonpayable",
      "type": "function"
    },
    {
      "inputs": [],
      "name": "totalClaims",
      "outputs": [
        {
          "internalType": "uint256",
          "name": "",
          "type": "uint256"
        }
      ],
      "stateMutability": "view",
      "type": "function"
    },
    {
      "inputs": [],
      "name": "totalDeposits",
      "outputs": [
        {
          "internalType": "uint256",
          "name": "",
          "type": "uint256"
        }
      ],
      "stateMutability": "view",
      "type": "function"
    },
    {
      "inputs": [],
      "name": "transferLocked",
      "outputs": [
        {
          "internalType": "bool",
          "name": "",
          "type": "bool"
        }
      ],
      "stateMutability": "view",
      "type": "function"
    },
    {
      "inputs": [
        {
          "internalType": "address",
          "name": "newOwner",
          "type": "address"
        }
      ],
      "name": "transferOwnership",
      "outputs": [],
      "stateMutability": "nonpayable",
      "type": "function"
    },
    {
      "inputs": [],
      "name": "validatorLocked",
      "outputs": [
        {
          "internalType": "bool",
          "name": "",
          "type": "bool"
        }
      ],
      "stateMutability": "view",
      "type": "function"
    },
    {
      "inputs": [],
      "name": "validatorSet",
      "outputs": [
        {
          "internalType": "bool",
          "name": "",
          "type": "bool"
        }
      ],
      "stateMutability": "view",
      "type": "function"
    },
    {
      "inputs": [
        {
          "internalType": "uint256",
          "name": "_id",
          "type": "uint256"
        },
        {
          "internalType": "uint256",
          "name": "_amount",
          "type": "uint256"
        }
      ],
      "name": "withdraw",
      "outputs": [],
      "stateMutability": "nonpayable",
      "type": "function"
    },
    {
      "inputs": [],
      "name": "withdrawal_credentials",
      "outputs": [
        {
          "internalType": "bytes",
          "name": "",
          "type": "bytes"
        }
      ],
      "stateMutability": "view",
      "type": "function"
    },
    {
      "stateMutability": "payable",
      "type": "receive"
    }
  ],
  "bytecode": {
    "object": "0x60806040818152346200026057606082620029de803803809162000024828562000297565b83398101031262000260576200003a82620002bb565b602092838101519081151580920362000260578301516001600160a01b03808216959186900362000260576200007033620002d0565b60018060a01b0319918683600e541617600e5585518181016f636f6e74726163742e6164647265737360801b9182825267119c995b9cd05c9d60c21b603082015260188152620000c08162000265565b5190209087516321f8a72160e01b92838252600482015283816024818d5afa90811562000255578493929186916000916200020c575b5090602492911687600d541617600d5589518481019182526d4672656e73506f6f6c536861726560901b6030820152601e8152620001348162000265565b5190209189519a8b938492835260048301525afa9081156200020157600091620001bd575b50620001969596501690600c541617600c5560ff8019600754169116809117600755600014620001a4576000805460ff60a01b19169055620002d0565b516126c69081620003188239f35b6000805460ff60a01b1916600160a01b179055620002d0565b87813d8311620001f9575b620001d4818362000297565b81010312620001f65750620001ee620001969596620002bb565b869562000159565b80fd5b503d620001c8565b86513d6000823e3d90fd5b85819495969293503d83116200024d575b62000229818362000297565b81010312620001f657508392918562000244602493620002bb565b909192620000f6565b503d6200021d565b89513d6000823e3d90fd5b600080fd5b604081019081106001600160401b038211176200028157604052565b634e487b7160e01b600052604160045260246000fd5b601f909101601f19168101906001600160401b038211908210176200028157604052565b51906001600160a01b03821682036200026057565b600080546001600160a01b039283166001600160a01b03198216811783559216907f8be0079c531659141344cd1fd0a4f28419497f9722a3daafe3b4186f6b6457e09080a356fe6080604081815260048036101561001e575b505050361561001c57005b005b600092833560e01c90816312686aae14611604575080631865c57d146115d357806329917954146114c55780632cf2cd481461149e5780632daad61d1461147757806330dbf8871461144e578063379607f514610f9b5780633a4b66f114610f8257806341c6138314610f63578063441a3e7014610de057806345b58fe414610d2d5780634b2b4e3614610c7057806351ff484714610bd8578063591167c714610baf578063678e300a14610b8f578063715018a614610b355780637d88209714610b185780638620891c1461098e578063888e9cf8146109415780638ae578fd146109185780638da5cb5b146108f05780639426e226146108c9578063ac2a5dfd14610831578063b45a3c0e14610805578063cfb5a5f81461075c578063e2d9ae3e1461073d578063e3f05d8314610719578063e4a502761461063e578063e6b1a3ae146104fe578063e920eec0146104d2578063f2fde38b146104085763f9faa1040361001157826003193601126103615734156103d15760ff835460a01c16818110156103be5760016101b4911461182d565b6101d36801bc16d674ec8000006101cc835434611872565b1115611895565b600c5482516318160ddd60e01b8152602093909290916001600160a01b0390859085908490829085165afa93841561035757869461038b575b50838652600185523483872055610224348354611872565b8255600654680100000000000000008110156103785760018101806006558110156103655790848793927ff652222313e28459528d920b65115c16c04f3efc82aaedc97be59f3f377c0d3f01558483526002865260018484205560ff60075460081c16600387528484209060ff801983541691151516179055600c5416803b1561036157829060248551809581936335313c2160e11b835233878401525af1801561035757610307575b857fd91527a40417d48f76ba016aaa9157e2ddaca6cb5b660432901659cb075058fc60608787878051923484523390840152820152a180f35b67ffffffffffffffff82969396116103445750845292817fd91527a40417d48f76ba016aaa9157e2ddaca6cb5b660432901659cb075058fc6102ce565b634e487b7160e01b835260419052602482fd5b83513d88823e3d90fd5b8280fd5b634e487b7160e01b875260328352602487fd5b634e487b7160e01b875260418352602487fd5b9093508481813d83116103b7575b6103a3818361180b565b810103126103b35751923861020c565b8580fd5b503d610399565b634e487b7160e01b845260218252602484fd5b6020606492519162461bcd60e51b8352820152601260248201527136bab9ba103232b837b9b4ba1032ba3432b960711b6044820152fd5b509034610361576020366003190112610361576001600160a01b038235818116939192908490036104ce5761043b6125d8565b831561047c57505082546001600160a01b0319811683178455167f8be0079c531659141344cd1fd0a4f28419497f9722a3daafe3b4186f6b6457e08380a380f35b906020608492519162461bcd60e51b8352820152602660248201527f4f776e61626c653a206e6577206f776e657220697320746865207a65726f206160448201526564647265737360d01b6064820152fd5b8480fd5b83346104fb576104f86104e4366116a3565b956104f39591959492946125d8565b611e27565b80f35b80fd5b50346103615760208060031936011261063a5781356001600160a01b03811693908490036104ce5761052e6125d8565b805163516b636d60e11b81526001848201528581602481885afa9081156106305786916105b3575b50511561057b575050506bffffffffffffffffffffffff60a01b600d541617600d5580f35b5162461bcd60e51b81529182015260146024820152731a5b9d985b1a5908185c9d0818dbdb9d1c9858dd60621b604482015260649150fd5b90503d8087833e6105c4818361180b565b810190838183031261062c5780519067ffffffffffffffff8211610628570181601f8201121561062c5780516105f981611976565b926106068551948561180b565b8184528582840101116106285761062291858085019101611628565b38610556565b8780fd5b8680fd5b82513d88823e3d90fd5b8380fd5b505034610715578160031936011261071557805190826009546106608161170d565b808552916001918083169081156106ed57506001146106a2575b50505061068c8261069e94038361180b565b5191829160208352602083019061164b565b0390f35b9450600985526000805160206126718339815191525b8286106106d55750505061068c82602061069e958201019461067a565b805460208787018101919091529095019481016106b8565b61069e97508693506020925061068c94915060ff191682840152151560051b8201019461067a565b5080fd5b50503461071557816003193601126107155760209060ff6007541690519015158152f35b505034610715578160031936011261071557602090600b549051908152f35b503461036157602036600319011261036157600c548251631dc82a7560e01b81528235928101839052906001600160a01b03906020908390602490829085165afa9182156107fb57916107c0916107c59493602097926107cc575b50163014611912565b612328565b9051908152f35b6107ed919250873d81116107f4575b6107e5818361180b565b8101906118f3565b90386107b7565b503d6107db565b84513d87823e3d90fd5b5034610361576020366003190112610361578160209360ff923581526003855220541690519015158152f35b505034610715578160031936011261071557805190826008546108538161170d565b808552916001918083169081156106ed575060011461087e5750505061068c8261069e94038361180b565b9450600885526000805160206126518339815191525b8286106108b15750505061068c82602061069e958201019461067a565b80546020878701810191909152909501948101610894565b50503461071557816003193601126107155760209060ff60075460101c1690519015158152f35b505034610715578160031936011261071557905490516001600160a01b039091168152602090f35b505034610715578160031936011261071557600d5490516001600160a01b039091168152602090f35b50346103615760203660031901126103615735600654811015610361576006602093527ff652222313e28459528d920b65115c16c04f3efc82aaedc97be59f3f377c0d3f01549051908152f35b509060208060031936011261063a57823560ff855460a01c1684811015610b055760016109dc91146109bf8161182d565b6109d76801bc16d674ec8000006101cc885434611872565b61182d565b600c548351631dc82a7560e01b81528581018390526001600160a01b03918216918482602481865afa918215610afb57859260249492610a25928b92610ae35750163014611912565b855192838092634f558e7960e01b8252868a8301525afa908115610ad9578691610aac575b5015610a7657906001918552528220610a64348254611872565b9055610a71348254611872565b905580f35b50905162461bcd60e51b81529182015260116024820152701a5908191bd95cc81b9bdd08195e1a5cdd607a1b6044820152606490fd5b610acc9150833d8511610ad2575b610ac4818361180b565b81019061195e565b38610a4a565b503d610aba565b84513d88823e3d90fd5b6107ed919250853d87116107f4576107e5818361180b565b86513d8a823e3d90fd5b634e487b7160e01b865260218552602486fd5b503461036157826003193601126103615760209250549051908152f35b83346104fb57806003193601126104fb57610b4e6125d8565b80546001600160a01b03198116825581906001600160a01b03167f8be0079c531659141344cd1fd0a4f28419497f9722a3daafe3b4186f6b6457e08280a380f35b5091346104fb5760203660031901126104fb57506107c56020923561239b565b505034610715578160031936011261071557600c5490516001600160a01b039091168152602090f35b50503461071557816003193601126107155780519082600a54610bfa8161170d565b808552916001918083169081156106ed5750600114610c255750505061068c8261069e94038361180b565b9450600a85526000805160206126318339815191525b828610610c585750505061068c82602061069e958201019461067a565b80546020878701810191909152909501948101610c3b565b503461036157610c7f366116a3565b93610c8e9896989391936125d8565b60075460101c60ff1615610d1857505050505092610caf9192933691611992565b602081519101208151610ccc81610cc581611747565b038261180b565b6020815191012003610ce35750505b6104f8611a03565b906020606492519162461bcd60e51b8352820152600f60248201526e0e0eac496caf240dad2e6dac2e8c6d608b1b6044820152fd5b92955092955092610d2896611e27565b610cdb565b8284346104fb57806003193601126104fb579080519182906006549182855260208095018093600684527ff652222313e28459528d920b65115c16c04f3efc82aaedc97be59f3f377c0d3f90845b818110610dcc5750505081610d9191038261180b565b83519485948186019282875251809352850193925b828110610db557505050500390f35b835185528695509381019392810192600101610da6565b825484529288019260019283019201610d7b565b50346103615781600319360112610361578035906024359160ff855460a01c1682811015610f50576001610e14911461182d565b600c5484516331a9108f60e11b8152838101839052602092916001600160a01b03919084908290602490829086165afa908115610f46578891610f29575b50163303610ef65780865260018252838587205410610ebc5785938493600185948594855252868320610e86838254612308565b9055610e93828254612308565b9055818115610eb3575b3390f115610ea9575080f35b51903d90823e3d90fd5b506108fc610e9d565b845162461bcd60e51b815280840183905260146024820152731b9bdd08195b9bdd59da0819195c1bdcda5d195960621b6044820152606490fd5b845162461bcd60e51b8152808401839052600d60248201526c3737ba103a34329037bbb732b960991b6044820152606490fd5b610f409150843d86116107f4576107e5818361180b565b38610e52565b87513d8a823e3d90fd5b634e487b7160e01b865260218352602486fd5b5050346107155781600319360112610715576020906005549051908152f35b83346104fb57806003193601126104fb57610cdb6125d8565b50919034610715576020806003193601126103615783359360018060a01b03918083600c5416855191828092631dc82a7560e01b82528a8783015260249485915afa90811561135e5790610ffa918891611431575b5085163014611912565b60ff865460a01c168381101561141f57600181146113dd57606447111561138d576003146113855783600e5416828651818101906f636f6e74726163742e6164647265737360801b82526a4672656e734f7261636c6560a81b6030820152601b8152611065816117d9565b519020838851809481936321f8a72160e01b8352898301525afa90811561135e578583899386938591611368575b50895163404df7b160e11b815230898201529485938492165af190811561135e578791611341575b50905b6110c788612328565b91888852600284528688206110dd848254611872565b90556110eb83600554611872565b60055585600e541690875185810190731c1c9bdd1bd8dbdb0b9999594b9c195c98d95b9d60621b825260148152611121816117d9565b5190209088519163bd02d0f560e01b83528783015285828581865afa918215611337578a92611304575b5081151590816112fb575b506111de575b50508697839186600c999899541695895196879384926331a9108f60e11b84528301525afa80156111d45785948594859485936111b5575b5050839183156111ab575b1690f115610ea9575080f35b6108fc925061119f565b6111cc929350803d106107f4576107e5818361180b565b903880611194565b86513d87823e3d90fd5b8488949293945181810190751c1c9bdd1bd8dbdb0b9999594b9c9958da5c1a595b9d60521b825260168152611212816117d9565b519020858a51809681936321f8a72160e01b83528b8301525afa9283156112f15789936112c9575b5061124782606492612315565b049160018311611270575b50976112638492899a999899612308565b929181995097969761115c565b6000198301999190838b116112b75798808080809d819c9d8c839183156112ad575b1690f1156112a35790989796611252565b88513d89823e3d90fd5b6108fc9250611292565b634e487b7160e01b8a5260118752848afd5b6064919350826112e861124792883d8a116107f4576107e5818361180b565b9492505061123a565b88513d8b823e3d90fd5b90501538611156565b9091508581813d8311611330575b61131c818361180b565b8101031261132c5751903861114b565b8980fd5b503d611312565b89513d8c823e3d90fd5b6113589150833d8511610ad257610ac4818361180b565b386110bb565b86513d89823e3d90fd5b61137f9150843d86116107f4576107e5818361180b565b38611093565b6001906110be565b855162461bcd60e51b81528085018490526025818401527f6d7573742062652067726561746572207468616e203130302077656920746f20604482015264636c61696d60d81b6064820152608490fd5b855162461bcd60e51b8152808501849052601c818401527f757365207769746864726177207768656e206e6f74207374616b6564000000006044820152606490fd5b50634e487b7160e01b86526021835285fd5b6114489150843d86116107f4576107e5818361180b565b38610ff0565b505034610715578160031936011261071557600e5490516001600160a01b039091168152602090f35b50346103615760203660031901126103615760209282913581526001845220549051908152f35b50346103615760203660031901126103615760209282913581526002845220549051908152f35b50903461036157826003193601126103615760018060a01b0380600e541660208351818101906f636f6e74726163742e6164647265737360801b82526a4672656e734f7261636c6560a81b6030820152601b8152611522816117d9565b51902060248551809481936321f8a72160e01b8352898301525afa9081156115c95785916115ab575b5016330361156857825460ff60a01b1916600360a01b1783558280f35b906020606492519162461bcd60e51b8352820152601860248201527f6d7573742062652063616c6c6564206279206f7261636c6500000000000000006044820152fd5b6115c3915060203d81116107f4576107e5818361180b565b3861154b565b83513d87823e3d90fd5b50503461071557816003193601126107155761069e906115f16124bc565b905191829160208352602083019061164b565b84903461071557816003193601126107155760209060ff60075460081c1615158152f35b60005b83811061163b5750506000910152565b818101518382015260200161162b565b9060209161166481518092818552858086019101611628565b601f01601f1916010190565b9181601f8401121561169e5782359167ffffffffffffffff831161169e576020838186019501011161169e57565b600080fd5b90608060031983011261169e5767ffffffffffffffff60043581811161169e57836116d091600401611670565b9390939260243583811161169e57826116eb91600401611670565b9390939260443591821161169e5761170591600401611670565b909160643590565b90600182811c9216801561173d575b602083101461172757565b634e487b7160e01b600052602260045260246000fd5b91607f169161171c565b600854600092916117578261170d565b808252916001908181169081156117bc575060011461177557505050565b919293506008600052600080516020612651833981519152916000925b8484106117a457505060209250010190565b80546020858501810191909152909301928101611792565b915050602093945060ff929192191683830152151560051b010190565b6040810190811067ffffffffffffffff8211176117f557604052565b634e487b7160e01b600052604160045260246000fd5b90601f8019910116810190811067ffffffffffffffff8211176117f557604052565b1561183457565b60405162461bcd60e51b81526020600482015260166024820152756e6f7420616363657074696e67206465706f7369747360501b6044820152606490fd5b9190820180921161187f57565b634e487b7160e01b600052601160045260246000fd5b1561189c57565b60405162461bcd60e51b815260206004820152602960248201527f746f74616c206465706f736974732063616e6e6f74206265206d6f72652074686044820152680c2dc406664408ae8d60bb1b6064820152608490fd5b9081602091031261169e57516001600160a01b038116810361169e5790565b1561191957565b60405162461bcd60e51b815260206004820152601960248201527f77726f6e67207374616b696e6720706f6f6c20666f72206964000000000000006044820152606490fd5b9081602091031261169e5751801515810361169e5790565b67ffffffffffffffff81116117f557601f01601f191660200190565b92919261199e82611976565b916119ac604051938461180b565b82948184528183011161169e578281602093846000960137010152565b156119d057565b60405162461bcd60e51b815260206004820152600b60248201526a77726f6e6720737461746560a81b6044820152606490fd5b6801bc16d674ec80000090814710611df15760049180835403611db757600090815460ff8160a01c1685811015611da457611a4160018092146119c9565b60ff60075460101c1615611d6c5760018060a01b039384600e54166040958651602095868201937f65787465726e616c2e636f6e74726163742e616464726573730000000000000085526e11195c1bdcda5d10dbdb9d1c9858dd608a1b603984015260288352606083019067ffffffffffffffff9584831087841117611d5857828c52845190206321f8a72160e01b835260648501528890829060249082905afa928315611d4e578693611d19575b505060ff60a01b1916600160a11b178455600b54911695863b1561063a5787516304512a2360e31b815260808b82015294849286929190611b3360848501611747565b60031985820381016024870152600954879492611b4f8261170d565b918282528d8582169182600014611cfa575050600114611cb1575b50508584030160448601528592600a5491611b848361170d565b92838352878d8383169283600014611c9057505050600114611c44575b5050508391829160648301520391895af18015611c3a57611bf1575b5050507f72b356fd889b9abd3530accd2c9f4aecbce67d70757181f9f862ac91464ce19293945082519182523390820152a1565b8211611c2757507f72b356fd889b9abd3530accd2c9f4aecbce67d70757181f9f862ac91464ce192949550835284933880611bbd565b634e487b7160e01b815260418752602490fd5b86513d84823e3d90fd5b918b939450600a88526000805160206126318339815191529288935b828510611c7557505050010190808480611ba1565b80548486018701528b99508c98508d95909401938101611c60565b60ff19168582015294151560051b9093019093019450839250819050611ba1565b8c929550600989526000805160206126718339815191529189925b818410611cdf5750500101923880611b6a565b80548385018601528c9a508d99508e94909301928501611ccc565b60ff19168382015292151560051b909101909101945038905080611b6a565b611d3e92935060609089903d8b11611d46575b611d36828561180b565b0101906118f3565b903880611af0565b3d9150611d2c565b8a513d88823e3d90fd5b50634e487b7160e01b875260418d52602487fd5b60405162461bcd60e51b815260208188015260116024820152701d985b1a59185d1bdc881b9bdd081cd95d607a1b6044820152606490fd5b634e487b7160e01b845260218652602484fd5b60405162461bcd60e51b815260208185015260136024820152726e6f7420656e6f756768206465706f7369747360681b6044820152606490fd5b60405162461bcd60e51b815260206004820152600e60248201526d0dcdee840cadcdeeaced040cae8d60931b6044820152606490fd5b929094939194600160f81b30019081301161187f57604051602092838201908152838252611e54826117d9565b611e5f36868b611992565b84815191012091519020036122c35760075460ff811661225b575b5060009260ff845460a01c1697600489101561224757611e9d6001809a146119c9565b67ffffffffffffffff928381116122335780611eba60085461170d565b98601f998a81116121d8575b5087908a8311600114612162578892612157575b5050600019600383901b1c1916908a1b176008555b828211612143578190611f0360095461170d565b8881116120e8575b50859088831160011461207b578692612070575b5050600019600383901b1c191690881b176009555b851161205c57611f45600a5461170d565b84811161200c575b5081938511600114611f9a575091839491849394611f8f575b50501b916000199060031b1c191617600a555b600b556201000062ff0000196007541617600755565b013592503880611f66565b600a825260008051602061263183398151915293918591601f19831691905b88838310611ff25750505010611fd8575b505050811b01600a55611f79565b0135600019600384901b60f8161c19169055388080611fca565b868601358855909601959384019387935090810190611fb9565b600a83526000805160206126318339815191528580880160051c820192848910612053575b0160051c019087905b828110612048575050611f4d565b84815501879061203a565b92508192612031565b634e487b7160e01b82526041600452602482fd5b013590503880611f1f565b600987528a935060008051602061267183398151915291601f198416885b888282106120d257505084116120b8575b505050811b01600955611f34565b0135600019600384901b60f8161c191690553880806120aa565b8385013586558e97909501949283019201612099565b909150600986526000805160206126718339815191528880850160051c82019287861061213a575b918c91869594930160051c01915b82811061212c575050611f0b565b8881558594508c910161211e565b92508192612110565b634e487b7160e01b85526041600452602485fd5b013590503880611eda565b600889528c935060008051602061265183398151915291601f1984168a5b8a8282106121b9575050841161219f575b505050811b01600855611eef565b0135600019600384901b60f8161c19169055388080612191565b91929596849587849396013581550195019201908e9594939291612180565b909150600888526000805160206126518339815191528a80850160051c82019289861061222a575b918e91869594930160051c01915b82811061221c575050611ec6565b8a81558594508e910161220e565b92508192612200565b634e487b7160e01b86526041600452602486fd5b634e487b7160e01b85526021600452602485fd5b60009081549060ff8260a01c1660048110156122af579061227e60ff92156119c9565b60101c1661229b5760ff60a01b1916600160a01b17905538611e7a565b634e487b7160e01b82526001600452602482fd5b634e487b7160e01b84526021600452602484fd5b60405162461bcd60e51b815260048101839052601e60248201527f7769746864726177616c2063726564656e7469616c206d69736d6174636800006044820152606490fd5b9190820391821161187f57565b8181029291811591840414171561187f57565b471561239557600090815260016020526040812054600260205261235e6040832054916123584760055490611872565b90612315565b6004549081156123815704801561237c576123799250612308565b90565b505090565b634e487b7160e01b84526012600452602484fd5b50600090565b600060ff815460a01c169160048310156124a857600183036123bd5750905090565b6123c690612328565b9160018060a01b03600e5416602060405181810190731c1c9bdd1bd8dbdb0b9999594b9c195c98d95b9d60621b825260148152612402816117d9565b51902060246040518094819363bd02d0f560e01b835260048301525afa92831561249c578093612466575b5050811515908161245a575b50612442575090565b906064612453612379934790612315565b0490612308565b60039150141538612439565b909192506020823d8211612494575b816124826020938361180b565b810103126104fb57505190388061242d565b3d9150612475565b604051903d90823e3d90fd5b634e487b7160e01b82526021600452602482fd5b60ff60005460a01c1660048110156125c25780156125885760028114612565576001811461253657600314612514576040516124f7816117d9565b600d81526c7374617465206661696c75726560981b602082015290565b604051612520816117d9565b6006815265195e1a5d195960d21b602082015290565b50604051612543816117d9565b6012815271616363657074696e67206465706f7369747360701b602082015290565b50604051612572816117d9565b60068152651cdd185ad95960d21b602082015290565b50604051612595816117d9565b601781527f6177616974696e672076616c696461746f7220696e666f000000000000000000602082015290565b634e487b7160e01b600052602160045260246000fd5b6000546001600160a01b031633036125ec57565b606460405162461bcd60e51b815260206004820152602060248201527f4f776e61626c653a2063616c6c6572206973206e6f7420746865206f776e65726044820152fdfec65a7bb8d6351c1cf70c95a316cc6a92839c986682d98bc35f958f4883f9d2a8f3f7a9fe364faab93b216da50a3214154f22a0a2b415b23a84c8169e8b636ee36e1540171b6c0c960b71a7020d9f60077f6af931a8bbf590da0223dacf75c7afa264697066735822122026092d247ef9892ee1414d59e25cc1e7af87c2be7c59da2e08cdc35397e1270864736f6c63430008110033",
    "linkReferences": {}
  },
  "methodIdentifiers": {
    "addToDeposit(uint256)": "8620891c",
    "artForPool()": "8ae578fd",
    "claim(uint256)": "379607f5",
    "depositForId(uint256)": "2daad61d",
    "depositToPool()": "f9faa104",
    "deposit_data_root()": "e2d9ae3e",
    "exitPool()": "29917954",
    "frenPastClaim(uint256)": "2cf2cd48",
    "frensPoolShare()": "591167c7",
    "frensStorage()": "30dbf887",
    "getDistributableShare(uint256)": "678e300a",
    "getIdsInThisPool()": "45b58fe4",
    "getShare(uint256)": "cfb5a5f8",
    "getState()": "1865c57d",
    "idsInPool(uint256)": "888e9cf8",
    "locked(uint256)": "b45a3c0e",
    "owner()": "8da5cb5b",
    "pubKey()": "ac2a5dfd",
    "renounceOwnership()": "715018a6",
    "setArt(address)": "e6b1a3ae",
    "setPubKey(bytes,bytes,bytes,bytes32)": "e920eec0",
    "signature()": "51ff4847",
    "stake()": "3a4b66f1",
    "stake(bytes,bytes,bytes,bytes32)": "4b2b4e36",
    "totalClaims()": "41c61383",
    "totalDeposits()": "7d882097",
    "transferLocked()": "12686aae",
    "transferOwnership(address)": "f2fde38b",
    "validatorLocked()": "e3f05d83",
    "validatorSet()": "9426e226",
    "withdraw(uint256,uint256)": "441a3e70",
    "withdrawal_credentials()": "e4a50276"
  },
  "id": 6
}