{
  "abi": [
    {
      "inputs": [
        {
          "internalType": "address",
          "name": "owner_",
          "type": "address"
        },
        {
          "internalType": "bool",
          "name": "validatorLocked_",
          "type": "bool"
        },
        {
          "internalType": "contract IFrensStorage",
          "name": "frensStorage_",
          "type": "address"
        }
      ],
      "stateMutability": "nonpayable",
      "type": "constructor"
    },
    {
      "anonymous": false,
      "inputs": [
        {
          "indexed": false,
          "internalType": "uint256",
          "name": "amount",
          "type": "uint256"
        },
        {
          "indexed": false,
          "internalType": "address",
          "name": "depositer",
          "type": "address"
        },
        {
          "indexed": false,
          "internalType": "uint256",
          "name": "id",
          "type": "uint256"
        }
      ],
      "name": "DepositToPool",
      "type": "event"
    },
    {
      "anonymous": false,
      "inputs": [
        {
          "indexed": false,
          "internalType": "address",
          "name": "sender",
          "type": "address"
        },
        {
          "indexed": false,
          "internalType": "address",
          "name": "to",
          "type": "address"
        },
        {
          "indexed": false,
          "internalType": "uint256",
          "name": "value",
          "type": "uint256"
        },
        {
          "indexed": false,
          "internalType": "bytes",
          "name": "data",
          "type": "bytes"
        },
        {
          "indexed": false,
          "internalType": "bytes",
          "name": "result",
          "type": "bytes"
        }
      ],
      "name": "ExecuteTransaction",
      "type": "event"
    },
    {
      "anonymous": false,
      "inputs": [
        {
          "indexed": true,
          "internalType": "address",
          "name": "previousOwner",
          "type": "address"
        },
        {
          "indexed": true,
          "internalType": "address",
          "name": "newOwner",
          "type": "address"
        }
      ],
      "name": "OwnershipTransferred",
      "type": "event"
    },
    {
      "anonymous": false,
      "inputs": [
        {
          "indexed": false,
          "internalType": "address",
          "name": "depositContractAddress",
          "type": "address"
        },
        {
          "indexed": false,
          "internalType": "address",
          "name": "caller",
          "type": "address"
        }
      ],
      "name": "Stake",
      "type": "event"
    },
    {
      "stateMutability": "payable",
      "type": "fallback"
    },
    {
      "inputs": [
        {
          "internalType": "uint256",
          "name": "_id",
          "type": "uint256"
        }
      ],
      "name": "addToDeposit",
      "outputs": [],
      "stateMutability": "payable",
      "type": "function"
    },
    {
      "inputs": [
        {
          "internalType": "address payable",
          "name": "to",
          "type": "address"
        },
        {
          "internalType": "uint256",
          "name": "value",
          "type": "uint256"
        },
        {
          "internalType": "bytes",
          "name": "data",
          "type": "bytes"
        }
      ],
      "name": "arbitraryContractCall",
      "outputs": [
        {
          "internalType": "bytes",
          "name": "",
          "type": "bytes"
        }
      ],
      "stateMutability": "nonpayable",
      "type": "function"
    },
    {
      "inputs": [
        {
          "internalType": "address",
          "name": "claimant",
          "type": "address"
        }
      ],
      "name": "claim",
      "outputs": [],
      "stateMutability": "nonpayable",
      "type": "function"
    },
    {
      "inputs": [],
      "name": "claim",
      "outputs": [],
      "stateMutability": "nonpayable",
      "type": "function"
    },
    {
      "inputs": [],
      "name": "depositToPool",
      "outputs": [],
      "stateMutability": "payable",
      "type": "function"
    },
    {
      "inputs": [],
      "name": "distribute",
      "outputs": [],
      "stateMutability": "nonpayable",
      "type": "function"
    },
    {
      "inputs": [],
      "name": "distributeAndClaim",
      "outputs": [],
      "stateMutability": "nonpayable",
      "type": "function"
    },
    {
      "inputs": [],
      "name": "distributeAndClaimAll",
      "outputs": [],
      "stateMutability": "nonpayable",
      "type": "function"
    },
    {
      "inputs": [],
      "name": "exitPool",
      "outputs": [],
      "stateMutability": "nonpayable",
      "type": "function"
    },
    {
      "inputs": [
        {
          "internalType": "uint256",
          "name": "_id",
          "type": "uint256"
        }
      ],
      "name": "getDepositAmount",
      "outputs": [
        {
          "internalType": "uint256",
          "name": "",
          "type": "uint256"
        }
      ],
      "stateMutability": "view",
      "type": "function"
    },
    {
      "inputs": [
        {
          "internalType": "uint256",
          "name": "_id",
          "type": "uint256"
        }
      ],
      "name": "getDistributableShare",
      "outputs": [
        {
          "internalType": "uint256",
          "name": "",
          "type": "uint256"
        }
      ],
      "stateMutability": "view",
      "type": "function"
    },
    {
      "inputs": [],
      "name": "getIdsInThisPool",
      "outputs": [
        {
          "internalType": "uint256[]",
          "name": "",
          "type": "uint256[]"
        }
      ],
      "stateMutability": "view",
      "type": "function"
    },
    {
      "inputs": [],
      "name": "getPubKey",
      "outputs": [
        {
          "internalType": "bytes",
          "name": "",
          "type": "bytes"
        }
      ],
      "stateMutability": "view",
      "type": "function"
    },
    {
      "inputs": [
        {
          "internalType": "uint256",
          "name": "_id",
          "type": "uint256"
        }
      ],
      "name": "getShare",
      "outputs": [
        {
          "internalType": "uint256",
          "name": "",
          "type": "uint256"
        }
      ],
      "stateMutability": "view",
      "type": "function"
    },
    {
      "inputs": [],
      "name": "getState",
      "outputs": [
        {
          "internalType": "string",
          "name": "",
          "type": "string"
        }
      ],
      "stateMutability": "view",
      "type": "function"
    },
    {
      "inputs": [],
      "name": "getTotalDeposits",
      "outputs": [
        {
          "internalType": "uint256",
          "name": "",
          "type": "uint256"
        }
      ],
      "stateMutability": "view",
      "type": "function"
    },
    {
      "inputs": [],
      "name": "owner",
      "outputs": [
        {
          "internalType": "address",
          "name": "",
          "type": "address"
        }
      ],
      "stateMutability": "view",
      "type": "function"
    },
    {
      "inputs": [],
      "name": "renounceOwnership",
      "outputs": [],
      "stateMutability": "nonpayable",
      "type": "function"
    },
    {
      "inputs": [
        {
          "internalType": "address",
          "name": "newArtContract",
          "type": "address"
        }
      ],
      "name": "setArt",
      "outputs": [],
      "stateMutability": "nonpayable",
      "type": "function"
    },
    {
      "inputs": [
        {
          "internalType": "bytes",
          "name": "pubKey",
          "type": "bytes"
        },
        {
          "internalType": "bytes",
          "name": "withdrawal_credentials",
          "type": "bytes"
        },
        {
          "internalType": "bytes",
          "name": "signature",
          "type": "bytes"
        },
        {
          "internalType": "bytes32",
          "name": "deposit_data_root",
          "type": "bytes32"
        }
      ],
      "name": "setPubKey",
      "outputs": [],
      "stateMutability": "nonpayable",
      "type": "function"
    },
    {
      "inputs": [],
      "name": "stake",
      "outputs": [],
      "stateMutability": "nonpayable",
      "type": "function"
    },
    {
      "inputs": [
        {
          "internalType": "bytes",
          "name": "pubKey",
          "type": "bytes"
        },
        {
          "internalType": "bytes",
          "name": "withdrawal_credentials",
          "type": "bytes"
        },
        {
          "internalType": "bytes",
          "name": "signature",
          "type": "bytes"
        },
        {
          "internalType": "bytes32",
          "name": "deposit_data_root",
          "type": "bytes32"
        }
      ],
      "name": "stake",
      "outputs": [],
      "stateMutability": "nonpayable",
      "type": "function"
    },
    {
      "inputs": [
        {
          "internalType": "address",
          "name": "newOwner",
          "type": "address"
        }
      ],
      "name": "transferOwnership",
      "outputs": [],
      "stateMutability": "nonpayable",
      "type": "function"
    },
    {
      "inputs": [],
      "name": "version",
      "outputs": [
        {
          "internalType": "uint8",
          "name": "",
          "type": "uint8"
        }
      ],
      "stateMutability": "view",
      "type": "function"
    },
    {
      "inputs": [
        {
          "internalType": "uint256",
          "name": "_id",
          "type": "uint256"
        },
        {
          "internalType": "uint256",
          "name": "_amount",
          "type": "uint256"
        }
      ],
      "name": "withdraw",
      "outputs": [],
      "stateMutability": "nonpayable",
      "type": "function"
    },
    {
      "stateMutability": "payable",
      "type": "receive"
    }
  ],
  "bytecode": {
    "object": "0x6080604081815234620001d1576060826200278a8038038091620000248285620001d6565b833981010312620001d1576200003a82620001fa565b60209283810151908115158203620001d1578301516001600160a01b039182821691829003620001d1576200006f336200020f565b600180546001600160a01b0319808216851790925586516f636f6e74726163742e6164647265737360801b8982019081526d4672656e73506f6f6c536861726560901b6030830152601e825281890199929692906001600160401b038b11838c1017620001bb578a8a52825190206321f8a72160e01b8b526044830152808a602481895afa918215620001b0576000926200016c575b50506200013597985016906002541617600255600014620001505750506001805460ff60a01b191690556200020f565b6000805460ff60a01b19169055516125339081620002578239f35b6001600160a81b031990911617600160a01b176001556200020f565b813d8311620001a8575b62000182818d620001d6565b81010312620001a557506200019c620001359798620001fa565b88973862000105565b80fd5b503d62000176565b89513d6000823e3d90fd5b634e487b7160e01b600052604160045260246000fd5b600080fd5b601f909101601f19168101906001600160401b03821190821017620001bb57604052565b51906001600160a01b0382168203620001d157565b600080546001600160a01b039283166001600160a01b03198216811783559216907f8be0079c531659141344cd1fd0a4f28419497f9722a3daafe3b4186f6b6457e09080a356fe6080604081815260048036101561001e575b505050361561001c57005b005b600092833560e01c908163168a4822146111ff575080631865c57d146111e15780631e83409a146111b45780632991795414611163578063378de45b1461111c5780633a4b66f1146110f7578063441a3e7014610ea657806345b58fe414610e4c5780634ad02ef114610de95780634b2b4e3614610cc65780634e71d92d14610cac57806354fd4d5014610c8957806355ec447f14610bbe578063678e300a14610b9e578063715018a614610b405780638620891c146109465780638da5cb5b1461091e578063923331d4146106c65780639278e714146106a4578063cfb5a5f81461067d578063e4fc6b6d14610664578063e6b1a3ae146104ad578063e920eec014610475578063f2fde38b146103a85763f9faa1040361001157826003193601126103235760ff60015460a01c1681811015610395576001610162911461130f565b341561035e578151916101b66801bc16d674ec8000006101af6020956101aa8782016101a0836101923084611354565b03601f1981018552846113e4565b3492519020611541565b611406565b1115611429565b838151928185808601956f636f6e74726163742e6164647265737360801b87526e233932b739a837b7b629b2ba3a32b960891b6030820152601f81526101fb816113c8565b519095206001600160a01b0395908690610214906114db565b16602486518094819363068b0e0760e41b835234888401525af19081156103545790610247918491610327575b5061149f565b610273835186810190671d1bdad95b8b9a5960c21b82526008815261026b816113c8565b519020611541565b9360025416803b156103235760248392855194859384926335313c2160e11b845233908401525af18015610319576102df575b5091606091837fd91527a40417d48f76ba016aaa9157e2ddaca6cb5b660432901659cb075058fc9451923484523390840152820152a180f35b917fd91527a40417d48f76ba016aaa9157e2ddaca6cb5b660432901659cb075058fc93919461030f606094611382565b94919350916102a6565b82513d87823e3d90fd5b8280fd5b6103479150873d891161034d575b61033f81836113e4565b810190611487565b38610241565b503d610335565b84513d85823e3d90fd5b6020606492519162461bcd60e51b8352820152601260248201527136bab9ba103232b837b9b4ba1032ba3432b960711b6044820152fd5b634e487b7160e01b845260218252602484fd5b509034610323576020366003190112610323576001600160a01b0382358181169390849003610471578454918216926103e23385146115ae565b841561041f5750506001600160a01b031916821783557f8be0079c531659141344cd1fd0a4f28419497f9722a3daafe3b4186f6b6457e08380a380f35b906020608492519162461bcd60e51b8352820152602660248201527f4f776e61626c653a206e6577206f776e657220697320746865207a65726f206160448201526564647265737360d01b6064820152fd5b8480fd5b83346104aa576104a7610487366112a5565b956104a260018060a09894989795971b038a541633146115ae565b611b50565b80f35b80fd5b503461032357602090816003193601126106605780356001600160a01b038181169182900361065c576104e48187541633146115ae565b845163516b636d60e11b81526001848201528681602481865afa9081156106525787916105fb575b5051156105c15790602484926105648751858101906f636f6e74726163742e6164647265737360801b82526e233932b739a837b7b629b2ba3a32b960891b6030820152601f815261055c816113c8565b5190206114db565b16938787519586948593637358d1d760e11b85528401525af19182156105b4576104a793508492610597575b505061149f565b6105ad9250803d1061034d5761033f81836113e4565b3880610590565b50505051903d90823e3d90fd5b845162461bcd60e51b815280840185905260146024820152731a5b9d985b1a5908185c9d0818dbdb9d1c9858dd60621b6044820152606490fd5b90503d8088833e61060c81836113e4565b810190858183031261064a5780519067ffffffffffffffff821161064e57019080601f8301121561064a578151610644928701611679565b3861050c565b8780fd5b8880fd5b86513d89823e3d90fd5b8580fd5b8380fd5b83346104aa57806003193601126104aa576104a7611d68565b5091346104aa5760203660031901126104aa575061069d60209235612324565b9051908152f35b83346104aa57806003193601126104aa576106bd611d68565b6104a7336120c2565b5091903461091a57606036600319011261091a578235906001600160a01b0380831690818403610471576024359560443567ffffffffffffffff811161091657906107176107249236908301611272565b92909388541633146115ae565b8451610770602097888301906f185b1b1bddd9590b98dbdb9d1c9858dd60821b82526001600160601b03199060601b169283603082015260248152610768816113ac565b51902061174d565b156108dc576107a6908651888101916e636f6e74726163742e65786973747360881b8352602f82015260238152610768816113ac565b6108995786808651848682378085810183815203908b885af13d15610890573d6107cf81611626565b906107dc885192836113e4565b81528098883d92013e5b156108605750839261084a61083c7fc35e8bcd41711872ec0857c0203db3ea1f3a421cb5000bb65c5a70b89055c682948a9461085c98519586953387528b8701528886015260a0606086015260a0850191611b2f565b82810360808401528861124d565b0390a15192828493845283019061124d565b0390f35b845162461bcd60e51b8152908101869052600a6024820152691d1e1b8819985a5b195960b21b6044820152606490fd5b606097506107e6565b845162461bcd60e51b8152908101869052601b60248201527f63616e6e6f742063616c6c204652454e5320636f6e74726163747300000000006044820152606490fd5b855162461bcd60e51b8152808301889052601460248201527318dbdb9d1c9858dd081b9bdd08185b1b1bddd95960621b6044820152606490fd5b8680fd5b5080fd5b50503461091a578160031936011261091a57905490516001600160a01b039091168152602090f35b506020908160031936011261066057803560018060a01b036024848260025416875192838092634f558e7960e01b825287898301525afa908115610652578791610b23575b5015610aec576109be8551858101906a1c1bdbdb0b999bdc8b9a5960aa1b825284602b820152602b815261055c816113ac565b8130911603610ab45760ff60015460a01c1683811015610aa1578492916109e960016044931461130f565b610a256801bc16d674ec8000006101af610a1e8a518881019061026b81610a103085611354565b03601f1981018352826113e4565b3490611406565b610a698751858101906f636f6e74726163742e6164647265737360801b82526e233932b739a837b7b629b2ba3a32b960891b6030820152601f815261055c816113c8565b1693878751958694859363010975af60e31b85528401523460248401525af19182156105b4576104a79350849261059757505061149f565b634e487b7160e01b875260218452602487fd5b845162461bcd60e51b815280840185905260126024820152711ddc9bdb99c81cdd185ada5b99c81c1bdbdb60721b6044820152606490fd5b845162461bcd60e51b815280840185905260116024820152701a5908191bd95cc81b9bdd08195e1a5cdd607a1b6044820152606490fd5b610b3a9150853d871161034d5761033f81836113e4565b3861098b565b83346104aa57806003193601126104aa57805481906001600160a01b03811690610b6b3383146115ae565b6001600160a01b03191682557f8be0079c531659141344cd1fd0a4f28419497f9722a3daafe3b4186f6b6457e08280a380f35b5091346104aa5760203660031901126104aa575061069d602092356123cf565b509034610323578260031936011261032357610bd8611d68565b610be06121f8565b91835b8351811015610c8557610bf68185611df0565b5160025484516331a9108f60e11b815284810192909252602091908290829060249082906001600160a01b03165afa918215610c7b5791610c4491610c4994938992610c4e575b50506120c2565b611de1565b610be3565b610c6d9250803d10610c74575b610c6581836113e4565b8101906114bc565b3880610c3d565b503d610c5b565b85513d89823e3d90fd5b8480f35b50503461091a578160031936011261091a5760ff6020925460a01c169051908152f35b83346104aa57806003193601126104aa576104a7336120c2565b50903461032357610cd6366112a5565b92610cf160018060a09998999594951b038b541633146115ae565b875194610d1a6020870187610d0630836115f9565b0397610768601f19998a81018352826113e4565b15610dd157505050505090610d76610d85928551610d6e602082019282610d623086601a91657075624b657960d01b82526001600160601b03199060601b1660068201520190565b039081018352826113e4565b5190206116b0565b60208151910120923691611642565b6020815191012003610d9c5750505b6104a76117de565b906020606492519162461bcd60e51b8352820152600f60248201526e0e0eac496caf240dad2e6dac2e8c6d608b1b6044820152fd5b939750935093610de49750949094611b50565b610d94565b50503461091a578160031936011261091a5780610e3961085c925160208101907376616c696461746f722e7075626c69632e6b657960601b82523060601b603482015260288152610d6e816113ac565b905191829160208352602083019061124d565b50503461091a578160031936011261091a57610e666121f8565b815192839260208080860192818752855180945286019401925b828110610e8f57505050500390f35b835185528695509381019392810192600101610e80565b5091903461091a578060031936011261091a5782359260249384359060ff60015460a01c16838110156110e5576001036110a35760025484516331a9108f60e11b8152808501839052602094916001600160a01b039190869082908b90829086165afa90811561109957908291899161107c575b5016330361104a5783610f538751878101906d19195c1bdcda5d0b985b5bdd5b9d60921b825286602e820152602e815261026b816113ac565b1061101157916044859288809a95610fa78a9b9a51878101906f636f6e74726163742e6164647265737360801b82526e233932b739a837b7b629b2ba3a32b960891b6030820152601f815261055c816113c8565b16878b519788968795630441a3e760e41b87528601528401525af191821561100757849384938493610fe092859261059757505061149f565b818115610ffe575b3390f115610ff4575080f35b51903d90823e3d90fd5b506108fc610fe8565b85513d86823e3d90fd5b855162461bcd60e51b81528083018690526014818a0152731b9bdd08195b9bdd59da0819195c1bdcda5d195960621b6044820152606490fd5b855162461bcd60e51b8152808301869052600d818a01526c3737ba103a34329037bbb732b960991b6044820152606490fd5b6110939150873d8911610c7457610c6581836113e4565b38610f1a565b87513d8a823e3d90fd5b835162461bcd60e51b8152602081850152601b818801527f63616e6e6f74207769746864726177206f6e6365207374616b656400000000006044820152606490fd5b634e487b7160e01b8652602184528686fd5b83346104aa57806003193601126104aa57610d9460018060a01b0382541633146115ae565b5091346104aa5760203660031901126104aa575061069d6020928251848101916d19195c1bdcda5d0b985b5bdd5b9d60921b835235602e820152602e815261026b816113ac565b83346104aa57806003193601126104aa5761118860018060a01b0382541633146115ae565b606447116111a7575b6001805460ff60a01b1916600360a01b17905580f35b6111af611e1a565b611191565b83823461091a57602036600319011261091a57356001600160a01b038116810361091a576104a7906120c2565b50503461091a578160031936011261091a5761085c90610e396123f7565b8385346104aa57806003193601126104aa575061069d8260208094019061026b81610a103085611354565b60005b83811061123d5750506000910152565b818101518382015260200161122d565b906020916112668151809281855285808601910161122a565b601f01601f1916010190565b9181601f840112156112a05782359167ffffffffffffffff83116112a057602083818601950101116112a057565b600080fd5b9060806003198301126112a05767ffffffffffffffff6004358181116112a057836112d291600401611272565b939093926024358381116112a057826112ed91600401611272565b939093926044359182116112a05761130791600401611272565b909160643590565b1561131657565b60405162461bcd60e51b81526020600482015260166024820152756e6f7420616363657074696e67206465706f7369747360501b6044820152606490fd5b6022916d746f74616c2e6465706f7369747360901b82526001600160601b03199060601b16600e8201520190565b67ffffffffffffffff811161139657604052565b634e487b7160e01b600052604160045260246000fd5b6060810190811067ffffffffffffffff82111761139657604052565b6040810190811067ffffffffffffffff82111761139657604052565b90601f8019910116810190811067ffffffffffffffff82111761139657604052565b9190820180921161141357565b634e487b7160e01b600052601160045260246000fd5b1561143057565b60405162461bcd60e51b815260206004820152602960248201527f746f74616c206465706f736974732063616e6e6f74206265206d6f72652074686044820152680c2dc406664408ae8d60bb1b6064820152608490fd5b908160209103126112a0575180151581036112a05790565b156114a657565b634e487b7160e01b600052600160045260246000fd5b908160209103126112a057516001600160a01b03811681036112a05790565b6001546040516321f8a72160e01b81526004810192909252602090829060249082906001600160a01b03165afa9081156115355760009161151a575090565b611532915060203d8111610c7457610c6581836113e4565b90565b6040513d6000823e3d90fd5b60015460405163bd02d0f560e01b81526004810192909252602090829060249082906001600160a01b03165afa90811561153557600091611580575090565b906020823d82116115a6575b81611599602093836113e4565b810103126104aa57505190565b3d915061158c565b156115b557565b606460405162461bcd60e51b815260206004820152602060248201527f4f776e61626c653a2063616c6c6572206973206e6f7420746865206f776e65726044820152fd5b6021916c1d985b1a59185d1bdc8b9cd95d609a1b82526001600160601b03199060601b16600d8201520190565b67ffffffffffffffff811161139657601f01601f191660200190565b92919261164e82611626565b9161165c60405193846113e4565b8294818452818301116112a0578281602093846000960137010152565b9092919261168681611626565b9161169460405193846113e4565b8294828452828201116112a05760206116ae93019061122a565b565b600154604051630180634360e71b815260048101929092526000908190839060249082906001600160a01b03165afa9182156117405781926116f157505090565b909291503d8084833e61170481836113e4565b8101906020818303126106605780519067ffffffffffffffff8211610471570181601f8201121561066057611532929350602081519101611679565b50604051903d90823e3d90fd5b600154604051633d70e7e560e11b81526004810192909252602090829060249082906001600160a01b03165afa9081156115355760009161178c575090565b611532915060203d811161034d5761033f81836113e4565b156117ab57565b60405162461bcd60e51b815260206004820152600b60248201526a77726f6e6720737461746560a81b6044820152606490fd5b6801bc16d674ec80000090814710611af9576001549160ff8360a01c166004811015611ae357600161181091146117a4565b604090815160209061183d8282018261182930836115f9565b0392610768601f19948581018352826113e4565b15611aab5761187b908451610d6e8482019282610d623086601a91657075624b657960d01b82526001600160601b03199060601b1660068201520190565b8351956118b8838801757769746864726177616c5f63726564656e7469616c7360501b81523060601b98896036820152602a8152610d6e816113ac565b936118e4865185810190687369676e617475726560b81b82528a6029820152601d8152610d6e816113c8565b978651858101917019195c1bdcda5d17d9185d1857dc9bdbdd607a1b8352603182015260258152611914816113ac565b5190208651635376ab1f60e11b81526004810191909152916001600160a01b039085846024818585165afa938415611aa057600094611a71575b506119a08851878101907f65787465726e616c2e636f6e74726163742e616464726573730000000000000082526e11195c1bdcda5d10dbdb9d1c9858dd608a1b60398201526028815261055c816113ac565b60ff60a01b19909116600160a11b176001551694853b156112a057600093611a0093611a0f6119ed938a519c8d97889687966304512a2360e31b885260806004890152608488019061124d565b600319938488830301602489015261124d565b9185830301604486015261124d565b9060648301520391865af1948515611a66577f72b356fd889b9abd3530accd2c9f4aecbce67d70757181f9f862ac91464ce1929495611a57575b5082519182523390820152a1565b611a6090611382565b38611a49565b83513d6000823e3d90fd5b90938682813d8311611a99575b611a8881836113e4565b810103126104aa575051923861194e565b503d611a7e565b88513d6000823e3d90fd5b835162461bcd60e51b81526004810183905260116024820152701d985b1a59185d1bdc881b9bdd081cd95d607a1b6044820152606490fd5b634e487b7160e01b600052602160045260246000fd5b60405162461bcd60e51b815260206004820152600e60248201526d0dcdee840cadcdeeaced040cae8d60931b6044820152606490fd5b908060209392818452848401376000828201840152601f01601f1916010190565b96959293949096600160f81b300195863011611413576040988951602098898201908152898252611b80826113c8565b611b8b368a89611642565b8a81519101209151902003611d2457611bcf8a51898101906f1d985b1a59185d1bdc8b9b1bd8dad95960821b82523060601b603082015260248152610768816113ac565b611cd2575b60ff60015460a01c16956004871015611ae357611ca2611c7f968c96600095611c0060018e9c146117a4565b611c938951611c5a8d82016f636f6e74726163742e6164647265737360801b81526e233932b739a837b7b629b2ba3a32b960891b6030840152601f8352611c46836113c8565b91519091206001600160a01b0391906114db565b1699519c8d9b8c9a8b996303a483bb60e61b8b52608060048c015260848b0191611b2f565b9060031995868a84030160248b0152611b2f565b92868403016044870152611b2f565b90606483015203925af1918215611cc7576116ae93945060009261059757505061149f565b84513d6000823e3d90fd5b60015460ff8160a01c166004811015611ae357611cef90156117a4565b611d0f611d098c518b81019061076881610a1030856115f9565b1561149f565b60ff60a01b1916600160a01b17600155611bd4565b895162461bcd60e51b815260048101899052601e60248201527f7769746864726177616c2063726564656e7469616c206d69736d6174636800006044820152606490fd5b60ff60015460a01c166004811015611ae357600114611d89576116ae611e1a565b60405162461bcd60e51b815260206004820152601c60248201527f757365207769746864726177207768656e206e6f74207374616b6564000000006044820152606490fd5b8181029291811591840414171561141357565b60001981146114135760010190565b8051821015611e045760209160051b010190565b634e487b7160e01b600052603260045260246000fd5b4790606482111561207e576040918251611e53602091828101906b70726f746f636f6c2e66656560a01b8252600c815261026b816113c8565b80612009575b50611e626121f8565b60005b8151811015611fa457611e788183611df0565b5160025487516331a9108f60e11b8152600480820184905293926024926001600160a01b03929190889083908690829087165afa8b8115611f9a5789958b604495600094611f74575b50611ecf9060009495612159565b9086611f1584518a8101906f636f6e74726163742e6164647265737360801b82526e233932b739a837b7b629b2ba3a32b960891b6030820152601f815261055c816113c8565b169251998a978896631f72642160e31b885216908601528401525af1918215611f6957611f4d92610c4491600091611f52575061149f565b611e65565b6103479150863d881161034d5761033f81836113e4565b87513d6000823e3d90fd5b6000945090611f92611ecf928a3d8c11610c7457610c6581836113e4565b945090611ec1565b513d6000823e3d90fd5b505060008080938193969596611fee87519182016f636f6e74726163742e6164647265737360801b8152694672656e73436c61696d60b01b6030840152601a8352611c46836113c8565b16828215612000575bf115611f9a5750565b506108fc611ff7565b60008080939492606461204683956120408b518a8101906c1999594b9c9958da5c1a595b9d609a1b8252600d815261055c816113c8565b93611dce565b049082908215612074575b6001600160a01b031690f11561206957479038611e59565b82513d6000823e3d90fd5b6108fc9150612051565b606460405162461bcd60e51b815260206004820152602060248201527f6d696e696d756d206f66203130302077656920746f20646973747269627574656044820152fd5b6040519060208201916f636f6e74726163742e6164647265737360801b8352694672656e73436c61696d60b01b6030820152601a8152612101816113c8565b519091206001600160a01b039190829061211a906114db565b1691823b156112a0576024600092836040519586948593630f41a04d60e11b85521660048401525af18015611535576121505750565b6116ae90611382565b61218b9060405160208101916d19195c1bdcda5d0b985b5bdd5b9d60921b8352602e820152602e815261026b816113ac565b906121a5604051602081019061026b81610a103085611354565b9180156121f0576121b591611dce565b81156121da570460018111156121d45760001981019081116114135790565b50600090565b634e487b7160e01b600052601260045260246000fd5b505050600090565b604051602090818101906a1a591ccb9a5b8b9c1bdbdb60aa1b82523060601b602b820152601f8152612229816113c8565b5190206001546040516378267eb560e11b81526004810192909252600092908390839060249082906001600160a01b03165afa928315612318578093612270575b50505090565b909192503d8082853e61228381856113e4565b83019082848303126104aa57835167ffffffffffffffff94858211610323570182601f8201121561091a578051948511612304578460051b91604051956122cc868501886113e4565b865284808701938301019384116104aa57508301905b8282106122f5575050505038808061226a565b815181529083019083016122e2565b634e487b7160e01b82526041600452602482fd5b604051903d90823e3d90fd5b600254604051630178b36760e31b815260048101839052906001600160a01b03906020908390602490829085165afa918215611535576000926123af575b503091160361237657611532904790612159565b60405162461bcd60e51b81526020600482015260116024820152701ddc9bdb99c81c1bdbdb08199bdc881a59607a1b6044820152606490fd5b6123c891925060203d8111610c7457610c6581836113e4565b9038612362565b60ff60015460a01c166004811015611ae3576001036123ee5750600090565b61153290612324565b60ff60015460a01c166004811015611ae35780156124c357600281146124a057600181146124715760031461244f57604051612432816113c8565b600d81526c7374617465206661696c75726560981b602082015290565b60405161245b816113c8565b6006815265195e1a5d195960d21b602082015290565b5060405161247e816113c8565b6012815271616363657074696e67206465706f7369747360701b602082015290565b506040516124ad816113c8565b60068152651cdd185ad95960d21b602082015290565b506040516124d0816113c8565b601781527f6177616974696e672076616c696461746f7220696e666f00000000000000000060208201529056fea26469706673582212200bab175c41dcba754b519b02bccc94ae27a7b23fe996d294a5d7872ee3edb88264736f6c63430008110033",
    "linkReferences": {}
  },
  "methodIdentifiers": {
    "addToDeposit(uint256)": "8620891c",
    "arbitraryContractCall(address,uint256,bytes)": "923331d4",
    "claim()": "4e71d92d",
    "claim(address)": "1e83409a",
    "depositToPool()": "f9faa104",
    "distribute()": "e4fc6b6d",
    "distributeAndClaim()": "9278e714",
    "distributeAndClaimAll()": "55ec447f",
    "exitPool()": "29917954",
    "getDepositAmount(uint256)": "378de45b",
    "getDistributableShare(uint256)": "678e300a",
    "getIdsInThisPool()": "45b58fe4",
    "getPubKey()": "4ad02ef1",
    "getShare(uint256)": "cfb5a5f8",
    "getState()": "1865c57d",
    "getTotalDeposits()": "168a4822",
    "owner()": "8da5cb5b",
    "renounceOwnership()": "715018a6",
    "setArt(address)": "e6b1a3ae",
    "setPubKey(bytes,bytes,bytes,bytes32)": "e920eec0",
    "stake()": "3a4b66f1",
    "stake(bytes,bytes,bytes,bytes32)": "4b2b4e36",
    "transferOwnership(address)": "f2fde38b",
    "version()": "54fd4d50",
    "withdraw(uint256,uint256)": "441a3e70"
  },
  "id": 11
}