{
  "abi": [
    {
      "inputs": [
        {
          "internalType": "address",
          "name": "owner_",
          "type": "address"
        },
        {
          "internalType": "bool",
          "name": "validatorLocked_",
          "type": "bool"
        },
        {
          "internalType": "contract IFrensStorage",
          "name": "frensStorage_",
          "type": "address"
        }
      ],
      "stateMutability": "nonpayable",
      "type": "constructor"
    },
    {
      "anonymous": false,
      "inputs": [
        {
          "indexed": false,
          "internalType": "uint256",
          "name": "amount",
          "type": "uint256"
        },
        {
          "indexed": false,
          "internalType": "address",
          "name": "depositer",
          "type": "address"
        },
        {
          "indexed": false,
          "internalType": "uint256",
          "name": "id",
          "type": "uint256"
        }
      ],
      "name": "DepositToPool",
      "type": "event"
    },
    {
      "anonymous": false,
      "inputs": [
        {
          "indexed": false,
          "internalType": "address",
          "name": "sender",
          "type": "address"
        },
        {
          "indexed": false,
          "internalType": "address",
          "name": "to",
          "type": "address"
        },
        {
          "indexed": false,
          "internalType": "uint256",
          "name": "value",
          "type": "uint256"
        },
        {
          "indexed": false,
          "internalType": "bytes",
          "name": "data",
          "type": "bytes"
        },
        {
          "indexed": false,
          "internalType": "bytes",
          "name": "result",
          "type": "bytes"
        }
      ],
      "name": "ExecuteTransaction",
      "type": "event"
    },
    {
      "anonymous": false,
      "inputs": [
        {
          "indexed": true,
          "internalType": "address",
          "name": "previousOwner",
          "type": "address"
        },
        {
          "indexed": true,
          "internalType": "address",
          "name": "newOwner",
          "type": "address"
        }
      ],
      "name": "OwnershipTransferred",
      "type": "event"
    },
    {
      "anonymous": false,
      "inputs": [
        {
          "indexed": false,
          "internalType": "address",
          "name": "depositContractAddress",
          "type": "address"
        },
        {
          "indexed": false,
          "internalType": "address",
          "name": "caller",
          "type": "address"
        }
      ],
      "name": "Stake",
      "type": "event"
    },
    {
      "stateMutability": "payable",
      "type": "fallback"
    },
    {
      "inputs": [
        {
          "internalType": "uint256",
          "name": "_id",
          "type": "uint256"
        }
      ],
      "name": "addToDeposit",
      "outputs": [],
      "stateMutability": "payable",
      "type": "function"
    },
    {
      "inputs": [
        {
          "internalType": "address",
          "name": "claimant",
          "type": "address"
        }
      ],
      "name": "claim",
      "outputs": [],
      "stateMutability": "nonpayable",
      "type": "function"
    },
    {
      "inputs": [],
      "name": "claim",
      "outputs": [],
      "stateMutability": "nonpayable",
      "type": "function"
    },
    {
      "inputs": [],
      "name": "depositToPool",
      "outputs": [],
      "stateMutability": "payable",
      "type": "function"
    },
    {
      "inputs": [],
      "name": "distribute",
      "outputs": [],
      "stateMutability": "nonpayable",
      "type": "function"
    },
    {
      "inputs": [],
      "name": "distributeAndClaim",
      "outputs": [],
      "stateMutability": "nonpayable",
      "type": "function"
    },
    {
      "inputs": [],
      "name": "distributeAndClaimAll",
      "outputs": [],
      "stateMutability": "nonpayable",
      "type": "function"
    },
    {
      "inputs": [],
      "name": "exitPool",
      "outputs": [],
      "stateMutability": "nonpayable",
      "type": "function"
    },
    {
      "inputs": [
        {
          "internalType": "uint256",
          "name": "_id",
          "type": "uint256"
        }
      ],
      "name": "getDepositAmount",
      "outputs": [
        {
          "internalType": "uint256",
          "name": "",
          "type": "uint256"
        }
      ],
      "stateMutability": "view",
      "type": "function"
    },
    {
      "inputs": [
        {
          "internalType": "uint256",
          "name": "_id",
          "type": "uint256"
        }
      ],
      "name": "getDistributableShare",
      "outputs": [
        {
          "internalType": "uint256",
          "name": "",
          "type": "uint256"
        }
      ],
      "stateMutability": "view",
      "type": "function"
    },
    {
      "inputs": [],
      "name": "getIdsInThisPool",
      "outputs": [
        {
          "internalType": "uint256[]",
          "name": "",
          "type": "uint256[]"
        }
      ],
      "stateMutability": "view",
      "type": "function"
    },
    {
      "inputs": [],
      "name": "getPubKey",
      "outputs": [
        {
          "internalType": "bytes",
          "name": "",
          "type": "bytes"
        }
      ],
      "stateMutability": "view",
      "type": "function"
    },
    {
      "inputs": [
        {
          "internalType": "uint256",
          "name": "_id",
          "type": "uint256"
        }
      ],
      "name": "getShare",
      "outputs": [
        {
          "internalType": "uint256",
          "name": "",
          "type": "uint256"
        }
      ],
      "stateMutability": "view",
      "type": "function"
    },
    {
      "inputs": [],
      "name": "getState",
      "outputs": [
        {
          "internalType": "string",
          "name": "",
          "type": "string"
        }
      ],
      "stateMutability": "view",
      "type": "function"
    },
    {
      "inputs": [],
      "name": "getTotalDeposits",
      "outputs": [
        {
          "internalType": "uint256",
          "name": "",
          "type": "uint256"
        }
      ],
      "stateMutability": "view",
      "type": "function"
    },
    {
      "inputs": [],
      "name": "owner",
      "outputs": [
        {
          "internalType": "address",
          "name": "",
          "type": "address"
        }
      ],
      "stateMutability": "view",
      "type": "function"
    },
    {
      "inputs": [],
      "name": "renounceOwnership",
      "outputs": [],
      "stateMutability": "nonpayable",
      "type": "function"
    },
    {
      "inputs": [
        {
          "internalType": "address",
          "name": "newArtContract",
          "type": "address"
        }
      ],
      "name": "setArt",
      "outputs": [],
      "stateMutability": "nonpayable",
      "type": "function"
    },
    {
      "inputs": [
        {
          "internalType": "bytes",
          "name": "pubKey",
          "type": "bytes"
        },
        {
          "internalType": "bytes",
          "name": "withdrawal_credentials",
          "type": "bytes"
        },
        {
          "internalType": "bytes",
          "name": "signature",
          "type": "bytes"
        },
        {
          "internalType": "bytes32",
          "name": "deposit_data_root",
          "type": "bytes32"
        }
      ],
      "name": "setPubKey",
      "outputs": [],
      "stateMutability": "nonpayable",
      "type": "function"
    },
    {
      "inputs": [],
      "name": "stake",
      "outputs": [],
      "stateMutability": "nonpayable",
      "type": "function"
    },
    {
      "inputs": [
        {
          "internalType": "bytes",
          "name": "pubKey",
          "type": "bytes"
        },
        {
          "internalType": "bytes",
          "name": "withdrawal_credentials",
          "type": "bytes"
        },
        {
          "internalType": "bytes",
          "name": "signature",
          "type": "bytes"
        },
        {
          "internalType": "bytes32",
          "name": "deposit_data_root",
          "type": "bytes32"
        }
      ],
      "name": "stake",
      "outputs": [],
      "stateMutability": "nonpayable",
      "type": "function"
    },
    {
      "inputs": [
        {
          "internalType": "address",
          "name": "newOwner",
          "type": "address"
        }
      ],
      "name": "transferOwnership",
      "outputs": [],
      "stateMutability": "nonpayable",
      "type": "function"
    },
    {
      "inputs": [],
      "name": "version",
      "outputs": [
        {
          "internalType": "uint8",
          "name": "",
          "type": "uint8"
        }
      ],
      "stateMutability": "view",
      "type": "function"
    },
    {
      "inputs": [
        {
          "internalType": "uint256",
          "name": "_id",
          "type": "uint256"
        },
        {
          "internalType": "uint256",
          "name": "_amount",
          "type": "uint256"
        }
      ],
      "name": "withdraw",
      "outputs": [],
      "stateMutability": "nonpayable",
      "type": "function"
    },
    {
      "stateMutability": "payable",
      "type": "receive"
    }
  ],
  "bytecode": {
    "object": "0x6080604081815234620001d157606082620024908038038091620000248285620001d6565b833981010312620001d1576200003a82620001fa565b60209283810151908115158203620001d1578301516001600160a01b039182821691829003620001d1576200006f336200020f565b600180546001600160a01b0319808216851790925586516f636f6e74726163742e6164647265737360801b8982019081526d4672656e73506f6f6c536861726560901b6030830152601e825281890199929692906001600160401b038b11838c1017620001bb578a8a52825190206321f8a72160e01b8b526044830152808a602481895afa918215620001b0576000926200016c575b50506200013597985016906002541617600255600014620001505750506001805460ff60a01b191690556200020f565b6000805460ff60a01b19169055516122399081620002578239f35b6001600160a81b031990911617600160a01b176001556200020f565b813d8311620001a8575b62000182818d620001d6565b81010312620001a557506200019c620001359798620001fa565b88973862000105565b80fd5b503d62000176565b89513d6000823e3d90fd5b634e487b7160e01b600052604160045260246000fd5b600080fd5b601f909101601f19168101906001600160401b03821190821017620001bb57604052565b51906001600160a01b0382168203620001d157565b600080546001600160a01b039283166001600160a01b03198216811783559216907f8be0079c531659141344cd1fd0a4f28419497f9722a3daafe3b4186f6b6457e09080a356fe6080604081815260048036101561001e575b505050361561001c57005b005b600092833560e01c908163168a482214610fa2575080631865c57d14610f845780631e83409a14610f575780632991795414610f06578063378de45b14610ebf5780633a4b66f114610ea6578063441a3e7014610c5557806345b58fe414610bfb5780634ad02ef114610b945780634b2b4e3614610a695780634e71d92d14610a4f57806354fd4d5014610a2c57806355ec447f14610961578063678e300a14610941578063715018a6146108e35780638620891c146106e95780638da5cb5b146106bd5780639278e7141461069b578063cfb5a5f814610672578063e4fc6b6d14610659578063e6b1a3ae146104a2578063e920eec01461046a578063f2fde38b1461039d5763f9faa1040361001157826003193601126103185760ff60015460a01c168181101561038a57600161015791146110b2565b3415610353578151916101ab6801bc16d674ec8000006101a460209561019f8782016101958361018730846110f7565b03601f198101855284611187565b34925190206112e4565b6111a9565b11156111cc565b838151928185808601956f636f6e74726163742e6164647265737360801b87526e233932b739a837b7b629b2ba3a32b960891b6030820152601f81526101f08161116b565b519095206001600160a01b03959086906102099061127e565b16602486518094819363068b0e0760e41b835234888401525af1908115610349579061023c91849161031c575b50611242565b610268835186810190671d1bdad95b8b9a5960c21b8252600881526102608161116b565b5190206112e4565b9360025416803b156103185760248392855194859384926335313c2160e11b845233908401525af1801561030e576102d4575b5091606091837fd91527a40417d48f76ba016aaa9157e2ddaca6cb5b660432901659cb075058fc9451923484523390840152820152a180f35b917fd91527a40417d48f76ba016aaa9157e2ddaca6cb5b660432901659cb075058fc939194610304606094611125565b949193509161029b565b82513d87823e3d90fd5b8280fd5b61033c9150873d8911610342575b6103348183611187565b81019061122a565b38610236565b503d61032a565b84513d85823e3d90fd5b6020606492519162461bcd60e51b8352820152601260248201527136bab9ba103232b837b9b4ba1032ba3432b960711b6044820152fd5b634e487b7160e01b845260218252602484fd5b509034610318576020366003190112610318576001600160a01b0382358181169390849003610466578454918216926103d7338514611351565b84156104145750506001600160a01b031916821783557f8be0079c531659141344cd1fd0a4f28419497f9722a3daafe3b4186f6b6457e08380a380f35b906020608492519162461bcd60e51b8352820152602660248201527f4f776e61626c653a206e6577206f776e657220697320746865207a65726f206160448201526564647265737360d01b6064820152fd5b8480fd5b833461049f5761049c61047c36611048565b9561049760018060a09894989795971b038a54163314611351565b6118f3565b80f35b80fd5b503461031857602090816003193601126106555780356001600160a01b0381811691829003610651576104d9818754163314611351565b845163516b636d60e11b81526001848201528681602481865afa9081156106475787916105f0575b5051156105b65790602484926105598751858101906f636f6e74726163742e6164647265737360801b82526e233932b739a837b7b629b2ba3a32b960891b6030820152601f81526105518161116b565b51902061127e565b16938787519586948593637358d1d760e11b85528401525af19182156105a95761049c9350849261058c575b5050611242565b6105a29250803d10610342576103348183611187565b3880610585565b50505051903d90823e3d90fd5b845162461bcd60e51b815280840185905260146024820152731a5b9d985b1a5908185c9d0818dbdb9d1c9858dd60621b6044820152606490fd5b90503d8088833e6106018183611187565b810190858183031261063f5780519067ffffffffffffffff821161064357019080601f8301121561063f57815161063992870161141c565b38610501565b8780fd5b8880fd5b86513d89823e3d90fd5b8580fd5b8380fd5b833461049f578060031936011261049f5761049c611b0b565b50913461049f57602036600319011261049f5750610694602092479035611f08565b9051908152f35b833461049f578060031936011261049f576106b4611b0b565b61049c33611e71565b5050346106e557816003193601126106e557905490516001600160a01b039091168152602090f35b5080fd5b506020908160031936011261065557803560018060a01b036024848260025416875192838092634f558e7960e01b825287898301525afa9081156106475787916108c6575b501561088f576107618551858101906a1c1bdbdb0b999bdc8b9a5960aa1b825284602b820152602b81526105518161114f565b81309116036108575760ff60015460a01c16838110156108445784929161078c6001604493146110b2565b6107c86801bc16d674ec8000006101a46107c18a5188810190610260816107b330856110f7565b03601f198101835282611187565b34906111a9565b61080c8751858101906f636f6e74726163742e6164647265737360801b82526e233932b739a837b7b629b2ba3a32b960891b6030820152601f81526105518161116b565b1693878751958694859363010975af60e31b85528401523460248401525af19182156105a95761049c9350849261058c575050611242565b634e487b7160e01b875260218452602487fd5b845162461bcd60e51b815280840185905260126024820152711ddc9bdb99c81cdd185ada5b99c81c1bdbdb60721b6044820152606490fd5b845162461bcd60e51b815280840185905260116024820152701a5908191bd95cc81b9bdd08195e1a5cdd607a1b6044820152606490fd5b6108dd9150853d8711610342576103348183611187565b3861072e565b833461049f578060031936011261049f57805481906001600160a01b0381169061090e338314611351565b6001600160a01b03191682557f8be0079c531659141344cd1fd0a4f28419497f9722a3daafe3b4186f6b6457e08280a380f35b50913461049f57602036600319011261049f5750610694602092356120d3565b50903461031857826003193601126103185761097b611b0b565b610983611fa7565b91835b8351811015610a28576109998185611b93565b5160025484516331a9108f60e11b815284810192909252602091908290829060249082906001600160a01b03165afa918215610a1e57916109e7916109ec949389926109f1575b5050611e71565b611b84565b610986565b610a109250803d10610a17575b610a088183611187565b81019061125f565b38806109e0565b503d6109fe565b85513d89823e3d90fd5b8480f35b5050346106e557816003193601126106e55760ff6020925460a01c169051908152f35b833461049f578060031936011261049f5761049c33611e71565b50903461031857610a7936611048565b92610a9460018060a09998999594951b038b54163314611351565b875194610ac56020870187610aa9308361139c565b0397610abd601f19998a8101835282611187565b5190206114f0565b15610b7c57505050505090610b21610b30928551610b19602082019282610b0d3086601a91657075624b657960d01b82526001600160601b03199060601b1660068201520190565b03908101835282611187565b519020611453565b602081519101209236916113e5565b6020815191012003610b475750505b61049c611581565b906020606492519162461bcd60e51b8352820152600f60248201526e0e0eac496caf240dad2e6dac2e8c6d608b1b6044820152fd5b939750935093610b8f97509490946118f3565b610b3f565b5050346106e557816003193601126106e55780610be4610bf7925160208101907376616c696461746f722e7075626c69632e6b657960601b82523060601b603482015260288152610b198161114f565b9051918291602083526020830190610ff0565b0390f35b5050346106e557816003193601126106e557610c15611fa7565b815192839260208080860192818752855180945286019401925b828110610c3e57505050500390f35b835185528695509381019392810192600101610c2f565b509190346106e557806003193601126106e55782359260249384359060ff60015460a01c1683811015610e9457600103610e525760025484516331a9108f60e11b8152808501839052602094916001600160a01b039190869082908b90829086165afa908115610e48579082918991610e2b575b50163303610df95783610d028751878101906d19195c1bdcda5d0b985b5bdd5b9d60921b825286602e820152602e81526102608161114f565b10610dc057916044859288809a95610d568a9b9a51878101906f636f6e74726163742e6164647265737360801b82526e233932b739a837b7b629b2ba3a32b960891b6030820152601f81526105518161116b565b16878b519788968795630441a3e760e41b87528601528401525af1918215610db657849384938493610d8f92859261058c575050611242565b818115610dad575b3390f115610da3575080f35b51903d90823e3d90fd5b506108fc610d97565b85513d86823e3d90fd5b855162461bcd60e51b81528083018690526014818a0152731b9bdd08195b9bdd59da0819195c1bdcda5d195960621b6044820152606490fd5b855162461bcd60e51b8152808301869052600d818a01526c3737ba103a34329037bbb732b960991b6044820152606490fd5b610e429150873d8911610a1757610a088183611187565b38610cc9565b87513d8a823e3d90fd5b835162461bcd60e51b8152602081850152601b818801527f63616e6e6f74207769746864726177206f6e6365207374616b656400000000006044820152606490fd5b634e487b7160e01b8652602184528686fd5b833461049f578060031936011261049f5761049c611581565b50913461049f57602036600319011261049f57506106946020928251848101916d19195c1bdcda5d0b985b5bdd5b9d60921b835235602e820152602e81526102608161114f565b833461049f578060031936011261049f57610f2b60018060a01b038254163314611351565b60644711610f4a575b6001805460ff60a01b1916600360a01b17905580f35b610f52611bbd565b610f34565b8382346106e55760203660031901126106e557356001600160a01b03811681036106e55761049c90611e71565b5050346106e557816003193601126106e557610bf790610be46120fd565b83853461049f578060031936011261049f575061069482602080940190610260816107b330856110f7565b60005b838110610fe05750506000910152565b8181015183820152602001610fd0565b9060209161100981518092818552858086019101610fcd565b601f01601f1916010190565b9181601f840112156110435782359167ffffffffffffffff8311611043576020838186019501011161104357565b600080fd5b9060806003198301126110435767ffffffffffffffff600435818111611043578361107591600401611015565b93909392602435838111611043578261109091600401611015565b93909392604435918211611043576110aa91600401611015565b909160643590565b156110b957565b60405162461bcd60e51b81526020600482015260166024820152756e6f7420616363657074696e67206465706f7369747360501b6044820152606490fd5b6022916d746f74616c2e6465706f7369747360901b82526001600160601b03199060601b16600e8201520190565b67ffffffffffffffff811161113957604052565b634e487b7160e01b600052604160045260246000fd5b6060810190811067ffffffffffffffff82111761113957604052565b6040810190811067ffffffffffffffff82111761113957604052565b90601f8019910116810190811067ffffffffffffffff82111761113957604052565b919082018092116111b657565b634e487b7160e01b600052601160045260246000fd5b156111d357565b60405162461bcd60e51b815260206004820152602960248201527f746f74616c206465706f736974732063616e6e6f74206265206d6f72652074686044820152680c2dc406664408ae8d60bb1b6064820152608490fd5b90816020910312611043575180151581036110435790565b1561124957565b634e487b7160e01b600052600160045260246000fd5b9081602091031261104357516001600160a01b03811681036110435790565b6001546040516321f8a72160e01b81526004810192909252602090829060249082906001600160a01b03165afa9081156112d8576000916112bd575090565b6112d5915060203d8111610a1757610a088183611187565b90565b6040513d6000823e3d90fd5b60015460405163bd02d0f560e01b81526004810192909252602090829060249082906001600160a01b03165afa9081156112d857600091611323575090565b906020823d8211611349575b8161133c60209383611187565b8101031261049f57505190565b3d915061132f565b1561135857565b606460405162461bcd60e51b815260206004820152602060248201527f4f776e61626c653a2063616c6c6572206973206e6f7420746865206f776e65726044820152fd5b6021916c1d985b1a59185d1bdc8b9cd95d609a1b82526001600160601b03199060601b16600d8201520190565b67ffffffffffffffff811161113957601f01601f191660200190565b9291926113f1826113c9565b916113ff6040519384611187565b829481845281830111611043578281602093846000960137010152565b90929192611429816113c9565b916114376040519384611187565b829482845282820111611043576020611451930190610fcd565b565b600154604051630180634360e71b815260048101929092526000908190839060249082906001600160a01b03165afa9182156114e357819261149457505090565b909291503d8084833e6114a78183611187565b8101906020818303126106555780519067ffffffffffffffff8211610466570181601f82011215610655576112d592935060208151910161141c565b50604051903d90823e3d90fd5b600154604051633d70e7e560e11b81526004810192909252602090829060249082906001600160a01b03165afa9081156112d85760009161152f575090565b6112d5915060203d8111610342576103348183611187565b1561154e57565b60405162461bcd60e51b815260206004820152600b60248201526a77726f6e6720737461746560a81b6044820152606490fd5b6801bc16d674ec8000009081471061189c576001549160ff8360a01c1660048110156118865760016115b39114611547565b60409081516020906115e0828201826115cc308361139c565b0392610abd601f1994858101835282611187565b1561184e5761161e908451610b198482019282610b0d3086601a91657075624b657960d01b82526001600160601b03199060601b1660068201520190565b83519561165b838801757769746864726177616c5f63726564656e7469616c7360501b81523060601b98896036820152602a8152610b198161114f565b93611687865185810190687369676e617475726560b81b82528a6029820152601d8152610b198161116b565b978651858101917019195c1bdcda5d17d9185d1857dc9bdbdd607a1b83526031820152602581526116b78161114f565b5190208651635376ab1f60e11b81526004810191909152916001600160a01b039085846024818585165afa93841561184357600094611814575b506117438851878101907f65787465726e616c2e636f6e74726163742e616464726573730000000000000082526e11195c1bdcda5d10dbdb9d1c9858dd608a1b6039820152602881526105518161114f565b60ff60a01b19909116600160a11b176001551694853b15611043576000936117a3936117b2611790938a519c8d97889687966304512a2360e31b8852608060048901526084880190610ff0565b6003199384888303016024890152610ff0565b91858303016044860152610ff0565b9060648301520391865af1948515611809577f72b356fd889b9abd3530accd2c9f4aecbce67d70757181f9f862ac91464ce19294956117fa575b5082519182523390820152a1565b61180390611125565b386117ec565b83513d6000823e3d90fd5b90938682813d831161183c575b61182b8183611187565b8101031261049f57505192386116f1565b503d611821565b88513d6000823e3d90fd5b835162461bcd60e51b81526004810183905260116024820152701d985b1a59185d1bdc881b9bdd081cd95d607a1b6044820152606490fd5b634e487b7160e01b600052602160045260246000fd5b60405162461bcd60e51b815260206004820152600e60248201526d0dcdee840cadcdeeaced040cae8d60931b6044820152606490fd5b908060209392818452848401376000828201840152601f01601f1916010190565b96959293949096600160f81b3001958630116111b65760409889516020988982019081528982526119238261116b565b61192e368a896113e5565b8a81519101209151902003611ac7576119728a51898101906f1d985b1a59185d1bdc8b9b1bd8dad95960821b82523060601b603082015260248152610abd8161114f565b611a75575b60ff60015460a01c1695600487101561188657611a45611a22968c966000956119a360018e9c14611547565b611a3689516119fd8d82016f636f6e74726163742e6164647265737360801b81526e233932b739a837b7b629b2ba3a32b960891b6030840152601f83526119e98361116b565b91519091206001600160a01b03919061127e565b1699519c8d9b8c9a8b996303a483bb60e61b8b52608060048c015260848b01916118d2565b9060031995868a84030160248b01526118d2565b928684030160448701526118d2565b90606483015203925af1918215611a6a5761145193945060009261058c575050611242565b84513d6000823e3d90fd5b60015460ff8160a01c16600481101561188657611a929015611547565b611ab2611aac8c518b810190610abd816107b3308561139c565b15611242565b60ff60a01b1916600160a01b17600155611977565b895162461bcd60e51b815260048101899052601e60248201527f7769746864726177616c2063726564656e7469616c206d69736d6174636800006044820152606490fd5b60ff60015460a01c16600481101561188657600114611b2c57611451611bbd565b60405162461bcd60e51b815260206004820152601c60248201527f757365207769746864726177207768656e206e6f74207374616b6564000000006044820152606490fd5b818102929181159184041417156111b657565b60001981146111b65760010190565b8051821015611ba75760209160051b010190565b634e487b7160e01b600052603260045260246000fd5b47906064821115611e2d5760409182516020908181016f636f6e74726163742e6164647265737360801b93848252603092694672656e73436c61696d60b01b84820152601a8152611c0d8161116b565b519091206001600160a01b0391908290611c269061127e565b1695611c508851868101906b70726f746f636f6c2e66656560a01b8252600c81526102608161116b565b8881611dbe575b5050611c61611fa7565b9060005b8251811015611d8857611c788184611b93565b51908a866002541692815180916331a9108f60e11b82528b82600497838983015260249485915afa8015611a6a578c948c8f948d6044968e82998b600098611d5a575b505090611cce611cfb9260009899611f08565b946e233932b739a837b7b629b2ba3a32b960891b8751918d8301938452820152601f81526105518161116b565b169251998a978896631f72642160e31b885216908601528401525af1918215611d4f57611d33926109e791600091611d385750611242565b611c65565b61033c91508a3d8c11610342576103348183611187565b8b513d6000823e3d90fd5b6000985091611d7d611cce9284611cfb9695903d10610a1757610a088183611187565b98509192508b611cbb565b509796905060009550859450849350839250828215611db5575bf115611dab5750565b513d6000823e3d90fd5b506108fc611da2565b6000809394926064611dfb8395611df58596518d8101906c1999594b9c9958da5c1a595b9d609a1b8252600d81526105518161116b565b93611b71565b04908783918315611e23575b1690f115611e185747903888611c57565b86513d6000823e3d90fd5b6108fc9250611e07565b606460405162461bcd60e51b815260206004820152602060248201527f6d696e696d756d206f66203130302077656920746f20646973747269627574656044820152fd5b6040519060208201916f636f6e74726163742e6164647265737360801b8352694672656e73436c61696d60b01b6030820152601a8152611eb08161116b565b519091206001600160a01b0391908290611ec99061127e565b1691823b15611043576024600092836040519586948593630f41a04d60e11b85521660048401525af180156112d857611eff5750565b61145190611125565b611f3a9060405160208101916d19195c1bdcda5d0b985b5bdd5b9d60921b8352602e820152602e81526102608161114f565b90611f546040516020810190610260816107b330856110f7565b918015611f9f57611f6491611b71565b8115611f8957046001811115611f835760001981019081116111b65790565b50600090565b634e487b7160e01b600052601260045260246000fd5b505050600090565b604051602090818101906a1a591ccb9a5b8b9c1bdbdb60aa1b82523060601b602b820152601f8152611fd88161116b565b5190206001546040516378267eb560e11b81526004810192909252600092908390839060249082906001600160a01b03165afa9283156120c757809361201f575b50505090565b909192503d8082853e6120328185611187565b830190828483031261049f57835167ffffffffffffffff94858211610318570182601f820112156106e55780519485116120b3578460051b916040519561207b86850188611187565b8652848087019383010193841161049f57508301905b8282106120a45750505050388080612019565b81518152908301908301612091565b634e487b7160e01b82526041600452602482fd5b604051903d90823e3d90fd5b60ff60015460a01c166004811015611886576001036120f25750600090565b6112d5904790611f08565b60ff60015460a01c1660048110156118865780156121c957600281146121a6576001811461217757600314612155576040516121388161116b565b600d81526c7374617465206661696c75726560981b602082015290565b6040516121618161116b565b6006815265195e1a5d195960d21b602082015290565b506040516121848161116b565b6012815271616363657074696e67206465706f7369747360701b602082015290565b506040516121b38161116b565b60068152651cdd185ad95960d21b602082015290565b506040516121d68161116b565b601781527f6177616974696e672076616c696461746f7220696e666f00000000000000000060208201529056fea2646970667358221220e649c9a4086a661a7b02dbb52fafc246b872ce5fb5f27a085765c0952dd80e2d64736f6c63430008110033",
    "linkReferences": {}
  },
  "methodIdentifiers": {
    "addToDeposit(uint256)": "8620891c",
    "claim()": "4e71d92d",
    "claim(address)": "1e83409a",
    "depositToPool()": "f9faa104",
    "distribute()": "e4fc6b6d",
    "distributeAndClaim()": "9278e714",
    "distributeAndClaimAll()": "55ec447f",
    "exitPool()": "29917954",
    "getDepositAmount(uint256)": "378de45b",
    "getDistributableShare(uint256)": "678e300a",
    "getIdsInThisPool()": "45b58fe4",
    "getPubKey()": "4ad02ef1",
    "getShare(uint256)": "cfb5a5f8",
    "getState()": "1865c57d",
    "getTotalDeposits()": "168a4822",
    "owner()": "8da5cb5b",
    "renounceOwnership()": "715018a6",
    "setArt(address)": "e6b1a3ae",
    "setPubKey(bytes,bytes,bytes,bytes32)": "e920eec0",
    "stake()": "3a4b66f1",
    "stake(bytes,bytes,bytes,bytes32)": "4b2b4e36",
    "transferOwnership(address)": "f2fde38b",
    "version()": "54fd4d50",
    "withdraw(uint256,uint256)": "441a3e70"
  },
  "id": 11
}