{
  "abi": [
    {
      "inputs": [
        {
          "internalType": "address",
          "name": "owner_",
          "type": "address"
        },
        {
          "internalType": "bool",
          "name": "validatorLocked_",
          "type": "bool"
        },
        {
          "internalType": "bool",
          "name": "frensLocked_",
          "type": "bool"
        },
        {
          "internalType": "uint256",
          "name": "poolMin_",
          "type": "uint256"
        },
        {
          "internalType": "uint256",
          "name": "poolMax_",
          "type": "uint256"
        },
        {
          "internalType": "bytes32",
          "name": "merkleRoot_",
          "type": "bytes32"
        },
        {
          "internalType": "contract IFrensStorage",
          "name": "frensStorage_",
          "type": "address"
        }
      ],
      "stateMutability": "nonpayable",
      "type": "constructor"
    },
    {
      "anonymous": false,
      "inputs": [
        {
          "indexed": false,
          "internalType": "uint256",
          "name": "amount",
          "type": "uint256"
        },
        {
          "indexed": false,
          "internalType": "address",
          "name": "depositer",
          "type": "address"
        },
        {
          "indexed": false,
          "internalType": "uint256",
          "name": "id",
          "type": "uint256"
        }
      ],
      "name": "DepositToPool",
      "type": "event"
    },
    {
      "anonymous": false,
      "inputs": [
        {
          "indexed": true,
          "internalType": "address",
          "name": "previousOwner",
          "type": "address"
        },
        {
          "indexed": true,
          "internalType": "address",
          "name": "newOwner",
          "type": "address"
        }
      ],
      "name": "OwnershipTransferred",
      "type": "event"
    },
    {
      "anonymous": false,
      "inputs": [
        {
          "indexed": false,
          "internalType": "address",
          "name": "depositContractAddress",
          "type": "address"
        },
        {
          "indexed": false,
          "internalType": "address",
          "name": "caller",
          "type": "address"
        }
      ],
      "name": "Stake",
      "type": "event"
    },
    {
      "stateMutability": "payable",
      "type": "fallback"
    },
    {
      "inputs": [
        {
          "internalType": "uint256",
          "name": "_id",
          "type": "uint256"
        }
      ],
      "name": "addToDeposit",
      "outputs": [],
      "stateMutability": "payable",
      "type": "function"
    },
    {
      "inputs": [],
      "name": "artForPool",
      "outputs": [
        {
          "internalType": "contract IFrensArt",
          "name": "",
          "type": "address"
        }
      ],
      "stateMutability": "view",
      "type": "function"
    },
    {
      "inputs": [
        {
          "internalType": "uint256",
          "name": "tokenId",
          "type": "uint256"
        }
      ],
      "name": "burn",
      "outputs": [],
      "stateMutability": "nonpayable",
      "type": "function"
    },
    {
      "inputs": [
        {
          "internalType": "uint256",
          "name": "rageQuitId",
          "type": "uint256"
        },
        {
          "internalType": "uint256",
          "name": "buyersTokenId",
          "type": "uint256"
        }
      ],
      "name": "buyOut",
      "outputs": [],
      "stateMutability": "payable",
      "type": "function"
    },
    {
      "inputs": [
        {
          "internalType": "uint256",
          "name": "_id",
          "type": "uint256"
        }
      ],
      "name": "claim",
      "outputs": [],
      "stateMutability": "nonpayable",
      "type": "function"
    },
    {
      "inputs": [
        {
          "internalType": "uint256",
          "name": "",
          "type": "uint256"
        }
      ],
      "name": "depositForId",
      "outputs": [
        {
          "internalType": "uint256",
          "name": "",
          "type": "uint256"
        }
      ],
      "stateMutability": "view",
      "type": "function"
    },
    {
      "inputs": [
        {
          "internalType": "bytes32[]",
          "name": "merkleProof",
          "type": "bytes32[]"
        }
      ],
      "name": "depositToPool",
      "outputs": [],
      "stateMutability": "payable",
      "type": "function"
    },
    {
      "inputs": [],
      "name": "deposit_data_root",
      "outputs": [
        {
          "internalType": "bytes32",
          "name": "",
          "type": "bytes32"
        }
      ],
      "stateMutability": "view",
      "type": "function"
    },
    {
      "inputs": [],
      "name": "exitPool",
      "outputs": [],
      "stateMutability": "nonpayable",
      "type": "function"
    },
    {
      "inputs": [
        {
          "internalType": "uint256",
          "name": "",
          "type": "uint256"
        }
      ],
      "name": "frenPastClaim",
      "outputs": [
        {
          "internalType": "uint256",
          "name": "",
          "type": "uint256"
        }
      ],
      "stateMutability": "view",
      "type": "function"
    },
    {
      "inputs": [],
      "name": "frensPoolShare",
      "outputs": [
        {
          "internalType": "contract IFrensPoolShare",
          "name": "",
          "type": "address"
        }
      ],
      "stateMutability": "view",
      "type": "function"
    },
    {
      "inputs": [],
      "name": "frensStorage",
      "outputs": [
        {
          "internalType": "contract IFrensStorage",
          "name": "",
          "type": "address"
        }
      ],
      "stateMutability": "view",
      "type": "function"
    },
    {
      "inputs": [
        {
          "internalType": "uint256",
          "name": "_id",
          "type": "uint256"
        }
      ],
      "name": "getDistributableShare",
      "outputs": [
        {
          "internalType": "uint256",
          "name": "",
          "type": "uint256"
        }
      ],
      "stateMutability": "view",
      "type": "function"
    },
    {
      "inputs": [],
      "name": "getIdsInThisPool",
      "outputs": [
        {
          "internalType": "uint256[]",
          "name": "",
          "type": "uint256[]"
        }
      ],
      "stateMutability": "view",
      "type": "function"
    },
    {
      "inputs": [
        {
          "internalType": "uint256",
          "name": "_id",
          "type": "uint256"
        }
      ],
      "name": "getShare",
      "outputs": [
        {
          "internalType": "uint256",
          "name": "",
          "type": "uint256"
        }
      ],
      "stateMutability": "view",
      "type": "function"
    },
    {
      "inputs": [],
      "name": "getState",
      "outputs": [
        {
          "internalType": "string",
          "name": "",
          "type": "string"
        }
      ],
      "stateMutability": "view",
      "type": "function"
    },
    {
      "inputs": [
        {
          "internalType": "address",
          "name": "",
          "type": "address"
        }
      ],
      "name": "hasClaimed",
      "outputs": [
        {
          "internalType": "bool",
          "name": "",
          "type": "bool"
        }
      ],
      "stateMutability": "view",
      "type": "function"
    },
    {
      "inputs": [
        {
          "internalType": "uint256",
          "name": "",
          "type": "uint256"
        }
      ],
      "name": "idsInPool",
      "outputs": [
        {
          "internalType": "uint256",
          "name": "",
          "type": "uint256"
        }
      ],
      "stateMutability": "view",
      "type": "function"
    },
    {
      "inputs": [
        {
          "internalType": "uint256",
          "name": "",
          "type": "uint256"
        }
      ],
      "name": "locked",
      "outputs": [
        {
          "internalType": "bool",
          "name": "",
          "type": "bool"
        }
      ],
      "stateMutability": "view",
      "type": "function"
    },
    {
      "inputs": [],
      "name": "merkleRoot",
      "outputs": [
        {
          "internalType": "bytes32",
          "name": "",
          "type": "bytes32"
        }
      ],
      "stateMutability": "view",
      "type": "function"
    },
    {
      "inputs": [],
      "name": "owner",
      "outputs": [
        {
          "internalType": "address",
          "name": "",
          "type": "address"
        }
      ],
      "stateMutability": "view",
      "type": "function"
    },
    {
      "inputs": [],
      "name": "poolMax",
      "outputs": [
        {
          "internalType": "uint256",
          "name": "",
          "type": "uint256"
        }
      ],
      "stateMutability": "view",
      "type": "function"
    },
    {
      "inputs": [],
      "name": "poolMin",
      "outputs": [
        {
          "internalType": "uint256",
          "name": "",
          "type": "uint256"
        }
      ],
      "stateMutability": "view",
      "type": "function"
    },
    {
      "inputs": [],
      "name": "privatePool",
      "outputs": [
        {
          "internalType": "bool",
          "name": "",
          "type": "bool"
        }
      ],
      "stateMutability": "view",
      "type": "function"
    },
    {
      "inputs": [],
      "name": "pubKey",
      "outputs": [
        {
          "internalType": "bytes",
          "name": "",
          "type": "bytes"
        }
      ],
      "stateMutability": "view",
      "type": "function"
    },
    {
      "inputs": [
        {
          "internalType": "uint256",
          "name": "_id",
          "type": "uint256"
        },
        {
          "internalType": "uint256",
          "name": "_price",
          "type": "uint256"
        }
      ],
      "name": "rageQuit",
      "outputs": [],
      "stateMutability": "nonpayable",
      "type": "function"
    },
    {
      "inputs": [
        {
          "internalType": "uint256",
          "name": "",
          "type": "uint256"
        }
      ],
      "name": "rageQuitInfo",
      "outputs": [
        {
          "internalType": "uint256",
          "name": "price",
          "type": "uint256"
        },
        {
          "internalType": "uint256",
          "name": "time",
          "type": "uint256"
        }
      ],
      "stateMutability": "view",
      "type": "function"
    },
    {
      "inputs": [],
      "name": "renounceOwnership",
      "outputs": [],
      "stateMutability": "nonpayable",
      "type": "function"
    },
    {
      "inputs": [
        {
          "internalType": "contract IFrensArt",
          "name": "newArtContract",
          "type": "address"
        }
      ],
      "name": "setArt",
      "outputs": [],
      "stateMutability": "nonpayable",
      "type": "function"
    },
    {
      "inputs": [
        {
          "internalType": "bytes",
          "name": "_pubKey",
          "type": "bytes"
        },
        {
          "internalType": "bytes",
          "name": "_withdrawal_credentials",
          "type": "bytes"
        },
        {
          "internalType": "bytes",
          "name": "_signature",
          "type": "bytes"
        },
        {
          "internalType": "bytes32",
          "name": "_deposit_data_root",
          "type": "bytes32"
        }
      ],
      "name": "setPubKey",
      "outputs": [],
      "stateMutability": "nonpayable",
      "type": "function"
    },
    {
      "inputs": [],
      "name": "signature",
      "outputs": [
        {
          "internalType": "bytes",
          "name": "",
          "type": "bytes"
        }
      ],
      "stateMutability": "view",
      "type": "function"
    },
    {
      "inputs": [],
      "name": "stake",
      "outputs": [],
      "stateMutability": "nonpayable",
      "type": "function"
    },
    {
      "inputs": [
        {
          "internalType": "bytes",
          "name": "_pubKey",
          "type": "bytes"
        },
        {
          "internalType": "bytes",
          "name": "_withdrawal_credentials",
          "type": "bytes"
        },
        {
          "internalType": "bytes",
          "name": "_signature",
          "type": "bytes"
        },
        {
          "internalType": "bytes32",
          "name": "_deposit_data_root",
          "type": "bytes32"
        }
      ],
      "name": "stake",
      "outputs": [],
      "stateMutability": "nonpayable",
      "type": "function"
    },
    {
      "inputs": [],
      "name": "totalClaims",
      "outputs": [
        {
          "internalType": "uint256",
          "name": "",
          "type": "uint256"
        }
      ],
      "stateMutability": "view",
      "type": "function"
    },
    {
      "inputs": [],
      "name": "totalDeposits",
      "outputs": [
        {
          "internalType": "uint256",
          "name": "",
          "type": "uint256"
        }
      ],
      "stateMutability": "view",
      "type": "function"
    },
    {
      "inputs": [],
      "name": "transferLocked",
      "outputs": [
        {
          "internalType": "bool",
          "name": "",
          "type": "bool"
        }
      ],
      "stateMutability": "view",
      "type": "function"
    },
    {
      "inputs": [
        {
          "internalType": "address",
          "name": "newOwner",
          "type": "address"
        }
      ],
      "name": "transferOwnership",
      "outputs": [],
      "stateMutability": "nonpayable",
      "type": "function"
    },
    {
      "inputs": [
        {
          "internalType": "uint256",
          "name": "_id",
          "type": "uint256"
        }
      ],
      "name": "unlockTransfer",
      "outputs": [],
      "stateMutability": "nonpayable",
      "type": "function"
    },
    {
      "inputs": [],
      "name": "validatorLocked",
      "outputs": [
        {
          "internalType": "bool",
          "name": "",
          "type": "bool"
        }
      ],
      "stateMutability": "view",
      "type": "function"
    },
    {
      "inputs": [],
      "name": "validatorSet",
      "outputs": [
        {
          "internalType": "bool",
          "name": "",
          "type": "bool"
        }
      ],
      "stateMutability": "view",
      "type": "function"
    },
    {
      "inputs": [
        {
          "internalType": "uint256",
          "name": "_id",
          "type": "uint256"
        },
        {
          "internalType": "uint256",
          "name": "_amount",
          "type": "uint256"
        }
      ],
      "name": "withdraw",
      "outputs": [],
      "stateMutability": "nonpayable",
      "type": "function"
    },
    {
      "inputs": [
        {
          "internalType": "uint256",
          "name": "_id",
          "type": "uint256"
        }
      ],
      "name": "withdrawAll",
      "outputs": [],
      "stateMutability": "nonpayable",
      "type": "function"
    },
    {
      "inputs": [],
      "name": "withdrawal_credentials",
      "outputs": [
        {
          "internalType": "bytes",
          "name": "",
          "type": "bytes"
        }
      ],
      "stateMutability": "view",
      "type": "function"
    },
    {
      "stateMutability": "payable",
      "type": "receive"
    }
  ],
  "bytecode": {
    "object": "0x6080604081815234620002d35760e0826200359c80380380916200002482856200030a565b833981010312620002d3576200003a826200032e565b6020926200004a84820162000343565b6200005784830162000343565b9060608301519160808401519660c060a08601519501519060018060a01b0390818316809303620002d3576200008d3362000351565b60018060a01b0319928084601354161760135589518281016f636f6e74726163742e6164647265737360801b9182825267119c995b9cd05c9d60c21b603082015260188152620000dd81620002d8565b519020908b516321f8a72160e01b9283825260048201528481602481875afa908115620002c8578593929187916000916200027f575b509060249291168860125416176012558d518481019182526d4672656e73506f6f6c536861726560901b6030820152601e81526200015181620002d8565b519020918d519485938492835260048301525afa91821562000274576000926200021c575b50509161ff00959391620001d8999a95931690601154161760115560ff600b5492151516948591151560081b169161ffff19161717600b5560095560085560001462000203576000805460ff60a01b191690555b80620001e6575b5062000351565b516132039081620003998239f35b601055630100000063ff00000019600b541617600b5538620001d1565b6000805460ff60a01b1916600160a01b179055620001ca565b81819392933d83116200026c575b6200023681836200030a565b810103126200026957509161ff0095939162000259620001d89a9b96946200032e565b9193959a99819395975062000176565b80fd5b503d6200022a565b8a513d6000823e3d90fd5b85819495969293503d8311620002c0575b6200029c81836200030a565b8101031262000269575084929186620002b76024936200032e565b90919262000113565b503d62000290565b8d513d6000823e3d90fd5b600080fd5b604081019081106001600160401b03821117620002f457604052565b634e487b7160e01b600052604160045260246000fd5b601f909101601f19168101906001600160401b03821190821017620002f457604052565b51906001600160a01b0382168203620002d357565b51908115158203620002d357565b600080546001600160a01b039283166001600160a01b03198216811783559216907f8be0079c531659141344cd1fd0a4f28419497f9722a3daafe3b4186f6b6457e09080a356fe6080604081815260048036101561001e575b505050361561001c57005b005b600092833560e01c90816312686aae14611fe8575080631865c57d14611fb75780632991795414611ea95780632cf2cd4814611e825780632daad61d14611e5b5780632eb4a7ab14611e3c57806330dbf88714611e13578063379607f5146119755780633a4b66f11461195c57806341c613831461193d57806342966c681461187e578063441a3e70146116ec57806345b58fe4146116395780634b2b4e361461157c57806351ff4847146114e3578063591167c7146114ba57806359b5e75e14611493578063678e300a14611473578063715018a61461141957806373b2e80e146113db5780637d882097146113bc5780638620891c14611255578063888e9cf8146112055780638ae578fd146111dc5780638da5cb5b146111b45780639426e2261461118d578063958e2d3114611078578063ac2a5dfd14610fdf578063b45a3c0e14610fb3578063b4bc91bc14610adc578063be85879814610866578063bed62f35146107c5578063cd8df8a6146107a6578063cfb5a5f814610715578063e2d9ae3e146106f6578063e3f05d83146106d2578063e4a50276146105fa578063e6b1a3ae146104ba578063e920eec01461048e578063f038afe31461032a578063f2fde38b14610256578063f8f306e1146102335763fc03bad203610011573461022f57602036600319011261022f5791828293358252602052206001815491015482519182526020820152f35b8280fd5b5050346102525781600319360112610252576020906009549051908152f35b5080fd5b50903461022f57602036600319011261022f576001600160a01b0382358181169391929084900361032657610289613115565b83156102d4575050600054826bffffffffffffffffffffffff60a01b821617600055167f8be0079c531659141344cd1fd0a4f28419497f9722a3daafe3b4186f6b6457e0600080a380f35b906020608492519162461bcd60e51b8352820152602660248201527f4f776e61626c653a206e6577206f776e657220697320746865207a65726f206160448201526564647265737360d01b6064820152fd5b8480fd5b503461022f5761033936612054565b60115484516331a9108f60e11b815280850184905291939260209290916001600160a01b03908116918481602481865afa9283156104845761038a8360249588948d91610467575b501633146123cb565b885193848092631dc82a7560e01b8252878a8301525afa90811561045d576103bc92899261042e575b50163014612367565b808652600182528486205484116103df5785525281832055600142918320015580f35b845162461bcd60e51b81528084018390526024808201527f63616e6e6f742073657420707269636520686967686572207468616e206465706044820152631bdcda5d60e21b6064820152608490fd5b61044f919250853d8711610456575b6104478183612214565b810190612348565b90386103b3565b503d61043d565b87513d8a823e3d90fd5b61047e9150853d8711610456576104478183612214565b38610381565b88513d8b823e3d90fd5b83346104b7576104b46104a036612098565b956104af959195949294613115565b61297e565b80f35b80fd5b503461022f576020806003193601126105f65781356001600160a01b0381169390849003610326576104ea613115565b805163516b636d60e11b81526001848201528581602481885afa9081156105ec57869161056f575b505115610537575050506bffffffffffffffffffffffff60a01b601254161760125580f35b5162461bcd60e51b81529182015260146024820152731a5b9d985b1a5908185c9d0818dbdb9d1c9858dd60621b604482015260649150fd5b90503d8087833e6105808183612214565b81019083818303126105e85780519067ffffffffffffffff82116105e4570181601f820112156105e85780516105b5816124db565b926105c285519485612214565b8184528582840101116105e4576105de9185808501910161200c565b38610512565b8780fd5b8680fd5b82513d88823e3d90fd5b8380fd5b8284346104b757806003193601126104b757508051600091600d5461061e81612102565b808452906001908181169081156106aa575060011461065f575b50506106498261065b940383612214565b5191829160208352602083019061202f565b0390f35b600d600090815294506000805160206131ae8339815191525b828610610692575050509181016020019161064982610638565b80546020878701810191909152909501948101610678565b61065b965085925060209150926106499360ff191682840152151560051b8201019450610638565b50503461025257816003193601126102525760209060ff600b541690519015158152f35b505034610252578160031936011261025257602090600f549051908152f35b503461022f57602036600319011261022f576011548251631dc82a7560e01b81528235928101839052906001600160a01b03906020908390602490829085165afa91821561079c57916107789161077d9493602097926107845750163014612367565b612e72565b9051908152f35b61044f919250873d8111610456576104478183612214565b84513d87823e3d90fd5b5050346102525781600319360112610252576020906008549051908152f35b503461022f57602036600319011261022f57803590818452806020526001838520015462093a8081018091116108535742106108105750825260036020528120805460ff1916905580f35b606490602084519162461bcd60e51b8352820152601c60248201527f616c6c6f77206f6e65207765656b206265666f726520756e6c6f636b000000006044820152fd5b634e487b7160e01b855260118252602485fd5b509061087136612054565b60115483516331a9108f60e11b8082528187018490526001600160a01b039660209695946024949193918916929188818781875afa908115610abb576108c2918b918d91610ac557501633146123cb565b8651631dc82a7560e01b918282528582015288818781875afa908115610abb57906108f8918c91610a9e575b508a163014612367565b8651908152858482015287818681865afa908115610a945790610926918b91610a77575b5089163014612367565b848952828752858920543410610a355790868493928a95885180948193825289878301525afa908115610a2b579088918591610a0e575b501683803415610a05575b81808092853491f1156109fb57848452600387528584209760ff199889815416905560115416803b156103265784928360649289519687958694632142170760e11b865285015233908401528860448401525af180156109f1576109dd575b5092600391600194525283209182541617905580f35b6109e6906121ce565b6103265784386109c7565b84513d84823e3d90fd5b85513d85823e3d90fd5b506108fc610968565b610a259150883d8a11610456576104478183612214565b3861095d565b86513d86823e3d90fd5b855162461bcd60e51b81528084018890526017818601527f6d7573742073656e6420636f72726563742076616c75650000000000000000006044820152606490fd5b610a8e9150893d8b11610456576104478183612214565b3861091c565b87513d8c823e3d90fd5b610ab591508a3d8c11610456576104478183612214565b386108ee565b88513d8d823e3d90fd5b61047e91508b3d8d11610456576104478183612214565b50829060208060031936011261022f5767ffffffffffffffff93823585811161032657366023820112156103265780840135868111610e86578060051b602492368483830101116105e4573415610f7c5760ff885460a01c1687811015610f6a576001610b499114612236565b610b696801bc16d674ec800000610b626006543461227b565b111561229e565b6009543410610f2857610b806008543411156122fc565b60ff600b5460181c16610d4f575b5050509091928094955060018060a01b038481601154168551978880926318160ddd60e01b82525afa958615610d45578796610d11575b50858752600185523484882055610bde3460065461227b565b600655600a5468010000000000000000811015610cff576001810180600a55811015610ceb57908688949392600a6000527fc65a7bb8d6351c1cf70c95a316cc6a92839c986682d98bc35f958f4883f9d2a801558684526002865260018585205560ff600b5460081c16600387528585209060ff80198354169115151617905560115416803b156105f65783928392865194859384926335313c2160e11b845233908401525af18015610ce157610cc9575b507fd91527a40417d48f76ba016aaa9157e2ddaca6cb5b660432901659cb075058fc60608486858051923484523390840152820152a180f35b610cd5909392936121ce565b6105f657908385610c90565b83513d84823e3d90fd5b83603284634e487b7160e01b600052526000fd5b634e487b7160e01b8852604183528388fd5b9095508481813d8311610d3e575b610d298183612214565b81010312610d3957519487610bc5565b600080fd5b503d610d1f565b84513d89823e3d90fd5b3388526005865260ff8589205416610edb5760135485516f636f6e74726163742e6164647265737360801b88820190815270233932b739a6b2b935b632a83937bb32b960791b6030830152602182526001600160a01b039283169b606083019190821183831017610ec757988188818e9f849e9f9b9c9d828f52875190206321f8a72160e01b835260648801525afa918215610ebd578792610e8a575b50501660105491813b15610e8657875163879c84e960e01b815260608b82015260648101869052946001600160fb1b0310610e86578560848686819684988c849701858501378b83015233604483015281010301925af180156109f157610e72575b505033855260058352818520805460ff191660011790558493929190868080610b8e565b610e7b906121ce565b610326578486610e4e565b8580fd5b610eae92506060908b903d8d11610eb5575b610ea68285612214565b010190612348565b8b80610dec565b3d9150610e9c565b89513d89823e3d90fd5b8760418c634e487b7160e01b600052526000fd5b845162461bcd60e51b81528088018790526022818601527f796f75206861766520616c7265616479206d61646520796f7572206465706f736044820152611a5d60f21b6064820152608490fd5b845162461bcd60e51b8152808801879052601e818601527f62656c6f77206d696e696d756d206465706f73697420666f7220706f6f6c00006044820152606490fd5b634e487b7160e01b8952602188528489fd5b845162461bcd60e51b81528088018790526012818601527136bab9ba103232b837b9b4ba1032ba3432b960711b6044820152606490fd5b503461022f57602036600319011261022f578160209360ff923581526003855220541690519015158152f35b8284346104b757806003193601126104b757508051600091600c5461100381612102565b808452906001908181169081156106aa575060011461102d5750506106498261065b940383612214565b600c6000908152945060008051602061316e8339815191525b828610611060575050509181016020019161064982610638565b80546020878701810191909152909501948101611046565b503461022f576020806003193601126105f65781359160ff855460a01c168181101561117a5760016110aa9114612236565b6011548451631dc82a7560e01b81528083018590526001600160a01b039291831691908481602481865afa801561045d5785926110f660249289948c9161115d575b5087163014612367565b885194859384926331a9108f60e11b84528301525afa908115611153576001926104b496949261112f92899161113c57501633146123cb565b8386525283205490612414565b61047e9150843d8611610456576104478183612214565b85513d88823e3d90fd5b6111749150863d8811610456576104478183612214565b386110ec565b634e487b7160e01b865260218252602486fd5b50503461025257816003193601126102525760209060ff600b5460101c1690519015158152f35b505034610252578160031936011261025257905490516001600160a01b039091168152602090f35b50503461025257816003193601126102525760125490516001600160a01b039091168152602090f35b503461022f57602036600319011261022f5735600a5481101561022f5760209250600a6000527fc65a7bb8d6351c1cf70c95a316cc6a92839c986682d98bc35f958f4883f9d2a801549051908152f35b50602090816003193601126105f65780359060ff855460a01c168181101561117a5760016112839114612236565b61129c6801bc16d674ec800000610b626006543461227b565b6011548451631dc82a7560e01b8152828101849052906001600160a01b039081168583602481845afa92831561045d5760249387936112e4928b9261042e5750163014612367565b865192838092634f558e7960e01b825287878301525afa90811561115357869161138f575b501561135857509081600192855282825261133461132a348688205461227b565b60085410156122fc565b845252812061134434825461227b565b90556113523460065461227b565b60065580f35b835162461bcd60e51b815290810183905260116024820152701a5908191bd95cc81b9bdd08195e1a5cdd607a1b6044820152606490fd5b6113af9150843d86116113b5575b6113a78183612214565b8101906123b3565b38611309565b503d61139d565b5050346102525781600319360112610252576020906006549051908152f35b503461022f57602036600319011261022f57356001600160a01b0381169081900361022f57818360ff92602095526005855220541690519015158152f35b83346104b757806003193601126104b757611432613115565b600080546001600160a01b0319811682556001600160a01b03167f8be0079c531659141344cd1fd0a4f28419497f9722a3daafe3b4186f6b6457e08280a380f35b5091346104b75760203660031901126104b7575061077d60209235612ee5565b50503461025257816003193601126102525760209060ff600b5460181c1690519015158152f35b50503461025257816003193601126102525760115490516001600160a01b039091168152602090f35b8284346104b757806003193601126104b757508051600091600e5461150781612102565b808452906001908181169081156106aa57506001146115315750506106498261065b940383612214565b600e6000908152945060008051602061318e8339815191525b828610611564575050509181016020019161064982610638565b8054602087870181019190915290950194810161154a565b503461022f5761158b36612098565b9361159a989698939193613115565b600b5460101c60ff1615611624575050505050926115bb91929336916124f7565b6020815191012081516115d8816115d18161213c565b0382612214565b60208151910120036115ef5750505b6104b4612568565b906020606492519162461bcd60e51b8352820152600f60248201526e0e0eac496caf240dad2e6dac2e8c6d608b1b6044820152fd5b929550929550926116349661297e565b6115e7565b8284346104b757806003193601126104b757908051918290600a549182855260208095018093600a84527fc65a7bb8d6351c1cf70c95a316cc6a92839c986682d98bc35f958f4883f9d2a890845b8181106116d8575050508161169d910382612214565b83519485948186019282875251809352850193925b8281106116c157505050500390f35b8351855286955093810193928101926001016116b2565b825484529288019260019283019201611687565b50829034610252576116fd36612054565b9160ff845460a01c168181101561186b57600161171a9114612236565b6011548551631dc82a7560e01b81528281018490526020916001600160a01b0391908216908381602481855afa908115611861579161176885926024948b91611844575b5085163014612367565b8951928380926331a9108f60e11b825289898301525afa90811561183a579061179b9291889161181d57501633146123cb565b82855260018152858520546117b28560095461227b565b116117c257846104b48585612414565b855162461bcd60e51b815291820152603060248201527f696e76616c696420616d6f756e742c207769746864726177206c657373206f7260448201526f081d5cd9481dda5d1a191c985dd05b1b60821b606482015260849150fd5b6118349150843d8611610456576104478183612214565b89610381565b88513d89823e3d90fd5b61185b9150843d8611610456576104478183612214565b8c61175e565b89513d8a823e3d90fd5b634e487b7160e01b855260218252602485fd5b50903461022f57602036600319011261022f5782823560018060a01b039384601154169484516331a9108f60e11b815283838201526020816024818a5afa90811561193357906118d89291869161191b57501633146123cb565b843b1561022f576024908385519687948593630852cd8d60e31b85528401525af19081156119125750611909575080f35b6104b4906121ce565b513d84823e3d90fd5b61047e915060203d8111610456576104478183612214565b86513d87823e3d90fd5b5050346102525781600319360112610252576020906007549051908152f35b83346104b757806003193601126104b7576115e7613115565b509190346102525760208060031936011261022f5783359360018060a01b0391808360115416855191828092631dc82a7560e01b82528a8783015260249485915afa908115611d2357906119d3918891611df6575085163014612367565b60ff865460a01c1683811015611de45760018114611da2576064471115611d5257600314611d4a578360135416828651818101906f636f6e74726163742e6164647265737360801b82526a4672656e734f7261636c6560a81b6030820152601b8152611a3e816121f8565b519020838851809481936321f8a72160e01b8352898301525afa908115611d23578583899386938591611d2d575b50895163404df7b160e11b815230898201529485938492165af1908115611d23578791611d06575b50905b611aa088612e72565b9188885260028452868820611ab684825461227b565b9055611ac48360075461227b565b600755856013541690875185810190731c1c9bdd1bd8dbdb0b9999594b9c195c98d95b9d60621b825260148152611afa816121f8565b5190209088519163bd02d0f560e01b83528783015285828581865afa918215611cfc578a92611cc9575b508115159081611cc0575b50611bb7575b505086978391866011999899541695895196879384926331a9108f60e11b84528301525afa8015611933578594859485948593611b98575b505083918315611b8e575b1690f115611b84575080f35b51903d90823e3d90fd5b6108fc9250611b78565b611baf929350803d10610456576104478183612214565b903880611b6d565b8488949293945181810190751c1c9bdd1bd8dbdb0b9999594b9c9958da5c1a595b9d60521b825260168152611beb816121f8565b519020858a51809681936321f8a72160e01b83528b8301525afa928315610484578993611c98575b50611c2082606492612e5f565b049160018311611c49575b5097611c3c8492899a999899612407565b9291819950979697611b35565b6000198301999190838b11611c865798808080809d819c9d8c83918315611c7c575b1690f11561183a5790989796611c2b565b6108fc9250611c6b565b634e487b7160e01b8a5260118752848afd5b606491935082611cb7611c2092883d8a11610456576104478183612214565b94925050611c13565b90501538611b2f565b9091508581813d8311611cf5575b611ce18183612214565b81010312611cf157519038611b24565b8980fd5b503d611cd7565b89513d8c823e3d90fd5b611d1d9150833d85116113b5576113a78183612214565b38611a94565b86513d89823e3d90fd5b611d449150843d8611610456576104478183612214565b38611a6c565b600190611a97565b855162461bcd60e51b81528085018490526025818401527f6d7573742062652067726561746572207468616e203130302077656920746f20604482015264636c61696d60d81b6064820152608490fd5b855162461bcd60e51b8152808501849052601c818401527f757365207769746864726177207768656e206e6f74207374616b6564000000006044820152606490fd5b50634e487b7160e01b86526021835285fd5b611e0d9150843d8611610456576104478183612214565b3861175e565b50503461025257816003193601126102525760135490516001600160a01b039091168152602090f35b5050346102525781600319360112610252576020906010549051908152f35b503461022f57602036600319011261022f5760209282913581526001845220549051908152f35b503461022f57602036600319011261022f5760209282913581526002845220549051908152f35b50903461022f578260031936011261022f5760018060a01b03806013541660208351818101906f636f6e74726163742e6164647265737360801b82526a4672656e734f7261636c6560a81b6030820152601b8152611f06816121f8565b51902060248551809481936321f8a72160e01b8352898301525afa908115611fad578591611f8f575b50163303611f4c57825460ff60a01b1916600360a01b1783558280f35b906020606492519162461bcd60e51b8352820152601860248201527f6d7573742062652063616c6c6564206279206f7261636c6500000000000000006044820152fd5b611fa7915060203d8111610456576104478183612214565b38611f2f565b83513d87823e3d90fd5b50503461025257816003193601126102525761065b90611fd5612ff9565b905191829160208352602083019061202f565b84903461025257816003193601126102525760209060ff600b5460081c1615158152f35b60005b83811061201f5750506000910152565b818101518382015260200161200f565b906020916120488151809281855285808601910161200c565b601f01601f1916010190565b6040906003190112610d39576004359060243590565b9181601f84011215610d395782359167ffffffffffffffff8311610d395760208381860195010111610d3957565b906080600319830112610d395767ffffffffffffffff600435818111610d3957836120c59160040161206a565b93909392602435838111610d3957826120e09160040161206a565b93909392604435918211610d39576120fa9160040161206a565b909160643590565b90600182811c92168015612132575b602083101461211c57565b634e487b7160e01b600052602260045260246000fd5b91607f1691612111565b600c546000929161214c82612102565b808252916001908181169081156121b1575060011461216a57505050565b91929350600c60005260008051602061316e833981519152916000925b84841061219957505060209250010190565b80546020858501810191909152909301928101612187565b915050602093945060ff929192191683830152151560051b010190565b67ffffffffffffffff81116121e257604052565b634e487b7160e01b600052604160045260246000fd5b6040810190811067ffffffffffffffff8211176121e257604052565b90601f8019910116810190811067ffffffffffffffff8211176121e257604052565b1561223d57565b60405162461bcd60e51b81526020600482015260166024820152756e6f7420616363657074696e67206465706f7369747360501b6044820152606490fd5b9190820180921161228857565b634e487b7160e01b600052601160045260246000fd5b156122a557565b60405162461bcd60e51b815260206004820152602960248201527f746f74616c206465706f736974732063616e6e6f74206265206d6f72652074686044820152680c2dc406664408ae8d60bb1b6064820152608490fd5b1561230357565b60405162461bcd60e51b815260206004820152601e60248201527f61626f7665206d6178696d756d206465706f73697420666f7220706f6f6c00006044820152606490fd5b90816020910312610d3957516001600160a01b0381168103610d395790565b1561236e57565b60405162461bcd60e51b815260206004820152601960248201527f77726f6e67207374616b696e6720706f6f6c20666f72206964000000000000006044820152606490fd5b90816020910312610d3957518015158103610d395790565b156123d257565b60405162461bcd60e51b815260206004820152600d60248201526c3737ba103a34329037bbb732b960991b6044820152606490fd5b9190820391821161228857565b9060009180835260016020526040832061242f838254612407565b905561243d82600654612407565b6006556011546040516331a9108f60e11b815260048101929092526001600160a01b03906020908390602490829085165afa9182156124d057849384938493849384926124b0575b50839183156124a6575b1690f11561249a5750565b604051903d90823e3d90fd5b6108fc925061248f565b6124c991925060203d8111610456576104478183612214565b9038612485565b6040513d86823e3d90fd5b67ffffffffffffffff81116121e257601f01601f191660200190565b929192612503826124db565b916125116040519384612214565b829481845281830111610d39578281602093846000960137010152565b1561253557565b60405162461bcd60e51b815260206004820152600b60248201526a77726f6e6720737461746560a81b6044820152606490fd5b6801bc16d674ec8000009081471061294857816006540361290d57600080549260ff8460a01c1693600494858110156128fa576125a8600180921461252e565b60ff600b5460101c16156128c25760018060a01b039384601354166040958651602095868201937f65787465726e616c2e636f6e74726163742e616464726573730000000000000085526e11195c1bdcda5d10dbdb9d1c9858dd608a1b603984015260288352606083019067ffffffffffffffff95848310878411176128ae57828c52845190206321f8a72160e01b835260648501528890829060249082905afa9283156128a4578693612880575b505060ff60a01b1916600160a11b178455600f54911695863b156105f65787516304512a2360e31b815260808b8201529484928692919061269a6084850161213c565b60031985820381016024870152600d548794926126b682612102565b918282528d8582169182600014612861575050600114612818575b50508584030160448601528592600e54916126eb83612102565b92838352878d83831692836000146127f7575050506001146127ab575b5050508391829160648301520391895af180156127a157612758575b5050507f72b356fd889b9abd3530accd2c9f4aecbce67d70757181f9f862ac91464ce19293945082519182523390820152a1565b821161278e57507f72b356fd889b9abd3530accd2c9f4aecbce67d70757181f9f862ac91464ce192949550835284933880612724565b634e487b7160e01b815260418752602490fd5b86513d84823e3d90fd5b918b939450600e885260008051602061318e8339815191529288935b8285106127dc57505050010190808480612708565b80548486018701528b99508c98508d959094019381016127c7565b60ff19168582015294151560051b9093019093019450839250819050612708565b8c929550600d89526000805160206131ae8339815191529189925b81841061284657505001019238806126d1565b80548385018601528c9a508d99508e94909301928501612833565b60ff19168382015292151560051b9091019091019450389050806126d1565b61289c92935060609089903d8b11610eb557610ea68285612214565b903880612657565b8a513d88823e3d90fd5b50634e487b7160e01b875260418d52602487fd5b60405162461bcd60e51b815260208188015260116024820152701d985b1a59185d1bdc881b9bdd081cd95d607a1b6044820152606490fd5b634e487b7160e01b845260218652602484fd5b60405162461bcd60e51b81526020600482015260136024820152726e6f7420656e6f756768206465706f7369747360681b6044820152606490fd5b60405162461bcd60e51b815260206004820152600e60248201526d0dcdee840cadcdeeaced040cae8d60931b6044820152606490fd5b929094939194600160f81b300190813011612288576040516020928382019081528382526129ab826121f8565b6129b636868b6124f7565b8481519101209151902003612e1a57600b5460ff8116612db2575b5060009260ff845460a01c16976004891015612d9e576129f46001809a1461252e565b67ffffffffffffffff92838111612d8a5780612a11600c54612102565b98601f998a8111612d2f575b5087908a8311600114612cb9578892612cae575b5050600019600383901b1c1916908a1b17600c555b828211612c9a578190612a5a600d54612102565b888111612c3f575b508590888311600114612bd2578692612bc7575b5050600019600383901b1c191690881b17600d555b8511612bb357612a9c600e54612102565b848111612b63575b5081938511600114612af1575091839491849394612ae6575b50501b916000199060031b1c191617600e555b600f556201000062ff000019600b541617600b55565b013592503880612abd565b600e825260008051602061318e83398151915293918591601f19831691905b88838310612b495750505010612b2f575b505050811b01600e55612ad0565b0135600019600384901b60f8161c19169055388080612b21565b868601358855909601959384019387935090810190612b10565b600e835260008051602061318e8339815191528580880160051c820192848910612baa575b0160051c019087905b828110612b9f575050612aa4565b848155018790612b91565b92508192612b88565b634e487b7160e01b82526041600452602482fd5b013590503880612a76565b600d87528a93506000805160206131ae83398151915291601f198416885b88828210612c295750508411612c0f575b505050811b01600d55612a8b565b0135600019600384901b60f8161c19169055388080612c01565b8385013586558e97909501949283019201612bf0565b909150600d86526000805160206131ae8339815191528880850160051c820192878610612c91575b918c91869594930160051c01915b828110612c83575050612a62565b8881558594508c9101612c75565b92508192612c67565b634e487b7160e01b85526041600452602485fd5b013590503880612a31565b600c89528c935060008051602061316e83398151915291601f1984168a5b8a828210612d105750508411612cf6575b505050811b01600c55612a46565b0135600019600384901b60f8161c19169055388080612ce8565b91929596849587849396013581550195019201908e9594939291612cd7565b909150600c885260008051602061316e8339815191528a80850160051c820192898610612d81575b918e91869594930160051c01915b828110612d73575050612a1d565b8a81558594508e9101612d65565b92508192612d57565b634e487b7160e01b86526041600452602486fd5b634e487b7160e01b85526021600452602485fd5b60009081549060ff8260a01c166004811015612e065790612dd560ff921561252e565b60101c16612df25760ff60a01b1916600160a01b179055386129d1565b634e487b7160e01b82526001600452602482fd5b634e487b7160e01b84526021600452602484fd5b60405162461bcd60e51b815260048101839052601e60248201527f7769746864726177616c2063726564656e7469616c206d69736d6174636800006044820152606490fd5b8181029291811591840414171561228857565b4715612edf576000908152600160205260408120546002602052612ea8604083205491612ea2476007549061227b565b90612e5f565b600654908115612ecb57048015612ec657612ec39250612407565b90565b505090565b634e487b7160e01b84526012600452602484fd5b50600090565b600060ff815460a01c16916004831015612fe55760018303612f075750905090565b612f1090612e72565b9160018060a01b0360135416602060405181810190731c1c9bdd1bd8dbdb0b9999594b9c195c98d95b9d60621b825260148152612f4c816121f8565b51902060246040518094819363bd02d0f560e01b835260048301525afa92831561249a578093612faf575b50508115159081612fa3575b50612f8c575090565b906064612f9c82612ec394612e5f565b0490612407565b60039150141538612f83565b909192506020823d8211612fdd575b81612fcb60209383612214565b810103126104b7575051903880612f77565b3d9150612fbe565b634e487b7160e01b82526021600452602482fd5b60ff60005460a01c1660048110156130ff5780156130c557600281146130a257600181146130735760031461305157604051613034816121f8565b600d81526c7374617465206661696c75726560981b602082015290565b60405161305d816121f8565b6006815265195e1a5d195960d21b602082015290565b50604051613080816121f8565b6012815271616363657074696e67206465706f7369747360701b602082015290565b506040516130af816121f8565b60068152651cdd185ad95960d21b602082015290565b506040516130d2816121f8565b601781527f6177616974696e672076616c696461746f7220696e666f000000000000000000602082015290565b634e487b7160e01b600052602160045260246000fd5b6000546001600160a01b0316330361312957565b606460405162461bcd60e51b815260206004820152602060248201527f4f776e61626c653a2063616c6c6572206973206e6f7420746865206f776e65726044820152fdfedf6966c971051c3d54ec59162606531493a51404a002842f56009d7e5cf4a8c7bb7b4a454dc3493923482f07822329ed19e8244eff582cc204f8554c3620c3fdd7b6990105719101dabeb77144f2a3385c8033acd3af97e9423a695e81ad1eb5a264697066735822122048d048cb1369ac7882312b5c71e71cfbc6ce66c9ba7e174ae9cb1531004b3d1264736f6c63430008110033",
    "linkReferences": {}
  },
  "methodIdentifiers": {
    "addToDeposit(uint256)": "8620891c",
    "artForPool()": "8ae578fd",
    "burn(uint256)": "42966c68",
    "buyOut(uint256,uint256)": "be858798",
    "claim(uint256)": "379607f5",
    "depositForId(uint256)": "2daad61d",
    "depositToPool(bytes32[])": "b4bc91bc",
    "deposit_data_root()": "e2d9ae3e",
    "exitPool()": "29917954",
    "frenPastClaim(uint256)": "2cf2cd48",
    "frensPoolShare()": "591167c7",
    "frensStorage()": "30dbf887",
    "getDistributableShare(uint256)": "678e300a",
    "getIdsInThisPool()": "45b58fe4",
    "getShare(uint256)": "cfb5a5f8",
    "getState()": "1865c57d",
    "hasClaimed(address)": "73b2e80e",
    "idsInPool(uint256)": "888e9cf8",
    "locked(uint256)": "b45a3c0e",
    "merkleRoot()": "2eb4a7ab",
    "owner()": "8da5cb5b",
    "poolMax()": "cd8df8a6",
    "poolMin()": "f8f306e1",
    "privatePool()": "59b5e75e",
    "pubKey()": "ac2a5dfd",
    "rageQuit(uint256,uint256)": "f038afe3",
    "rageQuitInfo(uint256)": "fc03bad2",
    "renounceOwnership()": "715018a6",
    "setArt(address)": "e6b1a3ae",
    "setPubKey(bytes,bytes,bytes,bytes32)": "e920eec0",
    "signature()": "51ff4847",
    "stake()": "3a4b66f1",
    "stake(bytes,bytes,bytes,bytes32)": "4b2b4e36",
    "totalClaims()": "41c61383",
    "totalDeposits()": "7d882097",
    "transferLocked()": "12686aae",
    "transferOwnership(address)": "f2fde38b",
    "unlockTransfer(uint256)": "bed62f35",
    "validatorLocked()": "e3f05d83",
    "validatorSet()": "9426e226",
    "withdraw(uint256,uint256)": "441a3e70",
    "withdrawAll(uint256)": "958e2d31",
    "withdrawal_credentials()": "e4a50276"
  },
  "id": 7
}