{
  "abi": [
    {
      "inputs": [
        {
          "internalType": "address",
          "name": "owner_",
          "type": "address"
        },
        {
          "internalType": "bool",
          "name": "validatorLocked_",
          "type": "bool"
        },
        {
          "internalType": "contract IFrensStorage",
          "name": "frensStorage_",
          "type": "address"
        }
      ],
      "stateMutability": "nonpayable",
      "type": "constructor"
    },
    {
      "anonymous": false,
      "inputs": [
        {
          "indexed": false,
          "internalType": "uint256",
          "name": "amount",
          "type": "uint256"
        },
        {
          "indexed": false,
          "internalType": "address",
          "name": "depositer",
          "type": "address"
        },
        {
          "indexed": false,
          "internalType": "uint256",
          "name": "id",
          "type": "uint256"
        }
      ],
      "name": "DepositToPool",
      "type": "event"
    },
    {
      "anonymous": false,
      "inputs": [
        {
          "indexed": false,
          "internalType": "address",
          "name": "sender",
          "type": "address"
        },
        {
          "indexed": false,
          "internalType": "address",
          "name": "to",
          "type": "address"
        },
        {
          "indexed": false,
          "internalType": "uint256",
          "name": "value",
          "type": "uint256"
        },
        {
          "indexed": false,
          "internalType": "bytes",
          "name": "data",
          "type": "bytes"
        },
        {
          "indexed": false,
          "internalType": "bytes",
          "name": "result",
          "type": "bytes"
        }
      ],
      "name": "ExecuteTransaction",
      "type": "event"
    },
    {
      "anonymous": false,
      "inputs": [
        {
          "indexed": true,
          "internalType": "address",
          "name": "previousOwner",
          "type": "address"
        },
        {
          "indexed": true,
          "internalType": "address",
          "name": "newOwner",
          "type": "address"
        }
      ],
      "name": "OwnershipTransferred",
      "type": "event"
    },
    {
      "anonymous": false,
      "inputs": [
        {
          "indexed": false,
          "internalType": "address",
          "name": "depositContractAddress",
          "type": "address"
        },
        {
          "indexed": false,
          "internalType": "address",
          "name": "caller",
          "type": "address"
        }
      ],
      "name": "Stake",
      "type": "event"
    },
    {
      "stateMutability": "payable",
      "type": "fallback"
    },
    {
      "inputs": [
        {
          "internalType": "uint256",
          "name": "_id",
          "type": "uint256"
        }
      ],
      "name": "addToDeposit",
      "outputs": [],
      "stateMutability": "payable",
      "type": "function"
    },
    {
      "inputs": [
        {
          "internalType": "address",
          "name": "claimant",
          "type": "address"
        }
      ],
      "name": "claim",
      "outputs": [],
      "stateMutability": "nonpayable",
      "type": "function"
    },
    {
      "inputs": [],
      "name": "claim",
      "outputs": [],
      "stateMutability": "nonpayable",
      "type": "function"
    },
    {
      "inputs": [],
      "name": "claimAll",
      "outputs": [],
      "stateMutability": "nonpayable",
      "type": "function"
    },
    {
      "inputs": [],
      "name": "depositToPool",
      "outputs": [],
      "stateMutability": "payable",
      "type": "function"
    },
    {
      "inputs": [],
      "name": "distribute",
      "outputs": [],
      "stateMutability": "nonpayable",
      "type": "function"
    },
    {
      "inputs": [],
      "name": "distributeAndClaim",
      "outputs": [],
      "stateMutability": "nonpayable",
      "type": "function"
    },
    {
      "inputs": [],
      "name": "distributeAndClaimAll",
      "outputs": [],
      "stateMutability": "nonpayable",
      "type": "function"
    },
    {
      "inputs": [],
      "name": "exitPool",
      "outputs": [],
      "stateMutability": "nonpayable",
      "type": "function"
    },
    {
      "inputs": [
        {
          "internalType": "uint256",
          "name": "_id",
          "type": "uint256"
        }
      ],
      "name": "getDepositAmount",
      "outputs": [
        {
          "internalType": "uint256",
          "name": "",
          "type": "uint256"
        }
      ],
      "stateMutability": "view",
      "type": "function"
    },
    {
      "inputs": [
        {
          "internalType": "uint256",
          "name": "_id",
          "type": "uint256"
        }
      ],
      "name": "getDistributableShare",
      "outputs": [
        {
          "internalType": "uint256",
          "name": "",
          "type": "uint256"
        }
      ],
      "stateMutability": "view",
      "type": "function"
    },
    {
      "inputs": [],
      "name": "getIdsInThisPool",
      "outputs": [
        {
          "internalType": "uint256[]",
          "name": "",
          "type": "uint256[]"
        }
      ],
      "stateMutability": "view",
      "type": "function"
    },
    {
      "inputs": [],
      "name": "getPubKey",
      "outputs": [
        {
          "internalType": "bytes",
          "name": "",
          "type": "bytes"
        }
      ],
      "stateMutability": "view",
      "type": "function"
    },
    {
      "inputs": [
        {
          "internalType": "uint256",
          "name": "_id",
          "type": "uint256"
        }
      ],
      "name": "getShare",
      "outputs": [
        {
          "internalType": "uint256",
          "name": "",
          "type": "uint256"
        }
      ],
      "stateMutability": "view",
      "type": "function"
    },
    {
      "inputs": [],
      "name": "getState",
      "outputs": [
        {
          "internalType": "string",
          "name": "",
          "type": "string"
        }
      ],
      "stateMutability": "view",
      "type": "function"
    },
    {
      "inputs": [],
      "name": "getTotalDeposits",
      "outputs": [
        {
          "internalType": "uint256",
          "name": "",
          "type": "uint256"
        }
      ],
      "stateMutability": "view",
      "type": "function"
    },
    {
      "inputs": [],
      "name": "owner",
      "outputs": [
        {
          "internalType": "address",
          "name": "",
          "type": "address"
        }
      ],
      "stateMutability": "view",
      "type": "function"
    },
    {
      "inputs": [],
      "name": "renounceOwnership",
      "outputs": [],
      "stateMutability": "nonpayable",
      "type": "function"
    },
    {
      "inputs": [
        {
          "internalType": "address",
          "name": "newArtContract",
          "type": "address"
        }
      ],
      "name": "setArt",
      "outputs": [],
      "stateMutability": "nonpayable",
      "type": "function"
    },
    {
      "inputs": [
        {
          "internalType": "bytes",
          "name": "pubKey",
          "type": "bytes"
        },
        {
          "internalType": "bytes",
          "name": "withdrawal_credentials",
          "type": "bytes"
        },
        {
          "internalType": "bytes",
          "name": "signature",
          "type": "bytes"
        },
        {
          "internalType": "bytes32",
          "name": "deposit_data_root",
          "type": "bytes32"
        }
      ],
      "name": "setPubKey",
      "outputs": [],
      "stateMutability": "nonpayable",
      "type": "function"
    },
    {
      "inputs": [],
      "name": "stake",
      "outputs": [],
      "stateMutability": "nonpayable",
      "type": "function"
    },
    {
      "inputs": [
        {
          "internalType": "bytes",
          "name": "pubKey",
          "type": "bytes"
        },
        {
          "internalType": "bytes",
          "name": "withdrawal_credentials",
          "type": "bytes"
        },
        {
          "internalType": "bytes",
          "name": "signature",
          "type": "bytes"
        },
        {
          "internalType": "bytes32",
          "name": "deposit_data_root",
          "type": "bytes32"
        }
      ],
      "name": "stake",
      "outputs": [],
      "stateMutability": "nonpayable",
      "type": "function"
    },
    {
      "inputs": [
        {
          "internalType": "address",
          "name": "newOwner",
          "type": "address"
        }
      ],
      "name": "transferOwnership",
      "outputs": [],
      "stateMutability": "nonpayable",
      "type": "function"
    },
    {
      "inputs": [],
      "name": "version",
      "outputs": [
        {
          "internalType": "uint8",
          "name": "",
          "type": "uint8"
        }
      ],
      "stateMutability": "view",
      "type": "function"
    },
    {
      "inputs": [
        {
          "internalType": "uint256",
          "name": "_id",
          "type": "uint256"
        },
        {
          "internalType": "uint256",
          "name": "_amount",
          "type": "uint256"
        }
      ],
      "name": "withdraw",
      "outputs": [],
      "stateMutability": "nonpayable",
      "type": "function"
    },
    {
      "stateMutability": "payable",
      "type": "receive"
    }
  ],
  "bytecode": {
    "object": "0x6080604081815234620001d157606082620025de8038038091620000248285620001d6565b833981010312620001d1576200003a82620001fa565b60209283810151908115158203620001d1578301516001600160a01b039182821691829003620001d1576200006f336200020f565b600180546001600160a01b0319808216851790925586516f636f6e74726163742e6164647265737360801b8982019081526d4672656e73506f6f6c536861726560901b6030830152601e825281890199929692906001600160401b038b11838c1017620001bb578a8a52825190206321f8a72160e01b8b526044830152808a602481895afa918215620001b0576000926200016c575b50506200013597985016906002541617600255600014620001505750506001805460ff60a01b191690556200020f565b6000805460ff60a01b19169055516123879081620002578239f35b6001600160a81b031990911617600160a01b176001556200020f565b813d8311620001a8575b62000182818d620001d6565b81010312620001a557506200019c620001359798620001fa565b88973862000105565b80fd5b503d62000176565b89513d6000823e3d90fd5b634e487b7160e01b600052604160045260246000fd5b600080fd5b601f909101601f19168101906001600160401b03821190821017620001bb57604052565b51906001600160a01b0382168203620001d157565b600080546001600160a01b039283166001600160a01b03198216811783559216907f8be0079c531659141344cd1fd0a4f28419497f9722a3daafe3b4186f6b6457e09080a356fe6080604081815260048036101561001e575b505050361561001c57005b005b600092833560e01c908163168a482214610f2e575080631865c57d14610f105780631e83409a14610ee35780632991795414610e92578063378de45b14610e0b5780633a4b66f114610de6578063441a3e7014610b5557806345b58fe414610afb5780634ad02ef114610ab65780634b2b4e36146109ac5780634e71d92d1461099257806354fd4d501461096f57806355ec447f1461094e578063678e300a1461092e578063715018a6146108d05780638620891c1461070b5780638da5cb5b146106df5780639278e714146106bd578063cfb5a5f814610696578063d1058e591461067d578063e4fc6b6d14610664578063e6b1a3ae146104ad578063e920eec014610475578063f2fde38b146103a85763f9faa1040361001157826003193601126103235760ff60015460a01c1681811015610395576001610162911461103e565b341561035e578151916101b66801bc16d674ec8000006101af6020956101aa8782016101a0836101923084611083565b03601f198101855284611113565b3492519020611270565b611135565b1115611158565b838151928185808601956f636f6e74726163742e6164647265737360801b87526e233932b739a837b7b629b2ba3a32b960891b6030820152601f81526101fb816110f7565b519095206001600160a01b03959086906102149061120a565b16602486518094819363068b0e0760e41b835234888401525af19081156103545790610247918491610327575b506111ce565b610273835186810190671d1bdad95b8b9a5960c21b82526008815261026b816110f7565b519020611270565b9360025416803b156103235760248392855194859384926335313c2160e11b845233908401525af18015610319576102df575b5091606091837fd91527a40417d48f76ba016aaa9157e2ddaca6cb5b660432901659cb075058fc9451923484523390840152820152a180f35b917fd91527a40417d48f76ba016aaa9157e2ddaca6cb5b660432901659cb075058fc93919461030f6060946110b1565b94919350916102a6565b82513d87823e3d90fd5b8280fd5b6103479150873d891161034d575b61033f8183611113565b8101906111b6565b38610241565b503d610335565b84513d85823e3d90fd5b6020606492519162461bcd60e51b8352820152601260248201527136bab9ba103232b837b9b4ba1032ba3432b960711b6044820152fd5b634e487b7160e01b845260218252602484fd5b509034610323576020366003190112610323576001600160a01b0382358181169390849003610471578454918216926103e233851461131e565b841561041f5750506001600160a01b031916821783557f8be0079c531659141344cd1fd0a4f28419497f9722a3daafe3b4186f6b6457e08380a380f35b906020608492519162461bcd60e51b8352820152602660248201527f4f776e61626c653a206e6577206f776e657220697320746865207a65726f206160448201526564647265737360d01b6064820152fd5b8480fd5b83346104aa576104a761048736610fd4565b956104a260018060a09894989795971b038a5416331461131e565b6118c5565b80f35b80fd5b503461032357602090816003193601126106605780356001600160a01b038181169182900361065c576104e481875416331461131e565b845163516b636d60e11b81526001848201528681602481865afa9081156106525787916105fb575b5051156105c15790602484926105648751858101906f636f6e74726163742e6164647265737360801b82526e233932b739a837b7b629b2ba3a32b960891b6030820152601f815261055c816110f7565b51902061120a565b16938787519586948593637358d1d760e11b85528401525af19182156105b4576104a793508492610597575b50506111ce565b6105ad9250803d1061034d5761033f8183611113565b3880610590565b50505051903d90823e3d90fd5b845162461bcd60e51b815280840185905260146024820152731a5b9d985b1a5908185c9d0818dbdb9d1c9858dd60621b6044820152606490fd5b90503d8088833e61060c8183611113565b810190858183031261064a5780519067ffffffffffffffff821161064e57019080601f8301121561064a57815161064492870161140f565b3861050c565b8780fd5b8880fd5b86513d89823e3d90fd5b8580fd5b8380fd5b83346104aa57806003193601126104aa576104a7611add565b83346104aa57806003193601126104aa576104a7611ed3565b5091346104aa5760203660031901126104aa57506106b6602092356121e6565b9051908152f35b83346104aa57806003193601126104aa576106d6611add565b6104a733611e3c565b505034610707578160031936011261070757905490516001600160a01b039091168152602090f35b5080fd5b506020908160031936011261066057803560018060a01b036024848260025416875192838092634f558e7960e01b825287898301525afa9081156106525787916108b3575b501561087c5761078f6107868651868101906a1c1bdbdb0b999bdc8b9a5960aa1b825285602b820152602b815261055c816110db565b821630146112dd565b60ff60015460a01c1683811015610869578492916107b160016044931461103e565b6107ed6801bc16d674ec8000006101af6107e68a518881019061026b816107d83085611083565b03601f198101835282611113565b3490611135565b6108318751858101906f636f6e74726163742e6164647265737360801b82526e233932b739a837b7b629b2ba3a32b960891b6030820152601f815261055c816110f7565b1693878751958694859363010975af60e31b85528401523460248401525af19182156105b4576104a7935084926105975750506111ce565b634e487b7160e01b875260218452602487fd5b845162461bcd60e51b815280840185905260116024820152701a5908191bd95cc81b9bdd08195e1a5cdd607a1b6044820152606490fd5b6108ca9150853d871161034d5761033f8183611113565b38610750565b83346104aa57806003193601126104aa57805481906001600160a01b038116906108fb33831461131e565b6001600160a01b03191682557f8be0079c531659141344cd1fd0a4f28419497f9722a3daafe3b4186f6b6457e08280a380f35b5091346104aa5760203660031901126104aa57506106b660209235612223565b83346104aa57806003193601126104aa57610967611add565b6104a7611ed3565b50503461070757816003193601126107075760ff6020925460a01c169051908152f35b83346104aa57806003193601126104aa576104a733611e3c565b509034610323576109bc36610fd4565b926109d760018060a09998999594951b038b5416331461131e565b875194610a0860208701876109ec3083611369565b0397610a00601f19998a8101835282611113565b5190206114e3565b15610a9e57505050505090610a43610a52928551610a3b602082019282610a2f3086611396565b03908101835282611113565b519020611446565b602081519101209236916113d8565b6020815191012003610a695750505b6104a7611574565b906020606492519162461bcd60e51b8352820152600f60248201526e0e0eac496caf240dad2e6dac2e8c6d608b1b6044820152fd5b939750935093610ab197509490946118c5565b610a61565b50503461070757816003193601126107075780610ae4610af792516020810190610a3b816107d83085611396565b9051918291602083526020830190610f7c565b0390f35b505034610707578160031936011261070757610b156120ba565b815192839260208080860192818752855180945286019401925b828110610b3e57505050500390f35b835185528695509381019392810192600101610b2f565b5091903461070757806003193601126107075782359260249384359060ff60015460a01c1683811015610dd457600103610d925760025484516331a9108f60e11b8152808501839052602094916001600160a01b039190869082908b90829086165afa908115610d88579082918991610d5b575b50163303610d295783610c028751878101906d19195c1bdcda5d0b985b5bdd5b9d60921b825286602e820152602e815261026b816110db565b10610cf057916044859288809a95610c426107868b9c9b51888101906a1c1bdbdb0b999bdc8b9a5960aa1b825288602b820152602b815261055c816110db565b610c868b51878101906f636f6e74726163742e6164647265737360801b82526e233932b739a837b7b629b2ba3a32b960891b6030820152601f815261055c816110f7565b16878b519788968795630441a3e760e41b87528601528401525af1918215610ce657849384938493610cbf9285926105975750506111ce565b818115610cdd575b3390f115610cd3575080f35b51903d90823e3d90fd5b506108fc610cc7565b85513d86823e3d90fd5b855162461bcd60e51b81528083018690526014818a0152731b9bdd08195b9bdd59da0819195c1bdcda5d195960621b6044820152606490fd5b855162461bcd60e51b8152808301869052600d818a01526c3737ba103a34329037bbb732b960991b6044820152606490fd5b610d7b9150873d8911610d81575b610d738183611113565b8101906111eb565b38610bc9565b503d610d69565b87513d8a823e3d90fd5b835162461bcd60e51b8152602081850152601b818801527f63616e6e6f74207769746864726177206f6e6365207374616b656400000000006044820152606490fd5b634e487b7160e01b8652602184528686fd5b83346104aa57806003193601126104aa57610a6160018060a01b03825416331461131e565b5091346104aa5760203660031901126104aa57506106b660209235610e66610e568451868101906a1c1bdbdb0b999bdc8b9a5960aa1b825284602b820152602b815261055c816110db565b6001600160a01b031630146112dd565b8251848101916d19195c1bdcda5d0b985b5bdd5b9d60921b8352602e820152602e815261026b816110db565b83346104aa57806003193601126104aa57610eb760018060a01b03825416331461131e565b60644711610ed6575b6001805460ff60a01b1916600360a01b17905580f35b610ede611b8f565b610ec0565b83823461070757602036600319011261070757356001600160a01b0381168103610707576104a790611e3c565b505034610707578160031936011261070757610af790610ae461224b565b8385346104aa57806003193601126104aa57506106b68260208094019061026b816107d83085611083565b60005b838110610f6c5750506000910152565b8181015183820152602001610f5c565b90602091610f9581518092818552858086019101610f59565b601f01601f1916010190565b9181601f84011215610fcf5782359167ffffffffffffffff8311610fcf5760208381860195010111610fcf57565b600080fd5b906080600319830112610fcf5767ffffffffffffffff600435818111610fcf578361100191600401610fa1565b93909392602435838111610fcf578261101c91600401610fa1565b93909392604435918211610fcf5761103691600401610fa1565b909160643590565b1561104557565b60405162461bcd60e51b81526020600482015260166024820152756e6f7420616363657074696e67206465706f7369747360501b6044820152606490fd5b6022916d746f74616c2e6465706f7369747360901b82526001600160601b03199060601b16600e8201520190565b67ffffffffffffffff81116110c557604052565b634e487b7160e01b600052604160045260246000fd5b6060810190811067ffffffffffffffff8211176110c557604052565b6040810190811067ffffffffffffffff8211176110c557604052565b90601f8019910116810190811067ffffffffffffffff8211176110c557604052565b9190820180921161114257565b634e487b7160e01b600052601160045260246000fd5b1561115f57565b60405162461bcd60e51b815260206004820152602960248201527f746f74616c206465706f736974732063616e6e6f74206265206d6f72652074686044820152680c2dc406664408ae8d60bb1b6064820152608490fd5b90816020910312610fcf57518015158103610fcf5790565b156111d557565b634e487b7160e01b600052600160045260246000fd5b90816020910312610fcf57516001600160a01b0381168103610fcf5790565b6001546040516321f8a72160e01b81526004810192909252602090829060249082906001600160a01b03165afa90811561126457600091611249575090565b611261915060203d8111610d8157610d738183611113565b90565b6040513d6000823e3d90fd5b60015460405163bd02d0f560e01b81526004810192909252602090829060249082906001600160a01b03165afa908115611264576000916112af575090565b906020823d82116112d5575b816112c860209383611113565b810103126104aa57505190565b3d91506112bb565b156112e457565b60405162461bcd60e51b81526020600482015260126024820152711ddc9bdb99c81cdd185ada5b99c81c1bdbdb60721b6044820152606490fd5b1561132557565b606460405162461bcd60e51b815260206004820152602060248201527f4f776e61626c653a2063616c6c6572206973206e6f7420746865206f776e65726044820152fd5b6021916c1d985b1a59185d1bdc8b9cd95d609a1b82526001600160601b03199060601b16600d8201520190565b601a91657075624b657960d01b82526001600160601b03199060601b1660068201520190565b67ffffffffffffffff81116110c557601f01601f191660200190565b9291926113e4826113bc565b916113f26040519384611113565b829481845281830111610fcf578281602093846000960137010152565b9092919261141c816113bc565b9161142a6040519384611113565b829482845282820111610fcf576020611444930190610f59565b565b600154604051630180634360e71b815260048101929092526000908190839060249082906001600160a01b03165afa9182156114d657819261148757505090565b909291503d8084833e61149a8183611113565b8101906020818303126106605780519067ffffffffffffffff8211610471570181601f820112156106605761126192935060208151910161140f565b50604051903d90823e3d90fd5b600154604051633d70e7e560e11b81526004810192909252602090829060249082906001600160a01b03165afa90811561126457600091611522575090565b611261915060203d811161034d5761033f8183611113565b1561154157565b60405162461bcd60e51b815260206004820152600b60248201526a77726f6e6720737461746560a81b6044820152606490fd5b6801bc16d674ec8000009081471061186e576001549160ff8360a01c1660048110156118585760016115a6911461153a565b60409081516020906115d3828201826115bf3083611369565b0392610a00601f1994858101835282611113565b15611820576115f0908451610a3b8482019282610a2f3086611396565b83519561162d838801757769746864726177616c5f63726564656e7469616c7360501b81523060601b98896036820152602a8152610a3b816110db565b93611659865185810190687369676e617475726560b81b82528a6029820152601d8152610a3b816110f7565b978651858101917019195c1bdcda5d17d9185d1857dc9bdbdd607a1b8352603182015260258152611689816110db565b5190208651635376ab1f60e11b81526004810191909152916001600160a01b039085846024818585165afa938415611815576000946117e6575b506117158851878101907f65787465726e616c2e636f6e74726163742e616464726573730000000000000082526e11195c1bdcda5d10dbdb9d1c9858dd608a1b60398201526028815261055c816110db565b60ff60a01b19909116600160a11b176001551694853b15610fcf5760009361177593611784611762938a519c8d97889687966304512a2360e31b8852608060048901526084880190610f7c565b6003199384888303016024890152610f7c565b91858303016044860152610f7c565b9060648301520391865af19485156117db577f72b356fd889b9abd3530accd2c9f4aecbce67d70757181f9f862ac91464ce19294956117cc575b5082519182523390820152a1565b6117d5906110b1565b386117be565b83513d6000823e3d90fd5b90938682813d831161180e575b6117fd8183611113565b810103126104aa57505192386116c3565b503d6117f3565b88513d6000823e3d90fd5b835162461bcd60e51b81526004810183905260116024820152701d985b1a59185d1bdc881b9bdd081cd95d607a1b6044820152606490fd5b634e487b7160e01b600052602160045260246000fd5b60405162461bcd60e51b815260206004820152600e60248201526d0dcdee840cadcdeeaced040cae8d60931b6044820152606490fd5b908060209392818452848401376000828201840152601f01601f1916010190565b96959293949096600160f81b3001958630116111425760409889516020988982019081528982526118f5826110f7565b611900368a896113d8565b8a81519101209151902003611a99576119448a51898101906f1d985b1a59185d1bdc8b9b1bd8dad95960821b82523060601b603082015260248152610a00816110db565b611a47575b60ff60015460a01c1695600487101561185857611a176119f4968c9660009561197560018e9c1461153a565b611a0889516119cf8d82016f636f6e74726163742e6164647265737360801b81526e233932b739a837b7b629b2ba3a32b960891b6030840152601f83526119bb836110f7565b91519091206001600160a01b03919061120a565b1699519c8d9b8c9a8b996303a483bb60e61b8b52608060048c015260848b01916118a4565b9060031995868a84030160248b01526118a4565b928684030160448701526118a4565b90606483015203925af1918215611a3c576114449394506000926105975750506111ce565b84513d6000823e3d90fd5b60015460ff8160a01c16600481101561185857611a64901561153a565b611a84611a7e8c518b810190610a00816107d83085611369565b156111ce565b60ff60a01b1916600160a01b17600155611949565b895162461bcd60e51b815260048101899052601e60248201527f7769746864726177616c2063726564656e7469616c206d69736d6174636800006044820152606490fd5b60ff60015460a01c16600481101561185857600114611afe57611444611b8f565b60405162461bcd60e51b815260206004820152601c60248201527f757365207769746864726177207768656e206e6f74207374616b6564000000006044820152606490fd5b8181029291811591840414171561114257565b60001981146111425760010190565b8051821015611b795760209160051b010190565b634e487b7160e01b600052603260045260246000fd5b47906064821115611df8576040918251611bc8602091828101906b70726f746f636f6c2e66656560a01b8252600c815261026b816110f7565b80611d83575b50611bd76120ba565b60005b8151811015611d1e57611bed8183611b65565b5160025487516331a9108f60e11b8152600480820184905293926024926001600160a01b03929190889083908690829087165afa8b8115611d145789958b604495600094611cee575b50611c44906000949561201b565b9086611c8a84518a8101906f636f6e74726163742e6164647265737360801b82526e233932b739a837b7b629b2ba3a32b960891b6030820152601f815261055c816110f7565b169251998a978896631f72642160e31b885216908601528401525af1918215611ce357611cc792611cc291600091611ccc57506111ce565b611b56565b611bda565b6103479150863d881161034d5761033f8183611113565b87513d6000823e3d90fd5b6000945090611d0c611c44928a3d8c11610d8157610d738183611113565b945090611c36565b513d6000823e3d90fd5b505060008080938193969596611d6887519182016f636f6e74726163742e6164647265737360801b8152694672656e73436c61696d60b01b6030840152601a83526119bb836110f7565b16828215611d7a575bf115611d145750565b506108fc611d71565b600080809394926064611dc08395611dba8b518a8101906c1999594b9c9958da5c1a595b9d609a1b8252600d815261055c816110f7565b93611b43565b049082908215611dee575b6001600160a01b031690f115611de357479038611bce565b82513d6000823e3d90fd5b6108fc9150611dcb565b606460405162461bcd60e51b815260206004820152602060248201527f6d696e696d756d206f66203130302077656920746f20646973747269627574656044820152fd5b6040519060208201916f636f6e74726163742e6164647265737360801b8352694672656e73436c61696d60b01b6030820152601a8152611e7b816110f7565b519091206001600160a01b0391908290611e949061120a565b1691823b15610fcf576024600092836040519586948593630f41a04d60e11b85521660048401525af1801561126457611eca5750565b611444906110b1565b6040908151602092838201916f636f6e74726163742e6164647265737360801b8352694672656e73436c61696d60b01b6030820152601a8152611f15816110f7565b519091206001600160a01b0391908290611f2e9061120a565b1691611f386120ba565b60005b81518110156120125786611f4f8284611b65565b518460025416908651928380936331a9108f60e11b82526004938483015260249485915afa928315611ce357600093611ff3575b50873b15610fcf578651630f41a04d60e11b8152928616818401526000838381838c5af18015611ce357611fc3575b505050611fbe90611b56565b611f3b565b67ffffffffffffffff8311611fe05750508452611fbe3880611fb2565b604190634e487b7160e01b600052526000fd5b61200b9193508a3d8c11610d8157610d738183611113565b9138611f83565b50505050509050565b61204d9060405160208101916d19195c1bdcda5d0b985b5bdd5b9d60921b8352602e820152602e815261026b816110db565b90612067604051602081019061026b816107d83085611083565b9180156120b25761207791611b43565b811561209c570460018111156120965760001981019081116111425790565b50600090565b634e487b7160e01b600052601260045260246000fd5b505050600090565b604051602090818101906a1a591ccb9a5b8b9c1bdbdb60aa1b82523060601b602b820152601f81526120eb816110f7565b5190206001546040516378267eb560e11b81526004810192909252600092908390839060249082906001600160a01b03165afa9283156121da578093612132575b50505090565b909192503d8082853e6121458185611113565b83019082848303126104aa57835167ffffffffffffffff94858211610323570182601f820112156107075780519485116121c6578460051b916040519561218e86850188611113565b865284808701938301019384116104aa57508301905b8282106121b7575050505038808061212c565b815181529083019083016121a4565b634e487b7160e01b82526041600452602482fd5b604051903d90823e3d90fd5b6112619061221c610e5660405160208101906a1c1bdbdb0b999bdc8b9a5960aa1b825284602b820152602b815261055c816110db565b479061201b565b60ff60015460a01c166004811015611858576001036122425750600090565b611261906121e6565b60ff60015460a01c16600481101561185857801561231757600281146122f457600181146122c5576003146122a357604051612286816110f7565b600d81526c7374617465206661696c75726560981b602082015290565b6040516122af816110f7565b6006815265195e1a5d195960d21b602082015290565b506040516122d2816110f7565b6012815271616363657074696e67206465706f7369747360701b602082015290565b50604051612301816110f7565b60068152651cdd185ad95960d21b602082015290565b50604051612324816110f7565b601781527f6177616974696e672076616c696461746f7220696e666f00000000000000000060208201529056fea2646970667358221220cb43203a35bdd974d40339856540d1af960b70f3717cc78db98c00589372671964736f6c63430008110033",
    "linkReferences": {}
  },
  "methodIdentifiers": {
    "addToDeposit(uint256)": "8620891c",
    "claim()": "4e71d92d",
    "claim(address)": "1e83409a",
    "claimAll()": "d1058e59",
    "depositToPool()": "f9faa104",
    "distribute()": "e4fc6b6d",
    "distributeAndClaim()": "9278e714",
    "distributeAndClaimAll()": "55ec447f",
    "exitPool()": "29917954",
    "getDepositAmount(uint256)": "378de45b",
    "getDistributableShare(uint256)": "678e300a",
    "getIdsInThisPool()": "45b58fe4",
    "getPubKey()": "4ad02ef1",
    "getShare(uint256)": "cfb5a5f8",
    "getState()": "1865c57d",
    "getTotalDeposits()": "168a4822",
    "owner()": "8da5cb5b",
    "renounceOwnership()": "715018a6",
    "setArt(address)": "e6b1a3ae",
    "setPubKey(bytes,bytes,bytes,bytes32)": "e920eec0",
    "stake()": "3a4b66f1",
    "stake(bytes,bytes,bytes,bytes32)": "4b2b4e36",
    "transferOwnership(address)": "f2fde38b",
    "version()": "54fd4d50",
    "withdraw(uint256,uint256)": "441a3e70"
  },
  "id": 11
}