{
  "abi": [
    {
      "inputs": [
        {
          "internalType": "address",
          "name": "owner_",
          "type": "address"
        },
        {
          "internalType": "bool",
          "name": "validatorLocked_",
          "type": "bool"
        },
        {
          "internalType": "bool",
          "name": "frensLocked_",
          "type": "bool"
        },
        {
          "internalType": "uint256",
          "name": "poolMin_",
          "type": "uint256"
        },
        {
          "internalType": "uint256",
          "name": "poolMax_",
          "type": "uint256"
        },
        {
          "internalType": "bytes32",
          "name": "merkleRoot_",
          "type": "bytes32"
        },
        {
          "internalType": "contract IFrensStorage",
          "name": "frensStorage_",
          "type": "address"
        }
      ],
      "stateMutability": "nonpayable",
      "type": "constructor"
    },
    {
      "anonymous": false,
      "inputs": [
        {
          "indexed": false,
          "internalType": "uint256",
          "name": "amount",
          "type": "uint256"
        },
        {
          "indexed": false,
          "internalType": "address",
          "name": "depositer",
          "type": "address"
        },
        {
          "indexed": false,
          "internalType": "uint256",
          "name": "id",
          "type": "uint256"
        }
      ],
      "name": "DepositToPool",
      "type": "event"
    },
    {
      "anonymous": false,
      "inputs": [
        {
          "indexed": true,
          "internalType": "address",
          "name": "previousOwner",
          "type": "address"
        },
        {
          "indexed": true,
          "internalType": "address",
          "name": "newOwner",
          "type": "address"
        }
      ],
      "name": "OwnershipTransferred",
      "type": "event"
    },
    {
      "anonymous": false,
      "inputs": [
        {
          "indexed": false,
          "internalType": "address",
          "name": "depositContractAddress",
          "type": "address"
        },
        {
          "indexed": false,
          "internalType": "address",
          "name": "caller",
          "type": "address"
        }
      ],
      "name": "Stake",
      "type": "event"
    },
    {
      "stateMutability": "payable",
      "type": "fallback"
    },
    {
      "inputs": [
        {
          "internalType": "uint256",
          "name": "_id",
          "type": "uint256"
        }
      ],
      "name": "addToDeposit",
      "outputs": [],
      "stateMutability": "payable",
      "type": "function"
    },
    {
      "inputs": [],
      "name": "artForPool",
      "outputs": [
        {
          "internalType": "contract IFrensArt",
          "name": "",
          "type": "address"
        }
      ],
      "stateMutability": "view",
      "type": "function"
    },
    {
      "inputs": [
        {
          "internalType": "uint256",
          "name": "rageQuitId",
          "type": "uint256"
        },
        {
          "internalType": "uint256",
          "name": "buyersTokenId",
          "type": "uint256"
        }
      ],
      "name": "buyOut",
      "outputs": [],
      "stateMutability": "payable",
      "type": "function"
    },
    {
      "inputs": [
        {
          "internalType": "uint256",
          "name": "_id",
          "type": "uint256"
        }
      ],
      "name": "claim",
      "outputs": [],
      "stateMutability": "nonpayable",
      "type": "function"
    },
    {
      "inputs": [
        {
          "internalType": "uint256",
          "name": "",
          "type": "uint256"
        }
      ],
      "name": "depositForId",
      "outputs": [
        {
          "internalType": "uint256",
          "name": "",
          "type": "uint256"
        }
      ],
      "stateMutability": "view",
      "type": "function"
    },
    {
      "inputs": [
        {
          "internalType": "bytes32[]",
          "name": "merkleProof",
          "type": "bytes32[]"
        }
      ],
      "name": "depositToPool",
      "outputs": [],
      "stateMutability": "payable",
      "type": "function"
    },
    {
      "inputs": [],
      "name": "deposit_data_root",
      "outputs": [
        {
          "internalType": "bytes32",
          "name": "",
          "type": "bytes32"
        }
      ],
      "stateMutability": "view",
      "type": "function"
    },
    {
      "inputs": [],
      "name": "exitPool",
      "outputs": [],
      "stateMutability": "nonpayable",
      "type": "function"
    },
    {
      "inputs": [
        {
          "internalType": "uint256",
          "name": "",
          "type": "uint256"
        }
      ],
      "name": "frenPastClaim",
      "outputs": [
        {
          "internalType": "uint256",
          "name": "",
          "type": "uint256"
        }
      ],
      "stateMutability": "view",
      "type": "function"
    },
    {
      "inputs": [],
      "name": "frensPoolShare",
      "outputs": [
        {
          "internalType": "contract IFrensPoolShare",
          "name": "",
          "type": "address"
        }
      ],
      "stateMutability": "view",
      "type": "function"
    },
    {
      "inputs": [],
      "name": "frensStorage",
      "outputs": [
        {
          "internalType": "contract IFrensStorage",
          "name": "",
          "type": "address"
        }
      ],
      "stateMutability": "view",
      "type": "function"
    },
    {
      "inputs": [
        {
          "internalType": "uint256",
          "name": "_id",
          "type": "uint256"
        }
      ],
      "name": "getDistributableShare",
      "outputs": [
        {
          "internalType": "uint256",
          "name": "",
          "type": "uint256"
        }
      ],
      "stateMutability": "view",
      "type": "function"
    },
    {
      "inputs": [],
      "name": "getIdsInThisPool",
      "outputs": [
        {
          "internalType": "uint256[]",
          "name": "",
          "type": "uint256[]"
        }
      ],
      "stateMutability": "view",
      "type": "function"
    },
    {
      "inputs": [
        {
          "internalType": "uint256",
          "name": "_id",
          "type": "uint256"
        }
      ],
      "name": "getShare",
      "outputs": [
        {
          "internalType": "uint256",
          "name": "",
          "type": "uint256"
        }
      ],
      "stateMutability": "view",
      "type": "function"
    },
    {
      "inputs": [],
      "name": "getState",
      "outputs": [
        {
          "internalType": "string",
          "name": "",
          "type": "string"
        }
      ],
      "stateMutability": "view",
      "type": "function"
    },
    {
      "inputs": [
        {
          "internalType": "address",
          "name": "",
          "type": "address"
        }
      ],
      "name": "hasClaimed",
      "outputs": [
        {
          "internalType": "bool",
          "name": "",
          "type": "bool"
        }
      ],
      "stateMutability": "view",
      "type": "function"
    },
    {
      "inputs": [
        {
          "internalType": "uint256",
          "name": "",
          "type": "uint256"
        }
      ],
      "name": "idsInPool",
      "outputs": [
        {
          "internalType": "uint256",
          "name": "",
          "type": "uint256"
        }
      ],
      "stateMutability": "view",
      "type": "function"
    },
    {
      "inputs": [
        {
          "internalType": "uint256",
          "name": "",
          "type": "uint256"
        }
      ],
      "name": "locked",
      "outputs": [
        {
          "internalType": "bool",
          "name": "",
          "type": "bool"
        }
      ],
      "stateMutability": "view",
      "type": "function"
    },
    {
      "inputs": [],
      "name": "merkleRoot",
      "outputs": [
        {
          "internalType": "bytes32",
          "name": "",
          "type": "bytes32"
        }
      ],
      "stateMutability": "view",
      "type": "function"
    },
    {
      "inputs": [],
      "name": "nonReentrant",
      "outputs": [
        {
          "internalType": "bool",
          "name": "",
          "type": "bool"
        }
      ],
      "stateMutability": "view",
      "type": "function"
    },
    {
      "inputs": [],
      "name": "owner",
      "outputs": [
        {
          "internalType": "address",
          "name": "",
          "type": "address"
        }
      ],
      "stateMutability": "view",
      "type": "function"
    },
    {
      "inputs": [],
      "name": "poolMax",
      "outputs": [
        {
          "internalType": "uint256",
          "name": "",
          "type": "uint256"
        }
      ],
      "stateMutability": "view",
      "type": "function"
    },
    {
      "inputs": [],
      "name": "poolMin",
      "outputs": [
        {
          "internalType": "uint256",
          "name": "",
          "type": "uint256"
        }
      ],
      "stateMutability": "view",
      "type": "function"
    },
    {
      "inputs": [],
      "name": "privatePool",
      "outputs": [
        {
          "internalType": "bool",
          "name": "",
          "type": "bool"
        }
      ],
      "stateMutability": "view",
      "type": "function"
    },
    {
      "inputs": [],
      "name": "pubKey",
      "outputs": [
        {
          "internalType": "bytes",
          "name": "",
          "type": "bytes"
        }
      ],
      "stateMutability": "view",
      "type": "function"
    },
    {
      "inputs": [
        {
          "internalType": "uint256",
          "name": "_id",
          "type": "uint256"
        },
        {
          "internalType": "uint256",
          "name": "_price",
          "type": "uint256"
        }
      ],
      "name": "rageQuit",
      "outputs": [],
      "stateMutability": "nonpayable",
      "type": "function"
    },
    {
      "inputs": [
        {
          "internalType": "uint256",
          "name": "",
          "type": "uint256"
        }
      ],
      "name": "rageQuitInfo",
      "outputs": [
        {
          "internalType": "uint256",
          "name": "price",
          "type": "uint256"
        },
        {
          "internalType": "uint256",
          "name": "time",
          "type": "uint256"
        },
        {
          "internalType": "bool",
          "name": "rageQuitting",
          "type": "bool"
        }
      ],
      "stateMutability": "view",
      "type": "function"
    },
    {
      "inputs": [],
      "name": "renounceOwnership",
      "outputs": [],
      "stateMutability": "nonpayable",
      "type": "function"
    },
    {
      "inputs": [
        {
          "internalType": "contract IFrensArt",
          "name": "newArtContract",
          "type": "address"
        }
      ],
      "name": "setArt",
      "outputs": [],
      "stateMutability": "nonpayable",
      "type": "function"
    },
    {
      "inputs": [
        {
          "internalType": "bytes",
          "name": "_pubKey",
          "type": "bytes"
        },
        {
          "internalType": "bytes",
          "name": "_withdrawal_credentials",
          "type": "bytes"
        },
        {
          "internalType": "bytes",
          "name": "_signature",
          "type": "bytes"
        },
        {
          "internalType": "bytes32",
          "name": "_deposit_data_root",
          "type": "bytes32"
        }
      ],
      "name": "setPubKey",
      "outputs": [],
      "stateMutability": "nonpayable",
      "type": "function"
    },
    {
      "inputs": [],
      "name": "signature",
      "outputs": [
        {
          "internalType": "bytes",
          "name": "",
          "type": "bytes"
        }
      ],
      "stateMutability": "view",
      "type": "function"
    },
    {
      "inputs": [],
      "name": "stake",
      "outputs": [],
      "stateMutability": "nonpayable",
      "type": "function"
    },
    {
      "inputs": [
        {
          "internalType": "bytes",
          "name": "_pubKey",
          "type": "bytes"
        },
        {
          "internalType": "bytes",
          "name": "_withdrawal_credentials",
          "type": "bytes"
        },
        {
          "internalType": "bytes",
          "name": "_signature",
          "type": "bytes"
        },
        {
          "internalType": "bytes32",
          "name": "_deposit_data_root",
          "type": "bytes32"
        }
      ],
      "name": "stake",
      "outputs": [],
      "stateMutability": "nonpayable",
      "type": "function"
    },
    {
      "inputs": [],
      "name": "totalClaims",
      "outputs": [
        {
          "internalType": "uint256",
          "name": "",
          "type": "uint256"
        }
      ],
      "stateMutability": "view",
      "type": "function"
    },
    {
      "inputs": [],
      "name": "totalDeposits",
      "outputs": [
        {
          "internalType": "uint256",
          "name": "",
          "type": "uint256"
        }
      ],
      "stateMutability": "view",
      "type": "function"
    },
    {
      "inputs": [],
      "name": "transferLocked",
      "outputs": [
        {
          "internalType": "bool",
          "name": "",
          "type": "bool"
        }
      ],
      "stateMutability": "view",
      "type": "function"
    },
    {
      "inputs": [
        {
          "internalType": "address",
          "name": "newOwner",
          "type": "address"
        }
      ],
      "name": "transferOwnership",
      "outputs": [],
      "stateMutability": "nonpayable",
      "type": "function"
    },
    {
      "inputs": [
        {
          "internalType": "uint256",
          "name": "_id",
          "type": "uint256"
        }
      ],
      "name": "unlockTransfer",
      "outputs": [],
      "stateMutability": "nonpayable",
      "type": "function"
    },
    {
      "inputs": [],
      "name": "validatorLocked",
      "outputs": [
        {
          "internalType": "bool",
          "name": "",
          "type": "bool"
        }
      ],
      "stateMutability": "view",
      "type": "function"
    },
    {
      "inputs": [],
      "name": "validatorSet",
      "outputs": [
        {
          "internalType": "bool",
          "name": "",
          "type": "bool"
        }
      ],
      "stateMutability": "view",
      "type": "function"
    },
    {
      "inputs": [
        {
          "internalType": "uint256",
          "name": "_id",
          "type": "uint256"
        },
        {
          "internalType": "uint256",
          "name": "_amount",
          "type": "uint256"
        }
      ],
      "name": "withdraw",
      "outputs": [],
      "stateMutability": "nonpayable",
      "type": "function"
    },
    {
      "inputs": [
        {
          "internalType": "uint256",
          "name": "_id",
          "type": "uint256"
        }
      ],
      "name": "withdrawAll",
      "outputs": [],
      "stateMutability": "nonpayable",
      "type": "function"
    },
    {
      "inputs": [],
      "name": "withdrawal_credentials",
      "outputs": [
        {
          "internalType": "bytes",
          "name": "",
          "type": "bytes"
        }
      ],
      "stateMutability": "view",
      "type": "function"
    },
    {
      "stateMutability": "payable",
      "type": "receive"
    }
  ],
  "bytecode": {
    "object": "0x6080604081815234620002d35760e0826200372b80380380916200002482856200030a565b833981010312620002d3576200003a826200032e565b6020926200004a84820162000343565b6200005784830162000343565b9060608301519160808401519660c060a08601519501519060018060a01b0390818316809303620002d3576200008d3362000351565b60018060a01b0319928084601354161760135589518281016f636f6e74726163742e6164647265737360801b9182825267119c995b9cd05c9d60c21b603082015260188152620000dd81620002d8565b519020908b516321f8a72160e01b9283825260048201528481602481875afa908115620002c8578593929187916000916200027f575b509060249291168860125416176012558d518481019182526d4672656e73506f6f6c536861726560901b6030820152601e81526200015181620002d8565b519020918d519485938492835260048301525afa91821562000274576000926200021c575b50509161ff00959391620001d8999a95931690601154161760115560ff600b5492151516948591151560081b169161ffff19161717600b5560095560085560001462000203576000805460ff60a01b191690555b80620001e6575b5062000351565b516133929081620003998239f35b601055630100000063ff00000019600b541617600b5538620001d1565b6000805460ff60a01b1916600160a01b179055620001ca565b81819392933d83116200026c575b6200023681836200030a565b810103126200026957509161ff0095939162000259620001d89a9b96946200032e565b9193959a99819395975062000176565b80fd5b503d6200022a565b8a513d6000823e3d90fd5b85819495969293503d8311620002c0575b6200029c81836200030a565b8101031262000269575084929186620002b76024936200032e565b90919262000113565b503d62000290565b8d513d6000823e3d90fd5b600080fd5b604081019081106001600160401b03821117620002f457604052565b634e487b7160e01b600052604160045260246000fd5b601f909101601f19168101906001600160401b03821190821017620002f457604052565b51906001600160a01b0382168203620002d357565b51908115158203620002d357565b600080546001600160a01b039283166001600160a01b03198216811783559216907f8be0079c531659141344cd1fd0a4f28419497f9722a3daafe3b4186f6b6457e09080a356fe6080604081815260048036101561001e575b505050361561001c57005b005b600092833560e01c90816312686aae1461213057508063129ea1361461210b5780631865c57d146120da5780632991795414611fcc5780632cf2cd4814611fa55780632daad61d14611f7e5780632eb4a7ab14611f5f57806330dbf88714611f36578063379607f514611aa75780633a4b66f114611a8e57806341c6138314611a6f578063441a3e70146118dd57806345b58fe41461182a5780634b2b4e361461176d57806351ff4847146116ac578063591167c71461168357806359b5e75e1461165c578063678e300a1461163c578063715018a6146115e257806373b2e80e146115a45780637d882097146115855780638620891c146113df578063888e9cf8146113925780638ae578fd146113695780638da5cb5b146113415780639426e2261461131a578063958e2d311461119d578063ac2a5dfd14611104578063b45a3c0e146110d8578063b4bc91bc14610bf7578063be85879814610912578063bed62f351461084e578063cd8df8a61461082f578063cfb5a5f81461079e578063e2d9ae3e1461077f578063e3f05d831461075b578063e4a5027614610683578063e6b1a3ae14610543578063e920eec014610517578063f038afe31461033d578063f2fde38b14610269578063f8f306e1146102465763fc03bad203610011573461024257602036600319011261024257606092818392358252602052209081549160ff60026001830154920154169082519384526020840152151590820152f35b8280fd5b5050346102655781600319360112610265576020906009549051908152f35b5080fd5b509034610242576020366003190112610242576001600160a01b038235818116939192908490036103395761029c6132a4565b83156102e7575050600054826bffffffffffffffffffffffff60a01b821617600055167f8be0079c531659141344cd1fd0a4f28419497f9722a3daafe3b4186f6b6457e0600080a380f35b906020608492519162461bcd60e51b8352820152602660248201527f4f776e61626c653a206e6577206f776e657220697320746865207a65726f206160448201526564647265737360d01b6064820152fd5b8480fd5b509190346102655761034e3661219c565b60115483516331a9108f60e11b815280870184905292959193926020916001600160a01b0391908216908381602481855afa90811561050d57916103a2848693602496958c916104f0575b50163314612513565b865193848092631dc82a7560e01b82528c898301525afa9182156104e657906103d6929188926104b7575b501630146124af565b8585526003815260ff838620541615610467578585526001815282852054841161041b5784956002955252832090815542600182015501600160ff1982541617905580f35b608492519162461bcd60e51b83528201526024808201527f63616e6e6f742073657420707269636520686967686572207468616e206465706044820152631bdcda5d60e21b6064820152fd5b608492519162461bcd60e51b8352820152602760248201527f6e6f20726561736f6e20746f20726167655175697420616e20756e6c6f636b656044820152666420736861726560c81b6064820152fd5b6104d8919250843d86116104df575b6104d0818361235c565b810190612490565b90386103cd565b503d6104c6565b85513d89823e3d90fd5b6105079150853d87116104df576104d0818361235c565b38610399565b86513d8a823e3d90fd5b83346105405761053d610529366121e0565b956105389591959492946132a4565b612af3565b80f35b80fd5b50346102425760208060031936011261067f5781356001600160a01b0381169390849003610339576105736132a4565b805163516b636d60e11b81526001848201528581602481885afa9081156106755786916105f8575b5051156105c0575050506bffffffffffffffffffffffff60a01b601254161760125580f35b5162461bcd60e51b81529182015260146024820152731a5b9d985b1a5908185c9d0818dbdb9d1c9858dd60621b604482015260649150fd5b90503d8087833e610609818361235c565b81019083818303126106715780519067ffffffffffffffff821161066d570181601f8201121561067157805161063e8161255c565b9261064b8551948561235c565b81845285828401011161066d5761066791858085019101612154565b3861059b565b8780fd5b8680fd5b82513d88823e3d90fd5b8380fd5b828434610540578060031936011261054057508051600091600d546106a78161224a565b8084529060019081811690811561073357506001146106e8575b50506106d2826106e494038361235c565b51918291602083526020830190612177565b0390f35b600d6000908152945060008051602061333d8339815191525b82861061071b57505050918101602001916106d2826106c1565b80546020878701810191909152909501948101610701565b6106e4965085925060209150926106d29360ff191682840152151560051b82010194506106c1565b50503461026557816003193601126102655760209060ff600b541690519015158152f35b505034610265578160031936011261026557602090600f549051908152f35b5034610242576020366003190112610242576011548251631dc82a7560e01b81528235928101839052906001600160a01b03906020908390602490829085165afa91821561082557916108019161080694936020979261080d57501630146124af565b61300b565b9051908152f35b6104d8919250873d81116104df576104d0818361235c565b84513d87823e3d90fd5b5050346102655781600319360112610265576020906008549051908152f35b5091903461026557602090816003193601126102425783359361087860ff600b54851c1615612fd9565b8484528083526001828520015462093a8081018091116108ff5742106108be5783946002939452600384528185209360ff19948581541690555283200190815416905580f35b82606492519162461bcd60e51b8352820152601c60248201527f616c6c6f77206f6e65207765656b206265666f726520756e6c6f636b000000006044820152fd5b634e487b7160e01b855260118252602485fd5b5061091c3661219c565b9260018060a01b039283601154169482516331a9108f60e11b96878252828483015260209260249284818581865afa908115610bd657610967918a918d91610be05750163314612513565b8551631dc82a7560e01b918282528682015284818581865afa908115610bd6579061099d918c91610bb9575b50891630146124af565b8551908152868582015283818481855afa908115610baf57906109cb918b91610b92575b50881630146124af565b600b54976109de60ff8a861c1615612fd9565b868a5284845260ff6002878c2001541615610b5957868a52848452858a20543410610b1857908383928b9488518094819382528b8a8301525afa908115610b0e578391610af1575b5064ff000000001998891664010000000017600b55610a548380808034865af1610a4e612578565b506125a8565b868352600384528583209760ff19988981541690558060115416803b15610339578492836064928a519687958694632142170760e11b8652168b85015233908401528b60448401525af18015610ae757610ad3575b5093600294526003815282872060018682541617905552842001908154169055600b5416600b5580f35b610adc90612316565b610671578638610aa9565b85513d84823e3d90fd5b610b089150843d86116104df576104d0818361235c565b38610a26565b86513d85823e3d90fd5b5050601791606494519362461bcd60e51b85528401528201527f6d7573742073656e6420636f72726563742076616c75650000000000000000006044820152fd5b5050601591606494519362461bcd60e51b8552840152820152746d7573742062652072616765207175697474696e6760581b6044820152fd5b610ba99150853d87116104df576104d0818361235c565b386109c1565b86513d8c823e3d90fd5b610bd09150863d88116104df576104d0818361235c565b38610993565b87513d8d823e3d90fd5b6105079150873d89116104df576104d0818361235c565b5082906020806003193601126102425767ffffffffffffffff93823585811161033957366023820112156103395780840135868111610fab578060051b6024923684838301011161066d5734156110a15760ff885460a01c168781101561108f576001610c64911461237e565b610c846801bc16d674ec800000610c7d600654346123c3565b11156123e6565b600954341061104d57610c9b600854341115612444565b60ff600b5460181c16610e6a575b5050509091928094955060018060a01b038481601154168551978880926318160ddd60e01b82525afa958615610e60578796610e2c575b50858752600185523484882055610cf9346006546123c3565b600655600a5468010000000000000000811015610e1a576001810180600a55811015610e0657908688949392600a6000527fc65a7bb8d6351c1cf70c95a316cc6a92839c986682d98bc35f958f4883f9d2a801558684526002865260018585205560ff600b5460081c16600387528585209060ff80198354169115151617905560115416803b1561067f5783928392865194859384926335313c2160e11b845233908401525af18015610dfc57610de4575b507fd91527a40417d48f76ba016aaa9157e2ddaca6cb5b660432901659cb075058fc60608486858051923484523390840152820152a180f35b610df090939293612316565b61067f57908385610dab565b83513d84823e3d90fd5b83603284634e487b7160e01b600052526000fd5b634e487b7160e01b8852604183528388fd5b9095508481813d8311610e59575b610e44818361235c565b81010312610e5457519487610ce0565b600080fd5b503d610e3a565b84513d89823e3d90fd5b3388526005865260ff85892054166110005760135485516f636f6e74726163742e6164647265737360801b88820190815270233932b739a6b2b935b632a83937bb32b960791b6030830152602182526001600160a01b039283169b606083019190821183831017610fec57988188818e9f849e9f9b9c9d828f52875190206321f8a72160e01b835260648801525afa918215610fe2578792610faf575b50501660105491813b15610fab57875163879c84e960e01b815260608b82015260648101869052946001600160fb1b0310610fab578560848686819684988c849701858501378b83015233604483015281010301925af18015610fa157610f8d575b505033855260058352818520805460ff191660011790558493929190868080610ca9565b610f9690612316565b610339578486610f69565b84513d84823e3d90fd5b8580fd5b610fd392506060908b903d8d11610fda575b610fcb828561235c565b010190612490565b8b80610f07565b3d9150610fc1565b89513d89823e3d90fd5b8760418c634e487b7160e01b600052526000fd5b845162461bcd60e51b81528088018790526022818601527f796f75206861766520616c7265616479206d61646520796f7572206465706f736044820152611a5d60f21b6064820152608490fd5b845162461bcd60e51b8152808801879052601e818601527f62656c6f77206d696e696d756d206465706f73697420666f7220706f6f6c00006044820152606490fd5b634e487b7160e01b8952602188528489fd5b845162461bcd60e51b81528088018790526012818601527136bab9ba103232b837b9b4ba1032ba3432b960711b6044820152606490fd5b5034610242576020366003190112610242578160209360ff923581526003855220541690519015158152f35b828434610540578060031936011261054057508051600091600c546111288161224a565b8084529060019081811690811561073357506001146111525750506106d2826106e494038361235c565b600c600090815294506000805160206132fd8339815191525b82861061118557505050918101602001916106d2826106c1565b8054602087870181019190915290950194810161116b565b5090346102425760208060031936011261067f5782359060ff855460a01c168481101561130757906111d360018794931461237e565b6011548451631dc82a7560e01b81528681018490526001600160a01b0392918316908281602481855afa9081156112fd579161121e849260249489916112e0575b50861630146124af565b8751928380926331a9108f60e11b8252888c8301525afa9081156112d65783600593926112549288916112bf5750163314612513565b8385526001815261126886862054856125c5565b33855252838320805460ff191690556011541693843b15610242576024908385519687948593630852cd8d60e31b85528401525af19081156112b657506112ad575080f35b61053d90612316565b513d84823e3d90fd5b6105079150843d86116104df576104d0818361235c565b86513d87823e3d90fd5b6112f79150843d86116104df576104d0818361235c565b38611214565b87513d88823e3d90fd5b634e487b7160e01b865260218552602486fd5b50503461026557816003193601126102655760209060ff600b5460101c1690519015158152f35b505034610265578160031936011261026557905490516001600160a01b039091168152602090f35b50503461026557816003193601126102655760125490516001600160a01b039091168152602090f35b50346102425760203660031901126102425735600a5481101561024257600a602093527fc65a7bb8d6351c1cf70c95a316cc6a92839c986682d98bc35f958f4883f9d2a801549051908152f35b506020908160031936011261067f5780359060ff855460a01c168181101561157257600161140d911461237e565b6114266801bc16d674ec800000610c7d600654346123c3565b6011548451631dc82a7560e01b8152828101849052906001600160a01b039081168583602481845afa92831561156857602493879361146e928b9261155057501630146124af565b865192838092634f558e7960e01b825287878301525afa908115611546578691611519575b50156114e25750908160019285528282526114be6114b434868820546123c3565b6008541015612444565b84525281206114ce3482546123c3565b90556114dc346006546123c3565b60065580f35b835162461bcd60e51b815290810183905260116024820152701a5908191bd95cc81b9bdd08195e1a5cdd607a1b6044820152606490fd5b6115399150843d861161153f575b611531818361235c565b8101906124fb565b38611493565b503d611527565b85513d88823e3d90fd5b6104d8919250853d87116104df576104d0818361235c565b87513d8a823e3d90fd5b634e487b7160e01b865260218252602486fd5b5050346102655781600319360112610265576020906006549051908152f35b503461024257602036600319011261024257356001600160a01b0381169081900361024257818360ff92602095526005855220541690519015158152f35b83346105405780600319360112610540576115fb6132a4565b80546001600160a01b03198116825581906001600160a01b03167f8be0079c531659141344cd1fd0a4f28419497f9722a3daafe3b4186f6b6457e08280a380f35b50913461054057602036600319011261054057506108066020923561307e565b50503461026557816003193601126102655760209060ff600b5460181c1690519015158152f35b50503461026557816003193601126102655760115490516001600160a01b039091168152602090f35b50503461026557816003193601126102655780519082600e546116ce8161224a565b8085529160019180831690811561174557506001146116fa575b5050506106d2826106e494038361235c565b9450600e855260008051602061331d8339815191525b82861061172d575050506106d28260206106e495820101946116e8565b80546020878701810191909152909501948101611710565b6106e49750869350602092506106d294915060ff191682840152151560051b820101946116e8565b50346102425761177c366121e0565b9361178b9896989391936132a4565b600b5460101c60ff1615611815575050505050926117ac919293369161266c565b6020815191012081516117c9816117c281612284565b038261235c565b60208151910120036117e05750505b61053d6126dd565b906020606492519162461bcd60e51b8352820152600f60248201526e0e0eac496caf240dad2e6dac2e8c6d608b1b6044820152fd5b9295509295509261182596612af3565b6117d8565b828434610540578060031936011261054057908051918290600a549182855260208095018093600a84527fc65a7bb8d6351c1cf70c95a316cc6a92839c986682d98bc35f958f4883f9d2a890845b8181106118c9575050508161188e91038261235c565b83519485948186019282875251809352850193925b8281106118b257505050500390f35b8351855286955093810193928101926001016118a3565b825484529288019260019283019201611878565b50829034610265576118ee3661219c565b9160ff845460a01c1681811015611a5c57600161190b911461237e565b6011548551631dc82a7560e01b81528281018490526020916001600160a01b0391908216908381602481855afa908115611a52579161195985926024948b91611a35575b50851630146124af565b8951928380926331a9108f60e11b825289898301525afa908115611a2b579061198c92918891611a0e5750163314612513565b82855260018152858520546119a3856009546123c3565b116119b3578461053d85856125c5565b855162461bcd60e51b815291820152603060248201527f696e76616c696420616d6f756e742c207769746864726177206c657373206f7260448201526f081d5cd9481dda5d1a191c985dd05b1b60821b606482015260849150fd5b611a259150843d86116104df576104d0818361235c565b89610399565b88513d89823e3d90fd5b611a4c9150843d86116104df576104d0818361235c565b8c61194f565b89513d8a823e3d90fd5b634e487b7160e01b855260218252602485fd5b5050346102655781600319360112610265576020906007549051908152f35b83346105405780600319360112610540576117d86132a4565b508290346102655760209283600319360112610242576011548151631dc82a7560e01b815283358185018190526024966001600160a01b039593909290839082908a9082908a165afa9081156104e65790611b0c918891611f195750861630146124af565b60ff865460a01c1683811015611f075760018114611ec5576064471115611e7557600314611e6d578460135416828551818101906f636f6e74726163742e6164647265737360801b82526a4672656e734f7261636c6560a81b6030820152601b8152611b7781612340565b519020898751809481936321f8a72160e01b8352898301525afa9081156104e6578689899386938591611e50575b50885163404df7b160e11b815230898201529485938492165af19081156104e6578791611e33575b50945b611bd98261300b565b9582885260028452858820611bef8882546123c3565b9055611bfd876007546123c3565b600755816013541690865185810190731c1c9bdd1bd8dbdb0b9999594b9c195c98d95b9d60621b825260148152611c3381612340565b5190209087519163bd02d0f560e01b83528783015285828c81865afa918215611e29578a92611df6575b508115159081611ded575b50611cde575b505090869783926011989798541694865195869384926331a9108f60e11b84528301525afa928315611cd5575061053d948493849384938492611cb8575b50505af1610a4e612578565b611cce9250803d106104df576104d0818361235c565b8880611cac565b513d85823e3d90fd5b8487989293985181810190751c1c9bdd1bd8dbdb0b9999594b9c9958da5c1a595b9d60521b825260168152611d1281612340565b5190208b8951809681936321f8a72160e01b83528b8301525afa928315611de3578993611dbb575b50611d4782606492612fc6565b049160018311611d70575b5097611d64849392899a99989961254f565b96979192819950611c6e565b600019830190838211611da95792899a92611d9b8b8080809d9e611d64978c9b9a5af1610a4e612578565b929a50929350979697611d52565b634e487b7160e01b8a52601187528a8afd5b606491935082611dda611d4792883d8a116104df576104d0818361235c565b94925050611d3a565b87513d8b823e3d90fd5b9050158b611c68565b9091508581813d8311611e22575b611e0e818361235c565b81010312611e1e5751908b611c5d565b8980fd5b503d611e04565b88513d8c823e3d90fd5b611e4a9150833d851161153f57611531818361235c565b88611bcd565b611e679150843d86116104df576104d0818361235c565b8c611ba5565b600194611bd0565b845162461bcd60e51b81528085018490526025818a01527f6d7573742062652067726561746572207468616e203130302077656920746f20604482015264636c61696d60d81b6064820152608490fd5b845162461bcd60e51b8152808501849052601c818a01527f757365207769746864726177207768656e206e6f74207374616b6564000000006044820152606490fd5b634e487b7160e01b8752602184528787fd5b611f309150843d86116104df576104d0818361235c565b89611214565b50503461026557816003193601126102655760135490516001600160a01b039091168152602090f35b5050346102655781600319360112610265576020906010549051908152f35b50346102425760203660031901126102425760209282913581526001845220549051908152f35b50346102425760203660031901126102425760209282913581526002845220549051908152f35b50903461024257826003193601126102425760018060a01b03806013541660208351818101906f636f6e74726163742e6164647265737360801b82526a4672656e734f7261636c6560a81b6030820152601b815261202981612340565b51902060248551809481936321f8a72160e01b8352898301525afa9081156120d05785916120b2575b5016330361206f57825460ff60a01b1916600360a01b1783558280f35b906020606492519162461bcd60e51b8352820152601860248201527f6d7573742062652063616c6c6564206279206f7261636c6500000000000000006044820152fd5b6120ca915060203d81116104df576104d0818361235c565b38612052565b83513d87823e3d90fd5b5050346102655781600319360112610265576106e4906120f861319e565b9051918291602083526020830190612177565b505034610265578160031936011261026557600b549051602091821c60ff1615158152f35b84903461026557816003193601126102655760209060ff600b5460081c1615158152f35b60005b8381106121675750506000910152565b8181015183820152602001612157565b9060209161219081518092818552858086019101612154565b601f01601f1916010190565b6040906003190112610e54576004359060243590565b9181601f84011215610e545782359167ffffffffffffffff8311610e545760208381860195010111610e5457565b906080600319830112610e545767ffffffffffffffff600435818111610e54578361220d916004016121b2565b93909392602435838111610e545782612228916004016121b2565b93909392604435918211610e5457612242916004016121b2565b909160643590565b90600182811c9216801561227a575b602083101461226457565b634e487b7160e01b600052602260045260246000fd5b91607f1691612259565b600c54600092916122948261224a565b808252916001908181169081156122f957506001146122b257505050565b91929350600c6000526000805160206132fd833981519152916000925b8484106122e157505060209250010190565b805460208585018101919091529093019281016122cf565b915050602093945060ff929192191683830152151560051b010190565b67ffffffffffffffff811161232a57604052565b634e487b7160e01b600052604160045260246000fd5b6040810190811067ffffffffffffffff82111761232a57604052565b90601f8019910116810190811067ffffffffffffffff82111761232a57604052565b1561238557565b60405162461bcd60e51b81526020600482015260166024820152756e6f7420616363657074696e67206465706f7369747360501b6044820152606490fd5b919082018092116123d057565b634e487b7160e01b600052601160045260246000fd5b156123ed57565b60405162461bcd60e51b815260206004820152602960248201527f746f74616c206465706f736974732063616e6e6f74206265206d6f72652074686044820152680c2dc406664408ae8d60bb1b6064820152608490fd5b1561244b57565b60405162461bcd60e51b815260206004820152601e60248201527f61626f7665206d6178696d756d206465706f73697420666f7220706f6f6c00006044820152606490fd5b90816020910312610e5457516001600160a01b0381168103610e545790565b156124b657565b60405162461bcd60e51b815260206004820152601960248201527f77726f6e67207374616b696e6720706f6f6c20666f72206964000000000000006044820152606490fd5b90816020910312610e5457518015158103610e545790565b1561251a57565b60405162461bcd60e51b815260206004820152600d60248201526c3737ba103a34329037bbb732b960991b6044820152606490fd5b919082039182116123d057565b67ffffffffffffffff811161232a57601f01601f191660200190565b3d156125a3573d906125898261255c565b91612597604051938461235c565b82523d6000602084013e565b606090565b156125af57565b634e487b7160e01b600052600160045260246000fd5b906000918083526001602052604083206125e083825461254f565b90556125ee8260065461254f565b6006556011546040516331a9108f60e11b81526004810192909252602090829060249082906001600160a01b03165afa90811561266157928080938193612641968391612643575b505af1610a4e612578565b565b61265b915060203d81116104df576104d0818361235c565b38612636565b6040513d85823e3d90fd5b9291926126788261255c565b91612686604051938461235c565b829481845281830111610e54578281602093846000960137010152565b156126aa57565b60405162461bcd60e51b815260206004820152600b60248201526a77726f6e6720737461746560a81b6044820152606490fd5b6801bc16d674ec80000090814710612abd578160065403612a8257600080549260ff8460a01c169360049485811015612a6f5761271d60018092146126a3565b60ff600b5460101c1615612a375760018060a01b039384601354166040958651602095868201937f65787465726e616c2e636f6e74726163742e616464726573730000000000000085526e11195c1bdcda5d10dbdb9d1c9858dd608a1b603984015260288352606083019067ffffffffffffffff9584831087841117612a2357828c52845190206321f8a72160e01b835260648501528890829060249082905afa928315612a195786936129f5575b505060ff60a01b1916600160a11b178455600f54911695863b1561067f5787516304512a2360e31b815260808b8201529484928692919061280f60848501612284565b60031985820381016024870152600d5487949261282b8261224a565b918282528d85821691826000146129d657505060011461298d575b50508584030160448601528592600e54916128608361224a565b92838352878d838316928360001461296c57505050600114612920575b5050508391829160648301520391895af18015612916576128cd575b5050507f72b356fd889b9abd3530accd2c9f4aecbce67d70757181f9f862ac91464ce19293945082519182523390820152a1565b821161290357507f72b356fd889b9abd3530accd2c9f4aecbce67d70757181f9f862ac91464ce192949550835284933880612899565b634e487b7160e01b815260418752602490fd5b86513d84823e3d90fd5b918b939450600e885260008051602061331d8339815191529288935b8285106129515750505001019080848061287d565b80548486018701528b99508c98508d9590940193810161293c565b60ff19168582015294151560051b909301909301945083925081905061287d565b8c929550600d895260008051602061333d8339815191529189925b8184106129bb5750500101923880612846565b80548385018601528c9a508d99508e949093019285016129a8565b60ff19168382015292151560051b909101909101945038905080612846565b612a1192935060609089903d8b11610fda57610fcb828561235c565b9038806127cc565b8a513d88823e3d90fd5b50634e487b7160e01b875260418d52602487fd5b60405162461bcd60e51b815260208188015260116024820152701d985b1a59185d1bdc881b9bdd081cd95d607a1b6044820152606490fd5b634e487b7160e01b845260218652602484fd5b60405162461bcd60e51b81526020600482015260136024820152726e6f7420656e6f756768206465706f7369747360681b6044820152606490fd5b60405162461bcd60e51b815260206004820152600e60248201526d0dcdee840cadcdeeaced040cae8d60931b6044820152606490fd5b929094939194600160f81b3001908130116123d057604051602092838201908152838252612b2082612340565b612b2b36868b61266c565b8481519101209151902003612f8157600b5460ff8116612f27575b5060009260ff845460a01c16976004891015612f1357612b696001809a146126a3565b67ffffffffffffffff92838111612eff5780612b86600c5461224a565b98601f998a8111612ea4575b5087908a8311600114612e2e578892612e23575b5050600019600383901b1c1916908a1b17600c555b828211612e0f578190612bcf600d5461224a565b888111612db4575b508590888311600114612d47578692612d3c575b5050600019600383901b1c191690881b17600d555b8511612d2857612c11600e5461224a565b848111612cd8575b5081938511600114612c66575091839491849394612c5b575b50501b916000199060031b1c191617600e555b600f556201000062ff000019600b541617600b55565b013592503880612c32565b600e825260008051602061331d83398151915293918591601f19831691905b88838310612cbe5750505010612ca4575b505050811b01600e55612c45565b0135600019600384901b60f8161c19169055388080612c96565b868601358855909601959384019387935090810190612c85565b600e835260008051602061331d8339815191528580880160051c820192848910612d1f575b0160051c019087905b828110612d14575050612c19565b848155018790612d06565b92508192612cfd565b634e487b7160e01b82526041600452602482fd5b013590503880612beb565b600d87528a935060008051602061333d83398151915291601f198416885b88828210612d9e5750508411612d84575b505050811b01600d55612c00565b0135600019600384901b60f8161c19169055388080612d76565b8385013586558e97909501949283019201612d65565b909150600d865260008051602061333d8339815191528880850160051c820192878610612e06575b918c91869594930160051c01915b828110612df8575050612bd7565b8881558594508c9101612dea565b92508192612ddc565b634e487b7160e01b85526041600452602485fd5b013590503880612ba6565b600c89528c93506000805160206132fd83398151915291601f1984168a5b8a828210612e855750508411612e6b575b505050811b01600c55612bbb565b0135600019600384901b60f8161c19169055388080612e5d565b91929596849587849396013581550195019201908e9594939291612e4c565b909150600c88526000805160206132fd8339815191528a80850160051c820192898610612ef6575b918e91869594930160051c01915b828110612ee8575050612b92565b8a81558594508e9101612eda565b92508192612ecc565b634e487b7160e01b86526041600452602486fd5b634e487b7160e01b85526021600452602485fd5b6000549060ff8260a01c166004811015612f6b57612f5591612f4b60ff92156126a3565b60101c16156125a8565b60ff60a01b1916600160a01b1760005538612b46565b634e487b7160e01b600052602160045260246000fd5b60405162461bcd60e51b815260048101839052601e60248201527f7769746864726177616c2063726564656e7469616c206d69736d6174636800006044820152606490fd5b818102929181159184041417156123d057565b15612fe057565b606460405162461bcd60e51b81526020600482015260046024820152636e6f706560e01b6044820152fd5b471561307857600090815260016020526040812054600260205261304160408320549161303b47600754906123c3565b90612fc6565b6006549081156130645704801561305f5761305c925061254f565b90565b505090565b634e487b7160e01b84526012600452602484fd5b50600090565b600060ff815460a01c1691600483101561318a57600183036130a05750905090565b6130a99061300b565b9160018060a01b0360135416602060405181810190731c1c9bdd1bd8dbdb0b9999594b9c195c98d95b9d60621b8252601481526130e581612340565b51902060246040518094819363bd02d0f560e01b835260048301525afa92831561317e578093613148575b5050811515908161313c575b50613125575090565b9060646131358261305c94612fc6565b049061254f565b6003915014153861311c565b909192506020823d8211613176575b816131646020938361235c565b81010312610540575051903880613110565b3d9150613157565b604051903d90823e3d90fd5b634e487b7160e01b82526021600452602482fd5b60ff60005460a01c166004811015612f6b57801561326a57600281146132475760018114613218576003146131f6576040516131d981612340565b600d81526c7374617465206661696c75726560981b602082015290565b60405161320281612340565b6006815265195e1a5d195960d21b602082015290565b5060405161322581612340565b6012815271616363657074696e67206465706f7369747360701b602082015290565b5060405161325481612340565b60068152651cdd185ad95960d21b602082015290565b5060405161327781612340565b601781527f6177616974696e672076616c696461746f7220696e666f000000000000000000602082015290565b6000546001600160a01b031633036132b857565b606460405162461bcd60e51b815260206004820152602060248201527f4f776e61626c653a2063616c6c6572206973206e6f7420746865206f776e65726044820152fdfedf6966c971051c3d54ec59162606531493a51404a002842f56009d7e5cf4a8c7bb7b4a454dc3493923482f07822329ed19e8244eff582cc204f8554c3620c3fdd7b6990105719101dabeb77144f2a3385c8033acd3af97e9423a695e81ad1eb5a264697066735822122004ec1d9500ffc42a24e81f6c8513319feca2089e878241e68ee036757c5b9cb564736f6c63430008110033",
    "linkReferences": {}
  },
  "methodIdentifiers": {
    "addToDeposit(uint256)": "8620891c",
    "artForPool()": "8ae578fd",
    "buyOut(uint256,uint256)": "be858798",
    "claim(uint256)": "379607f5",
    "depositForId(uint256)": "2daad61d",
    "depositToPool(bytes32[])": "b4bc91bc",
    "deposit_data_root()": "e2d9ae3e",
    "exitPool()": "29917954",
    "frenPastClaim(uint256)": "2cf2cd48",
    "frensPoolShare()": "591167c7",
    "frensStorage()": "30dbf887",
    "getDistributableShare(uint256)": "678e300a",
    "getIdsInThisPool()": "45b58fe4",
    "getShare(uint256)": "cfb5a5f8",
    "getState()": "1865c57d",
    "hasClaimed(address)": "73b2e80e",
    "idsInPool(uint256)": "888e9cf8",
    "locked(uint256)": "b45a3c0e",
    "merkleRoot()": "2eb4a7ab",
    "nonReentrant()": "129ea136",
    "owner()": "8da5cb5b",
    "poolMax()": "cd8df8a6",
    "poolMin()": "f8f306e1",
    "privatePool()": "59b5e75e",
    "pubKey()": "ac2a5dfd",
    "rageQuit(uint256,uint256)": "f038afe3",
    "rageQuitInfo(uint256)": "fc03bad2",
    "renounceOwnership()": "715018a6",
    "setArt(address)": "e6b1a3ae",
    "setPubKey(bytes,bytes,bytes,bytes32)": "e920eec0",
    "signature()": "51ff4847",
    "stake()": "3a4b66f1",
    "stake(bytes,bytes,bytes,bytes32)": "4b2b4e36",
    "totalClaims()": "41c61383",
    "totalDeposits()": "7d882097",
    "transferLocked()": "12686aae",
    "transferOwnership(address)": "f2fde38b",
    "unlockTransfer(uint256)": "bed62f35",
    "validatorLocked()": "e3f05d83",
    "validatorSet()": "9426e226",
    "withdraw(uint256,uint256)": "441a3e70",
    "withdrawAll(uint256)": "958e2d31",
    "withdrawal_credentials()": "e4a50276"
  },
  "id": 7
}