{
  "abi": [
    {
      "inputs": [
        {
          "internalType": "address",
          "name": "owner_",
          "type": "address"
        },
        {
          "internalType": "contract IFrensStorage",
          "name": "frensStorage_",
          "type": "address"
        }
      ],
      "stateMutability": "nonpayable",
      "type": "constructor"
    },
    {
      "anonymous": false,
      "inputs": [
        {
          "indexed": false,
          "internalType": "uint256",
          "name": "amount",
          "type": "uint256"
        },
        {
          "indexed": false,
          "internalType": "address",
          "name": "depositer",
          "type": "address"
        }
      ],
      "name": "DepositToPool",
      "type": "event"
    },
    {
      "anonymous": false,
      "inputs": [
        {
          "indexed": true,
          "internalType": "address",
          "name": "previousOwner",
          "type": "address"
        },
        {
          "indexed": true,
          "internalType": "address",
          "name": "newOwner",
          "type": "address"
        }
      ],
      "name": "OwnershipTransferred",
      "type": "event"
    },
    {
      "anonymous": false,
      "inputs": [
        {
          "indexed": false,
          "internalType": "address",
          "name": "depositContractAddress",
          "type": "address"
        },
        {
          "indexed": false,
          "internalType": "address",
          "name": "caller",
          "type": "address"
        }
      ],
      "name": "Stake",
      "type": "event"
    },
    {
      "stateMutability": "payable",
      "type": "fallback"
    },
    {
      "inputs": [
        {
          "internalType": "uint256",
          "name": "_id",
          "type": "uint256"
        }
      ],
      "name": "addToDeposit",
      "outputs": [],
      "stateMutability": "payable",
      "type": "function"
    },
    {
      "inputs": [],
      "name": "depositToPool",
      "outputs": [],
      "stateMutability": "payable",
      "type": "function"
    },
    {
      "inputs": [],
      "name": "distribute",
      "outputs": [],
      "stateMutability": "nonpayable",
      "type": "function"
    },
    {
      "inputs": [
        {
          "internalType": "uint256",
          "name": "_id",
          "type": "uint256"
        }
      ],
      "name": "getDepositAmount",
      "outputs": [
        {
          "internalType": "uint256",
          "name": "",
          "type": "uint256"
        }
      ],
      "stateMutability": "view",
      "type": "function"
    },
    {
      "inputs": [
        {
          "internalType": "uint256",
          "name": "_id",
          "type": "uint256"
        }
      ],
      "name": "getDistributableShare",
      "outputs": [
        {
          "internalType": "uint256",
          "name": "",
          "type": "uint256"
        }
      ],
      "stateMutability": "view",
      "type": "function"
    },
    {
      "inputs": [],
      "name": "getIdsInThisPool",
      "outputs": [
        {
          "internalType": "uint256[]",
          "name": "",
          "type": "uint256[]"
        }
      ],
      "stateMutability": "view",
      "type": "function"
    },
    {
      "inputs": [],
      "name": "getPubKey",
      "outputs": [
        {
          "internalType": "bytes",
          "name": "",
          "type": "bytes"
        }
      ],
      "stateMutability": "view",
      "type": "function"
    },
    {
      "inputs": [
        {
          "internalType": "uint256",
          "name": "_id",
          "type": "uint256"
        }
      ],
      "name": "getShare",
      "outputs": [
        {
          "internalType": "uint256",
          "name": "",
          "type": "uint256"
        }
      ],
      "stateMutability": "view",
      "type": "function"
    },
    {
      "inputs": [],
      "name": "getState",
      "outputs": [
        {
          "internalType": "string",
          "name": "",
          "type": "string"
        }
      ],
      "stateMutability": "view",
      "type": "function"
    },
    {
      "inputs": [],
      "name": "getTotalDeposits",
      "outputs": [
        {
          "internalType": "uint256",
          "name": "",
          "type": "uint256"
        }
      ],
      "stateMutability": "view",
      "type": "function"
    },
    {
      "inputs": [],
      "name": "owner",
      "outputs": [
        {
          "internalType": "address",
          "name": "",
          "type": "address"
        }
      ],
      "stateMutability": "view",
      "type": "function"
    },
    {
      "inputs": [],
      "name": "renounceOwnership",
      "outputs": [],
      "stateMutability": "nonpayable",
      "type": "function"
    },
    {
      "inputs": [],
      "name": "rugpull",
      "outputs": [],
      "stateMutability": "nonpayable",
      "type": "function"
    },
    {
      "inputs": [
        {
          "internalType": "address",
          "name": "frensPoolShareAddress_",
          "type": "address"
        }
      ],
      "name": "setFrensPoolShare",
      "outputs": [],
      "stateMutability": "nonpayable",
      "type": "function"
    },
    {
      "inputs": [
        {
          "internalType": "bytes",
          "name": "_publicKey",
          "type": "bytes"
        }
      ],
      "name": "setPubKey",
      "outputs": [],
      "stateMutability": "nonpayable",
      "type": "function"
    },
    {
      "inputs": [
        {
          "internalType": "bytes",
          "name": "pubKey",
          "type": "bytes"
        },
        {
          "internalType": "bytes",
          "name": "withdrawal_credentials",
          "type": "bytes"
        },
        {
          "internalType": "bytes",
          "name": "signature",
          "type": "bytes"
        },
        {
          "internalType": "bytes32",
          "name": "deposit_data_root",
          "type": "bytes32"
        }
      ],
      "name": "stake",
      "outputs": [],
      "stateMutability": "nonpayable",
      "type": "function"
    },
    {
      "inputs": [
        {
          "internalType": "address",
          "name": "newOwner",
          "type": "address"
        }
      ],
      "name": "transferOwnership",
      "outputs": [],
      "stateMutability": "nonpayable",
      "type": "function"
    },
    {
      "inputs": [],
      "name": "unstake",
      "outputs": [],
      "stateMutability": "nonpayable",
      "type": "function"
    },
    {
      "inputs": [],
      "name": "version",
      "outputs": [
        {
          "internalType": "uint8",
          "name": "",
          "type": "uint8"
        }
      ],
      "stateMutability": "view",
      "type": "function"
    },
    {
      "inputs": [
        {
          "internalType": "uint256",
          "name": "_id",
          "type": "uint256"
        },
        {
          "internalType": "uint256",
          "name": "_amount",
          "type": "uint256"
        }
      ],
      "name": "withdraw",
      "outputs": [],
      "stateMutability": "nonpayable",
      "type": "function"
    },
    {
      "stateMutability": "payable",
      "type": "receive"
    }
  ],
  "bytecode": {
    "object": "0x60806040818152346200018357808262001de1803803809162000023828562000188565b83398101031262000183576200003982620001ac565b6020928301516001600160a01b03808216949185900362000183576200005f33620001c1565b600180546001600160a01b0319908116871790915584516f636f6e74726163742e6164647265737360801b8185019081526d4672656e73506f6f6c536861726560901b6030830152601e82528187019792949192906001600160401b038911848a10176200016d5760248984938193828c52875190206321f8a72160e01b835260448801525afa91821562000162576000926200011e575b50506200011094955016906002541617600255620001c1565b51611bd89081620002098239f35b813d83116200015a575b62000134818a62000188565b810103126200015757506200014e620001109495620001ac565b859438620000f7565b80fd5b503d62000128565b86513d6000823e3d90fd5b634e487b7160e01b600052604160045260246000fd5b600080fd5b601f909101601f19168101906001600160401b038211908210176200016d57604052565b51906001600160a01b03821682036200018357565b600080546001600160a01b039283166001600160a01b03198216811783559216907f8be0079c531659141344cd1fd0a4f28419497f9722a3daafe3b4186f6b6457e09080a356fe608060408181526004908136101561001f575b505050361561001d57005b005b600092833560e01c908163168a4822146110c7575080631865c57d146110a95780632def66201461102d5780632edaf74d14610fe2578063378de45b14610f9b578063441a3e7014610dab57806345b58fe414610d515780634ad02ef114610d0c5780634b2b4e361461092157806354fd4d50146108fe578063678e300a146108de578063715018a61461087f5780638620891c146106b05780638da5cb5b14610688578063cfb5a5f81461065f578063e2664e4914610609578063e32d291314610566578063e4fc6b6d14610547578063f2fde38b146104775763f9faa1040361001257826003193601126103ca5761013061011a611b04565b61012a61012561123f565b611b0c565b1461126c565b341561043f578051916020926101886801bc16d674ec8000006101818684019361017c8161015e30886112b1565b0395610172601f19978881018552846111ca565b3492519020611360565b6112df565b1115611302565b825190848201671d1bdad95b8b9a5960c21b92838252600881526101ab81611192565b5190206001546001600160a01b03939190841690813b1561043a576000916044839289519485938492632b6cd4f760e21b84528b840152600160248401525af1801561042f579161021e918996959493610420575b5086518881019182526008815261021681611192565b519020611360565b908551878101906d19195c1bdcda5d0b985b5bdd5b9d60921b825283602e820152602e815261024c816111ae565b519020836001541690813b1561041c578691604483928a519485938492637152429d60e11b84528b8401523460248401525af18015610412579086916103fa575b50506102bb86518881016102b1826102a530846112b1565b038581018452836111ca565b34915190206113d9565b85516a1a591ccb9a5b8b9c1bdbdb60aa1b8882019081523060601b6bffffffffffffffffffffffff1916600b820152916103019082601f85015b039081018352826111ca565b519020826001541691823b156103f65760448692838951958694859363785f002b60e11b85528a85015260248401525af180156103ec579084916103d8575b505060025416803b156103ca57835163ee1fe2ad60e01b815233928101928352306020840152918391839182908490829060400103925af180156103ce576103b6575b50507f1ed12c9855bd60407f7650e01c62ee4f0f40744b5b17983eec349a2b4e89981a918151903482523390820152a180f35b6103bf90611168565b6103ca578238610383565b8280fd5b83513d84823e3d90fd5b6103e190611168565b6103ca578238610340565b85513d86823e3d90fd5b8580fd5b61040390611168565b61040e57843861028d565b8480fd5b87513d88823e3d90fd5b8680fd5b61042990611168565b38610200565b86513d6000823e3d90fd5b600080fd5b906020606492519162461bcd60e51b8352820152601260248201527136bab9ba103232b837b9b4ba1032ba3432b960711b6044820152fd5b50346103ca5760203660031901126103ca576001600160a01b0382358181169391929084900361040e576104af8386541633146119a1565b83156104f5575050600054826001600160601b0360a01b821617600055167f8be0079c531659141344cd1fd0a4f28419497f9722a3daafe3b4186f6b6457e0600080a380f35b906020608492519162461bcd60e51b8352820152602660248201527f4f776e61626c653a206e6577206f776e657220697320746865207a65726f206160448201526564647265737360d01b6064820152fd5b8334610563578060031936011261056357610560611509565b80f35b80fd5b50346103ca5760203660031901126103ca57813567ffffffffffffffff8111610605573660238201121561060557610560928160246105aa93369301359101611208565b906105bf60018060a01b0385541633146119a1565b6105db6105ca611b04565b6105d561012561123f565b146119ec565b5160208101906105fd816105ef308561189b565b03601f1981018352826111ca565b519020611a26565b8380fd5b83823461065b578160031936011261065b5761062f60018060a01b0383541633146119a1565b8180808047818115610652575b3390f115610648575080f35b51903d90823e3d90fd5b506108fc61063c565b5080fd5b50823461056357602036600319011261056357506106816020924790356117cd565b9051908152f35b83823461065b578160031936011261065b57905490516001600160a01b039091168152602090f35b509190602090816003193601126103ca5780359060018060a01b036024848260025416885192838092634f558e7960e01b825288888301525afa908115610412578691610849575b5015610812576107338651858101906a1c1bdbdb0b999bdc8b9a5960aa1b825285602b820152602b815261072b816111ae565b519020611448565b309116036107da57506102b1610560939461074f61011a611b04565b6107be8151936107916801bc16d674ec80000061018161078a8989018961077630836112b1565b0399610216601f199b8c81018352826111ca565b34906112df565b825190868201906d19195c1bdcda5d0b985b5bdd5b9d60921b8252602e830152602e82526102b1826111ae565b5192830191836107ce30856112b1565b039081018452836111ca565b845162461bcd60e51b815290810183905260126024820152711ddc9bdb99c81cdd185ada5b99c81c1bdbdb60721b6044820152606490fd5b855162461bcd60e51b815280830185905260116024820152701a5908191bd95cc81b9bdd08195e1a5cdd607a1b6044820152606490fd5b90508481813d8311610878575b61086081836111ca565b810103126103f6575180151581036103f657386106f8565b503d610856565b8334610563578060031936011261056357600060018060a01b036108a78184541633146119a1565b81546001600160a01b031981168355167f8be0079c531659141344cd1fd0a4f28419497f9722a3daafe3b4186f6b6457e08280a380f35b508234610563576020366003190112610563575061068160209235611872565b83823461065b578160031936011261065b5760ff6020925460a01c169051908152f35b5082903461065b57600319906080368301126103ca5767ffffffffffffffff93803585811161040e57610957903690830161113a565b6024908135888111610d0857610970903690860161113a565b949098604435908111610d045761098a903690830161113a565b919060018060a01b03986109a28a8c541633146119a1565b6801bc16d674ec80000093844710610cd1576109bf6105ca611b04565b89519c60209d8e8a8d6109f5838501856109d9308361189b565b03956109ed601f19978881018352826111ca565b519020611904565b908b8251938584019485206060516080201415600014610c875750505051902090610a228c8b3691611208565b805191012003610c3957610a57908f610a468e5b5191820192826102f53086611a7c565b519020610a516114a2565b90611b5d565b600160f81b3001803011610c27578e908c5191808301918252808352610a7c83611192565b610a87368e86611208565b80519101209151902003610be557610aec8d9e8c9d9e9b9c51908101907f65787465726e616c2e636f6e74726163742e616464726573730000000000000082526e11195c1bdcda5d10dbdb9d1c9858dd608a1b60398201526028815261072b816111ae565b9c8d1697883b15610be1578c519b8c9a8b998a986304512a2360e31b8a528901608090526084890190610b1e92611b3c565b91858884030190880152610b3192611b3c565b91848303016044850152610b4492611b3c565b606435606483015203925af18015610bd757610b9e575b50516001600160a01b0390911681523360208201527f72b356fd889b9abd3530accd2c9f4aecbce67d70757181f9f862ac91464ce1929080604081015b0390a180f35b91610b989193610bce7f72b356fd889b9abd3530accd2c9f4aecbce67d70757181f9f862ac91464ce19294611168565b93915091610b5b565b82513d86823e3d90fd5b8a80fd5b8a5162461bcd60e51b81528086018f9052601e818a01527f7769746864726177616c2063726564656e7469616c206d69736d6174636800006044820152606490fd5b634e487b7160e01b8e5260118652888efd5b508a5162461bcd60e51b81528086018f90526022818a01527f7075626b657920646f6573206e6f74206d617463682073746f7265642076616c604482015261756560f01b6064820152608490fd5b610a5796959450610a46935090610cc6610ccc92845187810190610cbb81610caf308561189b565b038b81018352826111ca565b519020923691611208565b90611a26565b610a36565b895162461bcd60e51b8152602081860152600e818901526d0dcdee840cadcdeeaced040cae8d60931b6044820152606490fd5b8880fd5b8780fd5b83823461065b578160031936011261065b5780610d3a610d4d925160208101906109ed816105ef308561189b565b9051918291602083526020830190611115565b0390f35b83823461065b578160031936011261065b57610d6b611692565b815192839260208080860192818752855180945286019401925b828110610d9457505050500390f35b835185528695509381019392810192600101610d85565b5090346103ca57816003193601126103ca57803560243591610dcb611b04565b610dd66101256114a2565b14610f585760025484516331a9108f60e11b8152828101849052602093916001600160a01b03919085908290602490829086165afa908115610f4e578891610f21575b50163303610eef5784519184610e548585016d19195c1bdcda5d0b985b5bdd5b9d60921b9586825285602e820152602e8152610216816111ae565b10610eb5575083610ea281889695610e8e8897889788978c5190858201928352602e820152602e8152610e86816111ae565b5190206114c4565b885190810190610e86816105ef30856112b1565b818115610652573390f115610648575080f35b855162461bcd60e51b815290810184905260146024820152731b9bdd08195b9bdd59da0819195c1bdcda5d195960621b6044820152606490fd5b5060649184519162461bcd60e51b8352820152600d60248201526c3737ba103a34329037bbb732b960991b6044820152fd5b610f419150853d8711610f47575b610f3981836111ca565b810190611429565b38610e19565b503d610f2f565b87513d8a823e3d90fd5b606490602085519162461bcd60e51b8352820152601b60248201527f63616e6e6f74207769746864726177206f6e6365207374616b656400000000006044820152fd5b50823461056357602036600319011261056357506106816020928251848101916d19195c1bdcda5d0b985b5bdd5b9d60921b835235602e820152602e8152610216816111ae565b50503461065b57602036600319011261065b57356001600160a01b03818116918290036103ca576110179083541633146119a1565b6001600160601b0360a01b600254161760025580f35b83823461065b578160031936011261065b576105609061105760018060a01b0384541633146119a1565b6064471161109c575b80516020810190611075816105ef3085611a7c565b51902090519061108482611192565b6006825265195e1a5d195960d21b6020830152611b5d565b6110a4611509565b611060565b83823461065b578160031936011261065b57610d4d90610d3a611aaa565b8285346105635780600319360112610563575061068182602080940190610216816105ef30856112b1565b60005b8381106111055750506000910152565b81810151838201526020016110f5565b9060209161112e815180928185528580860191016110f2565b601f01601f1916010190565b9181601f8401121561043a5782359167ffffffffffffffff831161043a576020838186019501011161043a57565b67ffffffffffffffff811161117c57604052565b634e487b7160e01b600052604160045260246000fd5b6040810190811067ffffffffffffffff82111761117c57604052565b6060810190811067ffffffffffffffff82111761117c57604052565b90601f8019910116810190811067ffffffffffffffff82111761117c57604052565b67ffffffffffffffff811161117c57601f01601f191660200190565b929192611214826111ec565b9161122260405193846111ca565b82948184528183011161043a578281602093846000960137010152565b6040519061124c82611192565b6011825270616363657074696e674465706f7369747360781b6020830152565b1561127357565b60405162461bcd60e51b81526020600482015260166024820152756e6f7420616363657074696e67206465706f7369747360501b6044820152606490fd5b6022916d746f74616c2e6465706f7369747360901b82526001600160601b03199060601b16600e8201520190565b919082018092116112ec57565b634e487b7160e01b600052601160045260246000fd5b1561130957565b60405162461bcd60e51b815260206004820152602960248201527f746f74616c206465706f737469732063616e6e6f74206265206d6f72652074686044820152680c2dc406664408ae8d60bb1b6064820152608490fd5b60015460405163bd02d0f560e01b81526004810192909252602090829060249082906001600160a01b03165afa9081156113cd5760009161139f575090565b906020823d82116113c5575b816113b8602093836111ca565b8101031261056357505190565b3d91506113ab565b6040513d6000823e3d90fd5b6001546001600160a01b031691823b1561043a576044600092836040519586948593632b6cd4f760e21b8552600485015260248401525af180156113cd5761141e5750565b61142790611168565b565b9081602091031261043a57516001600160a01b038116810361043a5790565b6001546040516321f8a72160e01b81526004810192909252602090829060249082906001600160a01b03165afa9081156113cd57600091611487575090565b61149f915060203d8111610f4757610f3981836111ca565b90565b604051906114af82611192565b60068252651cdd185ad95960d21b6020830152565b6001546001600160a01b031691823b1561043a57604460009283604051958694859363ebb9d8c960e01b8552600485015260248401525af180156113cd5761141e5750565b611511611b04565b61151c6101256114a2565b0361164d574761152a611692565b60648211156116095760005b8151811015611604576020808260051b8401015160018060a01b03908160025416926024816040958651928380926331a9108f60e11b82528760048301525afa9182156115f95793600094938594938a869594869586936115d6575b505061159e91926117cd565b91839183156115cc575b1690f1156115c2575060001981146112ec57600101611536565b513d6000823e3d90fd5b6108fc92506115a8565b61159e935090816115f292903d10610f4757610f3981836111ca565b9138611592565b85513d6000823e3d90fd5b505050565b606460405162461bcd60e51b815260206004820152602060248201527f6d696e696d756d206f66203130302077656920746f20646973747269627574656044820152fd5b60405162461bcd60e51b815260206004820152601c60248201527f757365207769746864726177207768656e206e6f74207374616b6564000000006044820152606490fd5b6040516a1a591ccb9a5b8b9c1bdbdb60aa1b60208083019182523060601b6bffffffffffffffffffffffff1916602b840152916116d281603f81016105ef565b5190206001546040516378267eb560e11b81526004810192909252600092908390839060249082906001600160a01b03165afa9283156117c1578093611719575b50505090565b909192503d8082853e61172c81856111ca565b830190828483031261056357835167ffffffffffffffff948582116103ca570182601f8201121561065b5780519485116117ad578460051b9160405195611775868501886111ca565b8652848087019383010193841161056357508301905b82821061179e5750505050388080611713565b8151815290830190830161178b565b634e487b7160e01b82526041600452602482fd5b604051903d90823e3d90fd5b6117ff9060405160208101916d19195c1bdcda5d0b985b5bdd5b9d60921b8352602e820152602e8152610216816111ae565b6118186040516020810190610216816105ef30856112b1565b91811561186a578181029181830414901517156112ec5781156118545704600181111561184e5760001981019081116112ec5790565b50600090565b634e487b7160e01b600052601260045260246000fd5b505050600090565b61187a611b04565b61188561012561123f565b036118905750600090565b61149f9047906117cd565b6028917376616c696461746f722e7075626c69632e6b657960601b82526001600160601b03199060601b1660148201520190565b909291926118dc816111ec565b916118ea60405193846111ca565b82948284528282011161043a5760206114279301906110f2565b600154604051630180634360e71b815260048101929092526000908190839060249082906001600160a01b03165afa91821561199457819261194557505090565b909291503d8084833e61195881836111ca565b8101906020818303126106055780519067ffffffffffffffff821161040e570181601f820112156106055761149f9293506020815191016118cf565b50604051903d90823e3d90fd5b156119a857565b606460405162461bcd60e51b815260206004820152602060248201527f4f776e61626c653a2063616c6c6572206973206e6f7420746865206f776e65726044820152fd5b156119f357565b60405162461bcd60e51b815260206004820152600b60248201526a77726f6e6720737461746560a81b6044820152606490fd5b6001546001600160a01b031691823b1561043a57611a6b9260009283604051809681958294630b8a342160e21b84526004840152604060248401526044830190611115565b03925af180156113cd5761141e5750565b6022916d636f6e74726163742e737461746560901b82526001600160601b03199060601b16600e8201520190565b6040516020810190611ac0816105ef3085611a7c565b519020600154604051634c373c8d60e11b815260048101929092526000908190839060249082906001600160a01b03165afa91821561199457819261194557505090565b611b0c611aaa565b604051611b3660208281611b2981830196878151938492016110f2565b81010380845201826111ca565b51902090565b908060209392818452848401376000828201840152601f01601f1916010190565b6001546001600160a01b031691823b1561043a57611a6b92600092836040518096819582946306e8995560e41b8452600484015260406024840152604483019061111556fea2646970667358221220a02136c43ddb505afc23e07cdffc12900c2ce920b820fbcf86b1fcf6130a48a164736f6c63430008110033",
    "linkReferences": {}
  },
  "methodIdentifiers": {
    "addToDeposit(uint256)": "8620891c",
    "depositToPool()": "f9faa104",
    "distribute()": "e4fc6b6d",
    "getDepositAmount(uint256)": "378de45b",
    "getDistributableShare(uint256)": "678e300a",
    "getIdsInThisPool()": "45b58fe4",
    "getPubKey()": "4ad02ef1",
    "getShare(uint256)": "cfb5a5f8",
    "getState()": "1865c57d",
    "getTotalDeposits()": "168a4822",
    "owner()": "8da5cb5b",
    "renounceOwnership()": "715018a6",
    "rugpull()": "e2664e49",
    "setFrensPoolShare(address)": "2edaf74d",
    "setPubKey(bytes)": "e32d2913",
    "stake(bytes,bytes,bytes,bytes32)": "4b2b4e36",
    "transferOwnership(address)": "f2fde38b",
    "unstake()": "2def6620",
    "version()": "54fd4d50",
    "withdraw(uint256,uint256)": "441a3e70"
  },
  "id": 8
}