{
  "abi": [
    {
      "inputs": [
        {
          "internalType": "address",
          "name": "owner_",
          "type": "address"
        },
        {
          "internalType": "bool",
          "name": "validatorLocked_",
          "type": "bool"
        },
        {
          "internalType": "bool",
          "name": "frensLocked_",
          "type": "bool"
        },
        {
          "internalType": "uint256",
          "name": "poolMin_",
          "type": "uint256"
        },
        {
          "internalType": "uint256",
          "name": "poolMax_",
          "type": "uint256"
        },
        {
          "internalType": "bytes32",
          "name": "merkleRoot_",
          "type": "bytes32"
        },
        {
          "internalType": "contract IFrensStorage",
          "name": "frensStorage_",
          "type": "address"
        }
      ],
      "stateMutability": "nonpayable",
      "type": "constructor"
    },
    {
      "anonymous": false,
      "inputs": [
        {
          "indexed": false,
          "internalType": "uint256",
          "name": "amount",
          "type": "uint256"
        },
        {
          "indexed": false,
          "internalType": "address",
          "name": "depositer",
          "type": "address"
        },
        {
          "indexed": false,
          "internalType": "uint256",
          "name": "id",
          "type": "uint256"
        }
      ],
      "name": "DepositToPool",
      "type": "event"
    },
    {
      "anonymous": false,
      "inputs": [
        {
          "indexed": true,
          "internalType": "address",
          "name": "previousOwner",
          "type": "address"
        },
        {
          "indexed": true,
          "internalType": "address",
          "name": "newOwner",
          "type": "address"
        }
      ],
      "name": "OwnershipTransferred",
      "type": "event"
    },
    {
      "anonymous": false,
      "inputs": [
        {
          "indexed": false,
          "internalType": "address",
          "name": "depositContractAddress",
          "type": "address"
        },
        {
          "indexed": false,
          "internalType": "address",
          "name": "caller",
          "type": "address"
        }
      ],
      "name": "Stake",
      "type": "event"
    },
    {
      "stateMutability": "payable",
      "type": "fallback"
    },
    {
      "inputs": [
        {
          "internalType": "uint256",
          "name": "_id",
          "type": "uint256"
        }
      ],
      "name": "addToDeposit",
      "outputs": [],
      "stateMutability": "payable",
      "type": "function"
    },
    {
      "inputs": [],
      "name": "artForPool",
      "outputs": [
        {
          "internalType": "contract IFrensArt",
          "name": "",
          "type": "address"
        }
      ],
      "stateMutability": "view",
      "type": "function"
    },
    {
      "inputs": [
        {
          "internalType": "uint256",
          "name": "rageQuitId",
          "type": "uint256"
        },
        {
          "internalType": "uint256",
          "name": "buyersTokenId",
          "type": "uint256"
        }
      ],
      "name": "buyOut",
      "outputs": [],
      "stateMutability": "payable",
      "type": "function"
    },
    {
      "inputs": [
        {
          "internalType": "uint256",
          "name": "_id",
          "type": "uint256"
        }
      ],
      "name": "claim",
      "outputs": [],
      "stateMutability": "nonpayable",
      "type": "function"
    },
    {
      "inputs": [
        {
          "internalType": "uint256",
          "name": "",
          "type": "uint256"
        }
      ],
      "name": "depositForId",
      "outputs": [
        {
          "internalType": "uint256",
          "name": "",
          "type": "uint256"
        }
      ],
      "stateMutability": "view",
      "type": "function"
    },
    {
      "inputs": [
        {
          "internalType": "bytes32[]",
          "name": "merkleProof",
          "type": "bytes32[]"
        }
      ],
      "name": "depositToPool",
      "outputs": [],
      "stateMutability": "payable",
      "type": "function"
    },
    {
      "inputs": [],
      "name": "deposit_data_root",
      "outputs": [
        {
          "internalType": "bytes32",
          "name": "",
          "type": "bytes32"
        }
      ],
      "stateMutability": "view",
      "type": "function"
    },
    {
      "inputs": [],
      "name": "exitPool",
      "outputs": [],
      "stateMutability": "nonpayable",
      "type": "function"
    },
    {
      "inputs": [
        {
          "internalType": "uint256",
          "name": "",
          "type": "uint256"
        }
      ],
      "name": "frenPastClaim",
      "outputs": [
        {
          "internalType": "uint256",
          "name": "",
          "type": "uint256"
        }
      ],
      "stateMutability": "view",
      "type": "function"
    },
    {
      "inputs": [],
      "name": "frensPoolShare",
      "outputs": [
        {
          "internalType": "contract IFrensPoolShare",
          "name": "",
          "type": "address"
        }
      ],
      "stateMutability": "view",
      "type": "function"
    },
    {
      "inputs": [],
      "name": "frensStorage",
      "outputs": [
        {
          "internalType": "contract IFrensStorage",
          "name": "",
          "type": "address"
        }
      ],
      "stateMutability": "view",
      "type": "function"
    },
    {
      "inputs": [
        {
          "internalType": "uint256",
          "name": "_id",
          "type": "uint256"
        }
      ],
      "name": "getDistributableShare",
      "outputs": [
        {
          "internalType": "uint256",
          "name": "",
          "type": "uint256"
        }
      ],
      "stateMutability": "view",
      "type": "function"
    },
    {
      "inputs": [],
      "name": "getIdsInThisPool",
      "outputs": [
        {
          "internalType": "uint256[]",
          "name": "",
          "type": "uint256[]"
        }
      ],
      "stateMutability": "view",
      "type": "function"
    },
    {
      "inputs": [
        {
          "internalType": "uint256",
          "name": "_id",
          "type": "uint256"
        }
      ],
      "name": "getShare",
      "outputs": [
        {
          "internalType": "uint256",
          "name": "",
          "type": "uint256"
        }
      ],
      "stateMutability": "view",
      "type": "function"
    },
    {
      "inputs": [],
      "name": "getState",
      "outputs": [
        {
          "internalType": "string",
          "name": "",
          "type": "string"
        }
      ],
      "stateMutability": "view",
      "type": "function"
    },
    {
      "inputs": [
        {
          "internalType": "address",
          "name": "",
          "type": "address"
        }
      ],
      "name": "hasClaimed",
      "outputs": [
        {
          "internalType": "bool",
          "name": "",
          "type": "bool"
        }
      ],
      "stateMutability": "view",
      "type": "function"
    },
    {
      "inputs": [
        {
          "internalType": "uint256",
          "name": "",
          "type": "uint256"
        }
      ],
      "name": "idsInPool",
      "outputs": [
        {
          "internalType": "uint256",
          "name": "",
          "type": "uint256"
        }
      ],
      "stateMutability": "view",
      "type": "function"
    },
    {
      "inputs": [
        {
          "internalType": "uint256",
          "name": "",
          "type": "uint256"
        }
      ],
      "name": "locked",
      "outputs": [
        {
          "internalType": "bool",
          "name": "",
          "type": "bool"
        }
      ],
      "stateMutability": "view",
      "type": "function"
    },
    {
      "inputs": [],
      "name": "merkleRoot",
      "outputs": [
        {
          "internalType": "bytes32",
          "name": "",
          "type": "bytes32"
        }
      ],
      "stateMutability": "view",
      "type": "function"
    },
    {
      "inputs": [],
      "name": "owner",
      "outputs": [
        {
          "internalType": "address",
          "name": "",
          "type": "address"
        }
      ],
      "stateMutability": "view",
      "type": "function"
    },
    {
      "inputs": [],
      "name": "poolMax",
      "outputs": [
        {
          "internalType": "uint256",
          "name": "",
          "type": "uint256"
        }
      ],
      "stateMutability": "view",
      "type": "function"
    },
    {
      "inputs": [],
      "name": "poolMin",
      "outputs": [
        {
          "internalType": "uint256",
          "name": "",
          "type": "uint256"
        }
      ],
      "stateMutability": "view",
      "type": "function"
    },
    {
      "inputs": [],
      "name": "privatePool",
      "outputs": [
        {
          "internalType": "bool",
          "name": "",
          "type": "bool"
        }
      ],
      "stateMutability": "view",
      "type": "function"
    },
    {
      "inputs": [],
      "name": "pubKey",
      "outputs": [
        {
          "internalType": "bytes",
          "name": "",
          "type": "bytes"
        }
      ],
      "stateMutability": "view",
      "type": "function"
    },
    {
      "inputs": [
        {
          "internalType": "uint256",
          "name": "_id",
          "type": "uint256"
        },
        {
          "internalType": "uint256",
          "name": "_price",
          "type": "uint256"
        }
      ],
      "name": "rageQuit",
      "outputs": [],
      "stateMutability": "nonpayable",
      "type": "function"
    },
    {
      "inputs": [
        {
          "internalType": "uint256",
          "name": "",
          "type": "uint256"
        }
      ],
      "name": "rageQuitInfo",
      "outputs": [
        {
          "internalType": "uint256",
          "name": "price",
          "type": "uint256"
        },
        {
          "internalType": "uint256",
          "name": "time",
          "type": "uint256"
        },
        {
          "internalType": "bool",
          "name": "rageQuitting",
          "type": "bool"
        }
      ],
      "stateMutability": "view",
      "type": "function"
    },
    {
      "inputs": [],
      "name": "renounceOwnership",
      "outputs": [],
      "stateMutability": "nonpayable",
      "type": "function"
    },
    {
      "inputs": [
        {
          "internalType": "contract IFrensArt",
          "name": "newArtContract",
          "type": "address"
        }
      ],
      "name": "setArt",
      "outputs": [],
      "stateMutability": "nonpayable",
      "type": "function"
    },
    {
      "inputs": [
        {
          "internalType": "bytes",
          "name": "_pubKey",
          "type": "bytes"
        },
        {
          "internalType": "bytes",
          "name": "_withdrawal_credentials",
          "type": "bytes"
        },
        {
          "internalType": "bytes",
          "name": "_signature",
          "type": "bytes"
        },
        {
          "internalType": "bytes32",
          "name": "_deposit_data_root",
          "type": "bytes32"
        }
      ],
      "name": "setPubKey",
      "outputs": [],
      "stateMutability": "nonpayable",
      "type": "function"
    },
    {
      "inputs": [],
      "name": "signature",
      "outputs": [
        {
          "internalType": "bytes",
          "name": "",
          "type": "bytes"
        }
      ],
      "stateMutability": "view",
      "type": "function"
    },
    {
      "inputs": [],
      "name": "stake",
      "outputs": [],
      "stateMutability": "nonpayable",
      "type": "function"
    },
    {
      "inputs": [
        {
          "internalType": "bytes",
          "name": "_pubKey",
          "type": "bytes"
        },
        {
          "internalType": "bytes",
          "name": "_withdrawal_credentials",
          "type": "bytes"
        },
        {
          "internalType": "bytes",
          "name": "_signature",
          "type": "bytes"
        },
        {
          "internalType": "bytes32",
          "name": "_deposit_data_root",
          "type": "bytes32"
        }
      ],
      "name": "stake",
      "outputs": [],
      "stateMutability": "nonpayable",
      "type": "function"
    },
    {
      "inputs": [],
      "name": "totalClaims",
      "outputs": [
        {
          "internalType": "uint256",
          "name": "",
          "type": "uint256"
        }
      ],
      "stateMutability": "view",
      "type": "function"
    },
    {
      "inputs": [],
      "name": "totalDeposits",
      "outputs": [
        {
          "internalType": "uint256",
          "name": "",
          "type": "uint256"
        }
      ],
      "stateMutability": "view",
      "type": "function"
    },
    {
      "inputs": [],
      "name": "transferLocked",
      "outputs": [
        {
          "internalType": "bool",
          "name": "",
          "type": "bool"
        }
      ],
      "stateMutability": "view",
      "type": "function"
    },
    {
      "inputs": [
        {
          "internalType": "address",
          "name": "newOwner",
          "type": "address"
        }
      ],
      "name": "transferOwnership",
      "outputs": [],
      "stateMutability": "nonpayable",
      "type": "function"
    },
    {
      "inputs": [
        {
          "internalType": "uint256",
          "name": "_id",
          "type": "uint256"
        }
      ],
      "name": "unlockTransfer",
      "outputs": [],
      "stateMutability": "nonpayable",
      "type": "function"
    },
    {
      "inputs": [],
      "name": "validatorLocked",
      "outputs": [
        {
          "internalType": "bool",
          "name": "",
          "type": "bool"
        }
      ],
      "stateMutability": "view",
      "type": "function"
    },
    {
      "inputs": [],
      "name": "validatorSet",
      "outputs": [
        {
          "internalType": "bool",
          "name": "",
          "type": "bool"
        }
      ],
      "stateMutability": "view",
      "type": "function"
    },
    {
      "inputs": [
        {
          "internalType": "uint256",
          "name": "_id",
          "type": "uint256"
        },
        {
          "internalType": "uint256",
          "name": "_amount",
          "type": "uint256"
        }
      ],
      "name": "withdraw",
      "outputs": [],
      "stateMutability": "nonpayable",
      "type": "function"
    },
    {
      "inputs": [
        {
          "internalType": "uint256",
          "name": "_id",
          "type": "uint256"
        }
      ],
      "name": "withdrawAll",
      "outputs": [],
      "stateMutability": "nonpayable",
      "type": "function"
    },
    {
      "inputs": [],
      "name": "withdrawal_credentials",
      "outputs": [
        {
          "internalType": "bytes",
          "name": "",
          "type": "bytes"
        }
      ],
      "stateMutability": "view",
      "type": "function"
    },
    {
      "stateMutability": "payable",
      "type": "receive"
    }
  ],
  "bytecode": {
    "object": "0x6080604081815234620002d35760e082620036a080380380916200002482856200030a565b833981010312620002d3576200003a826200032e565b6020926200004a84820162000343565b6200005784830162000343565b9060608301519160808401519660c060a08601519501519060018060a01b0390818316809303620002d3576200008d3362000351565b60018060a01b0319928084601354161760135589518281016f636f6e74726163742e6164647265737360801b9182825267119c995b9cd05c9d60c21b603082015260188152620000dd81620002d8565b519020908b516321f8a72160e01b9283825260048201528481602481875afa908115620002c8578593929187916000916200027f575b509060249291168860125416176012558d518481019182526d4672656e73506f6f6c536861726560901b6030820152601e81526200015181620002d8565b519020918d519485938492835260048301525afa91821562000274576000926200021c575b50509161ff00959391620001d8999a95931690601154161760115560ff600b5492151516948591151560081b169161ffff19161717600b5560095560085560001462000203576000805460ff60a01b191690555b80620001e6575b5062000351565b516133079081620003998239f35b601055630100000063ff00000019600b541617600b5538620001d1565b6000805460ff60a01b1916600160a01b179055620001ca565b81819392933d83116200026c575b6200023681836200030a565b810103126200026957509161ff0095939162000259620001d89a9b96946200032e565b9193959a99819395975062000176565b80fd5b503d6200022a565b8a513d6000823e3d90fd5b85819495969293503d8311620002c0575b6200029c81836200030a565b8101031262000269575084929186620002b76024936200032e565b90919262000113565b503d62000290565b8d513d6000823e3d90fd5b600080fd5b604081019081106001600160401b03821117620002f457604052565b634e487b7160e01b600052604160045260246000fd5b601f909101601f19168101906001600160401b03821190821017620002f457604052565b51906001600160a01b0382168203620002d357565b51908115158203620002d357565b600080546001600160a01b039283166001600160a01b03198216811783559216907f8be0079c531659141344cd1fd0a4f28419497f9722a3daafe3b4186f6b6457e09080a356fe6080604081815260048036101561001e575b505050361561001c57005b005b600092833560e01c90816312686aae146120f8575080631865c57d146120c75780632991795414611fb95780632cf2cd4814611f925780632daad61d14611f6b5780632eb4a7ab14611f4c57806330dbf88714611f23578063379607f514611a715780633a4b66f114611a5857806341c6138314611a39578063441a3e70146118a757806345b58fe4146117f45780634b2b4e36146116a957806351ff484714611611578063591167c7146115e857806359b5e75e146115c1578063678e300a146115a1578063715018a61461154757806373b2e80e146115095780637d882097146114ea5780638620891c1461136b578063888e9cf81461131e5780638ae578fd146112f55780638da5cb5b146112cd5780639426e226146112a6578063958e2d3114611187578063ac2a5dfd146110c6578063b45a3c0e1461109a578063b4bc91bc14610bc0578063be858798146108f7578063bed62f3514610843578063cd8df8a614610824578063cfb5a5f814610793578063e2d9ae3e14610774578063e3f05d8314610750578063e4a5027614610678578063e6b1a3ae14610538578063e920eec01461050c578063f038afe314610332578063f2fde38b1461025e578063f8f306e11461023b5763fc03bad203610011573461023757602036600319011261023757606092818392358252602052209081549160ff60026001830154920154169082519384526020840152151590820152f35b8280fd5b50503461025a578160031936011261025a576020906009549051908152f35b5080fd5b509034610237576020366003190112610237576001600160a01b0382358181169391929084900361032e57610291613219565b83156102dc575050600054826bffffffffffffffffffffffff60a01b821617600055167f8be0079c531659141344cd1fd0a4f28419497f9722a3daafe3b4186f6b6457e0600080a380f35b906020608492519162461bcd60e51b8352820152602660248201527f4f776e61626c653a206e6577206f776e657220697320746865207a65726f206160448201526564647265737360d01b6064820152fd5b8480fd5b5091903461025a5761034336612164565b60115483516331a9108f60e11b815280870184905292959193926020916001600160a01b0391908216908381602481855afa9081156105025791610397848693602496958c916104e5575b50163314612449565b865193848092631dc82a7560e01b82528c898301525afa9182156104db57906103cb929188926104ac575b501630146123e5565b8585526003815260ff83862054161561045c57858552600181528285205484116104105784956002955252832090815542600182015501600160ff1982541617905580f35b608492519162461bcd60e51b83528201526024808201527f63616e6e6f742073657420707269636520686967686572207468616e206465706044820152631bdcda5d60e21b6064820152fd5b608492519162461bcd60e51b8352820152602760248201527f6e6f20726561736f6e20746f20726167655175697420616e20756e6c6f636b656044820152666420736861726560c81b6064820152fd5b6104cd919250843d86116104d4575b6104c58183612292565b8101906123c6565b90386103c2565b503d6104bb565b85513d89823e3d90fd5b6104fc9150853d87116104d4576104c58183612292565b3861038e565b86513d8a823e3d90fd5b83346105355761053261051e366121a8565b9561052d959195949294613219565b612a82565b80f35b80fd5b5034610237576020806003193601126106745781356001600160a01b038116939084900361032e57610568613219565b805163516b636d60e11b81526001848201528581602481885afa90811561066a5786916105ed575b5051156105b5575050506bffffffffffffffffffffffff60a01b601254161760125580f35b5162461bcd60e51b81529182015260146024820152731a5b9d985b1a5908185c9d0818dbdb9d1c9858dd60621b604482015260649150fd5b90503d8087833e6105fe8183612292565b81019083818303126106665780519067ffffffffffffffff8211610662570181601f8201121561066657805161063381612559565b9261064085519485612292565b8184528582840101116106625761065c9185808501910161211c565b38610590565b8780fd5b8680fd5b82513d88823e3d90fd5b8380fd5b828434610535578060031936011261053557508051600091600d5461069c81612212565b8084529060019081811690811561072857506001146106dd575b50506106c7826106d9940383612292565b5191829160208352602083019061213f565b0390f35b600d600090815294506000805160206132b28339815191525b82861061071057505050918101602001916106c7826106b6565b805460208787018101919091529095019481016106f6565b6106d9965085925060209150926106c79360ff191682840152151560051b82010194506106b6565b50503461025a578160031936011261025a5760209060ff600b541690519015158152f35b50503461025a578160031936011261025a57602090600f549051908152f35b5034610237576020366003190112610237576011548251631dc82a7560e01b81528235928101839052906001600160a01b03906020908390602490829085165afa91821561081a57916107f6916107fb94936020979261080257501630146123e5565b612f76565b9051908152f35b6104cd919250873d81116104d4576104c58183612292565b84513d87823e3d90fd5b50503461025a578160031936011261025a576020906008549051908152f35b509034610237576020366003190112610237578135808452826020526001828520015462093a8081018091116108e45742106108a15790600291845260036020528084209260ff199384815416905560205283200190815416905580f35b815162461bcd60e51b8152602081850152601c60248201527f616c6c6f77206f6e65207765656b206265666f726520756e6c6f636b000000006044820152606490fd5b634e487b7160e01b855260118452602485fd5b5061090136612164565b60115484516331a9108f60e11b8082528186018490526001600160a01b039694959360209360249390891692919085818681875afa908115610b9f57610952918b918d91610ba95750163314612449565b8651631dc82a7560e01b918282528782015285818681875afa908115610b9f5790610988918c91610b82575b508a1630146123e5565b8651908152878682015284818581865afa908115610b7857906109b6918b91610b5b575b50891630146123e5565b86895284845260ff6002878b2001541615610b2257868952848452858920543410610ae157908383928a9488518094819382528b8a8301525afa908115610ad7579088918491610aba575b501682803415610ab1575b81808092853491f115610aa757868352600384528583209760ff19988981541690556011541691823b1561067457606484928389519586948593632142170760e11b85528b85015233908401528b60448401525af18015610aa757610a8f575b509360029452600381528286206001868254161790555283200190815416905580f35b610a989061224c565b610aa3578538610a6c565b8580fd5b85513d84823e3d90fd5b506108fc610a0c565b610ad19150853d87116104d4576104c58183612292565b38610a01565b86513d85823e3d90fd5b5050601791606494519362461bcd60e51b85528401528201527f6d7573742073656e6420636f72726563742076616c75650000000000000000006044820152fd5b5050601591606494519362461bcd60e51b8552840152820152746d7573742062652072616765207175697474696e6760581b6044820152fd5b610b729150863d88116104d4576104c58183612292565b386109ac565b87513d8c823e3d90fd5b610b999150873d89116104d4576104c58183612292565b3861097e565b88513d8d823e3d90fd5b6104fc9150883d8a116104d4576104c58183612292565b5082906020806003193601126102375767ffffffffffffffff93823585811161032e573660238201121561032e5780840135868111610aa3578060051b602492368483830101116106625734156110635760ff885460a01c1687811015611051576001610c2d91146122b4565b610c4d6801bc16d674ec800000610c46600654346122f9565b111561231c565b600954341061100f57610c6460085434111561237a565b60ff600b5460181c16610e33575b5050509091928094955060018060a01b038481601154168551978880926318160ddd60e01b82525afa958615610e29578796610df5575b50858752600185523484882055610cc2346006546122f9565b600655600a5468010000000000000000811015610de3576001810180600a55811015610dcf57908688949392600a6000527fc65a7bb8d6351c1cf70c95a316cc6a92839c986682d98bc35f958f4883f9d2a801558684526002865260018585205560ff600b5460081c16600387528585209060ff80198354169115151617905560115416803b156106745783928392865194859384926335313c2160e11b845233908401525af18015610dc557610dad575b507fd91527a40417d48f76ba016aaa9157e2ddaca6cb5b660432901659cb075058fc60608486858051923484523390840152820152a180f35b610db99093929361224c565b61067457908385610d74565b83513d84823e3d90fd5b83603284634e487b7160e01b600052526000fd5b634e487b7160e01b8852604183528388fd5b9095508481813d8311610e22575b610e0d8183612292565b81010312610e1d57519487610ca9565b600080fd5b503d610e03565b84513d89823e3d90fd5b3388526005865260ff8589205416610fc25760135485516f636f6e74726163742e6164647265737360801b88820190815270233932b739a6b2b935b632a83937bb32b960791b6030830152602182526001600160a01b039283169b606083019190821183831017610fb057988188818e9f849e9f9a9b9c9d828f52875190206321f8a72160e01b835260648801525afa918215610fa6578692610f73575b5050169060105492823b1561032e57875163879c84e960e01b815260608b82015260648101879052956001600160fb1b031061032e5760848682819688948b849701858501378a83015233604483015281010301925af18015610f6957610f56575b5033855260058352818520805460ff191660011790558493929190868080610c72565b610f629095919561224c565b9385610f33565b83513d88823e3d90fd5b610f9792506060908b903d8d11610f9e575b610f8f8285612292565b0101906123c6565b8b80610ed1565b3d9150610f85565b89513d88823e3d90fd5b634e487b7160e01b8c5260418b52878cfd5b845162461bcd60e51b81528088018790526022818601527f796f75206861766520616c7265616479206d61646520796f7572206465706f736044820152611a5d60f21b6064820152608490fd5b845162461bcd60e51b8152808801879052601e818601527f62656c6f77206d696e696d756d206465706f73697420666f7220706f6f6c00006044820152606490fd5b634e487b7160e01b8952602188528489fd5b845162461bcd60e51b81528088018790526012818601527136bab9ba103232b837b9b4ba1032ba3432b960711b6044820152606490fd5b5034610237576020366003190112610237578160209360ff923581526003855220541690519015158152f35b50503461025a578160031936011261025a5780519082600c546110e881612212565b8085529160019180831690811561115f5750600114611114575b5050506106c7826106d9940383612292565b9450600c85526000805160206132728339815191525b828610611147575050506106c78260206106d99582010194611102565b8054602087870181019190915290950194810161112a565b6106d99750869350602092506106c794915060ff191682840152151560051b82010194611102565b5034610237576020806003193601126106745781359160ff855460a01c16818110156112935760016111b991146122b4565b6011548451631dc82a7560e01b81528083018590526001600160a01b039291831691908481602481865afa801561128957859261120560249289948c9161126c575b50871630146123e5565b885194859384926331a9108f60e11b84528301525afa9081156112625760019261053296949261123e92899161124b5750163314612449565b8386525283205490612492565b6104fc9150843d86116104d4576104c58183612292565b85513d88823e3d90fd5b6112839150863d88116104d4576104c58183612292565b386111fb565b87513d8a823e3d90fd5b634e487b7160e01b865260218252602486fd5b50503461025a578160031936011261025a5760209060ff600b5460101c1690519015158152f35b50503461025a578160031936011261025a57905490516001600160a01b039091168152602090f35b50503461025a578160031936011261025a5760125490516001600160a01b039091168152602090f35b50346102375760203660031901126102375735600a5481101561023757600a602093527fc65a7bb8d6351c1cf70c95a316cc6a92839c986682d98bc35f958f4883f9d2a801549051908152f35b50602090816003193601126106745780359060ff855460a01c168181101561129357600161139991146122b4565b6113b26801bc16d674ec800000610c46600654346122f9565b6011548451631dc82a7560e01b8152828101849052906001600160a01b039081168583602481845afa9283156112895760249387936113fa928b926114d257501630146123e5565b865192838092634f558e7960e01b825287878301525afa9081156112625786916114a5575b501561146e57509081600192855282825261144a61144034868820546122f9565b600854101561237a565b845252812061145a3482546122f9565b9055611468346006546122f9565b60065580f35b835162461bcd60e51b815290810183905260116024820152701a5908191bd95cc81b9bdd08195e1a5cdd607a1b6044820152606490fd5b6114c59150843d86116114cb575b6114bd8183612292565b810190612431565b3861141f565b503d6114b3565b6104cd919250853d87116104d4576104c58183612292565b50503461025a578160031936011261025a576020906006549051908152f35b503461023757602036600319011261023757356001600160a01b0381169081900361023757818360ff92602095526005855220541690519015158152f35b8334610535578060031936011261053557611560613219565b80546001600160a01b03198116825581906001600160a01b03167f8be0079c531659141344cd1fd0a4f28419497f9722a3daafe3b4186f6b6457e08280a380f35b50913461053557602036600319011261053557506107fb60209235612fe9565b50503461025a578160031936011261025a5760209060ff600b5460181c1690519015158152f35b50503461025a578160031936011261025a5760115490516001600160a01b039091168152602090f35b50503461025a578160031936011261025a5780519082600e5461163381612212565b8085529160019180831690811561115f575060011461165e575050506106c7826106d9940383612292565b9450600e85526000805160206132928339815191525b828610611691575050506106c78260206106d99582010194611102565b80546020878701810191909152909501948101611674565b5034610237576116b8366121a8565b936116c7989698939193613219565b600b5460101c60ff16156117df575050505050926116e89192933691612575565b90815160208093012081518590600c54918161170384612212565b91828252878201946001908982821691826000146117c1575050600114611779575b5061173292500382612292565b51902003611746575050505b6105326125e6565b5162461bcd60e51b815291820152600f60248201526e0e0eac496caf240dad2e6dac2e8c6d608b1b604482015260649150fd5b600c8b528891508a906000805160206132728339815191525b8583106117a9575050611732935082010138611725565b80548388018501528694508a93909201918101611792565b60ff1916885261173295151560051b85010192503891506117259050565b929550929550926117ef96612a82565b61173e565b828434610535578060031936011261053557908051918290600a549182855260208095018093600a84527fc65a7bb8d6351c1cf70c95a316cc6a92839c986682d98bc35f958f4883f9d2a890845b8181106118935750505081611858910382612292565b83519485948186019282875251809352850193925b82811061187c57505050500390f35b83518552869550938101939281019260010161186d565b825484529288019260019283019201611842565b5082903461025a576118b836612164565b9160ff845460a01c1681811015611a265760016118d591146122b4565b6011548551631dc82a7560e01b81528281018490526020916001600160a01b0391908216908381602481855afa908115611a1c579161192385926024948b916119ff575b50851630146123e5565b8951928380926331a9108f60e11b825289898301525afa9081156119f55790611956929188916119d85750163314612449565b828552600181528585205461196d856009546122f9565b1161197d57846105328585612492565b855162461bcd60e51b815291820152603060248201527f696e76616c696420616d6f756e742c207769746864726177206c657373206f7260448201526f081d5cd9481dda5d1a191c985dd05b1b60821b606482015260849150fd5b6119ef9150843d86116104d4576104c58183612292565b8961038e565b88513d89823e3d90fd5b611a169150843d86116104d4576104c58183612292565b8c611919565b89513d8a823e3d90fd5b634e487b7160e01b855260218252602485fd5b50503461025a578160031936011261025a576020906007549051908152f35b833461053557806003193601126105355761173e613219565b5091903461025a576020806003193601126102375783359360018060a01b0391808360115416855191828092631dc82a7560e01b82528a8783015260249485915afa908115611e335790611acf918891611f065750851630146123e5565b60ff865460a01c1683811015611ef45760018114611eb2576064471115611e6257600314611e5a578360135416828651818101906f636f6e74726163742e6164647265737360801b82526a4672656e734f7261636c6560a81b6030820152601b8152611b3a81612276565b519020838851809481936321f8a72160e01b8352898301525afa908115611e33578583899386938591611e3d575b50895163404df7b160e11b815230898201529485938492165af1908115611e33578791611e16575b50905b611b9c88612f76565b9188885260028452868820611bb28482546122f9565b9055611bc0836007546122f9565b600755856013541690875185810190731c1c9bdd1bd8dbdb0b9999594b9c195c98d95b9d60621b825260148152611bf681612276565b5190209088519163bd02d0f560e01b83528783015285828581865afa918215611e0c578a92611dd9575b508115159081611dd0575b50611cbd575b505086978391866011999899541695895196879384926331a9108f60e11b84528301525afa8015611cb3578594859485948593611c94575b505083918315611c8a575b1690f115611c80575080f35b51903d90823e3d90fd5b6108fc9250611c74565b611cab929350803d106104d4576104c58183612292565b903880611c69565b86513d87823e3d90fd5b8488949293945181810190751c1c9bdd1bd8dbdb0b9999594b9c9958da5c1a595b9d60521b825260168152611cf181612276565b519020858a51809681936321f8a72160e01b83528b8301525afa928315611dc6578993611d9e575b50611d2682606492612f63565b049160018311611d4f575b5097611d428492899a999899612485565b9291819950979697611c31565b6000198301999190838b11611d8c5798808080809d819c9d8c83918315611d82575b1690f1156119f55790989796611d31565b6108fc9250611d71565b634e487b7160e01b8a5260118752848afd5b606491935082611dbd611d2692883d8a116104d4576104c58183612292565b94925050611d19565b88513d8b823e3d90fd5b90501538611c2b565b9091508581813d8311611e05575b611df18183612292565b81010312611e0157519038611c20565b8980fd5b503d611de7565b89513d8c823e3d90fd5b611e2d9150833d85116114cb576114bd8183612292565b38611b90565b86513d89823e3d90fd5b611e549150843d86116104d4576104c58183612292565b38611b68565b600190611b93565b855162461bcd60e51b81528085018490526025818401527f6d7573742062652067726561746572207468616e203130302077656920746f20604482015264636c61696d60d81b6064820152608490fd5b855162461bcd60e51b8152808501849052601c818401527f757365207769746864726177207768656e206e6f74207374616b6564000000006044820152606490fd5b50634e487b7160e01b86526021835285fd5b611f1d9150843d86116104d4576104c58183612292565b38611919565b50503461025a578160031936011261025a5760135490516001600160a01b039091168152602090f35b50503461025a578160031936011261025a576020906010549051908152f35b50346102375760203660031901126102375760209282913581526001845220549051908152f35b50346102375760203660031901126102375760209282913581526002845220549051908152f35b50903461023757826003193601126102375760018060a01b03806013541660208351818101906f636f6e74726163742e6164647265737360801b82526a4672656e734f7261636c6560a81b6030820152601b815261201681612276565b51902060248551809481936321f8a72160e01b8352898301525afa9081156120bd57859161209f575b5016330361205c57825460ff60a01b1916600360a01b1783558280f35b906020606492519162461bcd60e51b8352820152601860248201527f6d7573742062652063616c6c6564206279206f7261636c6500000000000000006044820152fd5b6120b7915060203d81116104d4576104c58183612292565b3861203f565b83513d87823e3d90fd5b50503461025a578160031936011261025a576106d9906120e56130fd565b905191829160208352602083019061213f565b84903461025a578160031936011261025a5760209060ff600b5460081c1615158152f35b60005b83811061212f5750506000910152565b818101518382015260200161211f565b906020916121588151809281855285808601910161211c565b601f01601f1916010190565b6040906003190112610e1d576004359060243590565b9181601f84011215610e1d5782359167ffffffffffffffff8311610e1d5760208381860195010111610e1d57565b906080600319830112610e1d5767ffffffffffffffff600435818111610e1d57836121d59160040161217a565b93909392602435838111610e1d57826121f09160040161217a565b93909392604435918211610e1d5761220a9160040161217a565b909160643590565b90600182811c92168015612242575b602083101461222c57565b634e487b7160e01b600052602260045260246000fd5b91607f1691612221565b67ffffffffffffffff811161226057604052565b634e487b7160e01b600052604160045260246000fd5b6040810190811067ffffffffffffffff82111761226057604052565b90601f8019910116810190811067ffffffffffffffff82111761226057604052565b156122bb57565b60405162461bcd60e51b81526020600482015260166024820152756e6f7420616363657074696e67206465706f7369747360501b6044820152606490fd5b9190820180921161230657565b634e487b7160e01b600052601160045260246000fd5b1561232357565b60405162461bcd60e51b815260206004820152602960248201527f746f74616c206465706f736974732063616e6e6f74206265206d6f72652074686044820152680c2dc406664408ae8d60bb1b6064820152608490fd5b1561238157565b60405162461bcd60e51b815260206004820152601e60248201527f61626f7665206d6178696d756d206465706f73697420666f7220706f6f6c00006044820152606490fd5b90816020910312610e1d57516001600160a01b0381168103610e1d5790565b156123ec57565b60405162461bcd60e51b815260206004820152601960248201527f77726f6e67207374616b696e6720706f6f6c20666f72206964000000000000006044820152606490fd5b90816020910312610e1d57518015158103610e1d5790565b1561245057565b60405162461bcd60e51b815260206004820152600d60248201526c3737ba103a34329037bbb732b960991b6044820152606490fd5b9190820391821161230657565b906000918083526001602052604083206124ad838254612485565b90556124bb82600654612485565b6006556011546040516331a9108f60e11b815260048101929092526001600160a01b03906020908390602490829085165afa91821561254e578493849384938493849261252e575b5083918315612524575b1690f1156125185750565b604051903d90823e3d90fd5b6108fc925061250d565b61254791925060203d81116104d4576104c58183612292565b9038612503565b6040513d86823e3d90fd5b67ffffffffffffffff811161226057601f01601f191660200190565b92919261258182612559565b9161258f6040519384612292565b829481845281830111610e1d578281602093846000960137010152565b156125b357565b60405162461bcd60e51b815260206004820152600b60248201526a77726f6e6720737461746560a81b6044820152606490fd5b6801bc16d674ec80000090814710612a4c578160065403612a1157600080549260ff8460a01c1693600494858110156129fe5761262660018092146125ac565b60ff600b5460101c16156129c65760018060a01b039384601354166040958651602095868201937f65787465726e616c2e636f6e74726163742e616464726573730000000000000085526e11195c1bdcda5d10dbdb9d1c9858dd608a1b603984015260288352606083019067ffffffffffffffff95848310878411176129b257828c52845190206321f8a72160e01b835260648501528890829060249082905afa9283156129a8578693612984575b505060ff60a01b1916600160a11b178455600f54911695863b156106745790839188519586926304512a2360e31b845260808d8501528491600c5461271981612212565b908160848801528281169081600014612966575060011461291b575b5060031985840381016024870152600d54879461275182612212565b918282528d85821691826000146128fc5750506001146128b3575b50508584030160448601528592600e549161278683612212565b92838352878d838316928360001461289257505050600114612846575b5050508391829160648301520391895af1801561283c576127f3575b5050507f72b356fd889b9abd3530accd2c9f4aecbce67d70757181f9f862ac91464ce19293945082519182523390820152a1565b821161282957507f72b356fd889b9abd3530accd2c9f4aecbce67d70757181f9f862ac91464ce1929495508352849338806127bf565b634e487b7160e01b815260418752602490fd5b86513d84823e3d90fd5b918b939450600e88526000805160206132928339815191529288935b828510612877575050500101908084806127a3565b80548486018701528b99508c98508d95909401938101612862565b60ff19168582015294151560051b90930190930194508392508190506127a3565b8c929550600d89526000805160206132b28339815191529189925b8184106128e1575050010192388061276c565b80548385018601528c9a508d99508e949093019285016128ce565b60ff19168382015292151560051b90910190910194503890508061276c565b600c875290925085908a6000805160206132728339815191525b82841061294b57505050840160a4019138612735565b80548c850160a401528a98508b97509201918b908501612935565b905060a492945060ff191682870152151560051b8501019138612735565b6129a092935060609089903d8b11610f9e57610f8f8285612292565b9038806126d5565b8a513d88823e3d90fd5b50634e487b7160e01b875260418d52602487fd5b60405162461bcd60e51b815260208188015260116024820152701d985b1a59185d1bdc881b9bdd081cd95d607a1b6044820152606490fd5b634e487b7160e01b845260218652602484fd5b60405162461bcd60e51b81526020600482015260136024820152726e6f7420656e6f756768206465706f7369747360681b6044820152606490fd5b60405162461bcd60e51b815260206004820152600e60248201526d0dcdee840cadcdeeaced040cae8d60931b6044820152606490fd5b929094939194600160f81b30019081301161230657604051602092838201908152838252612aaf82612276565b612aba36868b612575565b8481519101209151902003612f1e57600b5460ff8116612eb6575b5060009260ff845460a01c16976004891015612ea257612af86001809a146125ac565b67ffffffffffffffff92838111612e8e5780612b15600c54612212565b98601f998a8111612e33575b5087908a8311600114612dbd578892612db2575b5050600019600383901b1c1916908a1b17600c555b828211612d9e578190612b5e600d54612212565b888111612d43575b508590888311600114612cd6578692612ccb575b5050600019600383901b1c191690881b17600d555b8511612cb757612ba0600e54612212565b848111612c67575b5081938511600114612bf5575091839491849394612bea575b50501b916000199060031b1c191617600e555b600f556201000062ff000019600b541617600b55565b013592503880612bc1565b600e825260008051602061329283398151915293918591601f19831691905b88838310612c4d5750505010612c33575b505050811b01600e55612bd4565b0135600019600384901b60f8161c19169055388080612c25565b868601358855909601959384019387935090810190612c14565b600e83526000805160206132928339815191528580880160051c820192848910612cae575b0160051c019087905b828110612ca3575050612ba8565b848155018790612c95565b92508192612c8c565b634e487b7160e01b82526041600452602482fd5b013590503880612b7a565b600d87528a93506000805160206132b283398151915291601f198416885b88828210612d2d5750508411612d13575b505050811b01600d55612b8f565b0135600019600384901b60f8161c19169055388080612d05565b8385013586558e97909501949283019201612cf4565b909150600d86526000805160206132b28339815191528880850160051c820192878610612d95575b918c91869594930160051c01915b828110612d87575050612b66565b8881558594508c9101612d79565b92508192612d6b565b634e487b7160e01b85526041600452602485fd5b013590503880612b35565b600c89528c935060008051602061327283398151915291601f1984168a5b8a828210612e145750508411612dfa575b505050811b01600c55612b4a565b0135600019600384901b60f8161c19169055388080612dec565b91929596849587849396013581550195019201908e9594939291612ddb565b909150600c88526000805160206132728339815191528a80850160051c820192898610612e85575b918e91869594930160051c01915b828110612e77575050612b21565b8a81558594508e9101612e69565b92508192612e5b565b634e487b7160e01b86526041600452602486fd5b634e487b7160e01b85526021600452602485fd5b60009081549060ff8260a01c166004811015612f0a5790612ed960ff92156125ac565b60101c16612ef65760ff60a01b1916600160a01b17905538612ad5565b634e487b7160e01b82526001600452602482fd5b634e487b7160e01b84526021600452602484fd5b60405162461bcd60e51b815260048101839052601e60248201527f7769746864726177616c2063726564656e7469616c206d69736d6174636800006044820152606490fd5b8181029291811591840414171561230657565b4715612fe3576000908152600160205260408120546002602052612fac604083205491612fa647600754906122f9565b90612f63565b600654908115612fcf57048015612fca57612fc79250612485565b90565b505090565b634e487b7160e01b84526012600452602484fd5b50600090565b600060ff815460a01c169160048310156130e9576001830361300b5750905090565b61301490612f76565b9160018060a01b0360135416602060405181810190731c1c9bdd1bd8dbdb0b9999594b9c195c98d95b9d60621b82526014815261305081612276565b51902060246040518094819363bd02d0f560e01b835260048301525afa9283156125185780936130b3575b505081151590816130a7575b50613090575090565b9060646130a082612fc794612f63565b0490612485565b60039150141538613087565b909192506020823d82116130e1575b816130cf60209383612292565b8101031261053557505190388061307b565b3d91506130c2565b634e487b7160e01b82526021600452602482fd5b60ff60005460a01c1660048110156132035780156131c957600281146131a65760018114613177576003146131555760405161313881612276565b600d81526c7374617465206661696c75726560981b602082015290565b60405161316181612276565b6006815265195e1a5d195960d21b602082015290565b5060405161318481612276565b6012815271616363657074696e67206465706f7369747360701b602082015290565b506040516131b381612276565b60068152651cdd185ad95960d21b602082015290565b506040516131d681612276565b601781527f6177616974696e672076616c696461746f7220696e666f000000000000000000602082015290565b634e487b7160e01b600052602160045260246000fd5b6000546001600160a01b0316330361322d57565b606460405162461bcd60e51b815260206004820152602060248201527f4f776e61626c653a2063616c6c6572206973206e6f7420746865206f776e65726044820152fdfedf6966c971051c3d54ec59162606531493a51404a002842f56009d7e5cf4a8c7bb7b4a454dc3493923482f07822329ed19e8244eff582cc204f8554c3620c3fdd7b6990105719101dabeb77144f2a3385c8033acd3af97e9423a695e81ad1eb5a264697066735822122027fbe2ba387e1f79287ed53212b421cdca1e5e916bad25ddf18ca221935455c864736f6c63430008110033",
    "linkReferences": {}
  },
  "methodIdentifiers": {
    "addToDeposit(uint256)": "8620891c",
    "artForPool()": "8ae578fd",
    "buyOut(uint256,uint256)": "be858798",
    "claim(uint256)": "379607f5",
    "depositForId(uint256)": "2daad61d",
    "depositToPool(bytes32[])": "b4bc91bc",
    "deposit_data_root()": "e2d9ae3e",
    "exitPool()": "29917954",
    "frenPastClaim(uint256)": "2cf2cd48",
    "frensPoolShare()": "591167c7",
    "frensStorage()": "30dbf887",
    "getDistributableShare(uint256)": "678e300a",
    "getIdsInThisPool()": "45b58fe4",
    "getShare(uint256)": "cfb5a5f8",
    "getState()": "1865c57d",
    "hasClaimed(address)": "73b2e80e",
    "idsInPool(uint256)": "888e9cf8",
    "locked(uint256)": "b45a3c0e",
    "merkleRoot()": "2eb4a7ab",
    "owner()": "8da5cb5b",
    "poolMax()": "cd8df8a6",
    "poolMin()": "f8f306e1",
    "privatePool()": "59b5e75e",
    "pubKey()": "ac2a5dfd",
    "rageQuit(uint256,uint256)": "f038afe3",
    "rageQuitInfo(uint256)": "fc03bad2",
    "renounceOwnership()": "715018a6",
    "setArt(address)": "e6b1a3ae",
    "setPubKey(bytes,bytes,bytes,bytes32)": "e920eec0",
    "signature()": "51ff4847",
    "stake()": "3a4b66f1",
    "stake(bytes,bytes,bytes,bytes32)": "4b2b4e36",
    "totalClaims()": "41c61383",
    "totalDeposits()": "7d882097",
    "transferLocked()": "12686aae",
    "transferOwnership(address)": "f2fde38b",
    "unlockTransfer(uint256)": "bed62f35",
    "validatorLocked()": "e3f05d83",
    "validatorSet()": "9426e226",
    "withdraw(uint256,uint256)": "441a3e70",
    "withdrawAll(uint256)": "958e2d31",
    "withdrawal_credentials()": "e4a50276"
  },
  "id": 7
}