{
  "abi": [
    {
      "inputs": [
        {
          "internalType": "contract IFrensStorage",
          "name": "frensStorage_",
          "type": "address"
        }
      ],
      "stateMutability": "nonpayable",
      "type": "constructor"
    },
    {
      "anonymous": false,
      "inputs": [
        {
          "indexed": true,
          "internalType": "address",
          "name": "owner",
          "type": "address"
        },
        {
          "indexed": true,
          "internalType": "address",
          "name": "approved",
          "type": "address"
        },
        {
          "indexed": true,
          "internalType": "uint256",
          "name": "tokenId",
          "type": "uint256"
        }
      ],
      "name": "Approval",
      "type": "event"
    },
    {
      "anonymous": false,
      "inputs": [
        {
          "indexed": true,
          "internalType": "address",
          "name": "owner",
          "type": "address"
        },
        {
          "indexed": true,
          "internalType": "address",
          "name": "operator",
          "type": "address"
        },
        {
          "indexed": false,
          "internalType": "bool",
          "name": "approved",
          "type": "bool"
        }
      ],
      "name": "ApprovalForAll",
      "type": "event"
    },
    {
      "anonymous": false,
      "inputs": [
        {
          "indexed": true,
          "internalType": "address",
          "name": "previousOwner",
          "type": "address"
        },
        {
          "indexed": true,
          "internalType": "address",
          "name": "newOwner",
          "type": "address"
        }
      ],
      "name": "OwnershipTransferred",
      "type": "event"
    },
    {
      "anonymous": false,
      "inputs": [
        {
          "indexed": true,
          "internalType": "bytes32",
          "name": "role",
          "type": "bytes32"
        },
        {
          "indexed": true,
          "internalType": "bytes32",
          "name": "previousAdminRole",
          "type": "bytes32"
        },
        {
          "indexed": true,
          "internalType": "bytes32",
          "name": "newAdminRole",
          "type": "bytes32"
        }
      ],
      "name": "RoleAdminChanged",
      "type": "event"
    },
    {
      "anonymous": false,
      "inputs": [
        {
          "indexed": true,
          "internalType": "bytes32",
          "name": "role",
          "type": "bytes32"
        },
        {
          "indexed": true,
          "internalType": "address",
          "name": "account",
          "type": "address"
        },
        {
          "indexed": true,
          "internalType": "address",
          "name": "sender",
          "type": "address"
        }
      ],
      "name": "RoleGranted",
      "type": "event"
    },
    {
      "anonymous": false,
      "inputs": [
        {
          "indexed": true,
          "internalType": "bytes32",
          "name": "role",
          "type": "bytes32"
        },
        {
          "indexed": true,
          "internalType": "address",
          "name": "account",
          "type": "address"
        },
        {
          "indexed": true,
          "internalType": "address",
          "name": "sender",
          "type": "address"
        }
      ],
      "name": "RoleRevoked",
      "type": "event"
    },
    {
      "anonymous": false,
      "inputs": [
        {
          "indexed": true,
          "internalType": "address",
          "name": "from",
          "type": "address"
        },
        {
          "indexed": true,
          "internalType": "address",
          "name": "to",
          "type": "address"
        },
        {
          "indexed": true,
          "internalType": "uint256",
          "name": "tokenId",
          "type": "uint256"
        }
      ],
      "name": "Transfer",
      "type": "event"
    },
    {
      "inputs": [],
      "name": "DEFAULT_ADMIN_ROLE",
      "outputs": [
        {
          "internalType": "bytes32",
          "name": "",
          "type": "bytes32"
        }
      ],
      "stateMutability": "view",
      "type": "function"
    },
    {
      "inputs": [],
      "name": "MINTER_ROLE",
      "outputs": [
        {
          "internalType": "bytes32",
          "name": "",
          "type": "bytes32"
        }
      ],
      "stateMutability": "view",
      "type": "function"
    },
    {
      "inputs": [
        {
          "internalType": "address",
          "name": "to",
          "type": "address"
        },
        {
          "internalType": "uint256",
          "name": "tokenId",
          "type": "uint256"
        }
      ],
      "name": "approve",
      "outputs": [],
      "stateMutability": "nonpayable",
      "type": "function"
    },
    {
      "inputs": [
        {
          "internalType": "address",
          "name": "owner",
          "type": "address"
        }
      ],
      "name": "balanceOf",
      "outputs": [
        {
          "internalType": "uint256",
          "name": "",
          "type": "uint256"
        }
      ],
      "stateMutability": "view",
      "type": "function"
    },
    {
      "inputs": [
        {
          "internalType": "uint256",
          "name": "tokenId",
          "type": "uint256"
        }
      ],
      "name": "burn",
      "outputs": [],
      "stateMutability": "nonpayable",
      "type": "function"
    },
    {
      "inputs": [
        {
          "internalType": "uint256",
          "name": "_id",
          "type": "uint256"
        }
      ],
      "name": "exists",
      "outputs": [
        {
          "internalType": "bool",
          "name": "",
          "type": "bool"
        }
      ],
      "stateMutability": "view",
      "type": "function"
    },
    {
      "inputs": [
        {
          "internalType": "uint256",
          "name": "tokenId",
          "type": "uint256"
        }
      ],
      "name": "getApproved",
      "outputs": [
        {
          "internalType": "address",
          "name": "",
          "type": "address"
        }
      ],
      "stateMutability": "view",
      "type": "function"
    },
    {
      "inputs": [
        {
          "internalType": "uint256",
          "name": "_id",
          "type": "uint256"
        }
      ],
      "name": "getPoolById",
      "outputs": [
        {
          "internalType": "address",
          "name": "",
          "type": "address"
        }
      ],
      "stateMutability": "view",
      "type": "function"
    },
    {
      "inputs": [
        {
          "internalType": "bytes32",
          "name": "role",
          "type": "bytes32"
        }
      ],
      "name": "getRoleAdmin",
      "outputs": [
        {
          "internalType": "bytes32",
          "name": "",
          "type": "bytes32"
        }
      ],
      "stateMutability": "view",
      "type": "function"
    },
    {
      "inputs": [
        {
          "internalType": "bytes32",
          "name": "role",
          "type": "bytes32"
        },
        {
          "internalType": "address",
          "name": "account",
          "type": "address"
        }
      ],
      "name": "grantRole",
      "outputs": [],
      "stateMutability": "nonpayable",
      "type": "function"
    },
    {
      "inputs": [
        {
          "internalType": "bytes32",
          "name": "role",
          "type": "bytes32"
        },
        {
          "internalType": "address",
          "name": "account",
          "type": "address"
        }
      ],
      "name": "hasRole",
      "outputs": [
        {
          "internalType": "bool",
          "name": "",
          "type": "bool"
        }
      ],
      "stateMutability": "view",
      "type": "function"
    },
    {
      "inputs": [
        {
          "internalType": "address",
          "name": "owner",
          "type": "address"
        },
        {
          "internalType": "address",
          "name": "operator",
          "type": "address"
        }
      ],
      "name": "isApprovedForAll",
      "outputs": [
        {
          "internalType": "bool",
          "name": "",
          "type": "bool"
        }
      ],
      "stateMutability": "view",
      "type": "function"
    },
    {
      "inputs": [
        {
          "internalType": "address",
          "name": "userAddress",
          "type": "address"
        }
      ],
      "name": "mint",
      "outputs": [],
      "stateMutability": "nonpayable",
      "type": "function"
    },
    {
      "inputs": [],
      "name": "name",
      "outputs": [
        {
          "internalType": "string",
          "name": "",
          "type": "string"
        }
      ],
      "stateMutability": "view",
      "type": "function"
    },
    {
      "inputs": [],
      "name": "owner",
      "outputs": [
        {
          "internalType": "address",
          "name": "",
          "type": "address"
        }
      ],
      "stateMutability": "view",
      "type": "function"
    },
    {
      "inputs": [
        {
          "internalType": "uint256",
          "name": "tokenId",
          "type": "uint256"
        }
      ],
      "name": "ownerOf",
      "outputs": [
        {
          "internalType": "address",
          "name": "",
          "type": "address"
        }
      ],
      "stateMutability": "view",
      "type": "function"
    },
    {
      "inputs": [
        {
          "internalType": "uint256",
          "name": "",
          "type": "uint256"
        }
      ],
      "name": "poolByIds",
      "outputs": [
        {
          "internalType": "address",
          "name": "",
          "type": "address"
        }
      ],
      "stateMutability": "view",
      "type": "function"
    },
    {
      "inputs": [
        {
          "internalType": "uint256",
          "name": "id",
          "type": "uint256"
        }
      ],
      "name": "renderTokenById",
      "outputs": [
        {
          "internalType": "string",
          "name": "",
          "type": "string"
        }
      ],
      "stateMutability": "view",
      "type": "function"
    },
    {
      "inputs": [],
      "name": "renounceOwnership",
      "outputs": [],
      "stateMutability": "nonpayable",
      "type": "function"
    },
    {
      "inputs": [
        {
          "internalType": "bytes32",
          "name": "role",
          "type": "bytes32"
        },
        {
          "internalType": "address",
          "name": "account",
          "type": "address"
        }
      ],
      "name": "renounceRole",
      "outputs": [],
      "stateMutability": "nonpayable",
      "type": "function"
    },
    {
      "inputs": [
        {
          "internalType": "bytes32",
          "name": "role",
          "type": "bytes32"
        },
        {
          "internalType": "address",
          "name": "account",
          "type": "address"
        }
      ],
      "name": "revokeRole",
      "outputs": [],
      "stateMutability": "nonpayable",
      "type": "function"
    },
    {
      "inputs": [
        {
          "internalType": "address",
          "name": "from",
          "type": "address"
        },
        {
          "internalType": "address",
          "name": "to",
          "type": "address"
        },
        {
          "internalType": "uint256",
          "name": "tokenId",
          "type": "uint256"
        }
      ],
      "name": "safeTransferFrom",
      "outputs": [],
      "stateMutability": "nonpayable",
      "type": "function"
    },
    {
      "inputs": [
        {
          "internalType": "address",
          "name": "from",
          "type": "address"
        },
        {
          "internalType": "address",
          "name": "to",
          "type": "address"
        },
        {
          "internalType": "uint256",
          "name": "tokenId",
          "type": "uint256"
        },
        {
          "internalType": "bytes",
          "name": "_data",
          "type": "bytes"
        }
      ],
      "name": "safeTransferFrom",
      "outputs": [],
      "stateMutability": "nonpayable",
      "type": "function"
    },
    {
      "inputs": [
        {
          "internalType": "address",
          "name": "operator",
          "type": "address"
        },
        {
          "internalType": "bool",
          "name": "approved",
          "type": "bool"
        }
      ],
      "name": "setApprovalForAll",
      "outputs": [],
      "stateMutability": "nonpayable",
      "type": "function"
    },
    {
      "inputs": [
        {
          "internalType": "bytes4",
          "name": "interfaceId",
          "type": "bytes4"
        }
      ],
      "name": "supportsInterface",
      "outputs": [
        {
          "internalType": "bool",
          "name": "",
          "type": "bool"
        }
      ],
      "stateMutability": "view",
      "type": "function"
    },
    {
      "inputs": [],
      "name": "symbol",
      "outputs": [
        {
          "internalType": "string",
          "name": "",
          "type": "string"
        }
      ],
      "stateMutability": "view",
      "type": "function"
    },
    {
      "inputs": [
        {
          "internalType": "uint256",
          "name": "index",
          "type": "uint256"
        }
      ],
      "name": "tokenByIndex",
      "outputs": [
        {
          "internalType": "uint256",
          "name": "",
          "type": "uint256"
        }
      ],
      "stateMutability": "view",
      "type": "function"
    },
    {
      "inputs": [
        {
          "internalType": "address",
          "name": "owner",
          "type": "address"
        },
        {
          "internalType": "uint256",
          "name": "index",
          "type": "uint256"
        }
      ],
      "name": "tokenOfOwnerByIndex",
      "outputs": [
        {
          "internalType": "uint256",
          "name": "",
          "type": "uint256"
        }
      ],
      "stateMutability": "view",
      "type": "function"
    },
    {
      "inputs": [
        {
          "internalType": "uint256",
          "name": "id",
          "type": "uint256"
        }
      ],
      "name": "tokenURI",
      "outputs": [
        {
          "internalType": "string",
          "name": "",
          "type": "string"
        }
      ],
      "stateMutability": "view",
      "type": "function"
    },
    {
      "inputs": [],
      "name": "totalSupply",
      "outputs": [
        {
          "internalType": "uint256",
          "name": "",
          "type": "uint256"
        }
      ],
      "stateMutability": "view",
      "type": "function"
    },
    {
      "inputs": [
        {
          "internalType": "address",
          "name": "from",
          "type": "address"
        },
        {
          "internalType": "address",
          "name": "to",
          "type": "address"
        },
        {
          "internalType": "uint256",
          "name": "tokenId",
          "type": "uint256"
        }
      ],
      "name": "transferFrom",
      "outputs": [],
      "stateMutability": "nonpayable",
      "type": "function"
    },
    {
      "inputs": [
        {
          "internalType": "address",
          "name": "newOwner",
          "type": "address"
        }
      ],
      "name": "transferOwnership",
      "outputs": [],
      "stateMutability": "nonpayable",
      "type": "function"
    }
  ],
  "bytecode": {
    "object": "0x608034620004045762002b8f90813803601f1991601f91838382011682019460018060401b039183871083881117620003ee57808492604098895283396020938491810103126200040457516001600160a01b0380821692909183900362000404576200006b62000409565b94600b86526a4652454e5320536861726560a81b858701526200008d62000409565b60058152644652454e5360d81b86820152865197838911620003ee576000988954986001998a81811c91168015620003e3575b8a821014620003cf579081868493116200037c575b5089908683116001146200031b578c926200030f575b5050600019600383901b1c191690891b1789555b8151938411620002fb5787548881811c91168015620002f0575b88821014620002dc57908184869594931162000285575b5087928411600114620002245750889262000218575b5050600019600383901b1c191690851b1784555b600b80546001600160a01b03198082163390811790935592167f8be0079c531659141344cd1fd0a4f28419497f9722a3daafe3b4186f6b6457e08780a3600c541617600c55828052600a8152838320338452815260ff848420541615620001cb575b835161276590816200042a8239f35b828052600a815283832090338452528282209060ff19825416179055339033907f2f8788117e7eff1d82e926ec794901d17c78024a50270940304540a733656f0d8180a4388080620001bc565b01519050388062000146565b888a52878a20899590939291168a5b898282106200026e575050841162000254575b505050811b0184556200015a565b015160001960f88460031b161c1916905538808062000246565b8385015186558b9790950194938401930162000233565b9091929350888a52878a208480870160051c8201928a8810620002d2575b9187968c92969594930160051c01915b828110620002c357505062000130565b8c81558796508b9101620002b3565b92508192620002a3565b634e487b7160e01b8a52602260045260248afd5b90607f169062000119565b634e487b7160e01b89526041600452602489fd5b015190503880620000eb565b908c91858d95168380528c8420935b8d8282106200036557505084116200034b575b505050811b018955620000ff565b015160001960f88460031b161c191690553880806200033d565b8385015186558f979095019493840193016200032a565b9091508b8052898c208680850160051c8201928c8610620003c5575b918d91869594930160051c01915b828110620003b6575050620000d5565b8e81558594508d9101620003a6565b9250819262000398565b634e487b7160e01b8c52602260045260248cfd5b90607f1690620000c0565b634e487b7160e01b600052604160045260246000fd5b600080fd5b60408051919082016001600160401b03811183821017620003ee5760405256fe60806040526004361015610013575b600080fd5b60003560e01c806301ffc9a71461028a57806306fdde0314610281578063081812fc14610278578063095ea7b31461026f5780630bc59b381461025d57806318160ddd146102665780631dc82a751461025d57806323b872dd14610254578063248a9ca31461024b5780632f2ff15d146102425780632f745c591461023957806336568abe1461023057806342842e0e1461022757806342966c681461021e5780634f558e79146102155780634f6ccce71461020c5780636352211e146102035780636a627842146101fa57806370a08231146101f1578063715018a6146101e85780638da5cb5b146101df57806391d14854146101d657806395d89b41146101cd578063a217fddf146101c4578063a22cb465146101bb578063a2d6c6da146101b2578063b88d4fde146101a9578063c87b56dd146101a0578063d539139314610197578063d547741f1461018e578063e985e9c5146101855763f2fde38b1461017d57600080fd5b61000e61129b565b5061000e61123e565b5061000e6111f9565b5061000e6111bd565b5061000e6110ad565b5061000e61101b565b5061000e610e60565b5061000e610d6f565b5061000e610d48565b5061000e610c86565b5061000e610c2f565b5061000e610c05565b5061000e610ba3565b5061000e610b73565b5061000e610aab565b5061000e610a8c565b5061000e6109e0565b5061000e6109a4565b5061000e610917565b5061000e6108ee565b5061000e610857565b5061000e61079f565b5061000e6106cf565b5061000e61069f565b5061000e610675565b5061000e6105e5565b5061000e61061a565b5061000e6104f1565b5061000e6104af565b5061000e6103a4565b5061000e6102a5565b6001600160e01b031981160361000e57565b503461000e57602036600319011261000e5760206004356102c581610293565b63ffffffff60e01b16637965db0b60e01b81149081156102eb575b506040519015158152f35b63780e9d6360e01b811491508115610305575b50386102e0565b6380ac58cd60e01b811491508115610337575b8115610326575b50386102fe565b6301ffc9a760e01b1490503861031f565b635b5e139f60e01b81149150610318565b60005b83811061035b5750506000910152565b818101518382015260200161034b565b9060209161038481518092818552858086019101610348565b601f01601f1916010190565b9060206103a192818152019061036b565b90565b503461000e576000806003193601126104ac57604051908080549060019180831c928082169283156104a2575b602092838610851461048e57858852602088019490811561046d5750600114610415575b6104118761040581890382610fce565b60405191829182610390565b0390f35b6000805294509192917f290decd9548b62a8d60345a988386fc84ba6bc95484008f6362f93160ef3e5635b83861061045c57505050910190506104058261041138806103f5565b805485870152948201948101610440565b60ff191685525050505090151560051b0190506104058261041138806103f5565b634e487b7160e01b82526022600452602482fd5b93607f16936103d1565b80fd5b503461000e57602036600319011261000e5760206104ce6004356117ac565b6040516001600160a01b039091168152f35b6001600160a01b0381160361000e57565b503461000e57604036600319011261000e5760043561050f816104e0565b60243561051b816116c2565b916001600160a01b0380841690821681146105965761054d9361054891331490811561054f575b5061173a565b6120f4565b005b6001600160a01b0316600090815260056020526040902061059091506105899033905b9060018060a01b0316600052602052604060002090565b5460ff1690565b38610542565b60405162461bcd60e51b815260206004820152602160248201527f4552433732313a20617070726f76616c20746f2063757272656e74206f776e656044820152603960f91b6064820152608490fd5b503461000e57602036600319011261000e57600435600052600d602052602060018060a01b0360406000205416604051908152f35b503461000e57600036600319011261000e576020600854604051908152f35b600052600d602052604060002090565b606090600319011261000e57600435610661816104e0565b9060243561066e816104e0565b9060443590565b503461000e5761054d61068736610649565b9161069a6106958433611945565b61183e565b611f7a565b503461000e57602036600319011261000e57600435600052600a6020526020600160406000200154604051908152f35b503461000e57604036600319011261000e576004356024356106f0816104e0565b600091808352600a60205261070d600160408520015433906113ce565b808352600a602090815260408085206001600160a01b0385166000908152925290205460ff161561073c578280f35b808352600a602090815260408085206001600160a01b038516600090815292529020805460ff1916600117905533916001600160a01b0316907f2f8788117e7eff1d82e926ec794901d17c78024a50270940304540a733656f0d8480a438808280f35b503461000e57604036600319011261000e576004356107bd816104e0565b602435906107ca8161164a565b8210156107fe576001600160a01b031660009081526006602090815260408083209383529281529082902054915191825290f35b60405162461bcd60e51b815260206004820152602b60248201527f455243373231456e756d657261626c653a206f776e657220696e646578206f7560448201526a74206f6620626f756e647360a81b6064820152608490fd5b503461000e57604036600319011261000e57602435610875816104e0565b336001600160a01b038216036108915761054d90600435611523565b60405162461bcd60e51b815260206004820152602f60248201527f416363657373436f6e74726f6c3a2063616e206f6e6c792072656e6f756e636560448201526e103937b632b9903337b91039b2b63360891b6064820152608490fd5b503461000e5761054d61090036610649565b906040519261090e84610fa5565b600084526118a4565b503461000e57602036600319011261000e576004356000818152600d60205260409020546001600160a01b031633036109535761054d90611e30565b60405162461bcd60e51b815260206004820152602360248201527f63616e6e6f74206275726e207368617265732066726f6d206f7468657220706f6044820152626f6c7360e81b6064820152608490fd5b503461000e57602036600319011261000e576004356000908152600260209081526040909120546001600160a01b031615156040519015158152f35b503461000e57602036600319011261000e57600435600854811015610a325760086000527ff3f7a9fe364faab93b216da50a3214154f22a0a2b415b23a84c8169e8b636ee30154604051908152602090f35b60405162461bcd60e51b815260206004820152602c60248201527f455243373231456e756d657261626c653a20676c6f62616c20696e646578206f60448201526b7574206f6620626f756e647360a01b6064820152608490fd5b503461000e57602036600319011261000e5760206104ce6004356116c2565b503461000e57602036600319011261000e57600435610ac9816104e0565b3360009081527faa1d7351356c4ddc11907b1ee0660f579cfdf507235af2ae01ecd22a4b7ceaae602052604081205490919060ff1615610b2e57600854808352600d6020526040832080546001600160a01b03191633179055610b2b91611a30565b80f35b60405162461bcd60e51b815260206004820152601b60248201527f796f7520617265206e6f7420616c6c6f77656420746f206d696e7400000000006044820152606490fd5b503461000e57602036600319011261000e576020610b9b600435610b96816104e0565b61164a565b604051908152f35b503461000e576000806003193601126104ac57600b5481906001600160a01b03811690610bd13383146115b6565b6001600160a01b031916600b557f8be0079c531659141344cd1fd0a4f28419497f9722a3daafe3b4186f6b6457e08280a380f35b503461000e57600036600319011261000e57600b546040516001600160a01b039091168152602090f35b503461000e57604036600319011261000e57602060ff610c7a602435610c54816104e0565b600435600052600a845260406000209060018060a01b0316600052602052604060002090565b54166040519015158152f35b503461000e576000806003193601126104ac576040519080600190815480831c92808216928315610d3e575b602092838610851461048e57858852602088019490811561046d5750600114610ce5576104118761040581890382610fce565b600160005294509192917fb10e2d527612073b26eecdfd717e6a320cf44b4afac2b0732d9fcbe2b7fa0cf65b838610610d2d57505050910190506104058261041138806103f5565b805485870152948201948101610d11565b93607f1693610cb2565b503461000e57600036600319011261000e57602060405160008152f35b8015150361000e57565b503461000e57604036600319011261000e57600435610d8d816104e0565b602435610d9981610d65565b6001600160a01b03821691338314610e1b5781610dd8610de99233600052600560205260406000209060018060a01b0316600052602052604060002090565b9060ff801983541691151516179055565b604051901515815233907f17307eab39ab6107e8899845ad3d59bd9653f200f220920489ca2b5937696c3190602090a3005b60405162461bcd60e51b815260206004820152601960248201527f4552433732313a20617070726f766520746f2063616c6c6572000000000000006044820152606490fd5b503461000e57602036600319011261000e57610411610efb600060043560046020610eb7610eab610eab610e9e86600052600d602052604060002090565b546001600160a01b031690565b6001600160a01b031690565b604051638ae578fd60e01b815292839182905afa908115610f81575b8391610f53575b50604051808095819463516b636d60e11b8352600483019190602083019252565b03916001600160a01b03165afa908115610f46575b600091610f25575b5060405191829182610390565b610f40913d8091833e610f388183610fce565b810190611358565b38610f18565b610f4e61134b565b610f10565b610f74915060203d8111610f7a575b610f6c8183610fce565b810190611336565b38610eda565b503d610f62565b610f8961134b565b610ed3565b50634e487b7160e01b600052604160045260246000fd5b6020810190811067ffffffffffffffff821117610fc157604052565b610fc9610f8e565b604052565b90601f8019910116810190811067ffffffffffffffff821117610fc157604052565b60209067ffffffffffffffff811161100e575b601f01601f19160190565b611016610f8e565b611003565b503461000e57608036600319011261000e57600435611039816104e0565b602435611045816104e0565b6064359167ffffffffffffffff831161000e573660238401121561000e5782600401359161107283610ff0565b926110806040519485610fce565b808452366024828701011161000e57602081600092602461054d98018388013785010152604435916118a4565b503461000e57602036600319011261000e57600c5461041190611157906020906110df906001600160a01b0316610eab565b6040516f636f6e74726163742e6164647265737360801b838201908152754672656e73506f6f6c5368617265546f6b656e55524960501b60108201529061113381602684015b03601f198101835282610fce565b5190209060405180809581946321f8a72160e01b8352600483019190602083019252565b03915afa9081156111b0575b600091611192575b5060405163c87b56dd60e01b81526004803590820152906000908290818060248101610efb565b6111aa915060203d8111610f7a57610f6c8183610fce565b3861116b565b6111b861134b565b611163565b503461000e57600036600319011261000e5760206040517f9f2df0fed2c77648de5860a4cc508cd0818c85b8b8a1ab4ceeef8d981c8956a68152f35b503461000e57604036600319011261000e5761054d60243560043561121d826104e0565b80600052600a60205261123960016040600020015433906113ce565b611523565b503461000e57604036600319011261000e57602060ff610c7a600435611263816104e0565b60243590611270826104e0565b60018060a01b03166000526005845260406000209060018060a01b0316600052602052604060002090565b503461000e57602036600319011261000e576004356112b9816104e0565b600b546001600160a01b03906112d290821633146115b6565b8116156112e25761054d90611601565b60405162461bcd60e51b815260206004820152602660248201527f4f776e61626c653a206e6577206f776e657220697320746865207a65726f206160448201526564647265737360d01b6064820152608490fd5b9081602091031261000e57516103a1816104e0565b506040513d6000823e3d90fd5b60208183031261000e5780519067ffffffffffffffff821161000e570181601f8201121561000e57805161138b81610ff0565b926113996040519485610fce565b8184526020828401011161000e576103a19160208085019101610348565b906113ca60209282815194859201610348565b0190565b9081600052600a60205260ff6113fa8260406000209060018060a01b0316600052602052604060002090565b541615611405575050565b6001600160a01b03169061141761259c565b916030611423846125d7565b53607861142f846125ed565b5360295b600181116114d4576114d061149b6114b88661112561145b886114568915612638565b612683565b611495604051958694611495602087016017907f416363657373436f6e74726f6c3a206163636f756e742000000000000000000081520190565b906113b7565b7001034b99036b4b9b9b4b733903937b6329607d1b815260110190565b60405162461bcd60e51b815291829160048301610390565b0390fd5b9080600f61151192166010811015611516575b6f181899199a1a9b1b9c1cb0b131b232b360811b901a61150784876125fe565b5360041c9161261d565b611433565b61151e6122f6565b6114e7565b600090808252600a60205260ff61154f84604085209060018060a01b0316600052602052604060002090565b541661155a57505050565b808252600a602090815260408084206001600160a01b038616600090815292529020805460ff1916905533926001600160a01b0316917ff6391f5c32d9c69d2a47ea670b442974b53935d1edc7fd64eb21e047a839171b9080a4565b156115bd57565b606460405162461bcd60e51b815260206004820152602060248201527f4f776e61626c653a2063616c6c6572206973206e6f7420746865206f776e65726044820152fd5b600b80546001600160a01b039283166001600160a01b0319821681179092559091167f8be0079c531659141344cd1fd0a4f28419497f9722a3daafe3b4186f6b6457e0600080a3565b6001600160a01b0316801561166a57600052600360205260406000205490565b60405162461bcd60e51b815260206004820152602a60248201527f4552433732313a2062616c616e636520717565727920666f7220746865207a65604482015269726f206164647265737360b01b6064820152608490fd5b6000908152600260205260409020546001600160a01b031680156116e35790565b60405162461bcd60e51b815260206004820152602960248201527f4552433732313a206f776e657220717565727920666f72206e6f6e657869737460448201526832b73a103a37b5b2b760b91b6064820152608490fd5b1561174157565b60405162461bcd60e51b815260206004820152603860248201527f4552433732313a20617070726f76652063616c6c6572206973206e6f74206f7760448201527f6e6572206e6f7220617070726f76656420666f7220616c6c00000000000000006064820152608490fd5b6000818152600260205260409020546001600160a01b0316156117e4576000908152600460205260409020546001600160a01b031690565b60405162461bcd60e51b815260206004820152602c60248201527f4552433732313a20617070726f76656420717565727920666f72206e6f6e657860448201526b34b9ba32b73a103a37b5b2b760a11b6064820152608490fd5b1561184557565b60405162461bcd60e51b815260206004820152603160248201527f4552433732313a207472616e736665722063616c6c6572206973206e6f74206f6044820152701ddb995c881b9bdc88185c1c1c9bdd9959607a1b6064820152608490fd5b916118d093916118cb936118bb6106958433611945565b6118c6838383611f7a565b6122ba565b611925565b565b60809060208152603260208201527f4552433732313a207472616e7366657220746f206e6f6e20455243373231526560408201527131b2b4bb32b91034b6b83632b6b2b73a32b960711b60608201520190565b1561192c57565b60405162461bcd60e51b8152806114d0600482016118d2565b6000828152600260205260409020546001600160a01b0316156119d65761196b826116c2565b6001600160a01b0382811682821681149490919085156119be575b505050821561199457505090565b6001600160a01b0316600090815260056020526040902060ff92506119b99190610572565b541690565b6119cb91929395506117ac565b161491388080611986565b60405162461bcd60e51b815260206004820152602c60248201527f4552433732313a206f70657261746f7220717565727920666f72206e6f6e657860448201526b34b9ba32b73a103a37b5b2b760a11b6064820152608490fd5b90604051611a3d81610fa5565b600081526001600160a01b038316918215611b4c576000818152600260205260409020546001600160a01b0316611b075783816118cb94611a81826118d098611c11565b6001600160a01b0383166000908152600360205260409020611aa38154611ba7565b9055611adc83611abd846000526002602052604060002090565b80546001600160a01b0319166001600160a01b03909216919091179055565b60007fddf252ad1be2c89b69c2b068fc378daa952ba7f163c4a11628f55a4df523b3ef8180a46121f9565b60405162461bcd60e51b815260206004820152601c60248201527f4552433732313a20746f6b656e20616c7265616479206d696e746564000000006044820152606490fd5b606460405162461bcd60e51b815260206004820152602060248201527f4552433732313a206d696e7420746f20746865207a65726f20616464726573736044820152fd5b50634e487b7160e01b600052601160045260246000fd5b9060018201809211611bb557565b6118d0611b90565b9081602091031261000e57516103a181610d65565b15611bd957565b60405162461bcd60e51b815260206004820152601060248201526f6e6f74207472616e7366657261626c6560801b6044820152606490fd5b90611c3891611c1f8261240d565b816001600160a01b038216611c3b576106399150612486565b50565b610639916123d5565b6001600160a01b0380821680159490939192611c8592908615611d365750611c6b8261240d565b80841680159583918715611d0e5750506106399150612486565b541691159081611d05575b50611c985750565b600460206118d09260405192838092630934355760e11b82525afa908115611cf8575b600091611cca575b5015611bd2565b611ceb915060203d8111611cf1575b611ce38183610fce565b810190611bbd565b38611cc3565b503d611cd9565b611d0061134b565b611cbb565b90501538611c90565b03611d26575b5050600052600d602052604060002090565b611d2f916123d5565b3881611d14565b8482168603611d46575b50611c6b565b611dba611d528261164a565b6000198101908111611e14575b611dab60009386855260076020526040852054838103611dc1575b5084611d90886000526007602052604060002090565b556001600160a01b0316600090815260066020526040902090565b90600052602052604060002090565b5538611d40565b8a8652600660205260408620848752602052611e0d604087205480611dfc84611dab8760018060a01b03166000526006602052604060002090565b556000526007602052604060002090565b5538611d7a565b611e1c611b90565b611d5f565b600019810191908211611bb557565b611e39816116c2565b611e43828261230d565b6000828152600d60205260409020546001600160a01b03918216911681151580611f1a575b611ee4575b50611e77826120a0565b6000908082526003602052604082208054906000198201918211611ed7575b5582825260026020526040822080546001600160a01b03191690557fddf252ad1be2c89b69c2b068fc378daa952ba7f163c4a11628f55a4df523b3ef8280a4565b611edf611b90565b611e96565b60046020611f149260405192838092630934355760e11b82525afa908115611cf857600091611cca575015611bd2565b38611e6d565b506000611e68565b15611f2957565b60405162461bcd60e51b8152602060048201526024808201527f4552433732313a207472616e7366657220746f20746865207a65726f206164646044820152637265737360e01b6064820152608490fd5b90611f84836116c2565b6001600160a01b03838116929091821683900361204957611fde61202292821694611fb0861515611f22565b611fbb878483611c44565b611fc4876120a0565b6001600160a01b0316600090815260036020526040902090565b611fe88154611e21565b90556001600160a01b038116600090815260036020526040902061200c8154611ba7565b9055611abd856000526002602052604060002090565b7fddf252ad1be2c89b69c2b068fc378daa952ba7f163c4a11628f55a4df523b3ef600080a4565b60405162461bcd60e51b815260206004820152602960248201527f4552433732313a207472616e73666572206f6620746f6b656e2074686174206960448201526839903737ba1037bbb760b91b6064820152608490fd5b600081815260046020526040812080546001600160a01b03191690556001600160a01b036120cd836116c2565b167f8c5be1e5ebec7d5bd14f71427d1e84f3dd0314c0f7b2291e5b200ac8c7c3b9258280a4565b600082815260046020526040902080546001600160a01b0319166001600160a01b0383161790556001600160a01b038061212d846116c2565b169116907f8c5be1e5ebec7d5bd14f71427d1e84f3dd0314c0f7b2291e5b200ac8c7c3b925600080a4565b9081602091031261000e57516103a181610293565b6103a1939260809260018060a01b03168252600060208301526040820152816060820152019061036b565b6001600160a01b0391821681529116602082015260408101919091526080606082018190526103a19291019061036b565b3d156121f4573d906121da82610ff0565b916121e86040519384610fce565b82523d6000602084013e565b606090565b909190803b156122b25761222b602091600093604051948580948193630a85bd0160e11b998a8452336004850161216d565b03926001600160a01b03165af160009181612282575b506122745761224e6121c9565b8051908161226f5760405162461bcd60e51b8152806114d0600482016118d2565b602001fd5b6001600160e01b0319161490565b6122a491925060203d81116122ab575b61229c8183610fce565b810190612158565b9038612241565b503d612292565b505050600190565b92909190823b156122ed5761222b926020926000604051809681958294630a85bd0160e11b9a8b85523360048601612198565b50505050600190565b50634e487b7160e01b600052603260045260246000fd5b6118d091906001600160a01b038116908161233257505061232d8161240d565b612486565b80611dab6123426123809361164a565b6000198101929083116123c8575b6000948686526007602052604086205490848203612386575b505084611d90876000526007602052604060002090565b55612486565b86526006602052604086208487526020526123c0604087205480611dfc84611dab8760018060a01b03166000526006602052604060002090565b553880612369565b6123d0611b90565b612350565b6040906123e18161164a565b9260009160018060a01b0316825260066020528282208483526020528083832055815260076020522055565b6008548160005260096020528060406000205568010000000000000000811015612479575b600181018060085581101561246c575b60086000527ff3f7a9fe364faab93b216da50a3214154f22a0a2b415b23a84c8169e8b636ee30155565b6124746122f6565b612442565b612481610f8e565b612432565b60088054600019929083810181811161258f575b61253660009384928184526009602052846040852054911015612582575b8684526125257ff3f7a9fe364faab93b216da50a3214154f22a0a2b415b23a84c8169e8b636ee2958681015490831015612575575b88865280837ff3f7a9fe364faab93b216da50a3214154f22a0a2b415b23a84c8169e8b636ee301556000526009602052604060002090565b556000526009602052604060002090565b5582549384156125615784019380851015612554575b838352015555565b61255c6122f6565b61254c565b634e487b7160e01b83526031600452602483fd5b61257d6122f6565b6124ed565b61258a6122f6565b6124b8565b612597611b90565b61249a565b604051906060820182811067ffffffffffffffff8211176125ca575b604052602a8252604082602036910137565b6125d2610f8e565b6125b8565b6020908051156125e5570190565b6113ca6122f6565b6021908051600110156125e5570190565b90602091805182101561261057010190565b6126186122f6565b010190565b801561262b575b6000190190565b612633611b90565b612624565b1561263f57565b606460405162461bcd60e51b815260206004820152602060248201527f537472696e67733a20686578206c656e67746820696e73756666696369656e746044820152fd5b604051906080820182811067ffffffffffffffff821117612722575b60405260428252606036602084013760306126b9836125d7565b5360786126c5836125ed565b536041905b600182116126dd576103a1915015612638565b80600f61270f92166010811015612715575b6f181899199a1a9b1b9c1cb0b131b232b360811b901a61150784866125fe565b906126ca565b61271d6122f6565b6126ef565b61272a610f8e565b61269f56fea26469706673582212209f211b564111164b7b042da118936c9b0ff0047813d4d35ca240cac593956dd464736f6c63430008110033",
    "linkReferences": {}
  },
  "methodIdentifiers": {
    "DEFAULT_ADMIN_ROLE()": "a217fddf",
    "MINTER_ROLE()": "d5391393",
    "approve(address,uint256)": "095ea7b3",
    "balanceOf(address)": "70a08231",
    "burn(uint256)": "42966c68",
    "exists(uint256)": "4f558e79",
    "getApproved(uint256)": "081812fc",
    "getPoolById(uint256)": "0bc59b38",
    "getRoleAdmin(bytes32)": "248a9ca3",
    "grantRole(bytes32,address)": "2f2ff15d",
    "hasRole(bytes32,address)": "91d14854",
    "isApprovedForAll(address,address)": "e985e9c5",
    "mint(address)": "6a627842",
    "name()": "06fdde03",
    "owner()": "8da5cb5b",
    "ownerOf(uint256)": "6352211e",
    "poolByIds(uint256)": "1dc82a75",
    "renderTokenById(uint256)": "a2d6c6da",
    "renounceOwnership()": "715018a6",
    "renounceRole(bytes32,address)": "36568abe",
    "revokeRole(bytes32,address)": "d547741f",
    "safeTransferFrom(address,address,uint256)": "42842e0e",
    "safeTransferFrom(address,address,uint256,bytes)": "b88d4fde",
    "setApprovalForAll(address,bool)": "a22cb465",
    "supportsInterface(bytes4)": "01ffc9a7",
    "symbol()": "95d89b41",
    "tokenByIndex(uint256)": "4f6ccce7",
    "tokenOfOwnerByIndex(address,uint256)": "2f745c59",
    "tokenURI(uint256)": "c87b56dd",
    "totalSupply()": "18160ddd",
    "transferFrom(address,address,uint256)": "23b872dd",
    "transferOwnership(address)": "f2fde38b"
  },
  "id": 3
}