{
  "abi": [
    {
      "inputs": [
        {
          "internalType": "contract IFrensStorage",
          "name": "_frensStorage",
          "type": "address"
        }
      ],
      "stateMutability": "nonpayable",
      "type": "constructor"
    },
    {
      "anonymous": false,
      "inputs": [
        {
          "indexed": true,
          "internalType": "address",
          "name": "contractAddress",
          "type": "address"
        },
        {
          "indexed": false,
          "internalType": "address",
          "name": "creator",
          "type": "address"
        },
        {
          "indexed": false,
          "internalType": "address",
          "name": "owner",
          "type": "address"
        }
      ],
      "name": "Create",
      "type": "event"
    },
    {
      "inputs": [
        {
          "internalType": "address",
          "name": "owner_",
          "type": "address"
        },
        {
          "internalType": "bool",
          "name": "validatorLocked",
          "type": "bool"
        }
      ],
      "name": "create",
      "outputs": [
        {
          "internalType": "address",
          "name": "",
          "type": "address"
        }
      ],
      "stateMutability": "nonpayable",
      "type": "function"
    },
    {
      "inputs": [],
      "name": "version",
      "outputs": [
        {
          "internalType": "uint8",
          "name": "",
          "type": "uint8"
        }
      ],
      "stateMutability": "view",
      "type": "function"
    }
  ],
  "bytecode": {
    "object": "0x60803461008257601f6128c938819003918201601f19168301916001600160401b038311848410176100875780849260209460405283398101031261008257516001600160a01b038116810361008257600080546001600160a81b03191660089290921b610100600160a81b031691909117905560405161282b908161009e8239f35b600080fd5b634e487b7160e01b600052604160045260246000fdfe608060408181526004918236101561001657600080fd5b600092833560e01c918263319e90901461005d5750506354fd4d501461003b57600080fd5b3461005957816003193601126100595760ff60209254169051908152f35b5080fd5b8385913461021c578160031936011261021c576001600160a01b039380358581169291908390036102a4576024918235968715158098036102a057865491612515928382019067ffffffffffffffff948383108684111761028457928092856060938e97966102e185398b835260209e8f84015260081c168b82015203019089f08015610296578751938a85016f636f6e74726163742e6164647265737360801b81526e233932b739a837b7b629b2ba3a32b960891b6030870152601f86528986019186831090831117610284578188818d8f9488908f8490528b519020915460081c16906321f8a72160e01b835260448b01525afa94851561027a57918b93918b979695938896610231575b50509080604492169a8b918b519687958694630319e90960e41b86528a8601528b850152165af19081156102275783916101ed575b50156101dd575050507fb224da6575b2c2ffd42454faedb236f7dbe5f92a0c96bb99c0273dbe98464c7e82849281519033825287820152a251908152f35b634e487b7160e01b825260019052fd5b90508781813d8311610220575b61020481836102a8565b8101031261021c5751801515810361021c578861019f565b8280fd5b503d6101fa565b86513d85823e3d90fd5b919697509294508391933d8311610273575b61024d81856102a8565b8101031261026f5751818116810361026f57916044828b938b9796919261016a565b8880fd5b503d610243565b89513d8c823e3d90fd5b634e487b7160e01b8b5260418752878bfd5b87513d8a823e3d90fd5b8680fd5b8480fd5b90601f8019910116810190811067ffffffffffffffff8211176102ca57604052565b634e487b7160e01b600052604160045260246000fdfe608080604052346200017457606081620025158038038091620000238285620001ab565b83398101031262000174576200003981620001cf565b60208201519182151583036200017457604001516001600160a01b03908181169081900362000174576200013b93620000723362000271565b6001549260018060a01b03199083828616176001556200011460405182620000de602083016f636f6e74726163742e6164647265737360801b938482526d4672656e73506f6f6c536861726560901b6030820152601e8152620000d58162000179565b519020620001e4565b1684600254161760025560405160208101918252694672656e73436c61696d60b01b6030820152601a8152620000d58162000179565b16906003541617600355600014620001585750506001805460ff60a01b1916905562000271565b6000805460ff60a01b1916905560405161225c9081620002b98239f35b6001600160a81b031990911617600160a01b1760015562000271565b600080fd5b604081019081106001600160401b038211176200019557604052565b634e487b7160e01b600052604160045260246000fd5b601f909101601f19168101906001600160401b038211908210176200019557604052565b51906001600160a01b03821682036200017457565b6001546040516321f8a72160e01b81526004810192909252602090829060249082906001600160a01b03165afa908115620002655760009162000225575090565b906020823d82116200025c575b816200024160209383620001ab565b810103126200025957506200025690620001cf565b90565b80fd5b3d915062000232565b6040513d6000823e3d90fd5b600080546001600160a01b039283166001600160a01b03198216811783559216907f8be0079c531659141344cd1fd0a4f28419497f9722a3daafe3b4186f6b6457e09080a356fe6080604081815260048036101561001e575b505050361561001c57005b005b600092833560e01c908163168a482214610fbf575080631865c57d14610fa15780631e83409a14610f745780632991795414610e975780632b97105a14610dd3578063378de45b14610d645780633a4b66f114610d3f578063441a3e7014610af657806345b58fe414610acd5780634ad02ef114610a885780634b2b4e361461097e5780634e71d92d1461096457806354fd4d501461094157806355ec447f14610920578063678e300a14610900578063715018a6146108a25780638620891c146107165780638da5cb5b146106ea5780639278e714146106c8578063cfb5a5f8146106a1578063d1058e5914610688578063e4fc6b6d1461066f578063e6b1a3ae146104b8578063e920eec014610480578063f2fde38b146103b35763f9faa10403610011578260031936011261032e5760ff60015460a01c16818110156103a057600161016d911461110a565b3415610369578151916101c16801bc16d674ec8000006101ba6020956101b58782016101ab8361019d308461114f565b03601f1981018552846111df565b349251902061133c565b611201565b1115611224565b838151928185808601956f636f6e74726163742e6164647265737360801b87526e233932b739a837b7b629b2ba3a32b960891b6030820152601f8152610206816111a7565b519095206001600160a01b039590869061021f906112d6565b16602486518094819363068b0e0760e41b835234888401525af190811561035f5790610252918491610332575b5061129a565b61027e835186810190671d1bdad95b8b9a5960c21b825260088152610276816111a7565b51902061133c565b9360025416803b1561032e5760248392855194859384926335313c2160e11b845233908401525af18015610324576102ea575b5091606091837fd91527a40417d48f76ba016aaa9157e2ddaca6cb5b660432901659cb075058fc9451923484523390840152820152a180f35b917fd91527a40417d48f76ba016aaa9157e2ddaca6cb5b660432901659cb075058fc93919461031a60609461117d565b94919350916102b1565b82513d87823e3d90fd5b8280fd5b6103529150873d8911610358575b61034a81836111df565b810190611282565b3861024c565b503d610340565b84513d85823e3d90fd5b6020606492519162461bcd60e51b8352820152601260248201527136bab9ba103232b837b9b4ba1032ba3432b960711b6044820152fd5b634e487b7160e01b845260218252602484fd5b50903461032e57602036600319011261032e576001600160a01b038235818116939084900361047c578454918216926103ed3385146113a9565b841561042a5750506001600160a01b031916821783557f8be0079c531659141344cd1fd0a4f28419497f9722a3daafe3b4186f6b6457e08380a380f35b906020608492519162461bcd60e51b8352820152602660248201527f4f776e61626c653a206e6577206f776e657220697320746865207a65726f206160448201526564647265737360d01b6064820152fd5b8480fd5b83346104b5576104b2610492366110a0565b956104ad60018060a09894989795971b038a541633146113a9565b611950565b80f35b80fd5b503461032e576020908160031936011261066b5780356001600160a01b0381811691829003610667576104ef8187541633146113a9565b845163516b636d60e11b81526001848201528681602481865afa90811561065d578791610606575b5051156105cc57906024849261056f8751858101906f636f6e74726163742e6164647265737360801b82526e233932b739a837b7b629b2ba3a32b960891b6030820152601f8152610567816111a7565b5190206112d6565b16938787519586948593637358d1d760e11b85528401525af19182156105bf576104b2935084926105a2575b505061129a565b6105b89250803d106103585761034a81836111df565b388061059b565b50505051903d90823e3d90fd5b845162461bcd60e51b815280840185905260146024820152731a5b9d985b1a5908185c9d0818dbdb9d1c9858dd60621b6044820152606490fd5b90503d8088833e61061781836111df565b81019085818303126106555780519067ffffffffffffffff821161065957019080601f8301121561065557815161064f92870161149a565b38610517565b8780fd5b8880fd5b86513d89823e3d90fd5b8580fd5b8380fd5b83346104b557806003193601126104b5576104b2611b89565b83346104b557806003193601126104b5576104b2611e2e565b5091346104b55760203660031901126104b557506106c160209235612081565b9051908152f35b83346104b557806003193601126104b5576106e1611b89565b6104b233611dea565b505034610712578160031936011261071257905490516001600160a01b039091168152602090f35b5080fd5b506020908160031936011261066b57803560018060a01b036024848260025416875192838092634f558e7960e01b825287898301525afa90811561065d578791610885575b501561084e5760ff60015460a01c168381101561083b5784929161078360016044931461110a565b6107bf6801bc16d674ec8000006101ba6107b88a5188810190610276816107aa308561114f565b03601f1981018352826111df565b3490611201565b6108038751858101906f636f6e74726163742e6164647265737360801b82526e233932b739a837b7b629b2ba3a32b960891b6030820152601f8152610567816111a7565b1693878751958694859363010975af60e31b85528401523460248401525af19182156105bf576104b2935084926105a257505061129a565b634e487b7160e01b875260218452602487fd5b845162461bcd60e51b815280840185905260116024820152701a5908191bd95cc81b9bdd08195e1a5cdd607a1b6044820152606490fd5b61089c9150853d87116103585761034a81836111df565b3861075b565b83346104b557806003193601126104b557805481906001600160a01b038116906108cd3383146113a9565b6001600160a01b03191682557f8be0079c531659141344cd1fd0a4f28419497f9722a3daafe3b4186f6b6457e08280a380f35b5091346104b55760203660031901126104b557506106c1602092356120f8565b83346104b557806003193601126104b557610939611b89565b6104b2611e2e565b50503461071257816003193601126107125760ff6020925460a01c169051908152f35b83346104b557806003193601126104b5576104b233611dea565b50903461032e5761098e366110a0565b926109a960018060a09998999594951b038b541633146113a9565b8751946109da60208701876109be30836113f4565b03976109d2601f19998a81018352826111df565b51902061156e565b15610a7057505050505090610a15610a24928551610a0d602082019282610a013086611421565b039081018352826111df565b5190206114d1565b60208151910120923691611463565b6020815191012003610a3b5750505b6104b26115ff565b906020606492519162461bcd60e51b8352820152600f60248201526e0e0eac496caf240dad2e6dac2e8c6d608b1b6044820152fd5b939750935093610a839750949094611950565b610a33565b50503461071257816003193601126107125780610ab6610ac992516020810190610a0d816107aa3085611421565b905191829160208352602083019061100d565b0390f35b505034610712578160031936011261071257610ac990610aeb611f14565b905191829182611032565b5091903461071257806003193601126107125782359260249384359060ff60015460a01c1683811015610d2d57600103610ceb5760025484516331a9108f60e11b8152808501839052602094916001600160a01b039190869082908b90829086165afa908115610ce1579082918991610cb4575b50163303610c825783610b8b875187810190610276816107aa893086611b54565b10610c4957916044859288809a95610bdf8a9b9a51878101906f636f6e74726163742e6164647265737360801b82526e233932b739a837b7b629b2ba3a32b960891b6030820152601f8152610567816111a7565b16878b519788968795630441a3e760e41b87528601528401525af1918215610c3f57849384938493610c189285926105a257505061129a565b818115610c36575b3390f115610c2c575080f35b51903d90823e3d90fd5b506108fc610c20565b85513d86823e3d90fd5b855162461bcd60e51b81528083018690526014818a0152731b9bdd08195b9bdd59da0819195c1bdcda5d195960621b6044820152606490fd5b855162461bcd60e51b8152808301869052600d818a01526c3737ba103a34329037bbb732b960991b6044820152606490fd5b610cd49150873d8911610cda575b610ccc81836111df565b8101906112b7565b38610b6a565b503d610cc2565b87513d8a823e3d90fd5b835162461bcd60e51b8152602081850152601b818801527f63616e6e6f74207769746864726177206f6e6365207374616b656400000000006044820152606490fd5b634e487b7160e01b8652602184528686fd5b83346104b557806003193601126104b557610a3360018060a01b0382541633146113a9565b5091346104b55760203660031901126104b557506106c160209235610dbf610daf8451868101906a1c1bdbdb0b999bdc8b9a5960aa1b825284602b820152602b8152610567816111c3565b6001600160a01b03163014612040565b8251610276816107aa878201943086611b54565b503461032e578260031936011261032e57602083602460018060a01b03610dfe8184541633146113a9565b610e428651858101906f636f6e74726163742e6164647265737360801b82526e233932b739a837b7b629b2ba3a32b960891b6030820152601f8152610567816111a7565b16938286519586948593637358d1d760e11b85528401525af1908115610e8b576104b292508391610e73575061129a565b610352915060203d81116103585761034a81836111df565b505051903d90823e3d90fd5b50903461032e578260031936011261032e578051610efd602082016f636f6e74726163742e6164647265737360801b81526a4672656e734f7261636c6560a81b6030840152601b8352610ee9836111a7565b91519091206001600160a01b0391906112d6565b163303610f31578260644711610f24575b6001805460ff60a01b1916600360a01b17905580f35b610f2c611bef565b610f0e565b906020606492519162461bcd60e51b8352820152601860248201527f6d7573742062652063616c6c6564206279206f7261636c6500000000000000006044820152fd5b83823461071257602036600319011261071257356001600160a01b0381168103610712576104b290611dea565b505034610712578160031936011261071257610ac990610ab6612120565b8385346104b557806003193601126104b557506106c182602080940190610276816107aa308561114f565b60005b838110610ffd5750506000910152565b8181015183820152602001610fed565b9060209161102681518092818552858086019101610fea565b601f01601f1916010190565b6020908160408183019282815285518094520193019160005b828110611059575050505090565b83518552938101939281019260010161104b565b9181601f8401121561109b5782359167ffffffffffffffff831161109b576020838186019501011161109b57565b600080fd5b90608060031983011261109b5767ffffffffffffffff60043581811161109b57836110cd9160040161106d565b9390939260243583811161109b57826110e89160040161106d565b9390939260443591821161109b576111029160040161106d565b909160643590565b1561111157565b60405162461bcd60e51b81526020600482015260166024820152756e6f7420616363657074696e67206465706f7369747360501b6044820152606490fd5b6022916d746f74616c2e6465706f7369747360901b82526001600160601b03199060601b16600e8201520190565b67ffffffffffffffff811161119157604052565b634e487b7160e01b600052604160045260246000fd5b6040810190811067ffffffffffffffff82111761119157604052565b6060810190811067ffffffffffffffff82111761119157604052565b90601f8019910116810190811067ffffffffffffffff82111761119157604052565b9190820180921161120e57565b634e487b7160e01b600052601160045260246000fd5b1561122b57565b60405162461bcd60e51b815260206004820152602960248201527f746f74616c206465706f736974732063616e6e6f74206265206d6f72652074686044820152680c2dc406664408ae8d60bb1b6064820152608490fd5b9081602091031261109b5751801515810361109b5790565b156112a157565b634e487b7160e01b600052600160045260246000fd5b9081602091031261109b57516001600160a01b038116810361109b5790565b6001546040516321f8a72160e01b81526004810192909252602090829060249082906001600160a01b03165afa90811561133057600091611315575090565b61132d915060203d8111610cda57610ccc81836111df565b90565b6040513d6000823e3d90fd5b60015460405163bd02d0f560e01b81526004810192909252602090829060249082906001600160a01b03165afa9081156113305760009161137b575090565b906020823d82116113a1575b81611394602093836111df565b810103126104b557505190565b3d9150611387565b156113b057565b606460405162461bcd60e51b815260206004820152602060248201527f4f776e61626c653a2063616c6c6572206973206e6f7420746865206f776e65726044820152fd5b6021916c1d985b1a59185d1bdc8b9cd95d609a1b82526001600160601b03199060601b16600d8201520190565b601a91657075624b657960d01b82526001600160601b03199060601b1660068201520190565b67ffffffffffffffff811161119157601f01601f191660200190565b92919261146f82611447565b9161147d60405193846111df565b82948184528183011161109b578281602093846000960137010152565b909291926114a781611447565b916114b560405193846111df565b82948284528282011161109b5760206114cf930190610fea565b565b600154604051630180634360e71b815260048101929092526000908190839060249082906001600160a01b03165afa91821561156157819261151257505090565b909291503d8084833e61152581836111df565b81019060208183031261066b5780519067ffffffffffffffff821161047c570181601f8201121561066b5761132d92935060208151910161149a565b50604051903d90823e3d90fd5b600154604051633d70e7e560e11b81526004810192909252602090829060249082906001600160a01b03165afa908115611330576000916115ad575090565b61132d915060203d81116103585761034a81836111df565b156115cc57565b60405162461bcd60e51b815260206004820152600b60248201526a77726f6e6720737461746560a81b6044820152606490fd5b6801bc16d674ec800000908147106118f9576001549160ff8360a01c1660048110156118e357600161163191146115c5565b604090815160209061165e8282018261164a30836113f4565b03926109d2601f19948581018352826111df565b156118ab5761167b908451610a0d8482019282610a013086611421565b8351956116b8838801757769746864726177616c5f63726564656e7469616c7360501b81523060601b98896036820152602a8152610a0d816111c3565b936116e4865185810190687369676e617475726560b81b82528a6029820152601d8152610a0d816111a7565b978651858101917019195c1bdcda5d17d9185d1857dc9bdbdd607a1b8352603182015260258152611714816111c3565b5190208651635376ab1f60e11b81526004810191909152916001600160a01b039085846024818585165afa9384156118a057600094611871575b506117a08851878101907f65787465726e616c2e636f6e74726163742e616464726573730000000000000082526e11195c1bdcda5d10dbdb9d1c9858dd608a1b603982015260288152610567816111c3565b60ff60a01b19909116600160a11b176001551694853b1561109b576000936118009361180f6117ed938a519c8d97889687966304512a2360e31b885260806004890152608488019061100d565b600319938488830301602489015261100d565b9185830301604486015261100d565b9060648301520391865af1948515611866577f72b356fd889b9abd3530accd2c9f4aecbce67d70757181f9f862ac91464ce1929495611857575b5082519182523390820152a1565b6118609061117d565b38611849565b83513d6000823e3d90fd5b90938682813d8311611899575b61188881836111df565b810103126104b5575051923861174e565b503d61187e565b88513d6000823e3d90fd5b835162461bcd60e51b81526004810183905260116024820152701d985b1a59185d1bdc881b9bdd081cd95d607a1b6044820152606490fd5b634e487b7160e01b600052602160045260246000fd5b60405162461bcd60e51b815260206004820152600e60248201526d0dcdee840cadcdeeaced040cae8d60931b6044820152606490fd5b908060209392818452848401376000828201840152601f01601f1916010190565b96959293949096600160f81b30019586301161120e576040988951602098898201908152898252611980826111a7565b61198b368a89611463565b8a81519101209151902003611b10576119cf8a51898101906f1d985b1a59185d1bdc8b9b1bd8dad95960821b82523060601b6030820152602481526109d2816111c3565b611abe575b60ff60015460a01c169560048710156118e357611a8e611a6b968c96600095611a0060018e9c146115c5565b611a7f8951611a468d82016f636f6e74726163742e6164647265737360801b81526e233932b739a837b7b629b2ba3a32b960891b6030840152601f8352610ee9836111a7565b1699519c8d9b8c9a8b996303a483bb60e61b8b52608060048c015260848b019161192f565b9060031995868a84030160248b015261192f565b9286840301604487015261192f565b90606483015203925af1918215611ab3576114cf9394506000926105a257505061129a565b84513d6000823e3d90fd5b60015460ff8160a01c1660048110156118e357611adb90156115c5565b611afb611af58c518b8101906109d2816107aa30856113f4565b1561129a565b60ff60a01b1916600160a01b176001556119d4565b895162461bcd60e51b815260048101899052601e60248201527f7769746864726177616c2063726564656e7469616c206d69736d6174636800006044820152606490fd5b90916042926d19195c1bdcda5d0b985b5bdd5b9d60921b83526001600160601b03199060601b16600e83015260228201520190565b60ff60015460a01c1660048110156118e357600114611baa576114cf611bef565b60405162461bcd60e51b815260206004820152601c60248201527f757365207769746864726177207768656e206e6f74207374616b6564000000006044820152606490fd5b476064811115611da657604090815190611c28602092838101906b70726f746f636f6c2e66656560a01b8252600c8152610276816111a7565b80158015611d2e575b505090611c3c611f14565b60035484516327527c7360e11b81526001600160a01b0394909284928492908716918391908290611c709060048301611032565b03925af1908115611ab357611cce9291611c9191600091611d17575061129a565b8351908101906f636f6e74726163742e6164647265737360801b82526a4672656e734f7261636c6560a81b6030820152601b8152610567816111a7565b1690813b1561109b5760008092602483518095819363404df7b160e11b83523060048401525af1908115611d0d5750611d045750565b6114cf9061117d565b513d6000823e3d90fd5b6103529150833d85116103585761034a81836111df565b611d578551858101906c1999594b9c9958da5c1a595b9d609a1b8252600d8152610567816111a7565b9280830292830414171561120e57600080809360648294049082908215611d9c575b6001600160a01b031690f115611d9157473880611c31565b50513d6000823e3d90fd5b6108fc9150611d79565b606460405162461bcd60e51b815260206004820152602060248201527f6d696e696d756d206f66203130302077656920746f20646973747269627574656044820152fd5b6003546001600160a01b039081169190823b1561109b576024600092836040519586948593630f41a04d60e11b85521660048401525af1801561133057611d045750565b611e36611f14565b60005b8151811015611f10576020808260051b840101519060018060a01b0390816002541691816040938451918280926331a9108f60e11b82526004988983015260249485915afa938415611f0557600094611ee6575b5050816003541692833b1561109b576000809486519788958694630f41a04d60e11b865216908401525af1908115611d0d5750611ed7575b50600019811461120e57600101611e39565b611ee09061117d565b38611ec5565b611efd929450803d10610cda57610ccc81836111df565b913880611e8d565b85513d6000823e3d90fd5b5050565b604051602090818101906a1a591ccb9a5b8b9c1bdbdb60aa1b82523060601b602b820152601f8152611f45816111a7565b5190206001546040516378267eb560e11b81526004810192909252600092908390839060249082906001600160a01b03165afa928315612034578093611f8c575b50505090565b909192503d8082853e611f9f81856111df565b83019082848303126104b557835167ffffffffffffffff9485821161032e570182601f82011215610712578051948511612020578460051b9160405195611fe8868501886111df565b865284808701938301019384116104b557508301905b8282106120115750505050388080611f86565b81518152908301908301611ffe565b634e487b7160e01b82526041600452602482fd5b604051903d90823e3d90fd5b1561204757565b60405162461bcd60e51b81526020600482015260126024820152711ddc9bdb99c81cdd185ada5b99c81c1bdbdb60721b6044820152606490fd5b60206120b1604051828101906a1c1bdbdb0b999bdc8b9a5960aa1b825284602b820152602b8152610567816111c3565b6001600160a01b03906120c79082163014612040565b60035416916024604051809481936319f6b4bf60e31b835260048301525afa9081156113305760009161137b575090565b60ff60015460a01c1660048110156118e3576001036121175750600090565b61132d90612081565b60ff60015460a01c1660048110156118e35780156121ec57600281146121c9576001811461219a576003146121785760405161215b816111a7565b600d81526c7374617465206661696c75726560981b602082015290565b604051612184816111a7565b6006815265195e1a5d195960d21b602082015290565b506040516121a7816111a7565b6012815271616363657074696e67206465706f7369747360701b602082015290565b506040516121d6816111a7565b60068152651cdd185ad95960d21b602082015290565b506040516121f9816111a7565b601781527f6177616974696e672076616c696461746f7220696e666f00000000000000000060208201529056fea2646970667358221220d9925a507899c9b2dc85c703f1f5ebcda6ca8c5054aa9e993d8f2a86a385551764736f6c63430008110033a2646970667358221220bd742d38f894d5bc6277c13c8260a1d06048d5ad2e469707a3bb960046d1351c64736f6c63430008110033",
    "linkReferences": {}
  },
  "methodIdentifiers": {
    "create(address,bool)": "319e9090",
    "version()": "54fd4d50"
  },
  "id": 15
}