{
  "abi": [
    {
      "inputs": [
        {
          "internalType": "contract IFrensStorage",
          "name": "frensStorage_",
          "type": "address"
        }
      ],
      "stateMutability": "nonpayable",
      "type": "constructor"
    },
    {
      "anonymous": false,
      "inputs": [
        {
          "indexed": true,
          "internalType": "address",
          "name": "contractAddress",
          "type": "address"
        },
        {
          "indexed": false,
          "internalType": "address",
          "name": "creator",
          "type": "address"
        },
        {
          "indexed": false,
          "internalType": "address",
          "name": "owner",
          "type": "address"
        }
      ],
      "name": "Create",
      "type": "event"
    },
    {
      "inputs": [
        {
          "internalType": "address",
          "name": "_owner",
          "type": "address"
        },
        {
          "internalType": "bool",
          "name": "_validatorLocked",
          "type": "bool"
        }
      ],
      "name": "create",
      "outputs": [
        {
          "internalType": "address",
          "name": "",
          "type": "address"
        }
      ],
      "stateMutability": "nonpayable",
      "type": "function"
    }
  ],
  "bytecode": {
    "object": "0x6080604090808252346101535780612d6d803803809161001f8285610158565b833960209283918101031261015357516001600160a01b0380821692909183900361015357600180546001600160a01b0319908116851790915584516f636f6e74726163742e6164647265737360801b8382019081526d4672656e73506f6f6c536861726560901b6030830152601e825291949092838701929091906001600160401b0384118585101761013d5760248484938193828c52885190206321f8a72160e01b835260448901525afa928315610132576000936100f5575b5050501690600054161760005551612bf1908161017c8239f35b813d831161012b575b6101088185610158565b81010312610127575190828216820361012457503880806100db565b80fd5b5080fd5b503d6100fe565b86513d6000823e3d90fd5b634e487b7160e01b600052604160045260246000fd5b600080fd5b601f909101601f19168101906001600160401b0382119082101761013d5760405256fe6080604090808252600436101561001557600080fd5b600091823560e01c63319e90901461002c57600080fd5b346101705780600319360112610170576001600160a01b039160043583811691908290036101965760243591821515809303610192578460015416612a21938484019267ffffffffffffffff958585108786111761017e5792859491928a97969360609561019b8639835260208301528782015203019083f09384156101745780835416941693803b156101705782906044855180958193632f2ff15d60e01b83527f9f2df0fed2c77648de5860a4cc508cd0818c85b8b8a1ab4ceeef8d981c8956a660048401528960248401525af180156101665761013f575b60208484817fb224da6575b2c2ffd42454faedb236f7dbe5f92a0c96bb99c0273dbe98464c7e8280513381523087820152a251908152f35b8111610152576020935081523880610107565b634e487b7160e01b84526041600452602484fd5b83513d87823e3d90fd5b8280fd5b83513d84823e3d90fd5b634e487b7160e01b8a52604160045260248afd5b8580fd5b8480fdfe6080604081815234620002605760608262002a21803803809162000024828562000297565b83398101031262000260576200003a82620002bb565b602092838101519081151580920362000260578301516001600160a01b03808216959186900362000260576200007033620002d0565b60018060a01b0319918683600f541617600f5585518181016f636f6e74726163742e6164647265737360801b9182825267119c995b9cd05c9d60c21b603082015260188152620000c08162000265565b5190209087516321f8a72160e01b92838252600482015283816024818d5afa90811562000255578493929186916000916200020c575b5090602492911687600e541617600e5589518481019182526d4672656e73506f6f6c536861726560901b6030820152601e8152620001348162000265565b5190209189519a8b938492835260048301525afa9081156200020157600091620001bd575b50620001969596501690600d541617600d5560ff8019600854169116809117600855600014620001a4576000805460ff60a01b19169055620002d0565b516127099081620003188239f35b6000805460ff60a01b1916600160a01b179055620002d0565b87813d8311620001f9575b620001d4818362000297565b81010312620001f65750620001ee620001969596620002bb565b869562000159565b80fd5b503d620001c8565b86513d6000823e3d90fd5b85819495969293503d83116200024d575b62000229818362000297565b81010312620001f657508392918562000244602493620002bb565b909192620000f6565b503d6200021d565b89513d6000823e3d90fd5b600080fd5b604081019081106001600160401b038211176200028157604052565b634e487b7160e01b600052604160045260246000fd5b601f909101601f19168101906001600160401b038211908210176200028157604052565b51906001600160a01b03821682036200026057565b600080546001600160a01b039283166001600160a01b03198216811783559216907f8be0079c531659141344cd1fd0a4f28419497f9722a3daafe3b4186f6b6457e09080a356fe6080604081815260048036101561001e575b505050361561001c57005b005b600092833560e01c90816312686aae1461164c575080631865c57d1461161b578063299179541461150d5780632cf2cd48146114e65780632daad61d146114bf57806330dbf88714611496578063379607f514610fe25780633a4b66f114610fc957806341c6138314610faa578063441a3e7014610e2f57806345b58fe414610d7c5780634b2b4e3614610cbf57806351ff484714610c27578063591167c714610bfe578063678e300a14610bde578063715018a614610b845780637d88209714610b655780638620891c146109df578063888e9cf8146109925780638ae578fd146109695780638da5cb5b146109415780639426e2261461091a578063ac2a5dfd14610882578063b45a3c0e14610856578063cfb5a5f8146107ad578063e2d9ae3e1461078e578063e3f05d831461076a578063e4a502761461068f578063e6b1a3ae1461054f578063e920eec014610523578063f2fde38b14610459578063f9faa104146101d85763fc03bad20361001157346101d45760203660031901126101d457606092818392358252602052209081549160ff60026001830154920154169082519384526020840152151590820152f35b8280fd5b50826003193601126101d45734156104225760ff835460a01c168181101561040f5760016102069114611875565b6102266801bc16d674ec80000061021f600554346118ba565b11156118dd565b600d5482516318160ddd60e01b8152602093909290916001600160a01b0390859085908490829085165afa9384156103ac5786946103dc575b50838652600185523483872055610278346005546118ba565b600555600754680100000000000000008110156103c95760018101806007558110156103b65790848793927fa66cc928b5edb82af9bd49922954155ab7b0942694bea4ce44661d9a8736c68801558483526002865260018484205560ff60085460081c16600387528484209060ff801983541691151516179055600d5416803b156101d457829060248551809581936335313c2160e11b835233878401525af180156103ac5761035c575b857fd91527a40417d48f76ba016aaa9157e2ddaca6cb5b660432901659cb075058fc60608787878051923484523390840152820152a180f35b67ffffffffffffffff82969396116103995750845292817fd91527a40417d48f76ba016aaa9157e2ddaca6cb5b660432901659cb075058fc610323565b634e487b7160e01b835260419052602482fd5b83513d88823e3d90fd5b634e487b7160e01b875260328352602487fd5b634e487b7160e01b875260418352602487fd5b9093508481813d8311610408575b6103f48183611853565b810103126104045751923861025f565b8580fd5b503d6103ea565b634e487b7160e01b845260218252602484fd5b6020606492519162461bcd60e51b8352820152601260248201527136bab9ba103232b837b9b4ba1032ba3432b960711b6044820152fd5b5090346101d45760203660031901126101d4576001600160a01b0382358181169391929084900361051f5761048c61261b565b83156104cd57505082546001600160a01b0319811683178455167f8be0079c531659141344cd1fd0a4f28419497f9722a3daafe3b4186f6b6457e08380a380f35b906020608492519162461bcd60e51b8352820152602660248201527f4f776e61626c653a206e6577206f776e657220697320746865207a65726f206160448201526564647265737360d01b6064820152fd5b8480fd5b833461054c57610549610535366116eb565b9561054495919594929461261b565b611e8f565b80f35b80fd5b50346101d45760208060031936011261068b5781356001600160a01b038116939084900361051f5761057f61261b565b805163516b636d60e11b81526001848201528581602481885afa908115610681578691610604575b5051156105cc575050506bffffffffffffffffffffffff60a01b600e541617600e5580f35b5162461bcd60e51b81529182015260146024820152731a5b9d985b1a5908185c9d0818dbdb9d1c9858dd60621b604482015260649150fd5b90503d8087833e6106158183611853565b810190838183031261067d5780519067ffffffffffffffff8211610679570181601f8201121561067d57805161064a816119be565b9261065785519485611853565b8184528582840101116106795761067391858085019101611670565b386105a7565b8780fd5b8680fd5b82513d88823e3d90fd5b8380fd5b50503461076657816003193601126107665780519082600a546106b181611755565b8085529160019180831690811561073e57506001146106f3575b5050506106dd826106ef940383611853565b51918291602083526020830190611693565b0390f35b9450600a85526000805160206126748339815191525b828610610726575050506106dd8260206106ef95820101946106cb565b80546020878701810191909152909501948101610709565b6106ef9750869350602092506106dd94915060ff191682840152151560051b820101946106cb565b5080fd5b50503461076657816003193601126107665760209060ff6008541690519015158152f35b505034610766578160031936011261076657602090600c549051908152f35b50346101d45760203660031901126101d457600d548251631dc82a7560e01b81528235928101839052906001600160a01b03906020908390602490829085165afa91821561084c57916108119161081694936020979261081d575b5016301461195a565b612382565b9051908152f35b61083e919250873d8111610845575b6108368183611853565b81019061193b565b9038610808565b503d61082c565b84513d87823e3d90fd5b50346101d45760203660031901126101d4578160209360ff923581526003855220541690519015158152f35b505034610766578160031936011261076657805190826009546108a481611755565b8085529160019180831690811561073e57506001146108cf575050506106dd826106ef940383611853565b9450600985526000805160206126948339815191525b828610610902575050506106dd8260206106ef95820101946106cb565b805460208787018101919091529095019481016108e5565b50503461076657816003193601126107665760209060ff60085460101c1690519015158152f35b505034610766578160031936011261076657905490516001600160a01b039091168152602090f35b505034610766578160031936011261076657600e5490516001600160a01b039091168152602090f35b50346101d45760203660031901126101d457356007548110156101d4576007602093527fa66cc928b5edb82af9bd49922954155ab7b0942694bea4ce44661d9a8736c68801549051908152f35b506020908160031936011261068b5780359060ff855460a01c1681811015610b52576001610a0d9114611875565b610a266801bc16d674ec80000061021f600554346118ba565b600d548451631dc82a7560e01b8152828101849052906001600160a01b039081168583602481845afa928315610b48576024938793610a6e928b92610b30575016301461195a565b865192838092634f558e7960e01b825287878301525afa908115610b26578691610af9575b5015610ac25750906001918452528120610aae3482546118ba565b9055610abc346005546118ba565b60055580f35b835162461bcd60e51b815290810183905260116024820152701a5908191bd95cc81b9bdd08195e1a5cdd607a1b6044820152606490fd5b610b199150843d8611610b1f575b610b118183611853565b8101906119a6565b38610a93565b503d610b07565b85513d88823e3d90fd5b61083e919250853d8711610845576108368183611853565b87513d8a823e3d90fd5b634e487b7160e01b865260218252602486fd5b5050346107665781600319360112610766576020906005549051908152f35b833461054c578060031936011261054c57610b9d61261b565b80546001600160a01b03198116825581906001600160a01b03167f8be0079c531659141344cd1fd0a4f28419497f9722a3daafe3b4186f6b6457e08280a380f35b50913461054c57602036600319011261054c5750610816602092356123f5565b505034610766578160031936011261076657600d5490516001600160a01b039091168152602090f35b50503461076657816003193601126107665780519082600b54610c4981611755565b8085529160019180831690811561073e5750600114610c74575050506106dd826106ef940383611853565b9450600b85526000805160206126b48339815191525b828610610ca7575050506106dd8260206106ef95820101946106cb565b80546020878701810191909152909501948101610c8a565b50346101d457610cce366116eb565b93610cdd98969893919361261b565b60085460101c60ff1615610d6757505050505092610cfe91929336916119da565b602081519101208151610d1b81610d148161178f565b0382611853565b6020815191012003610d325750505b610549611a4b565b906020606492519162461bcd60e51b8352820152600f60248201526e0e0eac496caf240dad2e6dac2e8c6d608b1b6044820152fd5b92955092955092610d7796611e8f565b610d2a565b82843461054c578060031936011261054c579080519182906007549182855260208095018093600784527fa66cc928b5edb82af9bd49922954155ab7b0942694bea4ce44661d9a8736c68890845b818110610e1b5750505081610de0910382611853565b83519485948186019282875251809352850193925b828110610e0457505050500390f35b835185528695509381019392810192600101610df5565b825484529288019260019283019201610dca565b50346101d457816003193601126101d4578035906024359160ff855460a01c1682811015610f97576001610e639114611875565b600d5484516331a9108f60e11b8152808401839052602093916001600160a01b03919085908290602490829086165afa908115610b48578891610f7a575b50163303610f475781865260018352838587205410610f0d5750848093600182948394845252858220610ed5828254612362565b9055610ee381600554612362565b600555818115610f04575b3390f115610efa575080f35b51903d90823e3d90fd5b506108fc610eee565b845162461bcd60e51b815290810183905260146024820152731b9bdd08195b9bdd59da0819195c1bdcda5d195960621b6044820152606490fd5b845162461bcd60e51b8152908101839052600d60248201526c3737ba103a34329037bbb732b960991b6044820152606490fd5b610f919150853d8711610845576108368183611853565b38610ea1565b634e487b7160e01b865260218352602486fd5b5050346107665781600319360112610766576020906006549051908152f35b833461054c578060031936011261054c57610d2a61261b565b5082903461076657602092836003193601126101d45781359160018060a01b03908582600d5416845197888092631dc82a7560e01b8252888683015260249a8b915afa9081156113a65790611042918891611479575b508416301461195a565b60ff865460a01c168281101561146757600181146114255760644711156113d5576003146113cd5782600f5416818551818101906f636f6e74726163742e6164647265737360801b82526a4672656e734f7261636c6560a81b6030820152601b81526110ad81611821565b519020898751809481936321f8a72160e01b8352888301525afa9081156113a65784898993859385916113b0575b50885163404df7b160e11b815230888201529485938492165af19081156113a6578791611389575b50945b61110f81612382565b95818852600283528588206111258882546118ba565b9055611133876006546118ba565b60065584600f541690865184810190731c1c9bdd1bd8dbdb0b9999594b9c195c98d95b9d60621b82526014815261116981611821565b5190209087519163bd02d0f560e01b83528683015284828c81865afa91821561137f578a9261134c575b508115159081611343575b50611228575b50508190879885600d999899541694875195869384926331a9108f60e11b84528301525afa93841561121f575094849384938493610549988593611200575b5050839183156111f6575b1690f1611e72565b6108fc92506111ee565b611217929350803d10610845576108368183611853565b9089806111e3565b513d86823e3d90fd5b83879a989a5181810190751c1c9bdd1bd8dbdb0b9999594b9c9958da5c1a595b9d60521b82526016815261125b81611821565b519020898951809581936321f8a72160e01b83528a8301525afa91821561133957908a918a93611311575b506064916112939161236f565b0490600182116112ba575b50906112af8392899a999899612362565b9697988192506111a4565b60001982019990828b116112ff5798808080809d819c9d8b839183156112f5575b1690f1156112eb5798979661129e565b86513d89823e3d90fd5b6108fc92506112db565b634e487b7160e01b8a5260118652888afd5b61129391935091611330606493873d8911610845576108368183611853565b93915091611286565b87513d8b823e3d90fd5b9050158b61119e565b9091508481813d8311611378575b6113648183611853565b810103126113745751908b611193565b8980fd5b503d61135a565b88513d8c823e3d90fd5b6113a09150823d8411610b1f57610b118183611853565b88611103565b85513d89823e3d90fd5b6113c79150843d8611610845576108368183611853565b8c6110db565b600194611106565b845162461bcd60e51b81528084018390526025818a01527f6d7573742062652067726561746572207468616e203130302077656920746f20604482015264636c61696d60d81b6064820152608490fd5b845162461bcd60e51b8152808401839052601c818a01527f757365207769746864726177207768656e206e6f74207374616b6564000000006044820152606490fd5b634e487b7160e01b8752602183528787fd5b6114909150833d8511610845576108368183611853565b89611038565b505034610766578160031936011261076657600f5490516001600160a01b039091168152602090f35b50346101d45760203660031901126101d45760209282913581526001845220549051908152f35b50346101d45760203660031901126101d45760209282913581526002845220549051908152f35b5090346101d457826003193601126101d45760018060a01b0380600f541660208351818101906f636f6e74726163742e6164647265737360801b82526a4672656e734f7261636c6560a81b6030820152601b815261156a81611821565b51902060248551809481936321f8a72160e01b8352898301525afa9081156116115785916115f3575b501633036115b057825460ff60a01b1916600360a01b1783558280f35b906020606492519162461bcd60e51b8352820152601860248201527f6d7573742062652063616c6c6564206279206f7261636c6500000000000000006044820152fd5b61160b915060203d8111610845576108368183611853565b38611593565b83513d87823e3d90fd5b5050346107665781600319360112610766576106ef90611639612515565b9051918291602083526020830190611693565b84903461076657816003193601126107665760209060ff60085460081c1615158152f35b60005b8381106116835750506000910152565b8181015183820152602001611673565b906020916116ac81518092818552858086019101611670565b601f01601f1916010190565b9181601f840112156116e65782359167ffffffffffffffff83116116e657602083818601950101116116e657565b600080fd5b9060806003198301126116e65767ffffffffffffffff6004358181116116e65783611718916004016116b8565b939093926024358381116116e65782611733916004016116b8565b939093926044359182116116e65761174d916004016116b8565b909160643590565b90600182811c92168015611785575b602083101461176f57565b634e487b7160e01b600052602260045260246000fd5b91607f1691611764565b6009546000929161179f82611755565b8082529160019081811690811561180457506001146117bd57505050565b919293506009600052600080516020612694833981519152916000925b8484106117ec57505060209250010190565b805460208585018101919091529093019281016117da565b915050602093945060ff929192191683830152151560051b010190565b6040810190811067ffffffffffffffff82111761183d57604052565b634e487b7160e01b600052604160045260246000fd5b90601f8019910116810190811067ffffffffffffffff82111761183d57604052565b1561187c57565b60405162461bcd60e51b81526020600482015260166024820152756e6f7420616363657074696e67206465706f7369747360501b6044820152606490fd5b919082018092116118c757565b634e487b7160e01b600052601160045260246000fd5b156118e457565b60405162461bcd60e51b815260206004820152602960248201527f746f74616c206465706f736974732063616e6e6f74206265206d6f72652074686044820152680c2dc406664408ae8d60bb1b6064820152608490fd5b908160209103126116e657516001600160a01b03811681036116e65790565b1561196157565b60405162461bcd60e51b815260206004820152601960248201527f77726f6e67207374616b696e6720706f6f6c20666f72206964000000000000006044820152606490fd5b908160209103126116e6575180151581036116e65790565b67ffffffffffffffff811161183d57601f01601f191660200190565b9291926119e6826119be565b916119f46040519384611853565b8294818452818301116116e6578281602093846000960137010152565b15611a1857565b60405162461bcd60e51b815260206004820152600b60248201526a77726f6e6720737461746560a81b6044820152606490fd5b6801bc16d674ec80000090814710611e3c578160055403611e0157600080549260ff8460a01c169360049485811015611dee57611a8b6001809214611a11565b60ff60085460101c1615611db65760018060a01b039384600f54166040958651602095868201937f65787465726e616c2e636f6e74726163742e616464726573730000000000000085526e11195c1bdcda5d10dbdb9d1c9858dd608a1b603984015260288352606083019067ffffffffffffffff9584831087841117611da257828c52845190206321f8a72160e01b835260648501528890829060249082905afa928315611d98578693611d63575b505060ff60a01b1916600160a11b178455600c54911695863b1561068b5787516304512a2360e31b815260808b82015294849286929190611b7d6084850161178f565b60031985820381016024870152600a54879492611b9982611755565b918282528d8582169182600014611d44575050600114611cfb575b50508584030160448601528592600b5491611bce83611755565b92838352878d8383169283600014611cda57505050600114611c8e575b5050508391829160648301520391895af18015611c8457611c3b575b5050507f72b356fd889b9abd3530accd2c9f4aecbce67d70757181f9f862ac91464ce19293945082519182523390820152a1565b8211611c7157507f72b356fd889b9abd3530accd2c9f4aecbce67d70757181f9f862ac91464ce192949550835284933880611c07565b634e487b7160e01b815260418752602490fd5b86513d84823e3d90fd5b918b939450600b88526000805160206126b48339815191529288935b828510611cbf57505050010190808480611beb565b80548486018701528b99508c98508d95909401938101611caa565b60ff19168582015294151560051b9093019093019450839250819050611beb565b8c929550600a89526000805160206126748339815191529189925b818410611d295750500101923880611bb4565b80548385018601528c9a508d99508e94909301928501611d16565b60ff19168382015292151560051b909101909101945038905080611bb4565b611d8892935060609089903d8b11611d90575b611d808285611853565b01019061193b565b903880611b3a565b3d9150611d76565b8a513d88823e3d90fd5b50634e487b7160e01b875260418d52602487fd5b60405162461bcd60e51b815260208188015260116024820152701d985b1a59185d1bdc881b9bdd081cd95d607a1b6044820152606490fd5b634e487b7160e01b845260218652602484fd5b60405162461bcd60e51b81526020600482015260136024820152726e6f7420656e6f756768206465706f7369747360681b6044820152606490fd5b60405162461bcd60e51b815260206004820152600e60248201526d0dcdee840cadcdeeaced040cae8d60931b6044820152606490fd5b15611e7957565b634e487b7160e01b600052600160045260246000fd5b929094939194600160f81b3001908130116118c757604051602092838201908152838252611ebc82611821565b611ec736868b6119da565b848151910120915190200361231d5760085460ff81166122c3575b5060009260ff845460a01c169760048910156122af57611f056001809a14611a11565b67ffffffffffffffff9283811161229b5780611f22600954611755565b98601f998a8111612240575b5087908a83116001146121ca5788926121bf575b5050600019600383901b1c1916908a1b176009555b8282116121ab578190611f6b600a54611755565b888111612150575b5085908883116001146120e35786926120d8575b5050600019600383901b1c191690881b17600a555b85116120c457611fad600b54611755565b848111612074575b5081938511600114612002575091839491849394611ff7575b50501b916000199060031b1c191617600b555b600c556201000062ff0000196008541617600855565b013592503880611fce565b600b82526000805160206126b483398151915293918591601f19831691905b8883831061205a5750505010612040575b505050811b01600b55611fe1565b0135600019600384901b60f8161c19169055388080612032565b868601358855909601959384019387935090810190612021565b600b83526000805160206126b48339815191528580880160051c8201928489106120bb575b0160051c019087905b8281106120b0575050611fb5565b8481550187906120a2565b92508192612099565b634e487b7160e01b82526041600452602482fd5b013590503880611f87565b600a87528a935060008051602061267483398151915291601f198416885b8882821061213a5750508411612120575b505050811b01600a55611f9c565b0135600019600384901b60f8161c19169055388080612112565b8385013586558e97909501949283019201612101565b909150600a86526000805160206126748339815191528880850160051c8201928786106121a2575b918c91869594930160051c01915b828110612194575050611f73565b8881558594508c9101612186565b92508192612178565b634e487b7160e01b85526041600452602485fd5b013590503880611f42565b600989528c935060008051602061269483398151915291601f1984168a5b8a8282106122215750508411612207575b505050811b01600955611f57565b0135600019600384901b60f8161c191690553880806121f9565b91929596849587849396013581550195019201908e95949392916121e8565b909150600988526000805160206126948339815191528a80850160051c820192898610612292575b918e91869594930160051c01915b828110612284575050611f2e565b8a81558594508e9101612276565b92508192612268565b634e487b7160e01b86526041600452602486fd5b634e487b7160e01b85526021600452602485fd5b6000549060ff8260a01c166004811015612307576122f1916122e760ff9215611a11565b60101c1615611e72565b60ff60a01b1916600160a01b1760005538611ee2565b634e487b7160e01b600052602160045260246000fd5b60405162461bcd60e51b815260048101839052601e60248201527f7769746864726177616c2063726564656e7469616c206d69736d6174636800006044820152606490fd5b919082039182116118c757565b818102929181159184041417156118c757565b47156123ef5760009081526001602052604081205460026020526123b86040832054916123b247600654906118ba565b9061236f565b6005549081156123db570480156123d6576123d39250612362565b90565b505090565b634e487b7160e01b84526012600452602484fd5b50600090565b600060ff815460a01c1691600483101561250157600183036124175750905090565b61242090612382565b9160018060a01b03600f5416602060405181810190731c1c9bdd1bd8dbdb0b9999594b9c195c98d95b9d60621b82526014815261245c81611821565b51902060246040518094819363bd02d0f560e01b835260048301525afa9283156124f55780936124bf575b505081151590816124b3575b5061249c575090565b9060646124ac826123d39461236f565b0490612362565b60039150141538612493565b909192506020823d82116124ed575b816124db60209383611853565b8101031261054c575051903880612487565b3d91506124ce565b604051903d90823e3d90fd5b634e487b7160e01b82526021600452602482fd5b60ff60005460a01c1660048110156123075780156125e157600281146125be576001811461258f5760031461256d5760405161255081611821565b600d81526c7374617465206661696c75726560981b602082015290565b60405161257981611821565b6006815265195e1a5d195960d21b602082015290565b5060405161259c81611821565b6012815271616363657074696e67206465706f7369747360701b602082015290565b506040516125cb81611821565b60068152651cdd185ad95960d21b602082015290565b506040516125ee81611821565b601781527f6177616974696e672076616c696461746f7220696e666f000000000000000000602082015290565b6000546001600160a01b0316330361262f57565b606460405162461bcd60e51b815260206004820152602060248201527f4f776e61626c653a2063616c6c6572206973206e6f7420746865206f776e65726044820152fdfec65a7bb8d6351c1cf70c95a316cc6a92839c986682d98bc35f958f4883f9d2a86e1540171b6c0c960b71a7020d9f60077f6af931a8bbf590da0223dacf75c7af0175b7a638427703f0dbe7bb9bbf987a2551717b34e79f33b5b1008d1fa01db9a26469706673582212201d804d8e4a30f70cde05ec83e684bbf117705251465be3ee17b9fce8b377b0ec64736f6c63430008110033a2646970667358221220abc15cb43d58fbf4712ee067ecf98142d4e7334ae46bb0205aedc290135a0a0364736f6c63430008110033",
    "linkReferences": {}
  },
  "methodIdentifiers": {
    "create(address,bool)": "319e9090"
  },
  "id": 9
}