{
  "abi": [
    {
      "inputs": [
        {
          "internalType": "contract IFrensStorage",
          "name": "frensStorage_",
          "type": "address"
        }
      ],
      "stateMutability": "nonpayable",
      "type": "constructor"
    },
    {
      "anonymous": false,
      "inputs": [
        {
          "indexed": true,
          "internalType": "address",
          "name": "contractAddress",
          "type": "address"
        },
        {
          "indexed": false,
          "internalType": "address",
          "name": "creator",
          "type": "address"
        },
        {
          "indexed": false,
          "internalType": "address",
          "name": "owner",
          "type": "address"
        }
      ],
      "name": "Create",
      "type": "event"
    },
    {
      "inputs": [
        {
          "internalType": "address",
          "name": "_owner",
          "type": "address"
        },
        {
          "internalType": "bool",
          "name": "_validatorLocked",
          "type": "bool"
        },
        {
          "internalType": "bool",
          "name": "_frensLocked",
          "type": "bool"
        },
        {
          "internalType": "uint256",
          "name": "_poolMin",
          "type": "uint256"
        },
        {
          "internalType": "uint256",
          "name": "_poolMax",
          "type": "uint256"
        }
      ],
      "name": "create",
      "outputs": [
        {
          "internalType": "address",
          "name": "",
          "type": "address"
        }
      ],
      "stateMutability": "nonpayable",
      "type": "function"
    }
  ],
  "bytecode": {
    "object": "0x608060409080825234610153578061362e803803809161001f8285610158565b833960209283918101031261015357516001600160a01b0380821692909183900361015357600180546001600160a01b0319908116851790915584516f636f6e74726163742e6164647265737360801b8382019081526d4672656e73506f6f6c536861726560901b6030830152601e825291949092838701929091906001600160401b0384118585101761013d5760248484938193828c52885190206321f8a72160e01b835260448901525afa928315610132576000936100f5575b50505016906000541617600055516134b2908161017c8239f35b813d831161012b575b6101088185610158565b81010312610127575190828216820361012457503880806100db565b80fd5b5080fd5b503d6100fe565b86513d6000823e3d90fd5b634e487b7160e01b600052604160045260246000fd5b600080fd5b601f909101601f19168101906001600160401b0382119082101761013d5760405256fe6080604090808252600436101561001557600080fd5b600091823560e01c63e403e1ae1461002c57600080fd5b346101945760a0366003190112610194576001600160a01b039160043583811691908290036101be57602435918215158093036101ba576044358015158091036101b6578560015416906132ba948585019367ffffffffffffffff96868610888711176101a2579286959260c095928c9998956101c3873984526020840152888301526064356060830152608435608083015260a082015203019083f09384156101985780835416941693803b156101945782906044855180958193632f2ff15d60e01b83527f9f2df0fed2c77648de5860a4cc508cd0818c85b8b8a1ab4ceeef8d981c8956a660048401528960248401525af1801561018a57610163575b60208484817fb224da6575b2c2ffd42454faedb236f7dbe5f92a0c96bb99c0273dbe98464c7e8280513381523087820152a251908152f35b811161017657602093508152388061012b565b634e487b7160e01b84526041600452602484fd5b83513d87823e3d90fd5b8280fd5b83513d84823e3d90fd5b634e487b7160e01b8b52604160045260248bfd5b8680fd5b8580fd5b8480fdfe608060409080825234620002a55760c081620032ba8038038091620000258285620002dc565b833981010312620002a5576200003b8162000300565b9060206200004b81830162000315565b6200005885840162000315565b60608401519260a060808601519501519060018060a01b0390818316809303620002a557620000873362000323565b60018060a01b0319928084601154161760115589518281016f636f6e74726163742e6164647265737360801b9182825267119c995b9cd05c9d60c21b603082015260188152620000d781620002aa565b5190208b51916321f8a72160e01b9182845260048401528483602481875afa9283156200029a578593879160009162000251575b509060249291168860105416176010558d518481019182526d4672656e73506f6f6c536861726560901b6030820152601e81526200014981620002aa565b519020918d519485938492835260048301525afa9182156200024657600092620001ee575b50509161ff00959391620001c7989795931690600f541617600f5560ff600a5492151516948591151560081b169161ffff19161717600a55600855600755600014620001d5576000805460ff60a01b1916905562000323565b51612f4f90816200036b8239f35b6000805460ff60a01b1916600160a01b17905562000323565b81819392933d83116200023e575b620002088183620002dc565b810103126200023b57509161ff009593916200022b620001c79998969462000300565b919395979881939597506200016e565b80fd5b503d620001fc565b8a513d6000823e3d90fd5b85819495969293503d831162000292575b6200026e8183620002dc565b810103126200023b5750849291866200028960249362000300565b9091926200010b565b503d62000262565b8d513d6000823e3d90fd5b600080fd5b604081019081106001600160401b03821117620002c657604052565b634e487b7160e01b600052604160045260246000fd5b601f909101601f19168101906001600160401b03821190821017620002c657604052565b51906001600160a01b0382168203620002a557565b51908115158203620002a557565b600080546001600160a01b039283166001600160a01b03198216811783559216907f8be0079c531659141344cd1fd0a4f28419497f9722a3daafe3b4186f6b6457e09080a356fe6080604081815260048036101561001e575b505050361561001c57005b005b600092833560e01c90816312686aae14611d23575080631865c57d14611cf25780632991795414611be45780632cf2cd4814611bbd5780632daad61d14611b9657806330dbf88714611b6d578063379607f5146116cf5780633a4b66f1146116b657806341c613831461169757806342966c68146115d8578063441a3e701461144657806345b58fe4146113935780634b2b4e36146112d657806351ff48471461123d578063591167c714611214578063678e300a146111f4578063715018a61461119a5780637d8820971461117b5780638620891c14611014578063888e9cf814610fc45780638ae578fd14610f9b5780638da5cb5b14610f735780639426e22614610f4c578063958e2d3114610e37578063ac2a5dfd14610d9e578063b45a3c0e14610d72578063be85879814610afc578063bed62f3514610a5b578063cd8df8a614610a3c578063cfb5a5f8146109ab578063e2d9ae3e1461098c578063e3f05d8314610968578063e4a5027614610890578063e6b1a3ae14610754578063e920eec014610728578063f038afe3146105c4578063f2fde38b146104f0578063f8f306e1146104cd578063f9faa104146102125763fc03bad203610011573461020e57602036600319011261020e5791828293358252602052206001815491015482519182526020820152f35b8280fd5b508260031936011261020e5734156104965760ff835460a01c16818110156104835760016102409114611f71565b6102606801bc16d674ec80000061025960055434611fb6565b1115611fd9565b600854341061044157610277600754341115612037565b600f5482516318160ddd60e01b81529260209290916001600160a01b0390849086908490829085165afa948515610437578695610403575b508486526001845234838720556102c834600554611fb6565b600555600954680100000000000000008110156103f05760018101806009558110156103db57908587939260096000527f6e1540171b6c0c960b71a7020d9f60077f6af931a8bbf590da0223dacf75c7af01558583526002855260018484205560ff600a5460081c16600386528484209060ff801983541691151516179055600f541690813b1561020e57829160248392865194859384926335313c2160e11b845233908401525af180156103d1576103b5575b507fd91527a40417d48f76ba016aaa9157e2ddaca6cb5b660432901659cb075058fc60608486858051923484523390840152820152a180f35b6103c190939293611f09565b6103cd5790833861037c565b8380fd5b83513d84823e3d90fd5b603283634e487b7160e01b6000525260246000fd5b634e487b7160e01b875260418352602487fd5b9094508381813d8311610430575b61041b8183611f4f565b8101031261042b575193386102af565b600080fd5b503d610411565b83513d88823e3d90fd5b6020606492519162461bcd60e51b8352820152601e60248201527f62656c6f77206d696e696d756d206465706f73697420666f7220706f6f6c00006044820152fd5b634e487b7160e01b845260218252602484fd5b6020606492519162461bcd60e51b8352820152601260248201527136bab9ba103232b837b9b4ba1032ba3432b960711b6044820152fd5b5050346104ec57816003193601126104ec576020906008549051908152f35b5080fd5b50903461020e57602036600319011261020e576001600160a01b038235818116939192908490036105c057610523612e61565b831561056e575050600054826bffffffffffffffffffffffff60a01b821617600055167f8be0079c531659141344cd1fd0a4f28419497f9722a3daafe3b4186f6b6457e0600080a380f35b906020608492519162461bcd60e51b8352820152602660248201527f4f776e61626c653a206e6577206f776e657220697320746865207a65726f206160448201526564647265737360d01b6064820152fd5b8480fd5b503461020e576105d336611d8f565b600f5484516331a9108f60e11b815280850184905291939260209290916001600160a01b03908116918481602481865afa92831561071e576106248360249588948d91610701575b50163314612106565b885193848092631dc82a7560e01b8252878a8301525afa9081156106f7576106569289926106c8575b501630146120a2565b808652600182528486205484116106795785525281832055600142918320015580f35b845162461bcd60e51b81528084018390526024808201527f63616e6e6f742073657420707269636520686967686572207468616e206465706044820152631bdcda5d60e21b6064820152608490fd5b6106e9919250853d87116106f0575b6106e18183611f4f565b810190612083565b903861064d565b503d6106d7565b87513d8a823e3d90fd5b6107189150853d87116106f0576106e18183611f4f565b3861061b565b88513d8b823e3d90fd5b83346107515761074e61073a36611dd3565b95610749959195949294612e61565b6126ca565b80f35b80fd5b503461020e576020806003193601126103cd5781356001600160a01b03811693908490036105c057610784612e61565b805163516b636d60e11b81526001848201528581602481885afa908115610886578691610809575b5051156107d1575050506bffffffffffffffffffffffff60a01b601054161760105580f35b5162461bcd60e51b81529182015260146024820152731a5b9d985b1a5908185c9d0818dbdb9d1c9858dd60621b604482015260649150fd5b90503d8087833e61081a8183611f4f565b81019083818303126108825780519067ffffffffffffffff821161087e570181601f8201121561088257805161084f81612216565b9261085c85519485611f4f565b81845285828401011161087e5761087891858085019101611d47565b386107ac565b8780fd5b8680fd5b82513d88823e3d90fd5b828434610751578060031936011261075157508051600091600c546108b481611e3d565b8084529060019081811690811561094057506001146108f5575b50506108df826108f1940383611f4f565b51918291602083526020830190611d6a565b0390f35b600c60009081529450600080516020612eba8339815191525b82861061092857505050918101602001916108df826108ce565b8054602087870181019190915290950194810161090e565b6108f1965085925060209150926108df9360ff191682840152151560051b82010194506108ce565b5050346104ec57816003193601126104ec5760209060ff600a541690519015158152f35b5050346104ec57816003193601126104ec57602090600e549051908152f35b503461020e57602036600319011261020e57600f548251631dc82a7560e01b81528235928101839052906001600160a01b03906020908390602490829085165afa918215610a325791610a0e91610a13949360209792610a1a57501630146120a2565b612bbe565b9051908152f35b6106e9919250873d81116106f0576106e18183611f4f565b84513d87823e3d90fd5b5050346104ec57816003193601126104ec576020906007549051908152f35b503461020e57602036600319011261020e57803590818452806020526001838520015462093a808101809111610ae9574210610aa65750825260036020528120805460ff1916905580f35b606490602084519162461bcd60e51b8352820152601c60248201527f616c6c6f77206f6e65207765656b206265666f726520756e6c6f636b000000006044820152fd5b634e487b7160e01b855260118252602485fd5b5090610b0736611d8f565b600f5483516331a9108f60e11b8082528187018490526001600160a01b039660209695946024949193918916929188818781875afa908115610d5157610b58918b918d91610d5b5750163314612106565b8651631dc82a7560e01b918282528582015288818781875afa908115610d515790610b8e918c91610d34575b508a1630146120a2565b8651908152858482015287818681865afa908115610d2a5790610bbc918b91610d0d575b50891630146120a2565b848952828752858920543410610ccb5790868493928a95885180948193825289878301525afa908115610cc1579088918591610ca4575b501683803415610c9b575b81808092853491f115610c9157848452600387528584209760ff1998898154169055600f5416803b156105c05784928360649289519687958694632142170760e11b865285015233908401528860448401525af18015610c8757610c73575b5092600391600194525283209182541617905580f35b610c7c90611f09565b6105c0578438610c5d565b84513d84823e3d90fd5b85513d85823e3d90fd5b506108fc610bfe565b610cbb9150883d8a116106f0576106e18183611f4f565b38610bf3565b86513d86823e3d90fd5b855162461bcd60e51b81528084018890526017818601527f6d7573742073656e6420636f72726563742076616c75650000000000000000006044820152606490fd5b610d249150893d8b116106f0576106e18183611f4f565b38610bb2565b87513d8c823e3d90fd5b610d4b91508a3d8c116106f0576106e18183611f4f565b38610b84565b88513d8d823e3d90fd5b61071891508b3d8d116106f0576106e18183611f4f565b503461020e57602036600319011261020e578160209360ff923581526003855220541690519015158152f35b828434610751578060031936011261075157508051600091600b54610dc281611e3d565b808452906001908181169081156109405750600114610dec5750506108df826108f1940383611f4f565b600b60009081529450600080516020612efa8339815191525b828610610e1f57505050918101602001916108df826108ce565b80546020878701810191909152909501948101610e05565b503461020e576020806003193601126103cd5781359160ff855460a01c1681811015610f39576001610e699114611f71565b600f548451631dc82a7560e01b81528083018590526001600160a01b039291831691908481602481865afa80156106f7578592610eb560249289948c91610f1c575b50871630146120a2565b885194859384926331a9108f60e11b84528301525afa908115610f125760019261074e969492610eee928991610efb5750163314612106565b838652528320549061214f565b6107189150843d86116106f0576106e18183611f4f565b85513d88823e3d90fd5b610f339150863d88116106f0576106e18183611f4f565b38610eab565b634e487b7160e01b865260218252602486fd5b5050346104ec57816003193601126104ec5760209060ff600a5460101c1690519015158152f35b5050346104ec57816003193601126104ec57905490516001600160a01b039091168152602090f35b5050346104ec57816003193601126104ec5760105490516001600160a01b039091168152602090f35b503461020e57602036600319011261020e573560095481101561020e576020925060096000527f6e1540171b6c0c960b71a7020d9f60077f6af931a8bbf590da0223dacf75c7af01549051908152f35b50602090816003193601126103cd5780359060ff855460a01c1681811015610f395760016110429114611f71565b61105b6801bc16d674ec80000061025960055434611fb6565b600f548451631dc82a7560e01b8152828101849052906001600160a01b039081168583602481845afa9283156106f75760249387936110a3928b926106c857501630146120a2565b865192838092634f558e7960e01b825287878301525afa908115610f1257869161114e575b50156111175750908160019285528282526110f36110e93486882054611fb6565b6007541015612037565b8452528120611103348254611fb6565b905561111134600554611fb6565b60055580f35b835162461bcd60e51b815290810183905260116024820152701a5908191bd95cc81b9bdd08195e1a5cdd607a1b6044820152606490fd5b61116e9150843d8611611174575b6111668183611f4f565b8101906120ee565b386110c8565b503d61115c565b5050346104ec57816003193601126104ec576020906005549051908152f35b83346107515780600319360112610751576111b3612e61565b600080546001600160a01b0319811682556001600160a01b03167f8be0079c531659141344cd1fd0a4f28419497f9722a3daafe3b4186f6b6457e08280a380f35b5091346107515760203660031901126107515750610a1360209235612c31565b5050346104ec57816003193601126104ec57600f5490516001600160a01b039091168152602090f35b828434610751578060031936011261075157508051600091600d5461126181611e3d565b80845290600190818116908115610940575060011461128b5750506108df826108f1940383611f4f565b600d60009081529450600080516020612eda8339815191525b8286106112be57505050918101602001916108df826108ce565b805460208787018101919091529095019481016112a4565b503461020e576112e536611dd3565b936112f4989698939193612e61565b600a5460101c60ff161561137e575050505050926113159192933691612232565b6020815191012081516113328161132b81611e77565b0382611f4f565b60208151910120036113495750505b61074e6122a3565b906020606492519162461bcd60e51b8352820152600f60248201526e0e0eac496caf240dad2e6dac2e8c6d608b1b6044820152fd5b9295509295509261138e966126ca565b611341565b8284346107515780600319360112610751579080519182906009549182855260208095018093600984527f6e1540171b6c0c960b71a7020d9f60077f6af931a8bbf590da0223dacf75c7af90845b81811061143257505050816113f7910382611f4f565b83519485948186019282875251809352850193925b82811061141b57505050500390f35b83518552869550938101939281019260010161140c565b8254845292880192600192830192016113e1565b508290346104ec5761145736611d8f565b9160ff845460a01c16818110156115c55760016114749114611f71565b600f548551631dc82a7560e01b81528281018490526020916001600160a01b0391908216908381602481855afa9081156115bb57916114c285926024948b9161159e575b50851630146120a2565b8951928380926331a9108f60e11b825289898301525afa90811561159457906114f5929188916115775750163314612106565b828552600181528585205461150c85600854611fb6565b1161151c578461074e858561214f565b855162461bcd60e51b815291820152603060248201527f696e76616c696420616d6f756e742c207769746864726177206c657373206f7260448201526f081d5cd9481dda5d1a191c985dd05b1b60821b606482015260849150fd5b61158e9150843d86116106f0576106e18183611f4f565b8961061b565b88513d89823e3d90fd5b6115b59150843d86116106f0576106e18183611f4f565b8c6114b8565b89513d8a823e3d90fd5b634e487b7160e01b855260218252602485fd5b50903461020e57602036600319011261020e5782823560018060a01b039384600f54169484516331a9108f60e11b815283838201526020816024818a5afa90811561168d5790611632929186916116755750163314612106565b843b1561020e576024908385519687948593630852cd8d60e31b85528401525af190811561166c5750611663575080f35b61074e90611f09565b513d84823e3d90fd5b610718915060203d81116106f0576106e18183611f4f565b86513d87823e3d90fd5b5050346104ec57816003193601126104ec576020906006549051908152f35b8334610751578060031936011261075157611341612e61565b509190346104ec5760208060031936011261020e5783359360018060a01b03918083600f5416855191828092631dc82a7560e01b82528a8783015260249485915afa908115611a7d579061172d918891611b505750851630146120a2565b60ff865460a01c1683811015611b3e5760018114611afc576064471115611aac57600314611aa4578360115416828651818101906f636f6e74726163742e6164647265737360801b82526a4672656e734f7261636c6560a81b6030820152601b815261179881611f33565b519020838851809481936321f8a72160e01b8352898301525afa908115611a7d578583899386938591611a87575b50895163404df7b160e11b815230898201529485938492165af1908115611a7d578791611a60575b50905b6117fa88612bbe565b9188885260028452868820611810848254611fb6565b905561181e83600654611fb6565b600655856011541690875185810190731c1c9bdd1bd8dbdb0b9999594b9c195c98d95b9d60621b82526014815261185481611f33565b5190209088519163bd02d0f560e01b83528783015285828581865afa918215611a56578a92611a23575b508115159081611a1a575b50611911575b50508697839186600f999899541695895196879384926331a9108f60e11b84528301525afa801561168d5785948594859485936118f2575b5050839183156118e8575b1690f1156118de575080f35b51903d90823e3d90fd5b6108fc92506118d2565b611909929350803d106106f0576106e18183611f4f565b9038806118c7565b8488949293945181810190751c1c9bdd1bd8dbdb0b9999594b9c9958da5c1a595b9d60521b82526016815261194581611f33565b519020858a51809681936321f8a72160e01b83528b8301525afa92831561071e5789936119f2575b5061197a82606492612bab565b0491600183116119a3575b50976119968492899a999899612142565b929181995097969761188f565b6000198301999190838b116119e05798808080809d819c9d8c839183156119d6575b1690f1156115945790989796611985565b6108fc92506119c5565b634e487b7160e01b8a5260118752848afd5b606491935082611a1161197a92883d8a116106f0576106e18183611f4f565b9492505061196d565b90501538611889565b9091508581813d8311611a4f575b611a3b8183611f4f565b81010312611a4b5751903861187e565b8980fd5b503d611a31565b89513d8c823e3d90fd5b611a779150833d8511611174576111668183611f4f565b386117ee565b86513d89823e3d90fd5b611a9e9150843d86116106f0576106e18183611f4f565b386117c6565b6001906117f1565b855162461bcd60e51b81528085018490526025818401527f6d7573742062652067726561746572207468616e203130302077656920746f20604482015264636c61696d60d81b6064820152608490fd5b855162461bcd60e51b8152808501849052601c818401527f757365207769746864726177207768656e206e6f74207374616b6564000000006044820152606490fd5b50634e487b7160e01b86526021835285fd5b611b679150843d86116106f0576106e18183611f4f565b386114b8565b5050346104ec57816003193601126104ec5760115490516001600160a01b039091168152602090f35b503461020e57602036600319011261020e5760209282913581526001845220549051908152f35b503461020e57602036600319011261020e5760209282913581526002845220549051908152f35b50903461020e578260031936011261020e5760018060a01b03806011541660208351818101906f636f6e74726163742e6164647265737360801b82526a4672656e734f7261636c6560a81b6030820152601b8152611c4181611f33565b51902060248551809481936321f8a72160e01b8352898301525afa908115611ce8578591611cca575b50163303611c8757825460ff60a01b1916600360a01b1783558280f35b906020606492519162461bcd60e51b8352820152601860248201527f6d7573742062652063616c6c6564206279206f7261636c6500000000000000006044820152fd5b611ce2915060203d81116106f0576106e18183611f4f565b38611c6a565b83513d87823e3d90fd5b5050346104ec57816003193601126104ec576108f190611d10612d45565b9051918291602083526020830190611d6a565b8490346104ec57816003193601126104ec5760209060ff600a5460081c1615158152f35b60005b838110611d5a5750506000910152565b8181015183820152602001611d4a565b90602091611d8381518092818552858086019101611d47565b601f01601f1916010190565b604090600319011261042b576004359060243590565b9181601f8401121561042b5782359167ffffffffffffffff831161042b576020838186019501011161042b57565b90608060031983011261042b5767ffffffffffffffff60043581811161042b5783611e0091600401611da5565b9390939260243583811161042b5782611e1b91600401611da5565b9390939260443591821161042b57611e3591600401611da5565b909160643590565b90600182811c92168015611e6d575b6020831014611e5757565b634e487b7160e01b600052602260045260246000fd5b91607f1691611e4c565b600b5460009291611e8782611e3d565b80825291600190818116908115611eec5750600114611ea557505050565b91929350600b600052600080516020612efa833981519152916000925b848410611ed457505060209250010190565b80546020858501810191909152909301928101611ec2565b915050602093945060ff929192191683830152151560051b010190565b67ffffffffffffffff8111611f1d57604052565b634e487b7160e01b600052604160045260246000fd5b6040810190811067ffffffffffffffff821117611f1d57604052565b90601f8019910116810190811067ffffffffffffffff821117611f1d57604052565b15611f7857565b60405162461bcd60e51b81526020600482015260166024820152756e6f7420616363657074696e67206465706f7369747360501b6044820152606490fd5b91908201809211611fc357565b634e487b7160e01b600052601160045260246000fd5b15611fe057565b60405162461bcd60e51b815260206004820152602960248201527f746f74616c206465706f736974732063616e6e6f74206265206d6f72652074686044820152680c2dc406664408ae8d60bb1b6064820152608490fd5b1561203e57565b60405162461bcd60e51b815260206004820152601e60248201527f61626f7665206d6178696d756d206465706f73697420666f7220706f6f6c00006044820152606490fd5b9081602091031261042b57516001600160a01b038116810361042b5790565b156120a957565b60405162461bcd60e51b815260206004820152601960248201527f77726f6e67207374616b696e6720706f6f6c20666f72206964000000000000006044820152606490fd5b9081602091031261042b5751801515810361042b5790565b1561210d57565b60405162461bcd60e51b815260206004820152600d60248201526c3737ba103a34329037bbb732b960991b6044820152606490fd5b91908203918211611fc357565b9060009180835260016020526040832061216a838254612142565b905561217882600554612142565b600555600f546040516331a9108f60e11b815260048101929092526001600160a01b03906020908390602490829085165afa91821561220b57849384938493849384926121eb575b50839183156121e1575b1690f1156121d55750565b604051903d90823e3d90fd5b6108fc92506121ca565b61220491925060203d81116106f0576106e18183611f4f565b90386121c0565b6040513d86823e3d90fd5b67ffffffffffffffff8111611f1d57601f01601f191660200190565b92919261223e82612216565b9161224c6040519384611f4f565b82948184528183011161042b578281602093846000960137010152565b1561227057565b60405162461bcd60e51b815260206004820152600b60248201526a77726f6e6720737461746560a81b6044820152606490fd5b6801bc16d674ec8000009081471061269457816005540361265957600080549260ff8460a01c169360049485811015612646576122e36001809214612269565b60ff600a5460101c161561260e5760018060a01b039384601154166040958651602095868201937f65787465726e616c2e636f6e74726163742e616464726573730000000000000085526e11195c1bdcda5d10dbdb9d1c9858dd608a1b603984015260288352606083019067ffffffffffffffff95848310878411176125fa57828c52845190206321f8a72160e01b835260648501528890829060249082905afa9283156125f05786936125bb575b505060ff60a01b1916600160a11b178455600e54911695863b156103cd5787516304512a2360e31b815260808b820152948492869291906123d560848501611e77565b60031985820381016024870152600c548794926123f182611e3d565b918282528d858216918260001461259c575050600114612553575b50508584030160448601528592600d549161242683611e3d565b92838352878d8383169283600014612532575050506001146124e6575b5050508391829160648301520391895af180156124dc57612493575b5050507f72b356fd889b9abd3530accd2c9f4aecbce67d70757181f9f862ac91464ce19293945082519182523390820152a1565b82116124c957507f72b356fd889b9abd3530accd2c9f4aecbce67d70757181f9f862ac91464ce19294955083528493388061245f565b634e487b7160e01b815260418752602490fd5b86513d84823e3d90fd5b918b939450600d8852600080516020612eda8339815191529288935b82851061251757505050010190808480612443565b80548486018701528b99508c98508d95909401938101612502565b60ff19168582015294151560051b9093019093019450839250819050612443565b8c929550600c8952600080516020612eba8339815191529189925b818410612581575050010192388061240c565b80548385018601528c9a508d99508e9490930192850161256e565b60ff19168382015292151560051b90910190910194503890508061240c565b6125e092935060609089903d8b116125e8575b6125d88285611f4f565b010190612083565b903880612392565b3d91506125ce565b8a513d88823e3d90fd5b50634e487b7160e01b875260418d52602487fd5b60405162461bcd60e51b815260208188015260116024820152701d985b1a59185d1bdc881b9bdd081cd95d607a1b6044820152606490fd5b634e487b7160e01b845260218652602484fd5b60405162461bcd60e51b81526020600482015260136024820152726e6f7420656e6f756768206465706f7369747360681b6044820152606490fd5b60405162461bcd60e51b815260206004820152600e60248201526d0dcdee840cadcdeeaced040cae8d60931b6044820152606490fd5b929094939194600160f81b300190813011611fc3576040516020928382019081528382526126f782611f33565b61270236868b612232565b8481519101209151902003612b6657600a5460ff8116612afe575b5060009260ff845460a01c16976004891015612aea576127406001809a14612269565b67ffffffffffffffff92838111612ad6578061275d600b54611e3d565b98601f998a8111612a7b575b5087908a8311600114612a055788926129fa575b5050600019600383901b1c1916908a1b17600b555b8282116129e65781906127a6600c54611e3d565b88811161298b575b50859088831160011461291e578692612913575b5050600019600383901b1c191690881b17600c555b85116128ff576127e8600d54611e3d565b8481116128af575b508193851160011461283d575091839491849394612832575b50501b916000199060031b1c191617600d555b600e556201000062ff000019600a541617600a55565b013592503880612809565b600d8252600080516020612eda83398151915293918591601f19831691905b88838310612895575050501061287b575b505050811b01600d5561281c565b0135600019600384901b60f8161c1916905538808061286d565b86860135885590960195938401938793509081019061285c565b600d8352600080516020612eda8339815191528580880160051c8201928489106128f6575b0160051c019087905b8281106128eb5750506127f0565b8481550187906128dd565b925081926128d4565b634e487b7160e01b82526041600452602482fd5b0135905038806127c2565b600c87528a9350600080516020612eba83398151915291601f198416885b88828210612975575050841161295b575b505050811b01600c556127d7565b0135600019600384901b60f8161c1916905538808061294d565b8385013586558e9790950194928301920161293c565b909150600c8652600080516020612eba8339815191528880850160051c8201928786106129dd575b918c91869594930160051c01915b8281106129cf5750506127ae565b8881558594508c91016129c1565b925081926129b3565b634e487b7160e01b85526041600452602485fd5b01359050388061277d565b600b89528c9350600080516020612efa83398151915291601f1984168a5b8a828210612a5c5750508411612a42575b505050811b01600b55612792565b0135600019600384901b60f8161c19169055388080612a34565b91929596849587849396013581550195019201908e9594939291612a23565b909150600b8852600080516020612efa8339815191528a80850160051c820192898610612acd575b918e91869594930160051c01915b828110612abf575050612769565b8a81558594508e9101612ab1565b92508192612aa3565b634e487b7160e01b86526041600452602486fd5b634e487b7160e01b85526021600452602485fd5b60009081549060ff8260a01c166004811015612b525790612b2160ff9215612269565b60101c16612b3e5760ff60a01b1916600160a01b1790553861271d565b634e487b7160e01b82526001600452602482fd5b634e487b7160e01b84526021600452602484fd5b60405162461bcd60e51b815260048101839052601e60248201527f7769746864726177616c2063726564656e7469616c206d69736d6174636800006044820152606490fd5b81810292918115918404141715611fc357565b4715612c2b576000908152600160205260408120546002602052612bf4604083205491612bee4760065490611fb6565b90612bab565b600554908115612c1757048015612c1257612c0f9250612142565b90565b505090565b634e487b7160e01b84526012600452602484fd5b50600090565b600060ff815460a01c16916004831015612d315760018303612c535750905090565b612c5c90612bbe565b9160018060a01b0360115416602060405181810190731c1c9bdd1bd8dbdb0b9999594b9c195c98d95b9d60621b825260148152612c9881611f33565b51902060246040518094819363bd02d0f560e01b835260048301525afa9283156121d5578093612cfb575b50508115159081612cef575b50612cd8575090565b906064612ce882612c0f94612bab565b0490612142565b60039150141538612ccf565b909192506020823d8211612d29575b81612d1760209383611f4f565b81010312610751575051903880612cc3565b3d9150612d0a565b634e487b7160e01b82526021600452602482fd5b60ff60005460a01c166004811015612e4b578015612e115760028114612dee5760018114612dbf57600314612d9d57604051612d8081611f33565b600d81526c7374617465206661696c75726560981b602082015290565b604051612da981611f33565b6006815265195e1a5d195960d21b602082015290565b50604051612dcc81611f33565b6012815271616363657074696e67206465706f7369747360701b602082015290565b50604051612dfb81611f33565b60068152651cdd185ad95960d21b602082015290565b50604051612e1e81611f33565b601781527f6177616974696e672076616c696461746f7220696e666f000000000000000000602082015290565b634e487b7160e01b600052602160045260246000fd5b6000546001600160a01b03163303612e7557565b606460405162461bcd60e51b815260206004820152602060248201527f4f776e61626c653a2063616c6c6572206973206e6f7420746865206f776e65726044820152fdfedf6966c971051c3d54ec59162606531493a51404a002842f56009d7e5cf4a8c7d7b6990105719101dabeb77144f2a3385c8033acd3af97e9423a695e81ad1eb50175b7a638427703f0dbe7bb9bbf987a2551717b34e79f33b5b1008d1fa01db9a264697066735822122073aa72189205c2d4256fe97e10083349114aab226b2dd1dbf1ee9285f6091a2664736f6c63430008110033a264697066735822122053c0faba3bb673efd903345cec8bdac2397b1546041dcaf7da4e343033b017c364736f6c63430008110033",
    "linkReferences": {}
  },
  "methodIdentifiers": {
    "create(address,bool,bool,uint256,uint256)": "e403e1ae"
  },
  "id": 7
}