{
  "abi": [
    {
      "inputs": [
        {
          "internalType": "contract IFrensStorage",
          "name": "frensStorage_",
          "type": "address"
        }
      ],
      "stateMutability": "nonpayable",
      "type": "constructor"
    },
    {
      "anonymous": false,
      "inputs": [
        {
          "indexed": true,
          "internalType": "address",
          "name": "contractAddress",
          "type": "address"
        },
        {
          "indexed": false,
          "internalType": "address",
          "name": "creator",
          "type": "address"
        },
        {
          "indexed": false,
          "internalType": "address",
          "name": "owner",
          "type": "address"
        }
      ],
      "name": "Create",
      "type": "event"
    },
    {
      "inputs": [
        {
          "internalType": "address",
          "name": "_owner",
          "type": "address"
        },
        {
          "internalType": "bool",
          "name": "_validatorLocked",
          "type": "bool"
        },
        {
          "internalType": "bool",
          "name": "_frensLocked",
          "type": "bool"
        },
        {
          "internalType": "uint256",
          "name": "_poolMin",
          "type": "uint256"
        },
        {
          "internalType": "uint256",
          "name": "_poolMax",
          "type": "uint256"
        }
      ],
      "name": "create",
      "outputs": [
        {
          "internalType": "address",
          "name": "",
          "type": "address"
        }
      ],
      "stateMutability": "nonpayable",
      "type": "function"
    }
  ],
  "bytecode": {
    "object": "0x608060409080825234610153578061362a803803809161001f8285610158565b833960209283918101031261015357516001600160a01b0380821692909183900361015357600180546001600160a01b0319908116851790915584516f636f6e74726163742e6164647265737360801b8382019081526d4672656e73506f6f6c536861726560901b6030830152601e825291949092838701929091906001600160401b0384118585101761013d5760248484938193828c52885190206321f8a72160e01b835260448901525afa928315610132576000936100f5575b50505016906000541617600055516134ae908161017c8239f35b813d831161012b575b6101088185610158565b81010312610127575190828216820361012457503880806100db565b80fd5b5080fd5b503d6100fe565b86513d6000823e3d90fd5b634e487b7160e01b600052604160045260246000fd5b600080fd5b601f909101601f19168101906001600160401b0382119082101761013d5760405256fe6080604090808252600436101561001557600080fd5b600091823560e01c63e403e1ae1461002c57600080fd5b346101945760a0366003190112610194576001600160a01b039160043583811691908290036101be57602435918215158093036101ba576044358015158091036101b6578560015416906132b6948585019367ffffffffffffffff96868610888711176101a2579286959260c095928c9998956101c3873984526020840152888301526064356060830152608435608083015260a082015203019083f09384156101985780835416941693803b156101945782906044855180958193632f2ff15d60e01b83527f9f2df0fed2c77648de5860a4cc508cd0818c85b8b8a1ab4ceeef8d981c8956a660048401528960248401525af1801561018a57610163575b60208484817fb224da6575b2c2ffd42454faedb236f7dbe5f92a0c96bb99c0273dbe98464c7e8280513381523087820152a251908152f35b811161017657602093508152388061012b565b634e487b7160e01b84526041600452602484fd5b83513d87823e3d90fd5b8280fd5b83513d84823e3d90fd5b634e487b7160e01b8b52604160045260248bfd5b8680fd5b8580fd5b8480fdfe608060409080825234620002a55760c081620032b68038038091620000258285620002dc565b833981010312620002a5576200003b8162000300565b9060206200004b81830162000315565b6200005885840162000315565b60608401519260a060808601519501519060018060a01b0390818316809303620002a557620000873362000323565b60018060a01b0319928084601154161760115589518281016f636f6e74726163742e6164647265737360801b9182825267119c995b9cd05c9d60c21b603082015260188152620000d781620002aa565b5190208b51916321f8a72160e01b9182845260048401528483602481875afa9283156200029a578593879160009162000251575b509060249291168860105416176010558d518481019182526d4672656e73506f6f6c536861726560901b6030820152601e81526200014981620002aa565b519020918d519485938492835260048301525afa9182156200024657600092620001ee575b50509161ff00959391620001c7989795931690600f541617600f5560ff600a5492151516948591151560081b169161ffff19161717600a55600855600755600014620001d5576000805460ff60a01b1916905562000323565b51612f4b90816200036b8239f35b6000805460ff60a01b1916600160a01b17905562000323565b81819392933d83116200023e575b620002088183620002dc565b810103126200023b57509161ff009593916200022b620001c79998969462000300565b919395979881939597506200016e565b80fd5b503d620001fc565b8a513d6000823e3d90fd5b85819495969293503d831162000292575b6200026e8183620002dc565b810103126200023b5750849291866200028960249362000300565b9091926200010b565b503d62000262565b8d513d6000823e3d90fd5b600080fd5b604081019081106001600160401b03821117620002c657604052565b634e487b7160e01b600052604160045260246000fd5b601f909101601f19168101906001600160401b03821190821017620002c657604052565b51906001600160a01b0382168203620002a557565b51908115158203620002a557565b600080546001600160a01b039283166001600160a01b03198216811783559216907f8be0079c531659141344cd1fd0a4f28419497f9722a3daafe3b4186f6b6457e09080a356fe6080604081815260048036101561001e575b505050361561001c57005b005b600092833560e01c90816312686aae14611d1f575080631865c57d14611cee5780632991795414611be05780632cf2cd4814611bb95780632daad61d14611b9257806330dbf88714611b69578063379607f5146116cb5780633a4b66f1146116b257806341c613831461169357806342966c68146115d4578063441a3e701461144257806345b58fe41461138f5780634b2b4e36146112d257806351ff484714611239578063591167c714611210578063678e300a146111f0578063715018a6146111965780637d882097146111775780638620891c14611010578063888e9cf814610fc05780638ae578fd14610f975780638da5cb5b14610f6f5780639426e22614610f48578063958e2d3114610e33578063ac2a5dfd14610d9a578063b45a3c0e14610d6e578063be85879814610aba578063bed62f3514610a5b578063cd8df8a614610a3c578063cfb5a5f8146109ab578063e2d9ae3e1461098c578063e3f05d8314610968578063e4a5027614610890578063e6b1a3ae14610754578063e920eec014610728578063f038afe3146105c4578063f2fde38b146104f0578063f8f306e1146104cd578063f9faa104146102125763fc03bad203610011573461020e57602036600319011261020e5791828293358252602052206001815491015482519182526020820152f35b8280fd5b508260031936011261020e5734156104965760ff835460a01c16818110156104835760016102409114611f6d565b6102606801bc16d674ec80000061025960055434611fb2565b1115611fd5565b600854341061044157610277600754341115612033565b600f5482516318160ddd60e01b81529260209290916001600160a01b0390849086908490829085165afa948515610437578695610403575b508486526001845234838720556102c834600554611fb2565b600555600954680100000000000000008110156103f05760018101806009558110156103db57908587939260096000527f6e1540171b6c0c960b71a7020d9f60077f6af931a8bbf590da0223dacf75c7af01558583526002855260018484205560ff600a5460081c16600386528484209060ff801983541691151516179055600f541690813b1561020e57829160248392865194859384926335313c2160e11b845233908401525af180156103d1576103b5575b507fd91527a40417d48f76ba016aaa9157e2ddaca6cb5b660432901659cb075058fc60608486858051923484523390840152820152a180f35b6103c190939293611f05565b6103cd5790833861037c565b8380fd5b83513d84823e3d90fd5b603283634e487b7160e01b6000525260246000fd5b634e487b7160e01b875260418352602487fd5b9094508381813d8311610430575b61041b8183611f4b565b8101031261042b575193386102af565b600080fd5b503d610411565b83513d88823e3d90fd5b6020606492519162461bcd60e51b8352820152601e60248201527f62656c6f77206d696e696d756d206465706f73697420666f7220706f6f6c00006044820152fd5b634e487b7160e01b845260218252602484fd5b6020606492519162461bcd60e51b8352820152601260248201527136bab9ba103232b837b9b4ba1032ba3432b960711b6044820152fd5b5050346104ec57816003193601126104ec576020906008549051908152f35b5080fd5b50903461020e57602036600319011261020e576001600160a01b038235818116939192908490036105c057610523612e5d565b831561056e575050600054826bffffffffffffffffffffffff60a01b821617600055167f8be0079c531659141344cd1fd0a4f28419497f9722a3daafe3b4186f6b6457e0600080a380f35b906020608492519162461bcd60e51b8352820152602660248201527f4f776e61626c653a206e6577206f776e657220697320746865207a65726f206160448201526564647265737360d01b6064820152fd5b8480fd5b503461020e576105d336611d8b565b600f5484516331a9108f60e11b815280850184905291939260209290916001600160a01b03908116918481602481865afa92831561071e576106248360249588948d91610701575b50163314612102565b885193848092631dc82a7560e01b8252878a8301525afa9081156106f7576106569289926106c8575b5016301461209e565b808652600182528486205484116106795785525281832055600142918320015580f35b845162461bcd60e51b81528084018390526024808201527f63616e6e6f742073657420707269636520686967686572207468616e206465706044820152631bdcda5d60e21b6064820152608490fd5b6106e9919250853d87116106f0575b6106e18183611f4b565b81019061207f565b903861064d565b503d6106d7565b87513d8a823e3d90fd5b6107189150853d87116106f0576106e18183611f4b565b3861061b565b88513d8b823e3d90fd5b83346107515761074e61073a36611dcf565b95610749959195949294612e5d565b6126c6565b80f35b80fd5b503461020e576020806003193601126103cd5781356001600160a01b03811693908490036105c057610784612e5d565b805163516b636d60e11b81526001848201528581602481885afa908115610886578691610809575b5051156107d1575050506bffffffffffffffffffffffff60a01b601054161760105580f35b5162461bcd60e51b81529182015260146024820152731a5b9d985b1a5908185c9d0818dbdb9d1c9858dd60621b604482015260649150fd5b90503d8087833e61081a8183611f4b565b81019083818303126108825780519067ffffffffffffffff821161087e570181601f8201121561088257805161084f81612212565b9261085c85519485611f4b565b81845285828401011161087e5761087891858085019101611d43565b386107ac565b8780fd5b8680fd5b82513d88823e3d90fd5b828434610751578060031936011261075157508051600091600c546108b481611e39565b8084529060019081811690811561094057506001146108f5575b50506108df826108f1940383611f4b565b51918291602083526020830190611d66565b0390f35b600c60009081529450600080516020612eb68339815191525b82861061092857505050918101602001916108df826108ce565b8054602087870181019190915290950194810161090e565b6108f1965085925060209150926108df9360ff191682840152151560051b82010194506108ce565b5050346104ec57816003193601126104ec5760209060ff600a541690519015158152f35b5050346104ec57816003193601126104ec57602090600e549051908152f35b503461020e57602036600319011261020e57600f548251631dc82a7560e01b81528235928101839052906001600160a01b03906020908390602490829085165afa918215610a325791610a0e91610a13949360209792610a1a575016301461209e565b612bba565b9051908152f35b6106e9919250873d81116106f0576106e18183611f4b565b84513d87823e3d90fd5b5050346104ec57816003193601126104ec576020906007549051908152f35b503461020e57602036600319011261020e5780359081845280602052600183852001549062093a808201809211610aa75750421061020e57825260036020528120805460ff1916905580f35b634e487b7160e01b855260119052602484fd5b5090610ac536611d8b565b600f5483516331a9108f60e11b8082528187018490526001600160a01b039660209695946024949193918916929188818781875afa908115610d2657610b16918b918d91610d575750163314612102565b8651631dc82a7560e01b8082528582018390529089818881885afa908115610d4d5790610b4e918d91610d30575b508b16301461209e565b8751908152868582015288818781875afa908115610d265790610b7c918c91610d09575b508a16301461209e565b858a52838852868a20543410610cc7578514610c915790868493928a95885180948193825289878301525afa908115610c87579088918591610c6a575b501683803415610c61575b81808092853491f115610c5757848452600387528584209760ff1998898154169055600f5416803b156105c05784928360649289519687958694632142170760e11b865285015233908401528860448401525af18015610c4d57610c39575b5092600391600194525283209182541617905580f35b610c4290611f05565b6105c0578438610c23565b84513d84823e3d90fd5b85513d85823e3d90fd5b506108fc610bc4565b610c819150883d8a116106f0576106e18183611f4b565b38610bb9565b86513d86823e3d90fd5b855162461bcd60e51b81528084018890526011818601527018d85b89dd081cd95b1988189d5e5bdd5d607a1b6044820152606490fd5b865162461bcd60e51b81528085018990526017818701527f6d7573742073656e6420636f72726563742076616c75650000000000000000006044820152606490fd5b610d2091508a3d8c116106f0576106e18183611f4b565b38610b72565b88513d8d823e3d90fd5b610d4791508b3d8d116106f0576106e18183611f4b565b38610b44565b89513d8e823e3d90fd5b61071891508b3d8d116106f0576106e18183611f4b565b503461020e57602036600319011261020e578160209360ff923581526003855220541690519015158152f35b828434610751578060031936011261075157508051600091600b54610dbe81611e39565b808452906001908181169081156109405750600114610de85750506108df826108f1940383611f4b565b600b60009081529450600080516020612ef68339815191525b828610610e1b57505050918101602001916108df826108ce565b80546020878701810191909152909501948101610e01565b503461020e576020806003193601126103cd5781359160ff855460a01c1681811015610f35576001610e659114611f6d565b600f548451631dc82a7560e01b81528083018590526001600160a01b039291831691908481602481865afa80156106f7578592610eb160249289948c91610f18575b508716301461209e565b885194859384926331a9108f60e11b84528301525afa908115610f0e5760019261074e969492610eea928991610ef75750163314612102565b838652528320549061214b565b6107189150843d86116106f0576106e18183611f4b565b85513d88823e3d90fd5b610f2f9150863d88116106f0576106e18183611f4b565b38610ea7565b634e487b7160e01b865260218252602486fd5b5050346104ec57816003193601126104ec5760209060ff600a5460101c1690519015158152f35b5050346104ec57816003193601126104ec57905490516001600160a01b039091168152602090f35b5050346104ec57816003193601126104ec5760105490516001600160a01b039091168152602090f35b503461020e57602036600319011261020e573560095481101561020e576020925060096000527f6e1540171b6c0c960b71a7020d9f60077f6af931a8bbf590da0223dacf75c7af01549051908152f35b50602090816003193601126103cd5780359060ff855460a01c1681811015610f3557600161103e9114611f6d565b6110576801bc16d674ec80000061025960055434611fb2565b600f548451631dc82a7560e01b8152828101849052906001600160a01b039081168583602481845afa9283156106f757602493879361109f928b926106c8575016301461209e565b865192838092634f558e7960e01b825287878301525afa908115610f0e57869161114a575b50156111135750908160019285528282526110ef6110e53486882054611fb2565b6007541015612033565b84525281206110ff348254611fb2565b905561110d34600554611fb2565b60055580f35b835162461bcd60e51b815290810183905260116024820152701a5908191bd95cc81b9bdd08195e1a5cdd607a1b6044820152606490fd5b61116a9150843d8611611170575b6111628183611f4b565b8101906120ea565b386110c4565b503d611158565b5050346104ec57816003193601126104ec576020906005549051908152f35b83346107515780600319360112610751576111af612e5d565b600080546001600160a01b0319811682556001600160a01b03167f8be0079c531659141344cd1fd0a4f28419497f9722a3daafe3b4186f6b6457e08280a380f35b5091346107515760203660031901126107515750610a1360209235612c2d565b5050346104ec57816003193601126104ec57600f5490516001600160a01b039091168152602090f35b828434610751578060031936011261075157508051600091600d5461125d81611e39565b8084529060019081811690811561094057506001146112875750506108df826108f1940383611f4b565b600d60009081529450600080516020612ed68339815191525b8286106112ba57505050918101602001916108df826108ce565b805460208787018101919091529095019481016112a0565b503461020e576112e136611dcf565b936112f0989698939193612e5d565b600a5460101c60ff161561137a57505050505092611311919293369161222e565b60208151910120815161132e8161132781611e73565b0382611f4b565b60208151910120036113455750505b61074e61229f565b906020606492519162461bcd60e51b8352820152600f60248201526e0e0eac496caf240dad2e6dac2e8c6d608b1b6044820152fd5b9295509295509261138a966126c6565b61133d565b8284346107515780600319360112610751579080519182906009549182855260208095018093600984527f6e1540171b6c0c960b71a7020d9f60077f6af931a8bbf590da0223dacf75c7af90845b81811061142e57505050816113f3910382611f4b565b83519485948186019282875251809352850193925b82811061141757505050500390f35b835185528695509381019392810192600101611408565b8254845292880192600192830192016113dd565b508290346104ec5761145336611d8b565b9160ff845460a01c16818110156115c15760016114709114611f6d565b600f548551631dc82a7560e01b81528281018490526020916001600160a01b0391908216908381602481855afa9081156115b757916114be85926024948b9161159a575b508516301461209e565b8951928380926331a9108f60e11b825289898301525afa90811561159057906114f1929188916115735750163314612102565b828552600181528585205461150885600854611fb2565b11611518578461074e858561214b565b855162461bcd60e51b815291820152603060248201527f696e76616c696420616d6f756e742c207769746864726177206c657373206f7260448201526f081d5cd9481dda5d1a191c985dd05b1b60821b606482015260849150fd5b61158a9150843d86116106f0576106e18183611f4b565b8961061b565b88513d89823e3d90fd5b6115b19150843d86116106f0576106e18183611f4b565b8c6114b4565b89513d8a823e3d90fd5b634e487b7160e01b855260218252602485fd5b50903461020e57602036600319011261020e5782823560018060a01b039384600f54169484516331a9108f60e11b815283838201526020816024818a5afa908115611689579061162e929186916116715750163314612102565b843b1561020e576024908385519687948593630852cd8d60e31b85528401525af1908115611668575061165f575080f35b61074e90611f05565b513d84823e3d90fd5b610718915060203d81116106f0576106e18183611f4b565b86513d87823e3d90fd5b5050346104ec57816003193601126104ec576020906006549051908152f35b833461075157806003193601126107515761133d612e5d565b509190346104ec5760208060031936011261020e5783359360018060a01b03918083600f5416855191828092631dc82a7560e01b82528a8783015260249485915afa908115611a795790611729918891611b4c57508516301461209e565b60ff865460a01c1683811015611b3a5760018114611af8576064471115611aa857600314611aa0578360115416828651818101906f636f6e74726163742e6164647265737360801b82526a4672656e734f7261636c6560a81b6030820152601b815261179481611f2f565b519020838851809481936321f8a72160e01b8352898301525afa908115611a79578583899386938591611a83575b50895163404df7b160e11b815230898201529485938492165af1908115611a79578791611a5c575b50905b6117f688612bba565b918888526002845286882061180c848254611fb2565b905561181a83600654611fb2565b600655856011541690875185810190731c1c9bdd1bd8dbdb0b9999594b9c195c98d95b9d60621b82526014815261185081611f2f565b5190209088519163bd02d0f560e01b83528783015285828581865afa918215611a52578a92611a1f575b508115159081611a16575b5061190d575b50508697839186600f999899541695895196879384926331a9108f60e11b84528301525afa80156116895785948594859485936118ee575b5050839183156118e4575b1690f1156118da575080f35b51903d90823e3d90fd5b6108fc92506118ce565b611905929350803d106106f0576106e18183611f4b565b9038806118c3565b8488949293945181810190751c1c9bdd1bd8dbdb0b9999594b9c9958da5c1a595b9d60521b82526016815261194181611f2f565b519020858a51809681936321f8a72160e01b83528b8301525afa92831561071e5789936119ee575b5061197682606492612ba7565b04916001831161199f575b50976119928492899a99989961213e565b929181995097969761188b565b6000198301999190838b116119dc5798808080809d819c9d8c839183156119d2575b1690f1156115905790989796611981565b6108fc92506119c1565b634e487b7160e01b8a5260118752848afd5b606491935082611a0d61197692883d8a116106f0576106e18183611f4b565b94925050611969565b90501538611885565b9091508581813d8311611a4b575b611a378183611f4b565b81010312611a475751903861187a565b8980fd5b503d611a2d565b89513d8c823e3d90fd5b611a739150833d8511611170576111628183611f4b565b386117ea565b86513d89823e3d90fd5b611a9a9150843d86116106f0576106e18183611f4b565b386117c2565b6001906117ed565b855162461bcd60e51b81528085018490526025818401527f6d7573742062652067726561746572207468616e203130302077656920746f20604482015264636c61696d60d81b6064820152608490fd5b855162461bcd60e51b8152808501849052601c818401527f757365207769746864726177207768656e206e6f74207374616b6564000000006044820152606490fd5b50634e487b7160e01b86526021835285fd5b611b639150843d86116106f0576106e18183611f4b565b386114b4565b5050346104ec57816003193601126104ec5760115490516001600160a01b039091168152602090f35b503461020e57602036600319011261020e5760209282913581526001845220549051908152f35b503461020e57602036600319011261020e5760209282913581526002845220549051908152f35b50903461020e578260031936011261020e5760018060a01b03806011541660208351818101906f636f6e74726163742e6164647265737360801b82526a4672656e734f7261636c6560a81b6030820152601b8152611c3d81611f2f565b51902060248551809481936321f8a72160e01b8352898301525afa908115611ce4578591611cc6575b50163303611c8357825460ff60a01b1916600360a01b1783558280f35b906020606492519162461bcd60e51b8352820152601860248201527f6d7573742062652063616c6c6564206279206f7261636c6500000000000000006044820152fd5b611cde915060203d81116106f0576106e18183611f4b565b38611c66565b83513d87823e3d90fd5b5050346104ec57816003193601126104ec576108f190611d0c612d41565b9051918291602083526020830190611d66565b8490346104ec57816003193601126104ec5760209060ff600a5460081c1615158152f35b60005b838110611d565750506000910152565b8181015183820152602001611d46565b90602091611d7f81518092818552858086019101611d43565b601f01601f1916010190565b604090600319011261042b576004359060243590565b9181601f8401121561042b5782359167ffffffffffffffff831161042b576020838186019501011161042b57565b90608060031983011261042b5767ffffffffffffffff60043581811161042b5783611dfc91600401611da1565b9390939260243583811161042b5782611e1791600401611da1565b9390939260443591821161042b57611e3191600401611da1565b909160643590565b90600182811c92168015611e69575b6020831014611e5357565b634e487b7160e01b600052602260045260246000fd5b91607f1691611e48565b600b5460009291611e8382611e39565b80825291600190818116908115611ee85750600114611ea157505050565b91929350600b600052600080516020612ef6833981519152916000925b848410611ed057505060209250010190565b80546020858501810191909152909301928101611ebe565b915050602093945060ff929192191683830152151560051b010190565b67ffffffffffffffff8111611f1957604052565b634e487b7160e01b600052604160045260246000fd5b6040810190811067ffffffffffffffff821117611f1957604052565b90601f8019910116810190811067ffffffffffffffff821117611f1957604052565b15611f7457565b60405162461bcd60e51b81526020600482015260166024820152756e6f7420616363657074696e67206465706f7369747360501b6044820152606490fd5b91908201809211611fbf57565b634e487b7160e01b600052601160045260246000fd5b15611fdc57565b60405162461bcd60e51b815260206004820152602960248201527f746f74616c206465706f736974732063616e6e6f74206265206d6f72652074686044820152680c2dc406664408ae8d60bb1b6064820152608490fd5b1561203a57565b60405162461bcd60e51b815260206004820152601e60248201527f61626f7665206d6178696d756d206465706f73697420666f7220706f6f6c00006044820152606490fd5b9081602091031261042b57516001600160a01b038116810361042b5790565b156120a557565b60405162461bcd60e51b815260206004820152601960248201527f77726f6e67207374616b696e6720706f6f6c20666f72206964000000000000006044820152606490fd5b9081602091031261042b5751801515810361042b5790565b1561210957565b60405162461bcd60e51b815260206004820152600d60248201526c3737ba103a34329037bbb732b960991b6044820152606490fd5b91908203918211611fbf57565b9060009180835260016020526040832061216683825461213e565b90556121748260055461213e565b600555600f546040516331a9108f60e11b815260048101929092526001600160a01b03906020908390602490829085165afa91821561220757849384938493849384926121e7575b50839183156121dd575b1690f1156121d15750565b604051903d90823e3d90fd5b6108fc92506121c6565b61220091925060203d81116106f0576106e18183611f4b565b90386121bc565b6040513d86823e3d90fd5b67ffffffffffffffff8111611f1957601f01601f191660200190565b92919261223a82612212565b916122486040519384611f4b565b82948184528183011161042b578281602093846000960137010152565b1561226c57565b60405162461bcd60e51b815260206004820152600b60248201526a77726f6e6720737461746560a81b6044820152606490fd5b6801bc16d674ec8000009081471061269057816005540361265557600080549260ff8460a01c169360049485811015612642576122df6001809214612265565b60ff600a5460101c161561260a5760018060a01b039384601154166040958651602095868201937f65787465726e616c2e636f6e74726163742e616464726573730000000000000085526e11195c1bdcda5d10dbdb9d1c9858dd608a1b603984015260288352606083019067ffffffffffffffff95848310878411176125f657828c52845190206321f8a72160e01b835260648501528890829060249082905afa9283156125ec5786936125b7575b505060ff60a01b1916600160a11b178455600e54911695863b156103cd5787516304512a2360e31b815260808b820152948492869291906123d160848501611e73565b60031985820381016024870152600c548794926123ed82611e39565b918282528d858216918260001461259857505060011461254f575b50508584030160448601528592600d549161242283611e39565b92838352878d838316928360001461252e575050506001146124e2575b5050508391829160648301520391895af180156124d85761248f575b5050507f72b356fd889b9abd3530accd2c9f4aecbce67d70757181f9f862ac91464ce19293945082519182523390820152a1565b82116124c557507f72b356fd889b9abd3530accd2c9f4aecbce67d70757181f9f862ac91464ce19294955083528493388061245b565b634e487b7160e01b815260418752602490fd5b86513d84823e3d90fd5b918b939450600d8852600080516020612ed68339815191529288935b8285106125135750505001019080848061243f565b80548486018701528b99508c98508d959094019381016124fe565b60ff19168582015294151560051b909301909301945083925081905061243f565b8c929550600c8952600080516020612eb68339815191529189925b81841061257d5750500101923880612408565b80548385018601528c9a508d99508e9490930192850161256a565b60ff19168382015292151560051b909101909101945038905080612408565b6125dc92935060609089903d8b116125e4575b6125d48285611f4b565b01019061207f565b90388061238e565b3d91506125ca565b8a513d88823e3d90fd5b50634e487b7160e01b875260418d52602487fd5b60405162461bcd60e51b815260208188015260116024820152701d985b1a59185d1bdc881b9bdd081cd95d607a1b6044820152606490fd5b634e487b7160e01b845260218652602484fd5b60405162461bcd60e51b81526020600482015260136024820152726e6f7420656e6f756768206465706f7369747360681b6044820152606490fd5b60405162461bcd60e51b815260206004820152600e60248201526d0dcdee840cadcdeeaced040cae8d60931b6044820152606490fd5b929094939194600160f81b300190813011611fbf576040516020928382019081528382526126f382611f2f565b6126fe36868b61222e565b8481519101209151902003612b6257600a5460ff8116612afa575b5060009260ff845460a01c16976004891015612ae65761273c6001809a14612265565b67ffffffffffffffff92838111612ad25780612759600b54611e39565b98601f998a8111612a77575b5087908a8311600114612a015788926129f6575b5050600019600383901b1c1916908a1b17600b555b8282116129e25781906127a2600c54611e39565b888111612987575b50859088831160011461291a57869261290f575b5050600019600383901b1c191690881b17600c555b85116128fb576127e4600d54611e39565b8481116128ab575b508193851160011461283957509183949184939461282e575b50501b916000199060031b1c191617600d555b600e556201000062ff000019600a541617600a55565b013592503880612805565b600d8252600080516020612ed683398151915293918591601f19831691905b888383106128915750505010612877575b505050811b01600d55612818565b0135600019600384901b60f8161c19169055388080612869565b868601358855909601959384019387935090810190612858565b600d8352600080516020612ed68339815191528580880160051c8201928489106128f2575b0160051c019087905b8281106128e75750506127ec565b8481550187906128d9565b925081926128d0565b634e487b7160e01b82526041600452602482fd5b0135905038806127be565b600c87528a9350600080516020612eb683398151915291601f198416885b888282106129715750508411612957575b505050811b01600c556127d3565b0135600019600384901b60f8161c19169055388080612949565b8385013586558e97909501949283019201612938565b909150600c8652600080516020612eb68339815191528880850160051c8201928786106129d9575b918c91869594930160051c01915b8281106129cb5750506127aa565b8881558594508c91016129bd565b925081926129af565b634e487b7160e01b85526041600452602485fd5b013590503880612779565b600b89528c9350600080516020612ef683398151915291601f1984168a5b8a828210612a585750508411612a3e575b505050811b01600b5561278e565b0135600019600384901b60f8161c19169055388080612a30565b91929596849587849396013581550195019201908e9594939291612a1f565b909150600b8852600080516020612ef68339815191528a80850160051c820192898610612ac9575b918e91869594930160051c01915b828110612abb575050612765565b8a81558594508e9101612aad565b92508192612a9f565b634e487b7160e01b86526041600452602486fd5b634e487b7160e01b85526021600452602485fd5b60009081549060ff8260a01c166004811015612b4e5790612b1d60ff9215612265565b60101c16612b3a5760ff60a01b1916600160a01b17905538612719565b634e487b7160e01b82526001600452602482fd5b634e487b7160e01b84526021600452602484fd5b60405162461bcd60e51b815260048101839052601e60248201527f7769746864726177616c2063726564656e7469616c206d69736d6174636800006044820152606490fd5b81810292918115918404141715611fbf57565b4715612c27576000908152600160205260408120546002602052612bf0604083205491612bea4760065490611fb2565b90612ba7565b600554908115612c1357048015612c0e57612c0b925061213e565b90565b505090565b634e487b7160e01b84526012600452602484fd5b50600090565b600060ff815460a01c16916004831015612d2d5760018303612c4f5750905090565b612c5890612bba565b9160018060a01b0360115416602060405181810190731c1c9bdd1bd8dbdb0b9999594b9c195c98d95b9d60621b825260148152612c9481611f2f565b51902060246040518094819363bd02d0f560e01b835260048301525afa9283156121d1578093612cf7575b50508115159081612ceb575b50612cd4575090565b906064612ce482612c0b94612ba7565b049061213e565b60039150141538612ccb565b909192506020823d8211612d25575b81612d1360209383611f4b565b81010312610751575051903880612cbf565b3d9150612d06565b634e487b7160e01b82526021600452602482fd5b60ff60005460a01c166004811015612e47578015612e0d5760028114612dea5760018114612dbb57600314612d9957604051612d7c81611f2f565b600d81526c7374617465206661696c75726560981b602082015290565b604051612da581611f2f565b6006815265195e1a5d195960d21b602082015290565b50604051612dc881611f2f565b6012815271616363657074696e67206465706f7369747360701b602082015290565b50604051612df781611f2f565b60068152651cdd185ad95960d21b602082015290565b50604051612e1a81611f2f565b601781527f6177616974696e672076616c696461746f7220696e666f000000000000000000602082015290565b634e487b7160e01b600052602160045260246000fd5b6000546001600160a01b03163303612e7157565b606460405162461bcd60e51b815260206004820152602060248201527f4f776e61626c653a2063616c6c6572206973206e6f7420746865206f776e65726044820152fdfedf6966c971051c3d54ec59162606531493a51404a002842f56009d7e5cf4a8c7d7b6990105719101dabeb77144f2a3385c8033acd3af97e9423a695e81ad1eb50175b7a638427703f0dbe7bb9bbf987a2551717b34e79f33b5b1008d1fa01db9a26469706673582212209645b29f12a8cfb2e20e39f02bbe2216197e9498c864452264f88d473e35e7a864736f6c63430008110033a26469706673582212203232d063ce9d1f76f4cf5e3ff69e06a3fcf6d023a9bad5d385c5bee3f1a4959f64736f6c63430008110033",
    "linkReferences": {}
  },
  "methodIdentifiers": {
    "create(address,bool,bool,uint256,uint256)": "e403e1ae"
  },
  "id": 7
}