{
  "abi": [
    {
      "inputs": [
        {
          "internalType": "contract IFrensStorage",
          "name": "_frensStorage",
          "type": "address"
        }
      ],
      "stateMutability": "nonpayable",
      "type": "constructor"
    },
    {
      "anonymous": false,
      "inputs": [
        {
          "indexed": true,
          "internalType": "address",
          "name": "contractAddress",
          "type": "address"
        },
        {
          "indexed": false,
          "internalType": "address",
          "name": "creator",
          "type": "address"
        },
        {
          "indexed": false,
          "internalType": "address",
          "name": "owner",
          "type": "address"
        }
      ],
      "name": "Create",
      "type": "event"
    },
    {
      "inputs": [
        {
          "internalType": "address",
          "name": "owner_",
          "type": "address"
        },
        {
          "internalType": "bool",
          "name": "validatorLocked",
          "type": "bool"
        }
      ],
      "name": "create",
      "outputs": [
        {
          "internalType": "address",
          "name": "",
          "type": "address"
        }
      ],
      "stateMutability": "nonpayable",
      "type": "function"
    },
    {
      "inputs": [],
      "name": "version",
      "outputs": [
        {
          "internalType": "uint8",
          "name": "",
          "type": "uint8"
        }
      ],
      "stateMutability": "view",
      "type": "function"
    }
  ],
  "bytecode": {
    "object": "0x60803461008257601f61282738819003918201601f19168301916001600160401b038311848410176100875780849260209460405283398101031261008257516001600160a01b038116810361008257600080546001600160a81b03191660089290921b610100600160a81b0316919091179055604051612789908161009e8239f35b600080fd5b634e487b7160e01b600052604160045260246000fdfe608060408181526004918236101561001657600080fd5b600092833560e01c918263319e90901461005d5750506354fd4d501461003b57600080fd5b3461005957816003193601126100595760ff60209254169051908152f35b5080fd5b8385913461021c578160031936011261021c576001600160a01b039380358581169291908390036102a4576024918235968715158098036102a057865491612473928382019067ffffffffffffffff948383108684111761028457928092856060938e97966102e185398b835260209e8f84015260081c168b82015203019089f08015610296578751938a85016f636f6e74726163742e6164647265737360801b81526e233932b739a837b7b629b2ba3a32b960891b6030870152601f86528986019186831090831117610284578188818d8f9488908f8490528b519020915460081c16906321f8a72160e01b835260448b01525afa94851561027a57918b93918b979695938896610231575b50509080604492169a8b918b519687958694630319e90960e41b86528a8601528b850152165af19081156102275783916101ed575b50156101dd575050507fb224da6575b2c2ffd42454faedb236f7dbe5f92a0c96bb99c0273dbe98464c7e82849281519033825287820152a251908152f35b634e487b7160e01b825260019052fd5b90508781813d8311610220575b61020481836102a8565b8101031261021c5751801515810361021c578861019f565b8280fd5b503d6101fa565b86513d85823e3d90fd5b919697509294508391933d8311610273575b61024d81856102a8565b8101031261026f5751818116810361026f57916044828b938b9796919261016a565b8880fd5b503d610243565b89513d8c823e3d90fd5b634e487b7160e01b8b5260418752878bfd5b87513d8a823e3d90fd5b8680fd5b8480fd5b90601f8019910116810190811067ffffffffffffffff8211176102ca57604052565b634e487b7160e01b600052604160045260246000fdfe608080604052346200017457606081620024738038038091620000238285620001ab565b83398101031262000174576200003981620001cf565b60208201519182151583036200017457604001516001600160a01b03908181169081900362000174576200013b93620000723362000271565b6001549260018060a01b03199083828616176001556200011460405182620000de602083016f636f6e74726163742e6164647265737360801b938482526d4672656e73506f6f6c536861726560901b6030820152601e8152620000d58162000179565b519020620001e4565b1684600254161760025560405160208101918252694672656e73436c61696d60b01b6030820152601a8152620000d58162000179565b16906003541617600355600014620001585750506001805460ff60a01b1916905562000271565b6000805460ff60a01b191690556040516121ba9081620002b98239f35b6001600160a81b031990911617600160a01b1760015562000271565b600080fd5b604081019081106001600160401b038211176200019557604052565b634e487b7160e01b600052604160045260246000fd5b601f909101601f19168101906001600160401b038211908210176200019557604052565b51906001600160a01b03821682036200017457565b6001546040516321f8a72160e01b81526004810192909252602090829060249082906001600160a01b03165afa908115620002655760009162000225575090565b906020823d82116200025c575b816200024160209383620001ab565b810103126200025957506200025690620001cf565b90565b80fd5b3d915062000232565b6040513d6000823e3d90fd5b600080546001600160a01b039283166001600160a01b03198216811783559216907f8be0079c531659141344cd1fd0a4f28419497f9722a3daafe3b4186f6b6457e09080a356fe6080604081815260048036101561001e575b505050361561001c57005b005b600092833560e01c908163168a482214610fcc575080631865c57d14610fae5780631e83409a14610f815780632991795414610f305780632b97105a14610e6c578063378de45b14610de55780633a4b66f114610dc0578063441a3e7014610b2f57806345b58fe414610b065780634ad02ef114610ac15780634b2b4e36146109b75780634e71d92d1461099d57806354fd4d501461097a57806355ec447f14610959578063678e300a14610939578063715018a6146108db5780638620891c146107165780638da5cb5b146106ea5780639278e714146106c8578063cfb5a5f8146106a1578063d1058e5914610688578063e4fc6b6d1461066f578063e6b1a3ae146104b8578063e920eec014610480578063f2fde38b146103b35763f9faa10403610011578260031936011261032e5760ff60015460a01c16818110156103a057600161016d9114611117565b3415610369578151916101c16801bc16d674ec8000006101ba6020956101b58782016101ab8361019d308461115c565b03601f1981018552846111ec565b3492519020611349565b61120e565b1115611231565b838151928185808601956f636f6e74726163742e6164647265737360801b87526e233932b739a837b7b629b2ba3a32b960891b6030820152601f8152610206816111b4565b519095206001600160a01b039590869061021f906112e3565b16602486518094819363068b0e0760e41b835234888401525af190811561035f5790610252918491610332575b506112a7565b61027e835186810190671d1bdad95b8b9a5960c21b825260088152610276816111b4565b519020611349565b9360025416803b1561032e5760248392855194859384926335313c2160e11b845233908401525af18015610324576102ea575b5091606091837fd91527a40417d48f76ba016aaa9157e2ddaca6cb5b660432901659cb075058fc9451923484523390840152820152a180f35b917fd91527a40417d48f76ba016aaa9157e2ddaca6cb5b660432901659cb075058fc93919461031a60609461118a565b94919350916102b1565b82513d87823e3d90fd5b8280fd5b6103529150873d8911610358575b61034a81836111ec565b81019061128f565b3861024c565b503d610340565b84513d85823e3d90fd5b6020606492519162461bcd60e51b8352820152601260248201527136bab9ba103232b837b9b4ba1032ba3432b960711b6044820152fd5b634e487b7160e01b845260218252602484fd5b50903461032e57602036600319011261032e576001600160a01b038235818116939084900361047c578454918216926103ed3385146113f7565b841561042a5750506001600160a01b031916821783557f8be0079c531659141344cd1fd0a4f28419497f9722a3daafe3b4186f6b6457e08380a380f35b906020608492519162461bcd60e51b8352820152602660248201527f4f776e61626c653a206e6577206f776e657220697320746865207a65726f206160448201526564647265737360d01b6064820152fd5b8480fd5b83346104b5576104b2610492366110ad565b956104ad60018060a09894989795971b038a541633146113f7565b61199e565b80f35b80fd5b503461032e576020908160031936011261066b5780356001600160a01b0381811691829003610667576104ef8187541633146113f7565b845163516b636d60e11b81526001848201528681602481865afa90811561065d578791610606575b5051156105cc57906024849261056f8751858101906f636f6e74726163742e6164647265737360801b82526e233932b739a837b7b629b2ba3a32b960891b6030820152601f8152610567816111b4565b5190206112e3565b16938787519586948593637358d1d760e11b85528401525af19182156105bf576104b2935084926105a2575b50506112a7565b6105b89250803d106103585761034a81836111ec565b388061059b565b50505051903d90823e3d90fd5b845162461bcd60e51b815280840185905260146024820152731a5b9d985b1a5908185c9d0818dbdb9d1c9858dd60621b6044820152606490fd5b90503d8088833e61061781836111ec565b81019085818303126106555780519067ffffffffffffffff821161065957019080601f8301121561065557815161064f9287016114e8565b38610517565b8780fd5b8880fd5b86513d89823e3d90fd5b8580fd5b8380fd5b83346104b557806003193601126104b5576104b2611bb6565b83346104b557806003193601126104b5576104b2611daf565b5091346104b55760203660031901126104b557506106c160209235611fdf565b9051908152f35b83346104b557806003193601126104b5576106e1611bb6565b6104b233611d62565b505034610712578160031936011261071257905490516001600160a01b039091168152602090f35b5080fd5b506020908160031936011261066b57803560018060a01b036024848260025416875192838092634f558e7960e01b825287898301525afa90811561065d5787916108be575b50156108875761079a6107918651868101906a1c1bdbdb0b999bdc8b9a5960aa1b825285602b820152602b8152610567816111d0565b821630146113b6565b60ff60015460a01c1683811015610874578492916107bc600160449314611117565b6107f86801bc16d674ec8000006101ba6107f18a5188810190610276816107e3308561115c565b03601f1981018352826111ec565b349061120e565b61083c8751858101906f636f6e74726163742e6164647265737360801b82526e233932b739a837b7b629b2ba3a32b960891b6030820152601f8152610567816111b4565b1693878751958694859363010975af60e31b85528401523460248401525af19182156105bf576104b2935084926105a25750506112a7565b634e487b7160e01b875260218452602487fd5b845162461bcd60e51b815280840185905260116024820152701a5908191bd95cc81b9bdd08195e1a5cdd607a1b6044820152606490fd5b6108d59150853d87116103585761034a81836111ec565b3861075b565b83346104b557806003193601126104b557805481906001600160a01b038116906109063383146113f7565b6001600160a01b03191682557f8be0079c531659141344cd1fd0a4f28419497f9722a3daafe3b4186f6b6457e08280a380f35b5091346104b55760203660031901126104b557506106c160209235612056565b83346104b557806003193601126104b557610972611bb6565b6104b2611daf565b50503461071257816003193601126107125760ff6020925460a01c169051908152f35b83346104b557806003193601126104b5576104b233611d62565b50903461032e576109c7366110ad565b926109e260018060a09998999594951b038b541633146113f7565b875194610a1360208701876109f73083611442565b0397610a0b601f19998a81018352826111ec565b5190206115bc565b15610aa957505050505090610a4e610a5d928551610a46602082019282610a3a308661146f565b039081018352826111ec565b51902061151f565b602081519101209236916114b1565b6020815191012003610a745750505b6104b261164d565b906020606492519162461bcd60e51b8352820152600f60248201526e0e0eac496caf240dad2e6dac2e8c6d608b1b6044820152fd5b939750935093610abc975094909461199e565b610a6c565b50503461071257816003193601126107125780610aef610b0292516020810190610a46816107e3308561146f565b905191829160208352602083019061101a565b0390f35b505034610712578160031936011261071257610b0290610b24611eb3565b90519182918261103f565b5091903461071257806003193601126107125782359260249384359060ff60015460a01c1683811015610dae57600103610d6c5760025484516331a9108f60e11b8152808501839052602094916001600160a01b039190869082908b90829086165afa908115610d62579082918991610d35575b50163303610d035783610bdc8751878101906d19195c1bdcda5d0b985b5bdd5b9d60921b825286602e820152602e8152610276816111d0565b10610cca57916044859288809a95610c1c6107918b9c9b51888101906a1c1bdbdb0b999bdc8b9a5960aa1b825288602b820152602b8152610567816111d0565b610c608b51878101906f636f6e74726163742e6164647265737360801b82526e233932b739a837b7b629b2ba3a32b960891b6030820152601f8152610567816111b4565b16878b519788968795630441a3e760e41b87528601528401525af1918215610cc057849384938493610c999285926105a25750506112a7565b818115610cb7575b3390f115610cad575080f35b51903d90823e3d90fd5b506108fc610ca1565b85513d86823e3d90fd5b855162461bcd60e51b81528083018690526014818a0152731b9bdd08195b9bdd59da0819195c1bdcda5d195960621b6044820152606490fd5b855162461bcd60e51b8152808301869052600d818a01526c3737ba103a34329037bbb732b960991b6044820152606490fd5b610d559150873d8911610d5b575b610d4d81836111ec565b8101906112c4565b38610ba3565b503d610d43565b87513d8a823e3d90fd5b835162461bcd60e51b8152602081850152601b818801527f63616e6e6f74207769746864726177206f6e6365207374616b656400000000006044820152606490fd5b634e487b7160e01b8652602184528686fd5b83346104b557806003193601126104b557610a6c60018060a01b0382541633146113f7565b5091346104b55760203660031901126104b557506106c160209235610e40610e308451868101906a1c1bdbdb0b999bdc8b9a5960aa1b825284602b820152602b8152610567816111d0565b6001600160a01b031630146113b6565b8251848101916d19195c1bdcda5d0b985b5bdd5b9d60921b8352602e820152602e8152610276816111d0565b503461032e578260031936011261032e57602083602460018060a01b03610e978184541633146113f7565b610edb8651858101906f636f6e74726163742e6164647265737360801b82526e233932b739a837b7b629b2ba3a32b960891b6030820152601f8152610567816111b4565b16938286519586948593637358d1d760e11b85528401525af1908115610f24576104b292508391610f0c57506112a7565b610352915060203d81116103585761034a81836111ec565b505051903d90823e3d90fd5b83346104b557806003193601126104b557610f5560018060a01b0382541633146113f7565b60644711610f74575b6001805460ff60a01b1916600360a01b17905580f35b610f7c611c1c565b610f5e565b83823461071257602036600319011261071257356001600160a01b0381168103610712576104b290611d62565b505034610712578160031936011261071257610b0290610aef61207e565b8385346104b557806003193601126104b557506106c182602080940190610276816107e3308561115c565b60005b83811061100a5750506000910152565b8181015183820152602001610ffa565b9060209161103381518092818552858086019101610ff7565b601f01601f1916010190565b6020908160408183019282815285518094520193019160005b828110611066575050505090565b835185529381019392810192600101611058565b9181601f840112156110a85782359167ffffffffffffffff83116110a857602083818601950101116110a857565b600080fd5b9060806003198301126110a85767ffffffffffffffff6004358181116110a857836110da9160040161107a565b939093926024358381116110a857826110f59160040161107a565b939093926044359182116110a85761110f9160040161107a565b909160643590565b1561111e57565b60405162461bcd60e51b81526020600482015260166024820152756e6f7420616363657074696e67206465706f7369747360501b6044820152606490fd5b6022916d746f74616c2e6465706f7369747360901b82526001600160601b03199060601b16600e8201520190565b67ffffffffffffffff811161119e57604052565b634e487b7160e01b600052604160045260246000fd5b6040810190811067ffffffffffffffff82111761119e57604052565b6060810190811067ffffffffffffffff82111761119e57604052565b90601f8019910116810190811067ffffffffffffffff82111761119e57604052565b9190820180921161121b57565b634e487b7160e01b600052601160045260246000fd5b1561123857565b60405162461bcd60e51b815260206004820152602960248201527f746f74616c206465706f736974732063616e6e6f74206265206d6f72652074686044820152680c2dc406664408ae8d60bb1b6064820152608490fd5b908160209103126110a8575180151581036110a85790565b156112ae57565b634e487b7160e01b600052600160045260246000fd5b908160209103126110a857516001600160a01b03811681036110a85790565b6001546040516321f8a72160e01b81526004810192909252602090829060249082906001600160a01b03165afa90811561133d57600091611322575090565b61133a915060203d8111610d5b57610d4d81836111ec565b90565b6040513d6000823e3d90fd5b60015460405163bd02d0f560e01b81526004810192909252602090829060249082906001600160a01b03165afa90811561133d57600091611388575090565b906020823d82116113ae575b816113a1602093836111ec565b810103126104b557505190565b3d9150611394565b156113bd57565b60405162461bcd60e51b81526020600482015260126024820152711ddc9bdb99c81cdd185ada5b99c81c1bdbdb60721b6044820152606490fd5b156113fe57565b606460405162461bcd60e51b815260206004820152602060248201527f4f776e61626c653a2063616c6c6572206973206e6f7420746865206f776e65726044820152fd5b6021916c1d985b1a59185d1bdc8b9cd95d609a1b82526001600160601b03199060601b16600d8201520190565b601a91657075624b657960d01b82526001600160601b03199060601b1660068201520190565b67ffffffffffffffff811161119e57601f01601f191660200190565b9291926114bd82611495565b916114cb60405193846111ec565b8294818452818301116110a8578281602093846000960137010152565b909291926114f581611495565b9161150360405193846111ec565b8294828452828201116110a857602061151d930190610ff7565b565b600154604051630180634360e71b815260048101929092526000908190839060249082906001600160a01b03165afa9182156115af57819261156057505090565b909291503d8084833e61157381836111ec565b81019060208183031261066b5780519067ffffffffffffffff821161047c570181601f8201121561066b5761133a9293506020815191016114e8565b50604051903d90823e3d90fd5b600154604051633d70e7e560e11b81526004810192909252602090829060249082906001600160a01b03165afa90811561133d576000916115fb575090565b61133a915060203d81116103585761034a81836111ec565b1561161a57565b60405162461bcd60e51b815260206004820152600b60248201526a77726f6e6720737461746560a81b6044820152606490fd5b6801bc16d674ec80000090814710611947576001549160ff8360a01c16600481101561193157600161167f9114611613565b60409081516020906116ac828201826116983083611442565b0392610a0b601f19948581018352826111ec565b156118f9576116c9908451610a468482019282610a3a308661146f565b835195611706838801757769746864726177616c5f63726564656e7469616c7360501b81523060601b98896036820152602a8152610a46816111d0565b93611732865185810190687369676e617475726560b81b82528a6029820152601d8152610a46816111b4565b978651858101917019195c1bdcda5d17d9185d1857dc9bdbdd607a1b8352603182015260258152611762816111d0565b5190208651635376ab1f60e11b81526004810191909152916001600160a01b039085846024818585165afa9384156118ee576000946118bf575b506117ee8851878101907f65787465726e616c2e636f6e74726163742e616464726573730000000000000082526e11195c1bdcda5d10dbdb9d1c9858dd608a1b603982015260288152610567816111d0565b60ff60a01b19909116600160a11b176001551694853b156110a85760009361184e9361185d61183b938a519c8d97889687966304512a2360e31b885260806004890152608488019061101a565b600319938488830301602489015261101a565b9185830301604486015261101a565b9060648301520391865af19485156118b4577f72b356fd889b9abd3530accd2c9f4aecbce67d70757181f9f862ac91464ce19294956118a5575b5082519182523390820152a1565b6118ae9061118a565b38611897565b83513d6000823e3d90fd5b90938682813d83116118e7575b6118d681836111ec565b810103126104b5575051923861179c565b503d6118cc565b88513d6000823e3d90fd5b835162461bcd60e51b81526004810183905260116024820152701d985b1a59185d1bdc881b9bdd081cd95d607a1b6044820152606490fd5b634e487b7160e01b600052602160045260246000fd5b60405162461bcd60e51b815260206004820152600e60248201526d0dcdee840cadcdeeaced040cae8d60931b6044820152606490fd5b908060209392818452848401376000828201840152601f01601f1916010190565b96959293949096600160f81b30019586301161121b5760409889516020988982019081528982526119ce826111b4565b6119d9368a896114b1565b8a81519101209151902003611b7257611a1d8a51898101906f1d985b1a59185d1bdc8b9b1bd8dad95960821b82523060601b603082015260248152610a0b816111d0565b611b20575b60ff60015460a01c1695600487101561193157611af0611acd968c96600095611a4e60018e9c14611613565b611ae18951611aa88d82016f636f6e74726163742e6164647265737360801b81526e233932b739a837b7b629b2ba3a32b960891b6030840152601f8352611a94836111b4565b91519091206001600160a01b0391906112e3565b1699519c8d9b8c9a8b996303a483bb60e61b8b52608060048c015260848b019161197d565b9060031995868a84030160248b015261197d565b9286840301604487015261197d565b90606483015203925af1918215611b155761151d9394506000926105a25750506112a7565b84513d6000823e3d90fd5b60015460ff8160a01c16600481101561193157611b3d9015611613565b611b5d611b578c518b810190610a0b816107e33085611442565b156112a7565b60ff60a01b1916600160a01b17600155611a22565b895162461bcd60e51b815260048101899052601e60248201527f7769746864726177616c2063726564656e7469616c206d69736d6174636800006044820152606490fd5b60ff60015460a01c16600481101561193157600114611bd75761151d611c1c565b60405162461bcd60e51b815260206004820152601c60248201527f757365207769746864726177207768656e206e6f74207374616b6564000000006044820152606490fd5b476064811115611d1e57611c5060405160208101906b70726f746f636f6c2e66656560a01b8252600c8152610276816111b4565b80158015611caf575b50506020611c94611c68611eb3565b6003546040516327527c7360e11b81529485936001600160a01b0390921692849283916004830161103f565b03925af1801561133d5761151d91600091610f0c57506112a7565b611cda60405160208101906c1999594b9c9958da5c1a595b9d609a1b8252600d8152610567816111b4565b9280830292830414171561121b57600080809360648294049082908215611d14575b6001600160a01b031690f11561133d57473880611c59565b6108fc9150611cfc565b606460405162461bcd60e51b815260206004820152602060248201527f6d696e696d756d206f66203130302077656920746f20646973747269627574656044820152fd5b6003546001600160a01b039081169190823b156110a8576024600092836040519586948593630f41a04d60e11b85521660048401525af1801561133d57611da65750565b61151d9061118a565b611db7611eb3565b60005b8151811015611eaf576020808260051b8401015160018060a01b0391826002541691816040938451938480926331a9108f60e11b82526004958683015260249687915afa918215611ea457600092611e87575b5050846003541694853b156110a857836000928387519889948593630f41a04d60e11b855216878401525af180156118b457611e59575b50505050600019811461121b57600101611dba565b67ffffffffffffffff8411611e745750505238808080611e44565b604190634e487b7160e01b600052526000fd5b611e9d9250803d10610d5b57610d4d81836111ec565b3880611e0d565b85513d6000823e3d90fd5b5050565b604051602090818101906a1a591ccb9a5b8b9c1bdbdb60aa1b82523060601b602b820152601f8152611ee4816111b4565b5190206001546040516378267eb560e11b81526004810192909252600092908390839060249082906001600160a01b03165afa928315611fd3578093611f2b575b50505090565b909192503d8082853e611f3e81856111ec565b83019082848303126104b557835167ffffffffffffffff9485821161032e570182601f82011215610712578051948511611fbf578460051b9160405195611f87868501886111ec565b865284808701938301019384116104b557508301905b828210611fb05750505050388080611f25565b81518152908301908301611f9d565b634e487b7160e01b82526041600452602482fd5b604051903d90823e3d90fd5b602061200f604051828101906a1c1bdbdb0b999bdc8b9a5960aa1b825284602b820152602b8152610567816111d0565b6001600160a01b039061202590821630146113b6565b60035416916024604051809481936319f6b4bf60e31b835260048301525afa90811561133d57600091611388575090565b60ff60015460a01c166004811015611931576001036120755750600090565b61133a90611fdf565b60ff60015460a01c16600481101561193157801561214a576002811461212757600181146120f8576003146120d6576040516120b9816111b4565b600d81526c7374617465206661696c75726560981b602082015290565b6040516120e2816111b4565b6006815265195e1a5d195960d21b602082015290565b50604051612105816111b4565b6012815271616363657074696e67206465706f7369747360701b602082015290565b50604051612134816111b4565b60068152651cdd185ad95960d21b602082015290565b50604051612157816111b4565b601781527f6177616974696e672076616c696461746f7220696e666f00000000000000000060208201529056fea2646970667358221220098819cdbf7c6ed49b1ecc691a1e27b8a5f2db20a2bb526e05558917a2a5564064736f6c63430008110033a2646970667358221220458dc4ce0f6fec96f0195fb2654d858b1cf73ec2581e07d55c4c55b57758dbe864736f6c63430008110033",
    "linkReferences": {}
  },
  "methodIdentifiers": {
    "create(address,bool)": "319e9090",
    "version()": "54fd4d50"
  },
  "id": 12
}