{
  "abi": [
    {
      "inputs": [
        {
          "internalType": "contract IFrensStorage",
          "name": "frensStorage_",
          "type": "address"
        }
      ],
      "stateMutability": "nonpayable",
      "type": "constructor"
    },
    {
      "anonymous": false,
      "inputs": [
        {
          "indexed": true,
          "internalType": "address",
          "name": "contractAddress",
          "type": "address"
        },
        {
          "indexed": false,
          "internalType": "address",
          "name": "creator",
          "type": "address"
        },
        {
          "indexed": false,
          "internalType": "address",
          "name": "owner",
          "type": "address"
        }
      ],
      "name": "Create",
      "type": "event"
    },
    {
      "inputs": [
        {
          "internalType": "address",
          "name": "_owner",
          "type": "address"
        },
        {
          "internalType": "bool",
          "name": "_validatorLocked",
          "type": "bool"
        }
      ],
      "name": "create",
      "outputs": [
        {
          "internalType": "address",
          "name": "",
          "type": "address"
        }
      ],
      "stateMutability": "nonpayable",
      "type": "function"
    }
  ],
  "bytecode": {
    "object": "0x6080604090808252346101535780612d20803803809161001f8285610158565b833960209283918101031261015357516001600160a01b0380821692909183900361015357600180546001600160a01b0319908116851790915584516f636f6e74726163742e6164647265737360801b8382019081526d4672656e73506f6f6c536861726560901b6030830152601e825291949092838701929091906001600160401b0384118585101761013d5760248484938193828c52885190206321f8a72160e01b835260448901525afa928315610132576000936100f5575b5050501690600054161760005551612ba4908161017c8239f35b813d831161012b575b6101088185610158565b81010312610127575190828216820361012457503880806100db565b80fd5b5080fd5b503d6100fe565b86513d6000823e3d90fd5b634e487b7160e01b600052604160045260246000fd5b600080fd5b601f909101601f19168101906001600160401b0382119082101761013d5760405256fe6080604090808252600436101561001557600080fd5b600091823560e01c63319e90901461002c57600080fd5b346101705780600319360112610170576001600160a01b0391600435838116919082900361019657602435918215158093036101925784600154166129d4938484019267ffffffffffffffff958585108786111761017e5792859491928a97969360609561019b8639835260208301528782015203019083f09384156101745780835416941693803b156101705782906044855180958193632f2ff15d60e01b83527f9f2df0fed2c77648de5860a4cc508cd0818c85b8b8a1ab4ceeef8d981c8956a660048401528960248401525af180156101665761013f575b60208484817fb224da6575b2c2ffd42454faedb236f7dbe5f92a0c96bb99c0273dbe98464c7e8280513381523087820152a251908152f35b8111610152576020935081523880610107565b634e487b7160e01b84526041600452602484fd5b83513d87823e3d90fd5b8280fd5b83513d84823e3d90fd5b634e487b7160e01b8a52604160045260248afd5b8580fd5b8480fdfe60806040818152346200026057606082620029d4803803809162000024828562000297565b83398101031262000260576200003a82620002bb565b602092838101519081151580920362000260578301516001600160a01b03808216959186900362000260576200007033620002d0565b60018060a01b0319918683600e541617600e5585518181016f636f6e74726163742e6164647265737360801b9182825267119c995b9cd05c9d60c21b603082015260188152620000c08162000265565b5190209087516321f8a72160e01b92838252600482015283816024818d5afa90811562000255578493929186916000916200020c575b5090602492911687600d541617600d5589518481019182526d4672656e73506f6f6c536861726560901b6030820152601e8152620001348162000265565b5190209189519a8b938492835260048301525afa9081156200020157600091620001bd575b50620001969596501690600c541617600c5560ff8019600754169116809117600755600014620001a4576000805460ff60a01b19169055620002d0565b516126bc9081620003188239f35b6000805460ff60a01b1916600160a01b179055620002d0565b87813d8311620001f9575b620001d4818362000297565b81010312620001f65750620001ee620001969596620002bb565b869562000159565b80fd5b503d620001c8565b86513d6000823e3d90fd5b85819495969293503d83116200024d575b62000229818362000297565b81010312620001f657508392918562000244602493620002bb565b909192620000f6565b503d6200021d565b89513d6000823e3d90fd5b600080fd5b604081019081106001600160401b038211176200028157604052565b634e487b7160e01b600052604160045260246000fd5b601f909101601f19168101906001600160401b038211908210176200028157604052565b51906001600160a01b03821682036200026057565b600080546001600160a01b039283166001600160a01b03198216811783559216907f8be0079c531659141344cd1fd0a4f28419497f9722a3daafe3b4186f6b6457e09080a356fe6080604081815260048036101561001e575b505050361561001c57005b005b600092833560e01c90816312686aae146115fb575080631865c57d146115ca57806329917954146114bc5780632cf2cd48146114955780632daad61d1461146e57806330dbf88714611445578063379607f514610f925780633a4b66f114610f7957806341c6138314610f5a578063441a3e7014610dd757806345b58fe414610d245780634b2b4e3614610c6757806351ff484714610bcf578063591167c714610ba6578063678e300a14610b86578063715018a614610b2c5780637d88209714610b0f5780638620891c1461098e578063888e9cf8146109415780638ae578fd146109185780638da5cb5b146108f05780639426e226146108c9578063ac2a5dfd14610831578063b45a3c0e14610805578063cfb5a5f81461075c578063e2d9ae3e1461073d578063e3f05d8314610719578063e4a502761461063e578063e6b1a3ae146104fe578063e920eec0146104d2578063f2fde38b146104085763f9faa1040361001157826003193601126103615734156103d15760ff835460a01c16818110156103be5760016101b49114611824565b6101d36801bc16d674ec8000006101cc835434611869565b111561188c565b600c5482516318160ddd60e01b8152602093909290916001600160a01b0390859085908490829085165afa93841561035757869461038b575b50838652600185523483872055610224348354611869565b8255600654680100000000000000008110156103785760018101806006558110156103655790848793927ff652222313e28459528d920b65115c16c04f3efc82aaedc97be59f3f377c0d3f01558483526002865260018484205560ff60075460081c16600387528484209060ff801983541691151516179055600c5416803b1561036157829060248551809581936335313c2160e11b835233878401525af1801561035757610307575b857fd91527a40417d48f76ba016aaa9157e2ddaca6cb5b660432901659cb075058fc60608787878051923484523390840152820152a180f35b67ffffffffffffffff82969396116103445750845292817fd91527a40417d48f76ba016aaa9157e2ddaca6cb5b660432901659cb075058fc6102ce565b634e487b7160e01b835260419052602482fd5b83513d88823e3d90fd5b8280fd5b634e487b7160e01b875260328352602487fd5b634e487b7160e01b875260418352602487fd5b9093508481813d83116103b7575b6103a38183611802565b810103126103b35751923861020c565b8580fd5b503d610399565b634e487b7160e01b845260218252602484fd5b6020606492519162461bcd60e51b8352820152601260248201527136bab9ba103232b837b9b4ba1032ba3432b960711b6044820152fd5b509034610361576020366003190112610361576001600160a01b038235818116939192908490036104ce5761043b6125ce565b831561047c57505082546001600160a01b0319811683178455167f8be0079c531659141344cd1fd0a4f28419497f9722a3daafe3b4186f6b6457e08380a380f35b906020608492519162461bcd60e51b8352820152602660248201527f4f776e61626c653a206e6577206f776e657220697320746865207a65726f206160448201526564647265737360d01b6064820152fd5b8480fd5b83346104fb576104f86104e43661169a565b956104f39591959492946125ce565b611e1e565b80f35b80fd5b50346103615760208060031936011261063a5781356001600160a01b03811693908490036104ce5761052e6125ce565b805163516b636d60e11b81526001848201528581602481885afa9081156106305786916105b3575b50511561057b575050506bffffffffffffffffffffffff60a01b600d541617600d5580f35b5162461bcd60e51b81529182015260146024820152731a5b9d985b1a5908185c9d0818dbdb9d1c9858dd60621b604482015260649150fd5b90503d8087833e6105c48183611802565b810190838183031261062c5780519067ffffffffffffffff8211610628570181601f8201121561062c5780516105f98161196d565b9261060685519485611802565b818452858284010111610628576106229185808501910161161f565b38610556565b8780fd5b8680fd5b82513d88823e3d90fd5b8380fd5b5050346107155781600319360112610715578051908260095461066081611704565b808552916001918083169081156106ed57506001146106a2575b50505061068c8261069e940383611802565b51918291602083526020830190611642565b0390f35b9450600985526000805160206126678339815191525b8286106106d55750505061068c82602061069e958201019461067a565b805460208787018101919091529095019481016106b8565b61069e97508693506020925061068c94915060ff191682840152151560051b8201019461067a565b5080fd5b50503461071557816003193601126107155760209060ff6007541690519015158152f35b505034610715578160031936011261071557602090600b549051908152f35b503461036157602036600319011261036157600c548251631dc82a7560e01b81528235928101839052906001600160a01b03906020908390602490829085165afa9182156107fb57916107c0916107c59493602097926107cc575b50163014611909565b61231f565b9051908152f35b6107ed919250873d81116107f4575b6107e58183611802565b8101906118ea565b90386107b7565b503d6107db565b84513d87823e3d90fd5b5034610361576020366003190112610361578160209360ff923581526003855220541690519015158152f35b5050346107155781600319360112610715578051908260085461085381611704565b808552916001918083169081156106ed575060011461087e5750505061068c8261069e940383611802565b9450600885526000805160206126478339815191525b8286106108b15750505061068c82602061069e958201019461067a565b80546020878701810191909152909501948101610894565b50503461071557816003193601126107155760209060ff60075460101c1690519015158152f35b505034610715578160031936011261071557905490516001600160a01b039091168152602090f35b505034610715578160031936011261071557600d5490516001600160a01b039091168152602090f35b50346103615760203660031901126103615735600654811015610361576006602093527ff652222313e28459528d920b65115c16c04f3efc82aaedc97be59f3f377c0d3f01549051908152f35b509060208060031936011261063a57823560ff855460a01c1684811015610afc5760016109bb9114611824565b6109d36801bc16d674ec8000006101cc865434611869565b600c548351631dc82a7560e01b81528581018390526001600160a01b03918216918482602481865afa918215610af257859260249492610a1c928b92610ada5750163014611909565b855192838092634f558e7960e01b8252868a8301525afa908115610ad0578691610aa3575b5015610a6d57906001918552528220610a5b348254611869565b9055610a68348254611869565b905580f35b50905162461bcd60e51b81529182015260116024820152701a5908191bd95cc81b9bdd08195e1a5cdd607a1b6044820152606490fd5b610ac39150833d8511610ac9575b610abb8183611802565b810190611955565b38610a41565b503d610ab1565b84513d88823e3d90fd5b6107ed919250853d87116107f4576107e58183611802565b86513d8a823e3d90fd5b634e487b7160e01b865260218552602486fd5b503461036157826003193601126103615760209250549051908152f35b83346104fb57806003193601126104fb57610b456125ce565b80546001600160a01b03198116825581906001600160a01b03167f8be0079c531659141344cd1fd0a4f28419497f9722a3daafe3b4186f6b6457e08280a380f35b5091346104fb5760203660031901126104fb57506107c560209235612392565b505034610715578160031936011261071557600c5490516001600160a01b039091168152602090f35b50503461071557816003193601126107155780519082600a54610bf181611704565b808552916001918083169081156106ed5750600114610c1c5750505061068c8261069e940383611802565b9450600a85526000805160206126278339815191525b828610610c4f5750505061068c82602061069e958201019461067a565b80546020878701810191909152909501948101610c32565b503461036157610c763661169a565b93610c859896989391936125ce565b60075460101c60ff1615610d0f57505050505092610ca69192933691611989565b602081519101208151610cc381610cbc8161173e565b0382611802565b6020815191012003610cda5750505b6104f86119fa565b906020606492519162461bcd60e51b8352820152600f60248201526e0e0eac496caf240dad2e6dac2e8c6d608b1b6044820152fd5b92955092955092610d1f96611e1e565b610cd2565b8284346104fb57806003193601126104fb579080519182906006549182855260208095018093600684527ff652222313e28459528d920b65115c16c04f3efc82aaedc97be59f3f377c0d3f90845b818110610dc35750505081610d88910382611802565b83519485948186019282875251809352850193925b828110610dac57505050500390f35b835185528695509381019392810192600101610d9d565b825484529288019260019283019201610d72565b50346103615781600319360112610361578035906024359160ff855460a01c1682811015610f47576001610e0b9114611824565b600c5484516331a9108f60e11b8152838101839052602092916001600160a01b03919084908290602490829086165afa908115610f3d578891610f20575b50163303610eed5780865260018252838587205410610eb35785938493600185948594855252868320610e7d8382546122ff565b9055610e8a8282546122ff565b9055818115610eaa575b3390f115610ea0575080f35b51903d90823e3d90fd5b506108fc610e94565b845162461bcd60e51b815280840183905260146024820152731b9bdd08195b9bdd59da0819195c1bdcda5d195960621b6044820152606490fd5b845162461bcd60e51b8152808401839052600d60248201526c3737ba103a34329037bbb732b960991b6044820152606490fd5b610f379150843d86116107f4576107e58183611802565b38610e49565b87513d8a823e3d90fd5b634e487b7160e01b865260218352602486fd5b5050346107155781600319360112610715576020906005549051908152f35b83346104fb57806003193601126104fb57610cd26125ce565b50919034610715576020806003193601126103615783359360018060a01b03918083600c5416855191828092631dc82a7560e01b82528a8783015260249485915afa9081156113555790610ff1918891611428575b5085163014611909565b60ff865460a01c168381101561141657600181146113d45760644711156113845760031461137c5783600e5416828651818101906f636f6e74726163742e6164647265737360801b82526a4672656e734f7261636c6560a81b6030820152601b815261105c816117d0565b519020838851809481936321f8a72160e01b8352898301525afa90811561135557858389938693859161135f575b50895163404df7b160e11b815230898201529485938492165af1908115611355578791611338575b50905b6110be8861231f565b91888852600284528688206110d4848254611869565b90556110e283600554611869565b60055585600e541690875185810190731c1c9bdd1bd8dbdb0b9999594b9c195c98d95b9d60621b825260148152611118816117d0565b5190209088519163bd02d0f560e01b83528783015285828581865afa91821561132e578a926112fb575b5081151590816112f2575b506111d5575b50508697839186600c999899541695895196879384926331a9108f60e11b84528301525afa80156111cb5785948594859485936111ac575b5050839183156111a2575b1690f115610ea0575080f35b6108fc9250611196565b6111c3929350803d106107f4576107e58183611802565b90388061118b565b86513d87823e3d90fd5b8488949293945181810190751c1c9bdd1bd8dbdb0b9999594b9c9958da5c1a595b9d60521b825260168152611209816117d0565b519020858a51809681936321f8a72160e01b83528b8301525afa9283156112e85789936112c0575b5061123e8260649261230c565b049160018311611267575b509761125a8492899a9998996122ff565b9291819950979697611153565b6000198301999190838b116112ae5798808080809d819c9d8c839183156112a4575b1690f11561129a5790989796611249565b88513d89823e3d90fd5b6108fc9250611289565b634e487b7160e01b8a5260118752848afd5b6064919350826112df61123e92883d8a116107f4576107e58183611802565b94925050611231565b88513d8b823e3d90fd5b9050153861114d565b9091508581813d8311611327575b6113138183611802565b8101031261132357519038611142565b8980fd5b503d611309565b89513d8c823e3d90fd5b61134f9150833d8511610ac957610abb8183611802565b386110b2565b86513d89823e3d90fd5b6113769150843d86116107f4576107e58183611802565b3861108a565b6001906110b5565b855162461bcd60e51b81528085018490526025818401527f6d7573742062652067726561746572207468616e203130302077656920746f20604482015264636c61696d60d81b6064820152608490fd5b855162461bcd60e51b8152808501849052601c818401527f757365207769746864726177207768656e206e6f74207374616b6564000000006044820152606490fd5b50634e487b7160e01b86526021835285fd5b61143f9150843d86116107f4576107e58183611802565b38610fe7565b505034610715578160031936011261071557600e5490516001600160a01b039091168152602090f35b50346103615760203660031901126103615760209282913581526001845220549051908152f35b50346103615760203660031901126103615760209282913581526002845220549051908152f35b50903461036157826003193601126103615760018060a01b0380600e541660208351818101906f636f6e74726163742e6164647265737360801b82526a4672656e734f7261636c6560a81b6030820152601b8152611519816117d0565b51902060248551809481936321f8a72160e01b8352898301525afa9081156115c05785916115a2575b5016330361155f57825460ff60a01b1916600360a01b1783558280f35b906020606492519162461bcd60e51b8352820152601860248201527f6d7573742062652063616c6c6564206279206f7261636c6500000000000000006044820152fd5b6115ba915060203d81116107f4576107e58183611802565b38611542565b83513d87823e3d90fd5b50503461071557816003193601126107155761069e906115e86124b2565b9051918291602083526020830190611642565b84903461071557816003193601126107155760209060ff60075460081c1615158152f35b60005b8381106116325750506000910152565b8181015183820152602001611622565b9060209161165b8151809281855285808601910161161f565b601f01601f1916010190565b9181601f840112156116955782359167ffffffffffffffff8311611695576020838186019501011161169557565b600080fd5b9060806003198301126116955767ffffffffffffffff60043581811161169557836116c791600401611667565b9390939260243583811161169557826116e291600401611667565b93909392604435918211611695576116fc91600401611667565b909160643590565b90600182811c92168015611734575b602083101461171e57565b634e487b7160e01b600052602260045260246000fd5b91607f1691611713565b6008546000929161174e82611704565b808252916001908181169081156117b3575060011461176c57505050565b919293506008600052600080516020612647833981519152916000925b84841061179b57505060209250010190565b80546020858501810191909152909301928101611789565b915050602093945060ff929192191683830152151560051b010190565b6040810190811067ffffffffffffffff8211176117ec57604052565b634e487b7160e01b600052604160045260246000fd5b90601f8019910116810190811067ffffffffffffffff8211176117ec57604052565b1561182b57565b60405162461bcd60e51b81526020600482015260166024820152756e6f7420616363657074696e67206465706f7369747360501b6044820152606490fd5b9190820180921161187657565b634e487b7160e01b600052601160045260246000fd5b1561189357565b60405162461bcd60e51b815260206004820152602960248201527f746f74616c206465706f736974732063616e6e6f74206265206d6f72652074686044820152680c2dc406664408ae8d60bb1b6064820152608490fd5b9081602091031261169557516001600160a01b03811681036116955790565b1561191057565b60405162461bcd60e51b815260206004820152601960248201527f77726f6e67207374616b696e6720706f6f6c20666f72206964000000000000006044820152606490fd5b90816020910312611695575180151581036116955790565b67ffffffffffffffff81116117ec57601f01601f191660200190565b9291926119958261196d565b916119a36040519384611802565b829481845281830111611695578281602093846000960137010152565b156119c757565b60405162461bcd60e51b815260206004820152600b60248201526a77726f6e6720737461746560a81b6044820152606490fd5b6801bc16d674ec80000090814710611de85760049180835403611dae57600090815460ff8160a01c1685811015611d9b57611a3860018092146119c0565b60ff60075460101c1615611d635760018060a01b039384600e54166040958651602095868201937f65787465726e616c2e636f6e74726163742e616464726573730000000000000085526e11195c1bdcda5d10dbdb9d1c9858dd608a1b603984015260288352606083019067ffffffffffffffff9584831087841117611d4f57828c52845190206321f8a72160e01b835260648501528890829060249082905afa928315611d45578693611d10575b505060ff60a01b1916600160a11b178455600b54911695863b1561063a5787516304512a2360e31b815260808b82015294849286929190611b2a6084850161173e565b60031985820381016024870152600954879492611b4682611704565b918282528d8582169182600014611cf1575050600114611ca8575b50508584030160448601528592600a5491611b7b83611704565b92838352878d8383169283600014611c8757505050600114611c3b575b5050508391829160648301520391895af18015611c3157611be8575b5050507f72b356fd889b9abd3530accd2c9f4aecbce67d70757181f9f862ac91464ce19293945082519182523390820152a1565b8211611c1e57507f72b356fd889b9abd3530accd2c9f4aecbce67d70757181f9f862ac91464ce192949550835284933880611bb4565b634e487b7160e01b815260418752602490fd5b86513d84823e3d90fd5b918b939450600a88526000805160206126278339815191529288935b828510611c6c57505050010190808480611b98565b80548486018701528b99508c98508d95909401938101611c57565b60ff19168582015294151560051b9093019093019450839250819050611b98565b8c929550600989526000805160206126678339815191529189925b818410611cd65750500101923880611b61565b80548385018601528c9a508d99508e94909301928501611cc3565b60ff19168382015292151560051b909101909101945038905080611b61565b611d3592935060609089903d8b11611d3d575b611d2d8285611802565b0101906118ea565b903880611ae7565b3d9150611d23565b8a513d88823e3d90fd5b50634e487b7160e01b875260418d52602487fd5b60405162461bcd60e51b815260208188015260116024820152701d985b1a59185d1bdc881b9bdd081cd95d607a1b6044820152606490fd5b634e487b7160e01b845260218652602484fd5b60405162461bcd60e51b815260208185015260136024820152726e6f7420656e6f756768206465706f7369747360681b6044820152606490fd5b60405162461bcd60e51b815260206004820152600e60248201526d0dcdee840cadcdeeaced040cae8d60931b6044820152606490fd5b929094939194600160f81b30019081301161187657604051602092838201908152838252611e4b826117d0565b611e5636868b611989565b84815191012091519020036122ba5760075460ff8116612252575b5060009260ff845460a01c1697600489101561223e57611e946001809a146119c0565b67ffffffffffffffff9283811161222a5780611eb1600854611704565b98601f998a81116121cf575b5087908a831160011461215957889261214e575b5050600019600383901b1c1916908a1b176008555b82821161213a578190611efa600954611704565b8881116120df575b508590888311600114612072578692612067575b5050600019600383901b1c191690881b176009555b851161205357611f3c600a54611704565b848111612003575b5081938511600114611f91575091839491849394611f86575b50501b916000199060031b1c191617600a555b600b556201000062ff0000196007541617600755565b013592503880611f5d565b600a825260008051602061262783398151915293918591601f19831691905b88838310611fe95750505010611fcf575b505050811b01600a55611f70565b0135600019600384901b60f8161c19169055388080611fc1565b868601358855909601959384019387935090810190611fb0565b600a83526000805160206126278339815191528580880160051c82019284891061204a575b0160051c019087905b82811061203f575050611f44565b848155018790612031565b92508192612028565b634e487b7160e01b82526041600452602482fd5b013590503880611f16565b600987528a935060008051602061266783398151915291601f198416885b888282106120c957505084116120af575b505050811b01600955611f2b565b0135600019600384901b60f8161c191690553880806120a1565b8385013586558e97909501949283019201612090565b909150600986526000805160206126678339815191528880850160051c820192878610612131575b918c91869594930160051c01915b828110612123575050611f02565b8881558594508c9101612115565b92508192612107565b634e487b7160e01b85526041600452602485fd5b013590503880611ed1565b600889528c935060008051602061264783398151915291601f1984168a5b8a8282106121b05750508411612196575b505050811b01600855611ee6565b0135600019600384901b60f8161c19169055388080612188565b91929596849587849396013581550195019201908e9594939291612177565b909150600888526000805160206126478339815191528a80850160051c820192898610612221575b918e91869594930160051c01915b828110612213575050611ebd565b8a81558594508e9101612205565b925081926121f7565b634e487b7160e01b86526041600452602486fd5b634e487b7160e01b85526021600452602485fd5b60009081549060ff8260a01c1660048110156122a6579061227560ff92156119c0565b60101c166122925760ff60a01b1916600160a01b17905538611e71565b634e487b7160e01b82526001600452602482fd5b634e487b7160e01b84526021600452602484fd5b60405162461bcd60e51b815260048101839052601e60248201527f7769746864726177616c2063726564656e7469616c206d69736d6174636800006044820152606490fd5b9190820391821161187657565b8181029291811591840414171561187657565b471561238c57600090815260016020526040812054600260205261235560408320549161234f4760055490611869565b9061230c565b600454908115612378570480156123735761237092506122ff565b90565b505090565b634e487b7160e01b84526012600452602484fd5b50600090565b600060ff815460a01c1691600483101561249e57600183036123b45750905090565b6123bd9061231f565b9160018060a01b03600e5416602060405181810190731c1c9bdd1bd8dbdb0b9999594b9c195c98d95b9d60621b8252601481526123f9816117d0565b51902060246040518094819363bd02d0f560e01b835260048301525afa92831561249257809361245c575b50508115159081612450575b50612439575090565b906064612449826123709461230c565b04906122ff565b60039150141538612430565b909192506020823d821161248a575b8161247860209383611802565b810103126104fb575051903880612424565b3d915061246b565b604051903d90823e3d90fd5b634e487b7160e01b82526021600452602482fd5b60ff60005460a01c1660048110156125b857801561257e576002811461255b576001811461252c5760031461250a576040516124ed816117d0565b600d81526c7374617465206661696c75726560981b602082015290565b604051612516816117d0565b6006815265195e1a5d195960d21b602082015290565b50604051612539816117d0565b6012815271616363657074696e67206465706f7369747360701b602082015290565b50604051612568816117d0565b60068152651cdd185ad95960d21b602082015290565b5060405161258b816117d0565b601781527f6177616974696e672076616c696461746f7220696e666f000000000000000000602082015290565b634e487b7160e01b600052602160045260246000fd5b6000546001600160a01b031633036125e257565b606460405162461bcd60e51b815260206004820152602060248201527f4f776e61626c653a2063616c6c6572206973206e6f7420746865206f776e65726044820152fdfec65a7bb8d6351c1cf70c95a316cc6a92839c986682d98bc35f958f4883f9d2a8f3f7a9fe364faab93b216da50a3214154f22a0a2b415b23a84c8169e8b636ee36e1540171b6c0c960b71a7020d9f60077f6af931a8bbf590da0223dacf75c7afa264697066735822122072feedbdc6cab73fe12b9f69bd242c650a318b050900a841c464060bfec98fd364736f6c63430008110033a26469706673582212209e24626560b9d563b43f4c69357f88ea41d1c5b137072b6b5def024c66166e8d64736f6c63430008110033",
    "linkReferences": {}
  },
  "methodIdentifiers": {
    "create(address,bool)": "319e9090"
  },
  "id": 7
}