{
  "abi": [
    {
      "inputs": [
        {
          "internalType": "contract IFrensStorage",
          "name": "_frensStorage",
          "type": "address"
        }
      ],
      "stateMutability": "nonpayable",
      "type": "constructor"
    },
    {
      "anonymous": false,
      "inputs": [
        {
          "indexed": true,
          "internalType": "address",
          "name": "contractAddress",
          "type": "address"
        },
        {
          "indexed": false,
          "internalType": "address",
          "name": "creator",
          "type": "address"
        },
        {
          "indexed": false,
          "internalType": "address",
          "name": "owner",
          "type": "address"
        }
      ],
      "name": "Create",
      "type": "event"
    },
    {
      "inputs": [
        {
          "internalType": "address",
          "name": "owner_",
          "type": "address"
        },
        {
          "internalType": "bool",
          "name": "validatorLocked",
          "type": "bool"
        },
        {
          "internalType": "bool",
          "name": "frensLocked",
          "type": "bool"
        },
        {
          "internalType": "uint256",
          "name": "poolMin",
          "type": "uint256"
        },
        {
          "internalType": "uint256",
          "name": "poolMax",
          "type": "uint256"
        }
      ],
      "name": "create",
      "outputs": [
        {
          "internalType": "address",
          "name": "",
          "type": "address"
        }
      ],
      "stateMutability": "nonpayable",
      "type": "function"
    },
    {
      "inputs": [],
      "name": "version",
      "outputs": [
        {
          "internalType": "uint8",
          "name": "",
          "type": "uint8"
        }
      ],
      "stateMutability": "view",
      "type": "function"
    }
  ],
  "bytecode": {
    "object": "0x60803461008557601f6129de38819003918201601f19168301916001600160401b0383118484101761008a5780849260209460405283398101031261008557516001600160a01b038116810361008557600080546001600160a81b03191660089290921b610100600160a81b031691909117600217905560405161293d90816100a18239f35b600080fd5b634e487b7160e01b600052604160045260246000fdfe60806040908082526004918236101561001757600080fd5b600091823560e01c90816354fd4d50146102a1575063e403e1ae1461003b57600080fd5b3461029a5760a036600319011261029a576001600160a01b03918335838116919082900361029e5760249081359586151580970361029a576044358015158091036102195782548651612611918282019067ffffffffffffffff938383108584111761027e57918b8493928e95936102f785398b835260209e8f84015260081c168b820152036060019086f0918215610290578851908b82016f636f6e74726163742e6164647265737360801b81526e233932b739a837b7b629b2ba3a32b960891b6030840152601f83528a8301918383109083111761027e578189818f938f908f83905287519020908c5460081c16906321f8a72160e01b835260448801525afa918215610274578b8d9493928992839461022e575b505060a4939495169b8c928c519788968795637201f0d760e11b87528b8701528c860152604485015260643560648501526084356084850152165af19081156102245783916101ea575b50156101da575050507fb224da6575b2c2ffd42454faedb236f7dbe5f92a0c96bb99c0273dbe98464c7e82849281519033825287820152a251908152f35b634e487b7160e01b825260019052fd5b90508781813d831161021d575b61020181836102be565b8101031261021957518015158103610219573861019c565b8280fd5b503d6101f7565b86513d85823e3d90fd5b9250939594925050813d831161026d575b61024981856102be565b81010312610269575189811681036102695790918a91868b60a438610152565b8580fd5b503d61023f565b8a513d89823e3d90fd5b634e487b7160e01b8852604187528888fd5b88513d87823e3d90fd5b5080fd5b80fd5b83903461029a578160031936011261029a5760ff60209254168152f35b90601f8019910116810190811067ffffffffffffffff8211176102e057604052565b634e487b7160e01b600052604160045260246000fdfe6080604081815234620001d757606082620026118038038091620000248285620001dc565b833981010312620001d7576200003a8262000200565b60209283810151908115158203620001d7578301516001600160a01b039182821691829003620001d7576200006f3362000215565b600180546001600160a01b0319808216851790925586516f636f6e74726163742e6164647265737360801b8982019081526d4672656e73506f6f6c536861726560901b6030830152601e825281890199929692906001600160401b038b11838c1017620001c1578a8a52825190206321f8a72160e01b8b526044830152808a602481895afa918215620001b65760009262000172575b50506200013597985016906002541617600255600014620001565750506001805460ff60a01b1916905562000215565b6000805460ff60a01b1916600160a11b179055516123b490816200025d8239f35b6001600160a81b031990911617600160a01b1760015562000215565b813d8311620001ae575b62000188818d620001dc565b81010312620001ab5750620001a262000135979862000200565b88973862000105565b80fd5b503d6200017c565b89513d6000823e3d90fd5b634e487b7160e01b600052604160045260246000fd5b600080fd5b601f909101601f19168101906001600160401b03821190821017620001c157604052565b51906001600160a01b0382168203620001d757565b600080546001600160a01b039283166001600160a01b03198216811783559216907f8be0079c531659141344cd1fd0a4f28419497f9722a3daafe3b4186f6b6457e09080a356fe608060409080825260049182361015610020575b505050361561001e57005b005b600091823560e01c908163168a4822146111ca575080631865c57d146111ad5780631e83409a14611180578063299179541461112f578063378de45b146110e85780633a4b66f1146110cf578063441a3e7014610e6357806345b58fe414610e0a5780634ad02ef114610da85780634b2b4e3614610c845780634e71d92d14610c6a57806354fd4d5014610c4857806355ec447f14610b7c578063678e300a14610b5c578063715018a614610afe5780638620891c146108fc5780638da5cb5b146108d5578063923331d4146106835780639278e71414610661578063cfb5a5f814610638578063e4fc6b6d1461061f578063e6b1a3ae1461046b578063e920eec014610447578063f2fde38b146103755763f9faa1040361001357816003193601126103715760ff60015460a01c168381101561035e57600161016491146112da565b3415610327578051926101b86801bc16d674ec8000006101b16020966101ac8882016101a283610194308461131f565b03601f1981018552846113af565b349251902061150c565b6113d1565b11156113f4565b81518385808301926f636f6e74726163742e6164647265737360801b84526e233932b739a837b7b629b2ba3a32b960891b6030820152601f81526101fb81611393565b519092206001600160a01b0392908390610214906114a6565b16602486518094819363068b0e0760e41b835234898401525af190811561031d57906102479186916102f0575b5061146a565b6002541690813b156102ec57839160248392855194859384926335313c2160e11b845233908401525af180156102e0576102af575b507f1ed12c9855bd60407f7650e01c62ee4f0f40744b5b17983eec349a2b4e89981a91928151903482523390820152a180f35b916102da7f1ed12c9855bd60407f7650e01c62ee4f0f40744b5b17983eec349a2b4e89981a9361134d565b9161027c565b505051903d90823e3d90fd5b8380fd5b6103109150873d8911610316575b61030881836113af565b810190611452565b38610241565b503d6102fe565b84513d87823e3d90fd5b5162461bcd60e51b8152602081840152601260248201527136bab9ba103232b837b9b4ba1032ba3432b960711b6044820152606490fd5b634e487b7160e01b835260218452602483fd5b5080fd5b50829034610443576020366003190112610443576001600160a01b038235818116939084900361043f578454918216926103b0338514611579565b84156103ed5750506001600160a01b031916821783557f8be0079c531659141344cd1fd0a4f28419497f9722a3daafe3b4186f6b6457e08380a380f35b906020608492519162461bcd60e51b8352820152602660248201527f4f776e61626c653a206e6577206f776e657220697320746865207a65726f206160448201526564647265737360d01b6064820152fd5b8480fd5b8280fd5b82346104685761046561045936611270565b95949094939193611b1b565b80f35b80fd5b50823461044357602090816003193601126102ec5780356001600160a01b038181169182900361061b576104a3818754163314611579565b845163516b636d60e11b81526001848201528681602481865afa9081156106115787916105ba575b5051156105805790602484926105238751858101906f636f6e74726163742e6164647265737360801b82526e233932b739a837b7b629b2ba3a32b960891b6030820152601f815261051b81611393565b5190206114a6565b16938787519586948593637358d1d760e11b85528401525af19182156105735761046593508492610556575b505061146a565b61056c9250803d106103165761030881836113af565b838061054f565b50505051903d90823e3d90fd5b845162461bcd60e51b815280840185905260146024820152731a5b9d985b1a5908185c9d0818dbdb9d1c9858dd60621b6044820152606490fd5b90503d8088833e6105cb81836113af565b81019085818303126106095780519067ffffffffffffffff821161060d57019080601f83011215610609578151610603928701611644565b876104cb565b8780fd5b8880fd5b86513d89823e3d90fd5b8580fd5b8234610468578060031936011261046857610465611d33565b509034610468576020366003190112610468575061065a60209247903561207d565b9051908152f35b823461046857806003193601126104685761067a611d33565b61046533611fe6565b5034610371576060366003190112610371578235906001600160a01b038083169081840361043f576024359560443567ffffffffffffffff81116108d157906106d26106df923690830161123d565b9290938854163314611579565b845161072b602097888301906f185b1b1bddd9590b98dbdb9d1c9858dd60821b82526001600160601b03199060601b16928360308201526024815261072381611377565b519020611718565b1561089757610761908651888101916e636f6e74726163742e65786973747360881b8352602f8201526023815261072381611377565b6108545786808651848682378085810183815203908b885af13d1561084b573d61078a816115f1565b90610797885192836113af565b81528098883d92013e5b1561081b575083926108056107f77fc35e8bcd41711872ec0857c0203db3ea1f3a421cb5000bb65c5a70b89055c682948a9461081798519586953387528b8701528886015260a0606086015260a0850191611afa565b828103608084015288611218565b0390a151928284938452830190611218565b0390f35b845162461bcd60e51b8152908101869052600a6024820152691d1e1b8819985a5b195960b21b6044820152606490fd5b606097506107a1565b845162461bcd60e51b8152908101869052601b60248201527f63616e6e6f742063616c6c204652454e5320636f6e74726163747300000000006044820152606490fd5b855162461bcd60e51b8152808301889052601460248201527318dbdb9d1c9858dd081b9bdd08185b1b1bddd95960621b6044820152606490fd5b8680fd5b5034610371578160031936011261037157905490516001600160a01b039091168152602090f35b50602083366003190182136102ec57803560018060a01b036024848260025416875192838092634f558e7960e01b825287898301525afa908115610611578791610ae1575b5015610aaa576109748551858101906a1c1bdbdb0b999bdc8b9a5960aa1b825284602b820152602b815261051b81611377565b8130911603610a725760ff60015460a01c1683811015610a5f5784929161099f6001604493146112da565b6109e36801bc16d674ec8000006101b16109dc8a51888101906109d4816109c6308561131f565b03601f1981018352826113af565b51902061150c565b34906113d1565b610a278751858101906f636f6e74726163742e6164647265737360801b82526e233932b739a837b7b629b2ba3a32b960891b6030820152601f815261051b81611393565b1693878751958694859363010975af60e31b85528401523460248401525af1918215610573576104659350849261055657505061146a565b634e487b7160e01b875260218452602487fd5b845162461bcd60e51b815280840185905260126024820152711ddc9bdb99c81cdd185ada5b99c81c1bdbdb60721b6044820152606490fd5b845162461bcd60e51b815280840185905260116024820152701a5908191bd95cc81b9bdd08195e1a5cdd607a1b6044820152606490fd5b610af89150853d87116103165761030881836113af565b87610941565b8234610468578060031936011261046857805481906001600160a01b03811690610b29338314611579565b6001600160a01b03191682557f8be0079c531659141344cd1fd0a4f28419497f9722a3daafe3b4186f6b6457e08280a380f35b509034610468576020366003190112610468575061065a6020923561224e565b50829034610443578260031936011261044357610b97611d33565b610b9f612122565b91835b8351811015610c4457610bb58185611da8565b5160025484516331a9108f60e11b815284810192909252602091908290829060249082906001600160a01b03165afa918215610c3a5791610c0391610c0894938992610c0d575b5050611fe6565b611d99565b610ba2565b610c2c9250803d10610c33575b610c2481836113af565b810190611487565b8880610bfc565b503d610c1a565b85513d89823e3d90fd5b8480f35b503461037157816003193601126103715760ff6020925460a01c169051908152f35b823461046857806003193601126104685761046533611fe6565b5082903461044357610c9536611270565b92610cb060018060a09998999594951b038b54163314611579565b875194610cd96020870187610cc530836115c4565b0397610723601f19998a81018352826113af565b15610d9057505050505090610d35610d44928551610d2d602082019282610d213086601a91657075624b657960d01b82526001600160601b03199060601b1660068201520190565b039081018352826113af565b51902061167b565b6020815191012092369161160d565b6020815191012003610d5b5750505b6104656117a9565b906020606492519162461bcd60e51b8352820152600f60248201526e0e0eac496caf240dad2e6dac2e8c6d608b1b6044820152fd5b939750935093610da39750949094611b1b565b610d53565b503461037157816003193601126103715780610df7610817925160208101907376616c696461746f722e7075626c69632e6b657960601b82523060601b603482015260288152610d2d81611377565b9051918291602083526020830190611218565b5034610371578160031936011261037157610e23612122565b815192839260208080860192818752855180945286019401925b828110610e4c57505050500390f35b835185528695509381019392810192600101610e3d565b503461037157806003193601126103715782359260249384359060ff60015460a01c16838110156110bd5760010361107b5760025484516331a9108f60e11b8152808501839052602094916001600160a01b039190869082908b90829086165afa908115611071579082918991611054575b501633036110225783610f0e8751878101906d19195c1bdcda5d0b985b5bdd5b9d60921b825286602e820152602e81526109d481611377565b10610fe957916044859288809a95610f628a9b9a51878101906f636f6e74726163742e6164647265737360801b82526e233932b739a837b7b629b2ba3a32b960891b6030820152601f815261051b81611393565b16878b519788968795630441a3e760e41b87528601528401525af1918215610fdf57849384938493610f9b928592610fc257505061146a565b818115610fb9575b3390f115610faf575080f35b51903d90823e3d90fd5b506108fc610fa3565b610fd89250803d106103165761030881836113af565b388061054f565b85513d86823e3d90fd5b855162461bcd60e51b81528083018690526014818a0152731b9bdd08195b9bdd59da0819195c1bdcda5d195960621b6044820152606490fd5b855162461bcd60e51b8152808301869052600d818a01526c3737ba103a34329037bbb732b960991b6044820152606490fd5b61106b9150873d8911610c3357610c2481836113af565b38610ed5565b87513d8a823e3d90fd5b835162461bcd60e51b8152602081850152601b818801527f63616e6e6f74207769746864726177206f6e6365207374616b656400000000006044820152606490fd5b634e487b7160e01b8652602184528686fd5b82346104685780600319360112610468576104656117a9565b509034610468576020366003190112610468575061065a6020928251848101916d19195c1bdcda5d0b985b5bdd5b9d60921b835235602e820152602e81526109d481611377565b823461046857806003193601126104685761115460018060a01b038254163314611579565b60644711611173575b6001805460ff60a01b1916600360a01b17905580f35b61117b611dd2565b61115d565b82843461037157602036600319011261037157356001600160a01b03811681036103715761046590611fe6565b503461037157816003193601126103715761081790610df7612278565b8284346104685780600319360112610468575061065a826020809401906109d4816109c6308561131f565b60005b8381106112085750506000910152565b81810151838201526020016111f8565b90602091611231815180928185528580860191016111f5565b601f01601f1916010190565b9181601f8401121561126b5782359167ffffffffffffffff831161126b576020838186019501011161126b57565b600080fd5b90608060031983011261126b5767ffffffffffffffff60043581811161126b578361129d9160040161123d565b9390939260243583811161126b57826112b89160040161123d565b9390939260443591821161126b576112d29160040161123d565b909160643590565b156112e157565b60405162461bcd60e51b81526020600482015260166024820152756e6f7420616363657074696e67206465706f7369747360501b6044820152606490fd5b6022916d746f74616c2e6465706f7369747360901b82526001600160601b03199060601b16600e8201520190565b67ffffffffffffffff811161136157604052565b634e487b7160e01b600052604160045260246000fd5b6060810190811067ffffffffffffffff82111761136157604052565b6040810190811067ffffffffffffffff82111761136157604052565b90601f8019910116810190811067ffffffffffffffff82111761136157604052565b919082018092116113de57565b634e487b7160e01b600052601160045260246000fd5b156113fb57565b60405162461bcd60e51b815260206004820152602960248201527f746f74616c206465706f736974732063616e6e6f74206265206d6f72652074686044820152680c2dc406664408ae8d60bb1b6064820152608490fd5b9081602091031261126b5751801515810361126b5790565b1561147157565b634e487b7160e01b600052600160045260246000fd5b9081602091031261126b57516001600160a01b038116810361126b5790565b6001546040516321f8a72160e01b81526004810192909252602090829060249082906001600160a01b03165afa908115611500576000916114e5575090565b6114fd915060203d8111610c3357610c2481836113af565b90565b6040513d6000823e3d90fd5b60015460405163bd02d0f560e01b81526004810192909252602090829060249082906001600160a01b03165afa9081156115005760009161154b575090565b906020823d8211611571575b81611564602093836113af565b8101031261046857505190565b3d9150611557565b1561158057565b606460405162461bcd60e51b815260206004820152602060248201527f4f776e61626c653a2063616c6c6572206973206e6f7420746865206f776e65726044820152fd5b6021916c1d985b1a59185d1bdc8b9cd95d609a1b82526001600160601b03199060601b16600d8201520190565b67ffffffffffffffff811161136157601f01601f191660200190565b929192611619826115f1565b9161162760405193846113af565b82948184528183011161126b578281602093846000960137010152565b90929192611651816115f1565b9161165f60405193846113af565b82948284528282011161126b5760206116799301906111f5565b565b600154604051630180634360e71b815260048101929092526000908190839060249082906001600160a01b03165afa91821561170b5781926116bc57505090565b909291503d8084833e6116cf81836113af565b8101906020818303126102ec5780519067ffffffffffffffff821161043f570181601f820112156102ec576114fd929350602081519101611644565b50604051903d90823e3d90fd5b600154604051633d70e7e560e11b81526004810192909252602090829060249082906001600160a01b03165afa90811561150057600091611757575090565b6114fd915060203d81116103165761030881836113af565b1561177657565b60405162461bcd60e51b815260206004820152600b60248201526a77726f6e6720737461746560a81b6044820152606490fd5b6801bc16d674ec80000090814710611ac4576001549160ff8360a01c166004811015611aae5760016117db911461176f565b6040908151602090611808828201826117f430836115c4565b0392610723601f19948581018352826113af565b15611a7657611846908451610d2d8482019282610d213086601a91657075624b657960d01b82526001600160601b03199060601b1660068201520190565b835195611883838801757769746864726177616c5f63726564656e7469616c7360501b81523060601b98896036820152602a8152610d2d81611377565b936118af865185810190687369676e617475726560b81b82528a6029820152601d8152610d2d81611393565b978651858101917019195c1bdcda5d17d9185d1857dc9bdbdd607a1b83526031820152602581526118df81611377565b5190208651635376ab1f60e11b81526004810191909152916001600160a01b039085846024818585165afa938415611a6b57600094611a3c575b5061196b8851878101907f65787465726e616c2e636f6e74726163742e616464726573730000000000000082526e11195c1bdcda5d10dbdb9d1c9858dd608a1b60398201526028815261051b81611377565b60ff60a01b19909116600160a11b176001551694853b1561126b576000936119cb936119da6119b8938a519c8d97889687966304512a2360e31b8852608060048901526084880190611218565b6003199384888303016024890152611218565b91858303016044860152611218565b9060648301520391865af1948515611a31577f72b356fd889b9abd3530accd2c9f4aecbce67d70757181f9f862ac91464ce1929495611a22575b5082519182523390820152a1565b611a2b9061134d565b38611a14565b83513d6000823e3d90fd5b90938682813d8311611a64575b611a5381836113af565b810103126104685750519238611919565b503d611a49565b88513d6000823e3d90fd5b835162461bcd60e51b81526004810183905260116024820152701d985b1a59185d1bdc881b9bdd081cd95d607a1b6044820152606490fd5b634e487b7160e01b600052602160045260246000fd5b60405162461bcd60e51b815260206004820152600e60248201526d0dcdee840cadcdeeaced040cae8d60931b6044820152606490fd5b908060209392818452848401376000828201840152601f01601f1916010190565b96959293949096600160f81b3001958630116113de576040988951602098898201908152898252611b4b82611393565b611b56368a8961160d565b8a81519101209151902003611cef57611b9a8a51898101906f1d985b1a59185d1bdc8b9b1bd8dad95960821b82523060601b60308201526024815261072381611377565b611c9d575b60ff60015460a01c16956004871015611aae57611c6d611c4a968c96600095611bcb60018e9c1461176f565b611c5e8951611c258d82016f636f6e74726163742e6164647265737360801b81526e233932b739a837b7b629b2ba3a32b960891b6030840152601f8352611c1183611393565b91519091206001600160a01b0391906114a6565b1699519c8d9b8c9a8b996303a483bb60e61b8b52608060048c015260848b0191611afa565b9060031995868a84030160248b0152611afa565b92868403016044870152611afa565b90606483015203925af1918215611c9257611679939450600092610fc257505061146a565b84513d6000823e3d90fd5b60015460ff8160a01c166004811015611aae57611cba901561176f565b611cda611cd48c518b810190610723816109c630856115c4565b1561146a565b60ff60a01b1916600160a01b17600155611b9f565b895162461bcd60e51b815260048101899052601e60248201527f7769746864726177616c2063726564656e7469616c206d69736d6174636800006044820152606490fd5b60ff60015460a01c166004811015611aae57600114611d5457611679611dd2565b60405162461bcd60e51b815260206004820152601c60248201527f757365207769746864726177207768656e206e6f74207374616b6564000000006044820152606490fd5b60001981146113de5760010190565b8051821015611dbc5760209160051b010190565b634e487b7160e01b600052603260045260246000fd5b47906064821115611fa25760409182516020908181016f636f6e74726163742e6164647265737360801b93848252603092694672656e73436c61696d60b01b84820152601a8152611e2281611393565b519091206001600160a01b0391908290611e3b906114a6565b1695611e45612122565b9060005b8251811015611f6c57611e5c8184611da8565b51908a866002541692815180916331a9108f60e11b82528b82600497838983015260249485915afa8015611c92578c948c8f948d6044968e82998b600098611f3e575b505090611eb2611edf926000989961207d565b946e233932b739a837b7b629b2ba3a32b960891b8751918d8301938452820152601f815261051b81611393565b169251998a978896631f72642160e31b885216908601528401525af1918215611f3357611f1792610c0391600091611f1c575061146a565b611e49565b61031091508a3d8c116103165761030881836113af565b8b513d6000823e3d90fd5b6000985091611f61611eb29284611edf9695903d10610c3357610c2481836113af565b98509192508b611e9f565b509796905060009550859450849350839250828215611f99575bf115611f8f5750565b513d6000823e3d90fd5b506108fc611f86565b606460405162461bcd60e51b815260206004820152602060248201527f6d696e696d756d206f66203130302077656920746f20646973747269627574656044820152fd5b6040519060208201916f636f6e74726163742e6164647265737360801b8352694672656e73436c61696d60b01b6030820152601a815261202581611393565b519091206001600160a01b039190829061203e906114a6565b1691823b1561126b576024600092836040519586948593630f41a04d60e11b85521660048401525af18015611500576120745750565b6116799061134d565b6120af9060405160208101916d19195c1bdcda5d0b985b5bdd5b9d60921b8352602e820152602e81526109d481611377565b6120c860405160208101906109d4816109c6308561131f565b91811561211a578181029181830414901517156113de578115612104570460018111156120fe5760001981019081116113de5790565b50600090565b634e487b7160e01b600052601260045260246000fd5b505050600090565b604051602090818101906a1a591ccb9a5b8b9c1bdbdb60aa1b82523060601b602b820152601f815261215381611393565b5190206001546040516378267eb560e11b81526004810192909252600092908390839060249082906001600160a01b03165afa92831561224257809361219a575b50505090565b909192503d8082853e6121ad81856113af565b830190828483031261046857835167ffffffffffffffff94858211610443570182601f8201121561037157805194851161222e578460051b91604051956121f6868501886113af565b8652848087019383010193841161046857508301905b82821061221f5750505050388080612194565b8151815290830190830161220c565b634e487b7160e01b82526041600452602482fd5b604051903d90823e3d90fd5b60ff60015460a01c166004811015611aae5760010361226d5750600090565b6114fd90479061207d565b60ff60015460a01c166004811015611aae578015612344576002811461232157600181146122f2576003146122d0576040516122b381611393565b600d81526c7374617465206661696c75726560981b602082015290565b6040516122dc81611393565b6006815265195e1a5d195960d21b602082015290565b506040516122ff81611393565b6012815271616363657074696e67206465706f7369747360701b602082015290565b5060405161232e81611393565b60068152651cdd185ad95960d21b602082015290565b5060405161235181611393565b601781527f6177616974696e672076616c696461746f7220696e666f00000000000000000060208201529056fea2646970667358221220ca985cda16e67ba22fea6fb836b3a2abba1f5390d38a3dcbaba813a125378e4064736f6c63430008110033a264697066735822122037557d6c9cf7a61b73e9f666658e43b4e960ca25198790f1a9e4bb139837596364736f6c63430008110033",
    "linkReferences": {}
  },
  "methodIdentifiers": {
    "create(address,bool,bool,uint256,uint256)": "e403e1ae",
    "version()": "54fd4d50"
  },
  "id": 12
}