{
  "abi": [
    {
      "inputs": [
        {
          "internalType": "contract IFrensStorage",
          "name": "frensStorage_",
          "type": "address"
        }
      ],
      "stateMutability": "nonpayable",
      "type": "constructor"
    },
    {
      "inputs": [
        {
          "internalType": "uint256",
          "name": "id",
          "type": "uint256"
        }
      ],
      "name": "getDepositStringForId",
      "outputs": [
        {
          "internalType": "string",
          "name": "",
          "type": "string"
        }
      ],
      "stateMutability": "view",
      "type": "function"
    },
    {
      "inputs": [
        {
          "internalType": "address",
          "name": "addr",
          "type": "address"
        }
      ],
      "name": "getEns",
      "outputs": [
        {
          "internalType": "bool",
          "name": "",
          "type": "bool"
        },
        {
          "internalType": "string",
          "name": "",
          "type": "string"
        }
      ],
      "stateMutability": "view",
      "type": "function"
    },
    {
      "inputs": [
        {
          "internalType": "uint256",
          "name": "amountInWei",
          "type": "uint256"
        }
      ],
      "name": "getEthDecimalString",
      "outputs": [
        {
          "internalType": "string",
          "name": "",
          "type": "string"
        }
      ],
      "stateMutability": "pure",
      "type": "function"
    },
    {
      "inputs": [
        {
          "internalType": "uint256",
          "name": "id",
          "type": "uint256"
        }
      ],
      "name": "getPoolString",
      "outputs": [
        {
          "internalType": "string",
          "name": "",
          "type": "string"
        }
      ],
      "stateMutability": "view",
      "type": "function"
    }
  ],
  "bytecode": {
    "object": "0x6080604090808252346101535780610d26803803809161001f8285610158565b833960209283918101031261015357516001600160a01b0380821692909183900361015357600180546001600160a01b0319908116851790915584516f636f6e74726163742e6164647265737360801b8382019081526d4672656e73506f6f6c536861726560901b6030830152601e825291949092838701929091906001600160401b0384118585101761013d5760248484938193828c52885190206321f8a72160e01b835260448901525afa928315610132576000936100f5575b5050501690600054161760005551610baa908161017c8239f35b813d831161012b575b6101088185610158565b81010312610127575190828216820361012457503880806100db565b80fd5b5080fd5b503d6100fe565b86513d6000823e3d90fd5b634e487b7160e01b600052604160045260246000fd5b600080fd5b601f909101601f19168101906001600160401b0382119082101761013d5760405256fe60806040526004361015610013575b600080fd5b60003560e01c806392a2e5ac14610063578063de1c7f701461005a578063edd148a2146100515763ef21184f1461004957600080fd5b61000e6101eb565b5061000e6101bd565b5061000e610178565b3461000e576100bc6100b0610077366100f9565b6020608060248160018060a01b0394856000541690630178b36760e31b83526084525afa80156100ec575b6000906100c0575b16610ac5565b60405191829182610153565b0390f35b5060203d81116100e5575b806100d86100e092610328565b60800161037a565b6100aa565b503d6100cb565b6100f46103a7565b6100a2565b602090600319011261000e5760043590565b60005b83811061011e5750506000910152565b818101518382015260200161010e565b906020916101478151809281855285808601910161010b565b601f01601f1916010190565b90602061016492818152019061012e565b90565b6001600160a01b0381160361000e57565b503461000e57602036600319011261000e5761019e60043561019981610167565b610585565b906100bc6040519283921515835260406020840152604083019061012e565b503461000e576100bc6101d76101d2366100f9565b6103fd565b60405191829160208352602083019061012e565b503461000e576100bc6100b0610200366100f9565b60005461027990610221906001600160a01b03165b6001600160a01b031690565b604051630178b36760e31b81526004810184905260209384929091908390829060249082905afa908115610304575b6000916102d7575b506040518080958194632daad61d60e01b8352600483019190602083019252565b03916001600160a01b03165afa9182156102ca575b60009261029d575b50506103fd565b6102bc9250803d106102c3575b6102b48183610358565b8101906103b4565b3880610296565b503d6102aa565b6102d26103a7565b61028e565b6102f79150833d85116102fd575b6102ef8183610358565b810190610392565b38610258565b503d6102e5565b61030c6103a7565b610250565b50634e487b7160e01b600052604160045260246000fd5b601f80199101166080016080811067ffffffffffffffff82111761034b57604052565b610353610311565b604052565b90601f8019910116810190811067ffffffffffffffff82111761034b57604052565b602090607f19011261000e5760805161016481610167565b9081602091031261000e575161016481610167565b506040513d6000823e3d90fd5b9081602091031261000e575190565b906103fb60216040518094600360fc1b60208301526103eb815180926020868601910161010b565b8101036001810185520183610358565b565b66038d7ea4c68000670de0b6b3a76400006104198184046108de565b92060490610426826108de565b916064811061049d575b600a11610485575b602161016491604051938161045786935180926020808701910161010b565b8201601760f91b6020820152610476825180936020878501910161010b565b01036001810184520182610358565b906021610494610164926103c3565b92915050610438565b916104a9600a916103c3565b929050610430565b60209067ffffffffffffffff81116104cf575b601f01601f19160190565b6104d7610311565b6104c4565b604051906020820182811067ffffffffffffffff821117610501575b60405260008252565b610509610311565b6104f8565b9081602091031261000e5751801515810361000e5790565b60208183031261000e5780519067ffffffffffffffff821161000e570181601f8201121561000e578051610559816104b1565b926105676040519485610358565b8184526020828401011161000e57610164916020808501910161010b565b600154909190610623906105a1906001600160a01b0316610215565b6040516020918183809301906105ff816105f16105e2856019907f65787465726e616c2e636f6e74726163742e616464726573730000000000000081520190565b62454e5360e81b815260030190565b03601f198101835282610358565b5190209060405180809681946321f8a72160e01b8352600483019190602083019252565b03915afa9182156107b7575b600092610798575b506001600160a01b039182169361064d906107c4565b604051630178b8bf60e01b8152600481018290529092908281602481895afa90811561078b575b60009161076e575b501691821561075e57604051631ef3fca760e31b8152600481018290526106de958390829060249082905afa928315610751575b60009361071f575b505060009192604051808097819463691f343160e01b8352600483019190602083019252565b03915afa928315610712575b6000936106f657509190565b61016491933d8091833e61070a8183610358565b810190610526565b61071a6103a7565b6106ea565b60009350908161074392903d1061074a575b61073b8183610358565b81019061050e565b91386106b8565b503d610731565b6107596103a7565b6106b0565b50505090506000906101646104dc565b6107859150833d85116102fd576102ef8183610358565b3861067c565b6107936103a7565b610674565b816107b09293503d84116102fd576102ef8183610358565b9038610637565b6107bf6103a7565b61062f565b6028805b610835575050602860002060405160208101917f91d1777781884d03a6757a803996e38de2a42967fb37eeaca72729271025a9e283526040820152604081526060810181811067ffffffffffffffff821117610828575b60405251902090565b610830610311565b61081f565b6f181899199a1a9b1b9c1cb0b131b232b360811b91600f9182821684901a600019820153600119019283928260041c161a825360081c916107c8565b604051906060820182811067ffffffffffffffff82111761089f575b604052602a8252604082602036910137565b6108a7610311565b61088d565b906108b6826104b1565b6108c36040519182610358565b82815280926108d4601f19916104b1565b0190602036910137565b806000917a184f03e93ff9f4daa797ed6e38ed64bf6a1f01000000000000000080821015610a13575b506d04ee2d6d415b85acef810000000080831015610a04575b50662386f26fc10000808310156109f5575b506305f5e100808310156109e6575b50612710808310156109d7575b5060648210156109c7575b600a809210156109bd575b6001908160216109758287016108ac565b95860101905b610987575b5050505090565b600019019083906f181899199a1a9b1b9c1cb0b131b232b360811b8282061a8353049182156109b85791908261097b565b610980565b9160010191610964565b9190606460029104910191610959565b6004919392049101913861094e565b60089193920491019138610941565b60109193920491019138610932565b60209193920491019138610920565b604093508104915038610907565b50634e487b7160e01b600052603260045260246000fd5b906020918051821015610a4a57010190565b610a52610a21565b010190565b8015610a64576000190190565b634e487b7160e01b600052601160045260246000fd5b15610a8157565b606460405162461bcd60e51b815260206004820152602060248201527f537472696e67733a20686578206c656e67746820696e73756666696369656e746044820152fd5b610acd610871565b90815115610b67575b603060208301538151600190811015610b5a575b90607860218401536029915b808311610b095750610164915015610a7a565b9080600f610b4692166010811015610b4d575b6f181899199a1a9b1b9c1cb0b131b232b360811b901a610b3c8587610a38565b5360041c92610a57565b9190610af6565b610b55610a21565b610b1c565b610b62610a21565b610aea565b610b6f610a21565b610ad656fea2646970667358221220324280621f0ebd76ad87d7ab575b874e28f7373f8e15a58e2def8cac8ed4de5464736f6c63430008110033",
    "linkReferences": {}
  },
  "methodIdentifiers": {
    "getDepositStringForId(uint256)": "ef21184f",
    "getEns(address)": "de1c7f70",
    "getEthDecimalString(uint256)": "edd148a2",
    "getPoolString(uint256)": "92a2e5ac"
  },
  "id": 2
}