{
  "abi": [
    {
      "inputs": [
        {
          "internalType": "contract IFrensStorage",
          "name": "_frensStorage",
          "type": "address"
        }
      ],
      "stateMutability": "nonpayable",
      "type": "constructor"
    },
    {
      "inputs": [
        {
          "internalType": "uint256",
          "name": "id",
          "type": "uint256"
        }
      ],
      "name": "getDepositStringForId",
      "outputs": [
        {
          "internalType": "string",
          "name": "",
          "type": "string"
        }
      ],
      "stateMutability": "view",
      "type": "function"
    },
    {
      "inputs": [
        {
          "internalType": "address",
          "name": "addr",
          "type": "address"
        }
      ],
      "name": "getEns",
      "outputs": [
        {
          "internalType": "bool",
          "name": "",
          "type": "bool"
        },
        {
          "internalType": "string",
          "name": "",
          "type": "string"
        }
      ],
      "stateMutability": "view",
      "type": "function"
    },
    {
      "inputs": [
        {
          "internalType": "uint256",
          "name": "amountInWei",
          "type": "uint256"
        }
      ],
      "name": "getEthDecimalString",
      "outputs": [
        {
          "internalType": "string",
          "name": "",
          "type": "string"
        }
      ],
      "stateMutability": "pure",
      "type": "function"
    },
    {
      "inputs": [
        {
          "internalType": "address",
          "name": "poolAddress",
          "type": "address"
        }
      ],
      "name": "getOperatorsForPool",
      "outputs": [
        {
          "internalType": "uint32[]",
          "name": "",
          "type": "uint32[]"
        },
        {
          "internalType": "string",
          "name": "",
          "type": "string"
        }
      ],
      "stateMutability": "view",
      "type": "function"
    },
    {
      "inputs": [
        {
          "internalType": "uint256",
          "name": "id",
          "type": "uint256"
        }
      ],
      "name": "getPoolString",
      "outputs": [
        {
          "internalType": "string",
          "name": "",
          "type": "string"
        }
      ],
      "stateMutability": "view",
      "type": "function"
    },
    {
      "inputs": [],
      "name": "version",
      "outputs": [
        {
          "internalType": "uint8",
          "name": "",
          "type": "uint8"
        }
      ],
      "stateMutability": "view",
      "type": "function"
    }
  ],
  "bytecode": {
    "object": "0x60803461008257601f610ffc38819003918201601f19168301916001600160401b038311848410176100875780849260209460405283398101031261008257516001600160a01b038116810361008257600080546001600160a81b03191660089290921b610100600160a81b0316919091179055604051610f5e908161009e8239f35b600080fd5b634e487b7160e01b600052604160045260246000fdfe60806040526004361015610013575b600080fd5b6000803560e01c90816354fd4d501461008e5750806392a2e5ac14610085578063a090f9b41461007c578063de1c7f7014610073578063edd148a21461006a5763ef21184f1461006257600080fd5b61000e610412565b5061000e6103e4565b5061000e61039f565b5061000e610282565b5061000e61011d565b346100ac57806003193601126100ac5760ff90541660805260206080f35b80fd5b602090600319011261000e5760043590565b60005b8381106100d45750506000910152565b81810151838201526020016100c4565b906020916100fd815180928185528580860191016100c1565b601f01601f1916010190565b90602061011a9281815201906100e4565b90565b503461000e5761012c366100af565b61017f6040519161016b8361015d602082019384602b916a1c1bdbdb0b999bdc8b9a5960aa1b8252600b8201520190565b03601f19810185528461046c565b91519091206001600160a01b03919061071e565b16610188610978565b90603061019483610a40565b5360786101a083610a56565b5360295b600181116101ca576101c6836101ba8415610edd565b60405191829182610109565b0390f35b9080600f6102079216601081101561020c575b6f181899199a1a9b1b9c1cb0b131b232b360811b901a6101fd8486610a67565b5360041c91610ec2565b6101a4565b610214610a29565b6101dd565b6001600160a01b0381160361000e57565b919091604081019260408252606051809452606082019160806000955b80871061026357505061011a93945060208184039101526100e4565b909360019063ffffffff86511681526020809101950196019590610247565b503461000e57602036600319011261000e576004356102a081610219565b6040516020810191657075624b657960d01b83526bffffffffffffffffffffffff199060601b166026820152601a81526102d981610443565b5190206000908160018060a01b03815460081c1691602460405180948193630180634360e71b835260048301525afa918215610392575b809261032f575b6101c661032384610a94565b6040519182918261022a565b9091503d8082843e610341818461046c565b82019160208184031261038e5780519067ffffffffffffffff821161038a57019082601f830112156100ac57506103846101c692826020610323945191016104b9565b91610317565b8280fd5b5080fd5b61039a610527565b610310565b503461000e57602036600319011261000e576103c56004356103c081610219565b610bb6565b906101c6604051928392151583526040602084015260408301906100e4565b503461000e576101c66103fe6103f9366100af565b6108a6565b6040519182916020835260208301906100e4565b503461000e576101c66103fe610427366100af565b61059a565b50634e487b7160e01b600052604160045260246000fd5b6040810190811067ffffffffffffffff82111761045f57604052565b61046761042c565b604052565b90601f8019910116810190811067ffffffffffffffff82111761045f57604052565b60209067ffffffffffffffff81116104ac575b601f01601f19160190565b6104b461042c565b6104a1565b909291926104c68161048e565b916104d4604051938461046c565b82948284528282011161000e5760206104ee9301906100c1565b565b60208183031261000e5780519067ffffffffffffffff821161000e57019080601f8301121561000e57815161011a926020016104b9565b506040513d6000823e3d90fd5b90610547602092828151948592016100c1565b0190565b604051906020820182811067ffffffffffffffff821117610570575b60405260008252565b61057861042c565b610567565b6040519061058a82610443565b60018252600360fc1b6020830152565b604051906105e460208301836105c88483602b916a1c1bdbdb0b999bdc8b9a5960aa1b8252600b8201520190565b03936105dc601f199586810183528261046c565b51902061071e565b604051631865c57d60e01b81526000816004816001600160a01b0386165afa9081156106fc575b6000916106db575b5060405161063581610629602082018095610534565b0386810183528261046c565b51902060405165195e1a5d195960d21b6020820190815260268681018352909190610660908261046c565b519020146106d0576106bc6106c861011a946103f99460405193849160208301968790916042926d19195c1bdcda5d0b985b5bdd5b9d60921b83526bffffffffffffffffffffffff199060601b16600e83015260228201520190565b0390810183528261046c565b519020610796565b50505061011a61057d565b6106f6913d8091833e6106ee818361046c565b8101906104f0565b38610613565b610704610527565b61060b565b9081602091031261000e575161011a81610219565b6000546040516321f8a72160e01b815260048101929092526020908290602490829060081c6001600160a01b03165afa908115610789575b600091610761575090565b61011a915060203d8111610782575b61077a818361046c565b810190610709565b503d610770565b610791610527565b610756565b60005460405163bd02d0f560e01b815260048101929092526020908290602490829060081c6001600160a01b03165afa908115610807575b6000916107d9575090565b906020823d82116107ff575b816107f26020938361046c565b810103126100ac57505190565b3d91506107e5565b61080f610527565b6107ce565b50634e487b7160e01b600052601260045260246000fd5b50634e487b7160e01b600052601160045260246000fd5b811561084c570490565b610854610814565b0490565b8115610862570690565b61086a610814565b0690565b906104ee60216040518094600360fc1b602083015261089681518092602086860191016100c1565b810103600181018552018361046c565b66038d7ea4c68000670de0b6b3a76400006108c2818404610e1d565b920604906108cf82610e1d565b9160648110610946575b600a1161092e575b602161011a9160405193816109008693518092602080870191016100c1565b8201601760f91b602082015261091f82518093602087850191016100c1565b0103600181018452018261046c565b90602161093d61011a9261086e565b929150506108e1565b91610952600a9161086e565b9290506108d9565b908160011b918083046002149015171561097057565b6104ee61082b565b604051906060820182811067ffffffffffffffff8211176109a6575b604052602a8252604082602036910137565b6109ae61042c565b610994565b906109bd8261048e565b6109ca604051918261046c565b82815280926109db601f199161048e565b0190602036910137565b604051906109f282610443565b601082526f181899199a1a9b1b9c1cb0b131b232b360811b6020830152565b6001906000198114610a21570190565b61054761082b565b50634e487b7160e01b600052603260045260246000fd5b602090805115610a4e570190565b610547610a29565b602190805160011015610a4e570190565b906020918051821015610a7957010190565b610a81610a29565b010190565b906001820180921161097057565b90610aa7610aa2835161095a565b6109b3565b610aaf6109e5565b600093845b8151811015610b685780610b3f610ada610b39610aee610ae8610ada610b639789610a67565b516001600160f81b03191690565b60f81c90565b610b09610ada610b038a5160ff809516610842565b8a610a67565b610b1f610b158761095a565b918d1a918b610a67565b53610b30610ae8610ada878a610a67565b88519116610858565b86610a67565b610b5d610b53610b4e8461095a565b610a86565b91891a9187610a67565b53610a11565b610ab4565b505060405161060f60f31b602082015292935061011a91839150610b90906022830190610534565b03601f19810183528261046c565b9081602091031261000e5751801515810361000e5790565b90604051610c20610c1a610c0e602093848101906105dc81610b90610bff856019907f65787465726e616c2e636f6e74726163742e616464726573730000000000000081520190565b62454e5360e81b815260030190565b6001600160a01b031690565b93610d70565b604051630178b8bf60e01b8152600481018290526001600160a01b0394851694919291908281602481895afa908115610d63575b600091610d46575b5016918215610d3657604051631ef3fca760e31b815260048101829052610cbe958390829060249082905afa928315610d29575b600093610cf7575b505060009192604051808097819463691f343160e01b8352600483019190602083019252565b03915afa928315610cea575b600093610cd657509190565b61011a91933d8091833e6106ee818361046c565b610cf2610527565b610cca565b600093509081610d1b92903d10610d22575b610d13818361046c565b810190610b9e565b9138610c98565b503d610d09565b610d31610527565b610c90565b505050905060009061011a61054b565b610d5d9150833d85116107825761077a818361046c565b38610c5c565b610d6b610527565b610c54565b6028805b610de1575050602860002060405160208101917f91d1777781884d03a6757a803996e38de2a42967fb37eeaca72729271025a9e283526040820152604081526060810181811067ffffffffffffffff821117610dd4575b60405251902090565b610ddc61042c565b610dcb565b6f181899199a1a9b1b9c1cb0b131b232b360811b91600f9182821684901a600019820153600119019283928260041c161a825360081c91610d74565b8015610eb9576000818181805b610ea15750610e38816109b3565b935b610e445750505090565b6000198101908111610e94575b8091600a91610e7e60308484068101809111610e87575b60f81b6001600160f81b031916861a9187610a67565b53049081610e3a565b610e8f61082b565b610e68565b610e9c61082b565b610e51565b9150610eae600a91610a11565b910480849291610e2a565b5061011a61057d565b8015610ed0575b6000190190565b610ed861082b565b610ec9565b15610ee457565b606460405162461bcd60e51b815260206004820152602060248201527f537472696e67733a20686578206c656e67746820696e73756666696369656e746044820152fdfea264697066735822122083acc15c2a6c87f490063b4964e1de763e27cbeb7f4db3d1d7545d301c57830f64736f6c63430008110033",
    "linkReferences": {}
  },
  "methodIdentifiers": {
    "getDepositStringForId(uint256)": "ef21184f",
    "getEns(address)": "de1c7f70",
    "getEthDecimalString(uint256)": "edd148a2",
    "getOperatorsForPool(address)": "a090f9b4",
    "getPoolString(uint256)": "92a2e5ac",
    "version()": "54fd4d50"
  },
  "id": 7
}