{
  "abi": [
    {
      "inputs": [
        {
          "internalType": "contract IFrensStorage",
          "name": "_frensStorage",
          "type": "address"
        }
      ],
      "stateMutability": "nonpayable",
      "type": "constructor"
    },
    {
      "inputs": [
        {
          "internalType": "address",
          "name": "a",
          "type": "address"
        }
      ],
      "name": "getColor",
      "outputs": [
        {
          "internalType": "string",
          "name": "",
          "type": "string"
        }
      ],
      "stateMutability": "pure",
      "type": "function"
    },
    {
      "inputs": [
        {
          "internalType": "uint256",
          "name": "id",
          "type": "uint256"
        }
      ],
      "name": "getDepositStringForId",
      "outputs": [
        {
          "internalType": "string",
          "name": "",
          "type": "string"
        }
      ],
      "stateMutability": "view",
      "type": "function"
    },
    {
      "inputs": [
        {
          "internalType": "address",
          "name": "addr",
          "type": "address"
        }
      ],
      "name": "getEns",
      "outputs": [
        {
          "internalType": "bool",
          "name": "",
          "type": "bool"
        },
        {
          "internalType": "string",
          "name": "",
          "type": "string"
        }
      ],
      "stateMutability": "view",
      "type": "function"
    },
    {
      "inputs": [
        {
          "internalType": "uint256",
          "name": "amountInWei",
          "type": "uint256"
        }
      ],
      "name": "getEthDecimalString",
      "outputs": [
        {
          "internalType": "string",
          "name": "",
          "type": "string"
        }
      ],
      "stateMutability": "pure",
      "type": "function"
    },
    {
      "inputs": [
        {
          "internalType": "address",
          "name": "poolAddress",
          "type": "address"
        }
      ],
      "name": "getOperatorsForPool",
      "outputs": [
        {
          "internalType": "uint32[]",
          "name": "",
          "type": "uint32[]"
        },
        {
          "internalType": "string",
          "name": "",
          "type": "string"
        }
      ],
      "stateMutability": "view",
      "type": "function"
    },
    {
      "inputs": [],
      "name": "version",
      "outputs": [
        {
          "internalType": "uint8",
          "name": "",
          "type": "uint8"
        }
      ],
      "stateMutability": "view",
      "type": "function"
    }
  ],
  "bytecode": {
    "object": "0x60803461008257601f6110e538819003918201601f19168301916001600160401b038311848410176100875780849260209460405283398101031261008257516001600160a01b038116810361008257600080546001600160a81b03191660089290921b610100600160a81b0316919091179055604051611047908161009e8239f35b600080fd5b634e487b7160e01b600052604160045260246000fdfe60806040526004361015610013575b600080fd5b6000803560e01c90816354fd4d501461008e5750806384b5e59614610085578063a090f9b41461007c578063de1c7f7014610073578063edd148a21461006a5763ef21184f1461006257600080fd5b61000e610414565b5061000e6103e6565b5061000e61038f565b5061000e610216565b5061000e61011c565b346100ac57806003193601126100ac5760ff90541660805260206080f35b80fd5b6001600160a01b0381160361000e57565b60005b8381106100d35750506000910152565b81810151838201526020016100c3565b906020916100fc815180928185528580860191016100c0565b601f01601f1916010190565b9060206101199281815201906100e3565b90565b503461000e57602036600319011261000e576101bf6101b3600435610140816100af565b60405161017a8161016c6020820194856014916bffffffffffffffffffffffff199060601b1681520190565b03601f19810183528261046e565b519020600081901a60f81b6001600160f81b031916600182901a60f01b60ff60f01b161760029190911a60e81b60ff60e81b1617610ebe565b60405191829182610108565b0390f35b9092916040820191604081528451809352606081019260208096019060005b8181106101fc5750505061011993948184039101526100e3565b825163ffffffff16865294870194918701916001016101e2565b503461000e57602036600319011261000e57600435610234816100af565b61033d600061029f60405193846102836020820192836028917376616c696461746f722e7075626c69632e6b657960601b82526bffffffffffffffffffffffff199060601b1660148201520190565b0394610297601f199687810183528261046e565b5190206109eb565b6103226103166103166102b184610b53565b9660405161030e6020820192826103026102eb866019907865787465726e616c2e636f6e74726163742e6164647265737360381b81520190565b6a535356526567697374727960a81b8152600b0190565b0390810183528261046e565b5190206106ff565b6001600160a01b031690565b604051808095819463053e834960e01b835260048301610108565b03915afa908115610382575b600091610361575b506101bf604051928392836101c3565b61037c913d8091833e610374818361046e565b810190610954565b38610351565b61038a610540565b610349565b503461000e57602036600319011261000e576103b56004356103b0816100af565b610c67565b906101bf604051928392151583526040602084015260408301906100e3565b602090600319011261000e5760043590565b503461000e576101bf6104006103fb366103d4565b610887565b6040519182916020835260208301906100e3565b503461000e576101bf610400610429366103d4565b6105b3565b50634e487b7160e01b600052604160045260246000fd5b6040810190811067ffffffffffffffff82111761046157604052565b61046961042e565b604052565b90601f8019910116810190811067ffffffffffffffff82111761046157604052565b50634e487b7160e01b600052603260045260246000fd5b60209067ffffffffffffffff81116104c5575b601f01601f19160190565b6104cd61042e565b6104ba565b909291926104df816104a7565b916104ed604051938461046e565b82948284528282011161000e5760206105079301906100c0565b565b60208183031261000e5780519067ffffffffffffffff821161000e57019080601f8301121561000e578151610119926020016104d2565b506040513d6000823e3d90fd5b90610560602092828151948592016100c0565b0190565b604051906020820182811067ffffffffffffffff821117610589575b60405260008252565b61059161042e565b610580565b604051906105a382610445565b60018252600360fc1b6020830152565b6040516004600061060161031661031661031660208701876105ed8a83602b916a1c1bdbdb0b999bdc8b9a5960aa1b8252600b8201520190565b039761030e601f19998a810183528261046e565b604051631865c57d60e01b815292839182905afa9081156106dd575b6000916106bc575b5060405165195e1a5d195960d21b602082019081529061065081602681015b0385810183528261046e565b519020906040516106698161064460208201809561054d565b519020146106b257610119916103fb916106aa6040519182610302602082019586602e916d19195c1bdcda5d0b985b5bdd5b9d60921b8252600e8201520190565b519020610777565b5050610119610596565b6106d7913d8091833e6106cf818361046e565b810190610509565b38610625565b6106e5610540565b61061d565b9081602091031261000e5751610119816100af565b6000546040516321f8a72160e01b815260048101929092526020908290602490829060081c6001600160a01b03165afa90811561076a575b600091610742575090565b610119915060203d8111610763575b61075b818361046e565b8101906106ea565b503d610751565b610772610540565b610737565b60005460405163bd02d0f560e01b815260048101929092526020908290602490829060081c6001600160a01b03165afa9081156107e8575b6000916107ba575090565b906020823d82116107e0575b816107d36020938361046e565b810103126100ac57505190565b3d91506107c6565b6107f0610540565b6107af565b50634e487b7160e01b600052601260045260246000fd5b50634e487b7160e01b600052601160045260246000fd5b811561082d570490565b6108356107f5565b0490565b8115610843570690565b61084b6107f5565b0690565b9061050760216040518094600360fc1b602083015261087781518092602086860191016100c0565b810103600181018552018361046e565b655af3107a4000670de0b6b3a76400006108a2818404610f6c565b920604906108af82610f6c565b916103e88110610944575b60648110610930575b600a11610918575b60216101199160405193816108ea8693518092602080870191016100c0565b8201601760f91b602082015261090982518093602087850191016100c0565b0103600181018452018261046e565b9060216109276101199261084f565b929150506108cb565b9161093c600a9161084f565b9290506108c3565b9161094e9061084f565b916108ba565b90602090818382031261000e57825167ffffffffffffffff9384821161000e570181601f8201121561000e5780519384116109de575b8360051b906040519461099f8584018761046e565b8552838086019282010192831161000e578301905b8282106109c2575050505090565b815163ffffffff8116810361000e5781529083019083016109b4565b6109e661042e565b61098a565b60008054604051630180634360e71b8152600481019390935281908390602490829060081c6001600160a01b03165afa918215610a85575b8192610a2e57505090565b909291503d8084833e610a41818361046e565b810190602081830312610a7d5780519067ffffffffffffffff8211610a81570181601f82011215610a7d576101199293506020815191016104d2565b8380fd5b8480fd5b610a8d610540565b610a23565b908160011b9180830460021490151715610aa857565b61050761080c565b90610aba826104a7565b610ac7604051918261046e565b8281528092610ad8601f19916104a7565b0190602036910137565b60405190610aef82610445565b601082526f181899199a1a9b1b9c1cb0b131b232b360811b6020830152565b6001906000198114610b1e570190565b61056061080c565b906020918051821015610b3857010190565b610b40610490565b010190565b9060018201809211610aa857565b90610b66610b618351610a92565b610ab0565b610b6e610ae2565b600093845b8151811015610c275780610bfe610b99610bf8610bad610ba7610b99610c229789610b26565b516001600160f81b03191690565b60f81c90565b610bc8610b99610bc28a5160ff809516610823565b8a610b26565b610bde610bd487610a92565b918d1a918b610b26565b53610bef610ba7610b99878a610b26565b88519116610839565b86610b26565b610c1c610c12610c0d84610a92565b610b45565b91891a9187610b26565b53610b0e565b610b73565b505060405161060f60f31b60208201529293506101199183915061016c90602283019061054d565b9081602091031261000e5751801515810361000e5790565b90604051610cc1610cbb6103166020938481019061030e8161016c610cac856019907865787465726e616c2e636f6e74726163742e6164647265737360381b81520190565b62454e5360e81b815260030190565b93610e11565b604051630178b8bf60e01b8152600481018290526001600160a01b0394851694919291908281602481895afa908115610e04575b600091610de7575b5016918215610dd757604051631ef3fca760e31b815260048101829052610d5f958390829060249082905afa928315610dca575b600093610d98575b505060009192604051808097819463691f343160e01b8352600483019190602083019252565b03915afa928315610d8b575b600093610d7757509190565b61011991933d8091833e6106cf818361046e565b610d93610540565b610d6b565b600093509081610dbc92903d10610dc3575b610db4818361046e565b810190610c4f565b9138610d39565b503d610daa565b610dd2610540565b610d31565b5050509050600090610119610564565b610dfe9150833d85116107635761075b818361046e565b38610cfd565b610e0c610540565b610cf5565b6028805b610e82575050602860002060405160208101917f91d1777781884d03a6757a803996e38de2a42967fb37eeaca72729271025a9e283526040820152604081526060810181811067ffffffffffffffff821117610e75575b60405251902090565b610e7d61042e565b610e6c565b6f181899199a1a9b1b9c1cb0b131b232b360811b91600f9182821684901a600019820153600119019283928260041c161a825360081c91610e15565b90604051610ecb81610445565b600681526020368183013760005b60038110610ee657509150565b610f4d90600f85821a8181169160109182841015610f5f575b6f181899199a1a9b1b9c1cb0b131b232b360811b9384901a610f2c610f26610c0d88610a92565b89610b26565b5360041c1690811015610f52575b1a610c1c610f4783610a92565b85610b26565b610ed9565b610f5a610490565b610f3a565b610f67610490565b610eff565b8015611008576000818181805b610ff05750610f8781610ab0565b935b610f935750505090565b6000198101908111610fe3575b8091600a91610fcd60308484068101809111610fd6575b60f81b6001600160f81b031916861a9187610b26565b53049081610f89565b610fde61080c565b610fb7565b610feb61080c565b610fa0565b9150610ffd600a91610b0e565b910480849291610f79565b5061011961059656fea2646970667358221220370f7ac233137c00af52e0edb9af613a471561c0b859ff0bbabcf8a3c094048964736f6c63430008110033",
    "linkReferences": {}
  },
  "methodIdentifiers": {
    "getColor(address)": "84b5e596",
    "getDepositStringForId(uint256)": "ef21184f",
    "getEns(address)": "de1c7f70",
    "getEthDecimalString(uint256)": "edd148a2",
    "getOperatorsForPool(address)": "a090f9b4",
    "version()": "54fd4d50"
  },
  "id": 6
}